:100000000C942C020C9454020C9454020C94540240
:100010000C9454020C9454020C9454020C94540208
:100020000C9454020C9454020C9454020C945402F8
:100030000C9454020C9454020C9454020C945402E8
:100040000C942B120C9454020C94B30C0C948D0C45
:100050000C9454020C9454020C9454020C945402C8
:100060000C94AB1F0C94540207634236B79BD8A77D
:100070001A39685618AEBAAB558C1D3CB7CC5763CD
:10008000BD6DEDFD753EF6177231BF000000803F7B
:1000900000407A10F35A00A0724E18090010A5D43F
:1000A000E80000E87648170000E40B54020000CA9C
:1000B0009A3B000000E1F5050000809698000000E2
:1000C00040420F000000A086010000001027000041
:1000D0000000E803000000006400000000000A00C7
:1000E000000000000100000000002C76D888DC67CA
:1000F0004F0823DFC1DFAE59E1B1B796E5E3E45322
:10010000C63AE651997696E8E6C28426EB898C9B3E
:1001100062ED407C6FFCEFBC9C9F40F2BAA56FA5DE
:10012000F490055A2AF75C936B6CF9676DC11BFC60
:10013000E0E40D47FEF520E6B500D0ED902E03007B
:10014000943577050080841E080000204E0A0000C8
:1001500000C80C333333330F986E12831141EF8D87
:100160002114893BE65516CFFEE6DB18D1844B38C7
:100170001BF77C1D901DA4BBE424203284725E22F8
:100180008100C9F124ECA1E53D272C22757074692A
:100190006D65223A00226669726D77617265223A56
:1001A00022312E302E306222002268617264776123
:1001B0007265223A2269727269676174696F6E2D85
:1001C00076302E3162222C00226572726F72223AD2
:1001D00022496E76616C6964206368616E6E656C3D
:1001E00022007D007B002261646472657373223A91
:1001F000002C2276616C7565223A002C22706F7398
:100200006974696F6E223A002C2270696E223A007E
:10021000226368616E6E656C223A002C226368610D
:100220006E6E656C73223A5B00226D657472696351
:1002300073223A7B002C226D6F6973747572653579
:10024000223A002C226D6F69737475726534223AFC
:10025000002C226D6F69737475726533223A002C1D
:10026000226D6F69737475726532223A002C226DAB
:100270006F69737475726531223A002C226D6F6953
:10028000737475726530223A002C22666C6F773079
:10029000223A002C22767064223A002C2268656192
:1002A00074496E646578223A002C2268756D696421
:1002B000697479223A002C2274656D7043223A00E9
:1002C0002C2274656D7046223A00226D656D223ACB
:1002D00000537769746368696E67206F66660053C0
:1002E0007769746368696E67206F6E005245535476
:1002F0002073657276696365206C697374656E69D5
:100300006E67206F6E3A2000582D506F77657265CA
:10031000642D42793A2043726F7044726F696400B1
:10032000436F6E74656E742D547970653A206170F8
:10033000706C69636174696F6E2F6A736F6E0048C9
:100340005454502F312E312035303020496E746591
:10035000726E616C20536572766572204572726FA1
:100360007200485454502F312E3120343034204EF6
:100370006F7420466F756E6400485454502F312EB0
:100380003120323030204F4B0044484350204661EA
:10039000696C656400496E697469616C697A696E3B
:1003A000672069727269676174696F6E2E2E2E0004
:1003B00000000000240027002A00000000002300A5
:1003C00026002900040404040404040402020202B6
:1003D0000202030303030303010204081020408008
:1003E000010204081020010204081020950389036B
:1003F000790362033F0320030803EC02DF02D1020A
:10040000CA02C002B602A9029B02930289027B02C1
:100410006D025F0251024302350229021B021002E3
:100420000802FB01F101E601E401E201C80100005C
:100430000000A90195018A010000000025002800A4
:100440002B00000000080002010000030407000068
:10045000000000000000D92011241FBECFEFD8E01B
:10046000DEBFCDBF12E0A0E0B1E0EAEFF6E602C0E9
:1004700005900D92A63CB107D9F725E0A6ECB2E0B5
:1004800001C01D92AD32B207E1F712E0CCE2D2E03A
:1004900004C02197FE010E945A32CB32D107C9F71E
:1004A0000E94F5210C947B330C940000CF92DF92D4
:1004B000EF92FF92CF93DF93B091A703882311F0BF
:1004C000AB2F01C0A0E08091A80390E0880F991F96
:1004D00086549C4FC090AD03D090AE03E090AF0324
:1004E000F090B00320E030E0FC01C591D491E881A8
:1004F000EB23A90160E070E0EA130CC02F5F3F4FCF
:100500004C155D056E057F0578F33FEF2FEF8FEFFC
:100510009FEF03C0322F252FCB01632F722FDF9166
:10052000CF91FF90EF90DF90CF900895CF92DF9220
:10053000EF92FF920F931F93CF93DF93CDB7DEB768
:10054000C054D1400FB6F894DEBF0FBECDBF0E949D
:100550001F120091A9031091AA032091AB033091BF
:10056000AC036B017C01C01AD10AE20AF30A40ED28
:10057000C41647E0D406E104F10418F48091B103F5
:10058000C1C06093A9037093AA038093AB039093B7
:10059000AC031092A4031092A3031092A203109232
:1005A000A1031092A00362E08091A5030E94510C68
:1005B00061E070E080E090E00E94E51161E08091F0
:1005C000A5030E94510C60E08091A5030E94220CBB
:1005D0008091A6038551823028F48BE291E1019746
:1005E000F1F706C064E170E080E090E00E94E51160
:1005F00062E08091A5030E94510C8BE990E0019785
:10060000F1F7F89480E00E9456026F3F7F4F8F4FC2
:100610009F4F21F41092B103789441C081E00E9471
:1006200056026F3F7F4F8F4F9F4FA1F38E010F5F99
:100630001F4F6E012FEBC21A2EEFD20A780180E015
:100640000E945602F701608371838283938381E065
:100650000E945602F7016483758386839783F8E0CE
:10066000EF0EF11CEC14FD0451F7789420E030E01B
:10067000F801C080D180E280F38044815581668199
:100680007781FFEFCF16DF06EF06FF0631F04F3F11
:100690008FEF58076807780721F41092B10380E0C4
:1006A00031C0F90183E0F595E7958A95E1F7E056C9
:1006B000FC4F8081880FC416D506E606F70608F4BD
:1006C000816080832F5F3F4F085F1F4F28323105C5
:1006D00079F62091A40330E04091A0038091A1031A
:1006E00090E0840F911D4091A203840F911D4091D1
:1006F000A303840F911D99272817390771F681E00C
:100700008093B103C05CDE4F0FB6F894DEBF0FBE1E
:10071000CDBFDF91CF911F910F91FF90EF90DF90B0
:10072000CF900895CF93C82F462F61E070E00E94CC
:100730004E1D61E070E08C2F0E94581D8111F9CF91
:10074000CF91089520E5FC012083118208951F9325
:10075000CF93DF9300D0CDB7DEB76CE271E080E0DD
:1007600090E00E94E5111FB7F8948091B2038111C7
:1007700027C0EEECF3E08491E2EEF3E09491E82FF1
:10078000F0E0EE0FFF1FE055FC4FA591B491EC9106
:10079000E92321F461E08AE00E94220C61E08AE012
:1007A0000E94510C8CB580618CBD8CB580648CBD71
:1007B00061E08DE00E94510C61E08BE00E94510CE1
:1007C0008091B2038F5F8093B2031FBF229ACE0144
:1007D00001960E94A20389819A810E94C11D60E84E
:1007E00080E090E00E94331D65E58BE190E00E947F
:1007F000331D65E58AE190E00E94331D0E94C01D13
:1008000080E090E49093C7028093C60280E090E677
:100810009093CF028093CE0280E098E49093C90237
:100820008093C80280E098E69093D1028093D00232
:1008300080E090E59093CB028093CA0280E090E73D
:100840009093D3028093D20280E098E59093CD02FA
:100850008093CC0280E098E79093D5028093D402F5
:100860000F900F90DF91CF911F9108951F93CF9319
:10087000DF93CDB7DEB7C454D1090FB6F894DEBF0D
:100880000FBECDBFFC0182819381A481B5812396E7
:100890008CAF9DAFAEAFBFAF239711E023961FAFD4
:1008A000239723964CAD5DAD6EAD7FAD23974BABDB
:1008B0005CAB6DAB7EAB8DA79EA7AFA7B8AB18ABFB
:1008C0004DA55EA56FA578A94FA358A769A77AA7DC
:1008D0001EAB4BA95CA96DA97EA949A35AA36BA322
:1008E0007CA32FEF31E03C8B2B8B4FEF4D8B4E8B4E
:1008F0004F8B188E3E872D871AA74FA158A569A543
:100900007AA54F87588B698B7A8B1CA349A15AA172
:100910006BA17CA149875A876B877C873A8329839F
:100920008B839C83AD83BE830E94A703CE018D5B26
:100930009F4F0E94A20325968EAD9FAD25970E94E2
:10094000C11D46E050E06AE973E089E090E00E9452
:10095000041DCE0103960E94ED1444E050E0BE0158
:10096000615F7F4F81E090E00E94041D44E050E011
:10097000BE016B5E7F4F85E090E00E94041D0E94E7
:10098000C01D1C8789859A85AB85BC8580937503BE
:1009900090937603A0937703B0937803CC5BDF4FFB
:1009A0000FB6F894DEBF0FBECDBFDF91CF911F9180
:1009B0000895AF92BF92CF92DF92EF92FF920F9382
:1009C0001F93CF93DF9300D0CDB7DEB77A836983CF
:1009D000BA01A901E981FA81F770082F10E0000F30
:1009E000111F02531D4FD8018D919C918E0F9F1F97
:1009F0009F01240F351F21303840A0F07A015B01A0
:100A000060E078E06B01CE1ADF0AA601B5010E9412
:100A1000D41CA7014C195D09B5016C0D7D1DF801B1
:100A2000808191810F900F90DF91CF911F910F9155
:100A3000FF90EF90DF90CF90BF90AF900C94D41CBC
:100A40009F92AF92BF92CF92DF92EF92FF920F935D
:100A50001F93CF93DF93982E8B015A01690164E2B3
:100A600070E00E94581DE82EF12C65E270E0892D9F
:100A70000E94581DFE2CEE24E82AE801CE0DDF1D51
:100A80009E013770E92CF12CC701880F991FAC012A
:100A90004A535D4F7A01FA0180819181820F931F41
:100AA000A9014C0D5D1D4130584090F000E018E068
:100AB000021B130BA801B5010E94041DA601401BD7
:100AC000510BB501600F711FF7018081918102C048
:100AD000A601B5010E94041DCC0DDD1D4D2F64E261
:100AE00070E0892D0E944E1D4C2F65E270E0892D2B
:100AF000DF91CF911F910F91FF90EF90DF90CF90FA
:100B0000BF90AF909F900C944E1DFF920F931F9338
:100B1000CF93DF93F82E00E010E08F2D0E948E1D02
:100B2000EC01892B21F08F2D0E948E1D8C01C017A6
:100B3000D10799F7CE01DF91CF911F910F91FF90CF
:100B400008952F923F924F925F926F927F928F9271
:100B50009F92AF92BF92CF92DF92EF92FF920F934C
:100B60001F93CF93DF93CDB7DEB7E2970FB6F8941C
:100B7000DEBF0FBECDBF7C012A013B0169010E948F
:100B80001F124B015C0187010D5B1F4FC8010E94C2
:100B9000761118161906A4F00E941F12DC01CB0171
:100BA00088199909AA09BB09481659066A067B06DD
:100BB000D8F062E370E080E090E00E94E511E6CFBB
:100BC00042E250E0BE016F5F7F4FC8010E94920F6A
:100BD0008981823011F080E060C1F80184899589B3
:100BE00083349105C1F702C08FEF57C16D817E81BB
:100BF0008F8198850E9453324B015C01F60160831E
:100C000071838283938346E050E0B701685F7F4F32
:100C1000CE014D960E942B33892BE9F6F701808196
:100C20009181A281B38188169906AA06BB0698F223
:100C300084819581A681B78188159905AA05BB0590
:100C400050F289899A89AB89BC8986879787A08B5E
:100C5000B18B8EECC82ED12CC8010E94B10FF1E0EF
:100C6000CF1AD108C9F7712CC70182969AA789A714
:100C7000F701B696FCA7EBA708969EA78DA73C9711
:100C80004F01899698AB8FA73897FAABE9AB17015C
:100C9000F6E12F0E311C27018EE1480E511CF801A0
:100CA000818D928D181619060CF0F6C0C8010E94AD
:100CB000B10F8333910509F4C9C0F4F48130910573
:100CC000B9F11CF4892B59F3DBC083309105C1F1D4
:100CD000069709F0D5C0C8010E94B10F6C0144E02D
:100CE00050E0B201C8010E94920FA12CB12CDD246A
:100CF00094E0C91AD1083FC08A33910509F47AC03B
:100D00003CF48533910561F0C69709F43FC0B8C043
:100D10008B33910509F484C08F3F910501F2B0C077
:100D2000C8010E94B10FC8010E94B10F782EB7CF41
:100D3000C8010E94B10F44E050E069A97AA93AC005
:100D4000C8010E94B10F6C0144E050E0B101C8013C
:100D50000E94920FA12CB12CDD24F4E0CF1AD1080F
:100D6000AC14BD040CF09BCFC8010E94B10F8FEFF3
:100D7000A81AB80AF5CFAC14BD040CF090CFC80186
:100D80000E94B10FEFEFAE1ABE0AF5CFC8010E9464
:100D9000B10F682EF701828D811110C0838D8111F2
:100DA0000DC0848D81110AC0858D811107C044E07A
:100DB00050E0B401C8010E94920F71CFEFA5F8A9CD
:100DC000A080B180C280D380B401CE0183960E94FE
:100DD000E50C8DA19EA1AFA1B8A5A816B906CA06BB
:100DE000DB0629F3662009F45ACFC8010E94B10F2F
:100DF0006A94F8CFC8010E94B10F44E050E06BA59F
:100E00007CA5C8010E94920FF70166A177A180A579
:100E100091A50E94533266A377A380A791A73FCFE5
:100E2000C8010E94B10F44E050E06DA57EA5C80145
:100E30000E94920FF70162A573A584A595A50E9453
:100E4000533262A773A784A795A729CFC8010E9430
:100E5000B10F44E050E069A57AA5C8010E94920F45
:100E6000F70162A173A184A195A10E94533262A3EC
:100E700073A384A395A366A777A780AB91AB0FCF8D
:100E8000C8010E94B10FD82EDD2009F408CFC80197
:100E90000E94B10FDA94F8CF872DE2960FB6F8943E
:100EA000DEBF0FBECDBFDF91CF911F910F91FF909D
:100EB000EF90DF90CF90BF90AF909F908F907F90FA
:100EC0006F905F904F903F902F90089520E3FC012A
:100ED00020833296862F82958F7090E1899F6019CA
:100EE00011246A3014F4605D01C0695C6293682F5C
:100EF0008111F0CF0895833081F028F4813099F08A
:100F00008230A1F008958730A9F08830B9F084309C
:100F1000D1F4809180008F7D03C0809180008F7715
:100F200080938000089584B58F7702C084B58F7D4B
:100F300084BD08958091B0008F7703C08091B00088
:100F40008F7D8093B0000895FC01538D448D252F33
:100F500030E0842F90E0821B930B541710F0CF9653
:100F6000089501970895FC01918D828D981761F085
:100F7000828DDF01A80FB11D5D968C91928D9F5FD0
:100F80009F73928F90E008958FEF9FEF0895FC017B
:100F9000918D828D981731F0828DE80FF11D858D2E
:100FA00090E008958FEF9FEF0895FC01918D228DC1
:100FB000892F90E0805C9F4F821B91098F73992746
:100FC0000895FC01848DDF01A80FB11DA35ABF4F06
:100FD0002C91848D90E001968F739927848FA68938
:100FE000B7892C93A089B1898C91837080648C938C
:100FF000938D848D981306C00288F389E02D80813B
:101000008F7D80830895EF92FF920F931F93CF936C
:10101000DF93EC0181E0888F9B8D8C8D981305C048
:10102000E889F989808185FD26C0F62E0B8D10E0B8
:101030000F5F1F4F0F731127E02E8C8DE8120CC02D
:101040000FB607FCFACFE889F989808185FFF5CFD3
:10105000CE010E94E107F1CF8B8DFE01E80FF11D5B
:10106000E35AFF4FF0829FB7F8940B8FEA89FB8910
:10107000808180620AC09FB7F894EE89FF896083FF
:10108000E889F98980818370806480839FBF81E0D3
:1010900090E0DF91CF911F910F91FF90EF90089515
:1010A000CF93DF93EC01888D8823C9F0EA89FB890F
:1010B000808185FD05C0A889B9898C9186FD0FC006
:1010C0000FB607FCF5CF808185FFF2CFA889B989DB
:1010D0008C9185FFEDCFCE010E94E107E7CFDF9134
:1010E000CF91089508950E9426337F928F929F9208
:1010F000AF92BF92CF92DF92EF92FF920F931F9326
:10110000CF93DF93CDB7DEB7A6970FB6F894DEBFC7
:101110000FBECDBF8C01762E942E852E20E2B22EEE
:10112000CE0101967C01FC012B2D11922A95E9F745
:101130008FEF91E09AA389A38FEF8BA38CA38DA34C
:101140008EA3680183E4C80ED11C43E450E0BE01C5
:101150006F5D7F4FC6010E94C41D019609F4B9C09E
:1011600081E089838A8386E0A82EAB821C82F80105
:1011700064817581868197810E9453326D837E835D
:101180008F83988789869A8680E890E09C878B87F2
:101190004CE150E0B701C6010E94C110F7012B2DB0
:1011A00011922A95E9F7480188E0880E911CF40114
:1011B000D70101900D92AA94E1F740E150E0B70108
:1011C000C6010E94C110F7011192BA94E9F796E0A6
:1011D000A92EB12C40E250E0B701C6010E94C11017
:1011E000F1E0AF1AB108B1F783E6898392E89A83F8
:1011F00093E59B838C8385E38D8381E08E837F825F
:101200009DE3988797E099878A8786E0F401DE015D
:101210001B9601900D928A95E1F78CE0898B8A8B61
:1012200064E672E0CE0143960E945733F80163856D
:10123000CE0149960E946607F8016485CE014B965F
:101240000E946607F8016585CE014D960E946607EB
:101250004EE150E0B701C6010E94C110F3E07F12D9
:101260001EC082E3898384E08A83F80196859B838C
:1012700097859C8390899D8391899E8396E39F8324
:101280008887828D8987838D8A87848D8B87858DDA
:101290008C874CE050E0B701C6010E94C11087E383
:1012A000898386E08A8391E09B8393E09C838D838E
:1012B0008FE08E838AE38F838BE388878FEF898724
:1012C00049E050E0B701C6010E94C110C6010E946A
:1012D000E30FA6960FB6F894DEBF0FBECDBFDF9129
:1012E000CF911F910F91FF90EF90DF90CF90BF9023
:1012F000AF909F908F907F9008954F925F926F92E2
:101300007F928F929F92AF92BF92CF92DF92EF9295
:10131000FF920F931F93CF93DF93CDB7DEB7639701
:101320000FB6F894DEBF0FBECDBF7C015B013A0162
:10133000FB0120E080E090E06AE03191332309F185
:1013400040ED430F4A3080F4689FA001699F500D23
:101350001124CA01C097830F911D37FD9A958F3FC5
:10136000910559F350F313C03E3289F4233079F0DC
:10137000D301A20FB11D12968C932F5F80E090E0F5
:10138000DCCF233021F4F301858381E021C0F70114
:10139000428153816481758180917D0390917E03A8
:1013A000A0917F03B0918003481759076A077B0714
:1013B00009F495C10E941F128701085F1F4F6F70CB
:1013C00077277C5FC8010E947E1F813019F080E082
:1013D00090E0F8C18FEF91E09A838983F7018281D1
:1013E0009381A481B5818B839C83AD83BE8345E3C8
:1013F00050E0BE016F5F7F4FC8010E94C41D892B62
:1014000019F4C12CD12C66C10E941F12F7017783F9
:1014100066837627672776277A83698342E050E0E0
:10142000BE016F5F7F4FC8010E94C11081E090E054
:101430009E878D8742E050E0BE01635F7F4FC80109
:101440000E94C11080E091E09E878D8742E050E0CD
:10145000BE01635F7F4FC8010E94C1101E861D86BA
:1014600042E050E0BE01635F7F4FC8010E94C1109F
:1014700042E050E0BE01635F7F4FC8010E94C1108F
:1014800042E050E0BE01635F7F4FC8010E94C1107F
:101490004501F5018081882301F164015601F601BF
:1014A00081912F01882321F08E3211F06201F6CF55
:1014B000C818D9081C141D0474F4CF8641E050E00C
:1014C000BE01615F7F4FC8010E94C110A601B40137
:1014D000C8010E94C1104201DCCF1F8641E050E0EC
:1014E000BE01615F7F4FC8010E94C110C12CDD2485
:1014F000D394DE86CD8642E050E0BE01635F7F4F2D
:10150000C8010E94C110DE86CD8642E050E0BE01D7
:10151000635F7F4FC8010E94C110C8010E94E30FA2
:10152000892B09F46ECFE3E0AE2EB12C230122E02B
:10153000420E511C0E941F123B014C01C8010E9427
:10154000761118161906A4F00E941F12DC01CB01B7
:1015500086199709A809B90989389341A105B105E8
:10156000D0F462E370E080E090E00E94E511E6CF05
:10157000F7014281538164817581808D918DA28DA7
:10158000B38D481759076A077B0749F4848D958DF9
:10159000C59729F409C0CC24CA94DC2C92C05EEF14
:1015A000C52EDD24DA948DC0F70181A192A10C979C
:1015B0000CF49DC04CE050E0BE016F5F7F4FC8014E
:1015C0000E94920F8B819C819827892798279A8B5C
:1015D000898B29813A81322723273227F7014681D7
:1015E00057812417350709F07DC097FF7BC08F70A6
:1015F0009270892B09F0E1C06F807884762467248B
:1016000076246114710409F4D3C0C12CD12C8D81CE
:101610009E81982789279827C816D90608F46CC098
:10162000812C912C41E050E0BE016D5E7F4FC801DE
:101630000E94920F8B89982F907C09F08FC08111A6
:1016400083C042E050E0BE01615F7F4FC8010E944D
:10165000920F42E050E0BE01635F7F4FC8010E94DD
:10166000920FC8010E94B10FC8010E94B10FC801BA
:101670000E94B10FC8010E94B10F42E050E0BE01CC
:101680006F5E7F4FC8010E94920F8F8598898115E8
:10169000914009F06BC0CD84DE84DC24CD24DC24B1
:1016A00081E0C816D10409F061C089899A89811541
:1016B000944009F078C044E050E0B201C8010E94B3
:1016C000920F81E0A81AB10829F0FFEFCF16DF06CC
:1016D00009F430CFC8010E94061FC60173C08EEF07
:1016E0009FEF70C04CEFC42EDD24DA94EACF9DEF5B
:1016F000C92EDD24DA94E5CF41E050E0BE01635FFE
:101700007F4FC8010E94920F8D85882351F08D85EF
:101710009FEF980F9D87882321F0C8010E94B10F89
:10172000F6CF8D858111E8CFC8010E94B10FC801A5
:101730000E94B10FC8010E94B10FC8010E94B10FF1
:10174000FFEFCF1ADF0A63CF8B899FEF980F9B8B38
:10175000882341F0C8010E94B10FF6CFC8010E9452
:10176000B10F1B8A8B8981115DCF6BCFC12CD12C1E
:1017700089899A89982789279827C816D90638F41D
:10178000C8010E94B10FFFEFCF1ADF0AF1CF2FEF90
:10179000821A920A6814790409F044CF26EFC22E07
:1017A000DD24DA948ECF77EFC72EDD24DA9489CF4B
:1017B0003AEFC32EDD24DA9484CF8BEFC82EDD24DC
:1017C000DA947FCF63960FB6F894DEBF0FBECDBF1D
:1017D000DF91CF911F910F91FF90EF90DF90CF900D
:1017E000BF90AF909F908F907F906F905F904F9041
:1017F0000895CF93DF93282F30E0F901EE5BFB4F84
:101800008491F901E852FC4FD491F901EC53FC4F5B
:10181000C491CC2391F081110E947B07EC2FF0E062
:10182000EE0FFF1FE654FC4FA591B491EC91ED2310
:1018300081E090E021F480E002C080E090E0DF9160
:10184000CF9108951F93CF93DF93282F30E0F901B4
:10185000EE5BFB4F8491F901E852FC4FD491F90102
:10186000EC53FC4FC491CC23C1F0162F81110E9480
:101870007B07EC2FF0E0EE0FFF1FE85CFB4FA5911C
:10188000B4919FB7F894111104C08C91D095D823CE
:1018900002C0EC91DE2BDC939FBFDF91CF911F91B3
:1018A0000895CF93DF9390E0FC01E852FC4F249120
:1018B000FC01EC53FC4F8491882361F190E0880F88
:1018C000991FFC01E055FC4FC591D491FC01E85CE7
:1018D000FB4FA591B491611109C09FB7F89488811D
:1018E000209582238883EC912E230BC0623061F413
:1018F0009FB7F8948881322F309583238883EC91A9
:101900002E2B2C939FBF06C08FB7F894E8812E2B07
:1019100028838FBFDF91CF9108951F920F920FB64A
:101920000F9211242F933F934F935F936F937F9365
:101930008F939F93AF93BF93EF93FF9386ED92E0C6
:101940000E94E107FF91EF91BF91AF919F918F911D
:101950007F916F915F914F913F912F910F900FBEAB
:101960000F901F9018951F920F920FB60F9211248F
:101970002F938F939F93EF93FF93E091E602F09163
:10198000E7028081E091EC02F091ED0282FD12C04D
:1019900090818091EF028F5F8F732091F002821708
:1019A00051F0E091EF02F0E0EA52FD4F958F809305
:1019B000EF0201C08081FF91EF919F918F912F9154
:1019C0000F900FBE0F901F901895DC018FEF91E0E4
:1019D0008D939D9384E0FB0101900D928A95E1F730
:1019E0000895CF93DF93FC0124813581232B69F087
:1019F000C081D181062E000C770BCE010E944C33A2
:101A0000009719F08C1B9D0B02C08FEF9FEFDF91A9
:101A1000CF910895EF92FF920F931F93CF93DF938F
:101A2000EC017B018A0188819981009729F02A8144
:101A30003B8124173507F8F4B8016F5F7F4F0E9490
:101A40006032009759F0998388831B830A832C8125
:101A50003D81232B81F4FC0110820DC08881998186
:101A6000009711F00E946829198218821D821C8239
:101A70001B821A8207C01D830C83B701888199815C
:101A80000E945733CE01DF91CF911F910F91FF90AC
:101A9000EF900895AF92BF92CF92DF92EF92FF92B4
:101AA0000F931F93CF93DF938C015B01EA016901D0
:101AB0002417350720F48D2FE901C42ED82ED80124
:101AC00011961C921E9213961C921E9212971596B6
:101AD0001C921E92149740E050E06DE672E0C8013F
:101AE0000E940A0DF501E480F580CE15DF05C8F5EA
:101AF000CE14DF0408F47601D501ED91FC91119725
:101B0000EE0DFF1DD08010826D917C916C0F7D1FBA
:101B10006115710561F0FB0101900020E9F7319733
:101B2000AF01461B570BC8010E940A0D13C0F801F4
:101B300080819181009711F00E946829D801119647
:101B40001C921E9215961C921E92149713961C922C
:101B50001E921297F50180819181FC01EE0DFF1D0F
:101B6000D082C801DF91CF911F910F91FF90EF902C
:101B7000DF90CF90BF90AF9008958E3008F08E50D8
:101B80002091000190E4299F900111248770822BFD
:101B900080937C0080917A00806480937A008091A9
:101BA0007A0086FDFCCF809178002091790090E04A
:101BB000922B08958F929F92AF92BF92EF92FF92D5
:101BC0000F931F93CF93DF93CDB7DEB7A1970FB6D7
:101BD000F894DEBF0FBECDBF7C01FA01CB0119A284
:101BE000223008F42AE08E010F5D1F4F822E912CC7
:101BF000A12CB12CBF01A50194010E949E2FF901D7
:101C0000CA01015011096A3014F4605D01C0695CB9
:101C1000D8016C93232B242B252B61F7B801C70126
:101C20000E94D011A1960FB6F894DEBF0FBECDBFB3
:101C3000DF91CF911F910F91FF90EF90BF90AF90E8
:101C40009F908F9008958F929F92AF92BF92CF9264
:101C5000DF92EF92FF920F931F93CF93DF937C015C
:101C6000EB016C0182E0C80ED11C4701E5E08E0E4D
:101C7000911C00E010E0F60141916F0150E060E03E
:101C800070E02AE0CE010E94DA0D5C01E881F98162
:101C90000190F081E02D6EE2CE0109958A0D9B1D29
:101CA000080F191F8C149D0431F7F701458150E08E
:101CB00060E070E02AE0CE010E94DA0D800F911FF3
:101CC000DF91CF911F910F91FF90EF90DF90CF9018
:101CD000BF90AF909F908F9008956BE672E00C9448
:101CE000D0110F931F93CF93DF93EC010E94D0117B
:101CF0008C01CE010E946D0E800F911FDF91CF915C
:101D00001F910F910895CF92DF92EF92FF920F9360
:101D10001F93CF93DF936C017A018B01C0E0D0E079
:101D2000CE15DF0581F0D8016D918D01D601ED91C1
:101D3000FC910190F081E02DC6010995892B11F0ED
:101D40002196EECF7E01C701DF91CF911F910F91B8
:101D5000FF90EF90DF90CF9008953FB7F894809177
:101D6000F0039091F103A091F203B091F30326B533
:101D7000A89B05C02F3F19F00196A11DB11D3FBFC3
:101D8000BA2FA92F982F8827820F911DA11DB11D51
:101D9000BC01CD0142E0660F771F881F991F4A954D
:101DA000D1F70895CF93DF931F92CDB7DEB7698344
:101DB000DC01ED91FC910280F381E02D41E050E0E7
:101DC000BE016F5F7F4F09950F90DF91CF9108950E
:101DD000FC019485FB018485981303C081E0943055
:101DE00009F480E0089521E0FC018485843009F441
:101DF00020E0822F08950895CF93DF931F92CDB7EF
:101E0000DEB76983DC01ED91FC910280F381E02D66
:101E100041E050E0BE016F5F7F4F09950F90DF9169
:101E2000CF910895DC01ED91FC91068CF78DE02DAA
:101E3000099591E089270895862F089581E08627E6
:101E400008950895CF93DF931F92CDB7DEB76983CE
:101E5000DC01ED91FC910280F381E02D41E050E046
:101E6000BE016F5F7F4F09950F90DF91CF9108956D
:101E70000F931F93CF93DF931F92CDB7DEB78C01E3
:101E8000DC01ED91FC910084F185E02D0995892B11
:101E900051F0BE016F5F7F4FF80184850E94081EDC
:101EA000898190E002C08FEF9FEF0F90DF91CF917B
:101EB0001F910F910895CF93DF931F92CDB7DEB797
:101EC000FC01218D328D232B49F0BE016F5F7F4FC6
:101ED000808D0E94081E898190E002C08FEF9FEFE5
:101EE0000F90DF91CF910895FC0184850C946A1EB8
:101EF000CF93DF931F92CDB7DEB741E050E0BE0134
:101F00006F5F7F4FFC0184850E946A1E18161906B8
:101F10001CF4898190E002C08FEF9FEF0F90DF915A
:101F2000CF910895CF93DF93FC01218D328D211540
:101F3000310519F48FEF9FEF11C0EC0142175307E1
:101F400008F0A901888D0E946A1E1816190694F7D8
:101F5000298D3A8D281B390B3A8F298FDF91CF912C
:101F600008950F931F93CF93DF931F92CDB7DEB7E2
:101F7000FC01218D328D232B61F08C0141E050E07A
:101F8000BE016F5F7F4F808D0E946A1E1816190672
:101F90001CF08FEF9FEF08C0F801818D928D0197A3
:101FA000928F818F898190E00F90DF91CF911F9167
:101FB0000F910895FC018485843011F00C943D1E2E
:101FC00080E090E008951F93CF93DF9300D0CDB7CA
:101FD000DEB7FC01108DCE0101960E94A20389811B
:101FE0009A810E94C11D60E270E0812F0E949203DD
:101FF00062E070E0812F0E94581D84FD1DC062E0E8
:1020000070E0812F0E94581D83FF0BC048E162E001
:1020100070E0812F0E944E1D0E94C01D80E090E064
:1020200015C00E94C01DCE0101960E94A2038981A5
:102030009A810E94C11DDCCF40E162E070E0812FF7
:102040000E944E1D0E94C01D81E090E00F900F90F5
:10205000DF91CF911F9108956F927F928F929F92FF
:10206000AF92BF92CF92DF92EF92FF920F931F93A6
:10207000CF93DF9300D0CDB7DEB75C013B016A019F
:10208000FC011485143041F481E090E0F501938364
:10209000828380E090E064C07A014130584018F0BB
:1020A000E12C88E0F82ECE0101960E94A2038981DE
:1020B0009A810E94C11D812F0E9485054C0163E019
:1020C00070E0812F0E94581D082F0E94C01D07310B
:1020D00011F00C3121F48E149F0428F302C0E12C7E
:1020E000F12CCE0101960E94A20389819A810E945F
:1020F000C11D9701A30160E070E0812F0E942005BF
:1021000060E270E0812F0E94920362E070E0812F14
:102110000E94581D84FD18C063E070E0812F0E946A
:10212000581D811106C00E94C01D812F0E94E61E0D
:10213000ABCF0E94C01DCE0101960E94A2038981EF
:102140009A810E94C11DE1CF40E162E070E0812FE1
:102150000E944E1D0E94C01DEF2809F495CFC601B4
:102160000F900F90DF91CF911F910F91FF90EF9003
:10217000DF90CF90BF90AF909F908F907F906F90A7
:1021800008958F929F92AF92BF92DF92EF92FF924B
:102190000F931F93CF93DF9300D0CDB7DEB77C01B1
:1021A0004B018A01FC01A688B788D08CCE0101962C
:1021B0000E94A20389819A810E94C11D8D2D0E94D7
:1021C00085058017910720F48D2D0E9485058C01CF
:1021D0009801A401B5018D2D0E9420050E94C01D0B
:1021E000F70186899789800F911F978B868BC8018D
:1021F0000F900F90DF91CF911F910F91FF90EF9073
:10220000DF90BF90AF909F908F900895BF92CF9234
:10221000DF92EF92FF920F931F93CF93DF9300D043
:1022200000D000D0CDB7DEB7FC01208D243009F0FE
:102230004CC06A017B018C01B12C63E070E08B2DF6
:102240000E94581D811103C0F801B08E06C088316C
:10225000D9F3B394F4E0BF12F0CFF801808D84304D
:10226000A1F196E0E7E0F2E0DE01119601900D9217
:102270009A95E1F7F70193819F779C8394819D83E1
:1022800095819E83B7016E5F7F4F0E94B71DB60197
:10229000F801808D0E94A61DF801808D90E0982F96
:1022A000882746E050E0BE016F5F7F4F8A5F9B4FFB
:1022B0000E94041DF801128E118E20E8A60162E032
:1022C000808D0E941B1F81E001C080E026960FB622
:1022D000F894DEBF0FBECDBFDF91CF911F910F915C
:1022E000FF90EF90DF90CF90BF9008950F931F93D2
:1022F000CF93DF93CDB7DEB728970FB6F894DEBF44
:102300000FBECDBF8C01D80159968D919C915A97E3
:10231000892B41F0ED91FC910284F385E02DC801F9
:102320000995F1CFF801808D0E943D1E18161906FF
:1023300054F548E050E0BE016F5F7F4FD8015896DA
:102340008C910E946A1E18161906FCF4D80150964A
:1023500084E0FE01319601900D928A95E1F78D811E
:1023600090E0982F88272E81820F911DF801958B80
:10237000848B8F8190E0982F88272885820F911D6C
:10238000928F818F02C080E090E028960FB6F8947B
:10239000DEBF0FBECDBFDF91CF911F910F9108958A
:1023A0006115710579F0FB0101900020E9F7319783
:1023B000AF01461B570BDC01ED91FC910280F381CC
:1023C000E02D099480E090E008958F929F92AF9263
:1023D000BF92CF92DF92EF92FF926B017C010E943D
:1023E000AD0E4B015C01C114D104E104F104F1F024
:1023F0000E94AD0EDC01CB0188199909AA09BB091D
:10240000883E9340A105B10570F321E0C21AD108BE
:10241000E108F10888EE880E83E0981EA11CB11C2B
:10242000C114D104E104F10419F7DDCFFF90EF905E
:10243000DF90CF90BF90AF909F908F9008952FB76F
:10244000F8946091EC037091ED038091EE0390910C
:10245000EF032FBF08951F920F920FB60F92112412
:102460002F933F938F939F93AF93BF938091EC03F0
:102470009091ED03A091EE03B091EF033091EB0347
:1024800023E0230F2D3720F40196A11DB11D05C0B7
:1024900026E8230F0296A11DB11D2093EB03809324
:1024A000EC039093ED03A093EE03B093EF038091C0
:1024B000F0039091F103A091F203B091F303019620
:1024C000A11DB11D8093F0039093F103A093F2033B
:1024D000B093F303BF91AF919F918F913F912F9153
:1024E0000F900FBE0F901F901895FC0184858430CB
:1024F00011F00C94641F80E008958F929F92AF9228
:10250000BF92CF92DF92EF92FF920F931F93CF93E0
:10251000DF93CDB7DEB72F970FB6F894DEBF0FBEAF
:10252000CDBF7C0100E010E038EE832E33E0932E27
:10253000A12CB12C4FEBC42E41E0D42E1C821B8267
:102540008D829E82AF82B886DA82C9820D87CE01E3
:1025500001960E947512811129C0F70144815581AD
:1025600020E061E0802F0E941B1FCE010E960E948A
:10257000A2038E859F850E94C11D63E070E0802FBD
:102580000E94581D833129F462E070E0802F0E9480
:1025900092030E94C01DF70184819581000F111FD5
:1025A000F801ED51FC4F9183808305C00F5F1F4FF1
:1025B0000430110519F62F960FB6F894DEBF0FBE42
:1025C000CDBFDF91CF911F910F91FF90EF90DF90E2
:1025D000CF90BF90AF909F908F900895CF93DF934F
:1025E000FC0124852430D1F0EC010E947512843165
:1025F00081F0882371F0883161F08C3161F4E881D9
:10260000F9810084F185E02DCE01099521E0892B27
:1026100019F420E001C021E0822F01C080E0DF91A9
:10262000CF910895CF92DF92EF92FF920F931F9375
:10263000CF93DF9300D0CDB7DEB7DC011C96FC90C2
:10264000B4E0FB16F1F18C01CE0101960E94A203C9
:1026500089819A810E94C11D68E070E08F2D0E94DF
:1026600092030E94C01D0E941F126B017C01C801D1
:102670000E9475128823B9F061E070E080E090E07C
:102680000E94E5110E941F12DC01CB018C199D09EB
:10269000AE09BF09883E9340A105B10540F3F8019A
:1026A00084850E94E61ED8011C96EC911C97F0E0F0
:1026B000EE0FFF1FED51FC4F1182108284E01C963B
:1026C0008C930F900F90DF91CF911F910F91FF90FE
:1026D000EF90DF90CF9008954F925F926F927F922C
:1026E0008F929F92AF92BF92CF92DF92EF92FF9222
:1026F0001F93CF93DF93CDB7DEB72D970FB6F89426
:10270000DEBF0FBECDBF7C0193EEC92E93E0D92E64
:1027100010E0A12CB12C28EE422E23E0522E612C89
:10272000712C3FEB832E31E0932E1C821B824D8255
:102730005E826F8278869A8289821D87D6012D916A
:102740003D916D01F7018481958128173907B1F416
:10275000CE0101960E947512843169F0CE01019676
:102760000E9475128C3151F4CE0101960E94DA0F4D
:10277000892B91F003C0AA24A394B12C1F5F1430BD
:10278000A1F6AB2871F4D701ED91FC910084F1859D
:10279000E02DC701099505C0CE0101960E941213D4
:1027A000EDCF2D960FB6F894DEBF0FBECDBFDF91F3
:1027B000CF911F91FF90EF90DF90CF90BF90AF909F
:1027C0009F908F907F906F905F904F9008953F9271
:1027D0004F925F926F927F928F929F92AF92BF9231
:1027E000CF92DF92EF92FF920F931F93CF93DF93DD
:1027F000CDB7DEB72D970FB6F894DEBF0FBECDBFB5
:102800006C015B014A010E946C1383EEE82E83E0A9
:10281000F82E312C00E010E098EE492E93E0592E6E
:10282000612C712C1C821B824D825E826F827886A5
:102830008FEB91E09A8389833D86F7012191319155
:102840007F01F601848195812817390731F4CE0183
:1028500001960E9475128731E9F03394F4E03F123B
:10286000E1CFC8012D960FB6F894DEBF0FBECDBFE5
:10287000DF91CF911F910F91FF90EF90DF90CF905C
:10288000BF90AF909F908F907F906F905F904F9090
:102890003F900895A401B501CE0101960E942C102D
:1028A000080F191FDACFAF92BF92DF92EF92FF921B
:1028B0000F931F93CF93DF9300D0CDB7DEB7FC010A
:1028C0002485243009F078C05A018B017C01D12C79
:1028D0008D2D0E94641F811103C0F701D48607C0AB
:1028E0008B7F8831D1F3D394F4E0DF12F1CFF7017D
:1028F0008485843009F460C0209101013091020187
:102900002F5F3F4F11F420E030EC30930201209311
:102910000101409101015091020120E061E00E941B
:102920001B1FF80182818F3F51F483818F3F99F4FF
:1029300084818F3F81F485818F3F69F43AC0811192
:102940000AC0F8018381811106C08481811103C00E
:102950008581882371F1A114B10459F1F701D48460
:10296000CE0101960E94A20389819A810E94C11D15
:10297000B8016E5F7F4F8D2D0E94B71DB5018D2D63
:102980000E94A61D64E070E08D2D0E9492030E94BB
:10299000C01DC7010E947512873189F061E070E0A7
:1029A00080E090E00E94E511C7010E94751281113C
:1029B000F0CF84E0F701848780E090E002C081E0FE
:1029C00090E00F900F90DF91CF911F910F91FF90AA
:1029D000EF90DF90BF90AF90089544E050E0BC01CD
:1029E0008FE090E00C94041DAF92BF92CF92DF92E3
:1029F000EF92FF920F931F93CF93DF93CDB7DEB784
:102A0000AF970FB6F894DEBF0FBECDBF7C015B0160
:102A10006A010FEF11E01A8309831B821C821D8259
:102A20001E82CE0109960E944F1C1BA70AA71CA656
:102A30001DA61EA61FA68091750390917603A091F6
:102A40007703B09178038EA39FA3A8A7B9A78B8320
:102A50009C83AD83BE8318861F82AE01465D5F4FA7
:102A6000B501CE0101960E947D0981309105B1F436
:102A7000D701ED91FC910684F785E02D1DA30CA3F1
:102A80008CA59DA5AEA5BFA58EA39FA3A8A7B9A7FA
:102A9000A601BE016C5D7F4FC7010995AF960FB6C9
:102AA000F894DEBF0FBECDBFDF91CF911F910F9184
:102AB000FF90EF90DF90CF90BF90AF900895CF93AD
:102AC000DF93C7E5D1E0688180E090E00E94D520E7
:102AD000698181E090E00E94D5206A8182E090E0E7
:102AE0000E94D5206B8183E090E00E94D5206C810C
:102AF00084E090E00E94D5206D8185E090E00E9406
:102B0000D52060EC86E090E00E94D52068EA87E05E
:102B100090E00E94D52060E088E090E00E94D520FF
:102B20006EE589E090E0DF91CF910C94D5202F9253
:102B30003F924F925F926F927F928F929F92AF924D
:102B4000BF92CF92DF92EF92FF920F931F93CF939A
:102B5000DF93CDB7DEB7C459D2400FB6F894DEBFCD
:102B60000FBECDBF0E941F124B015C0103E011E0BC
:102B7000F7E52F2EF1E03F2E412C512C32014A94E3
:102B8000F80180819181A281B3818F3F9105A105D8
:102B9000B105B9F1C480D580E680F780A501940124
:102BA0002C193D094E095F09C757DD4F288339832A
:102BB0004A835B83C958D2404085518562857385BD
:102BC000C757DD4FC880D980EA80FB80C958D24002
:102BD0004C155D056E057F05A0F460E00E94220C97
:102BE000D8014D925D926D927C921397F8011482F8
:102BF00015821682178218961D921D921D921C92A4
:102C00001B97045F1F4F2016310609F0B9CF8EE8DD
:102C100093E00E946C1303EE13E0B12C78EE472E84
:102C200073E0572E612C712CEFEB8E2EE1E09E2E7F
:102C30001C821B824D825E826F8278869A82898294
:102C4000BD86F801219131918F018091920390917D
:102C500093032817390711F5CE0101960E947512CA
:102C6000873111F08C31D1F4CE0101960E94DA0F38
:102C7000892BA1F02B813C818D819E81AF81B8850C
:102C8000C984DA84EB84FC84CF56DD4FC882D982B4
:102C9000EA82FB82C159D240BD840BC0B39464E088
:102CA000D62EBD10C5CF88EE93E0A0E0B0E020E0C6
:102CB00030E03093840320938303809385039093C3
:102CC0008603A0938703B0938803CF56DD4FC88057
:102CD000D980EA80FB80C159D240C0928903D0924A
:102CE0008A03E0928B03F0928C03B0928D038E01E5
:102CF00008581E4F8FEFD8011D928A95E9F7B4E06E
:102D0000BB1699F078016E01E9E8CE1AEDEFDE0A04
:102D100006C081E893E00E94DA0F892B41F481E834
:102D200093E00E94EE128111F4CF10E0A9C481E873
:102D300093E00E94780F8A3049F08D3039F0CE143C
:102D4000DF0421F0D7018D937D01E9CFC358DD4F1A
:102D500019821882CD57D240C158DD4F198218828E
:102D6000CF57D240CF57DD4F19821882C158D24079
:102D7000F80101900020E9F73197AF01401B510B9A
:102D8000B801CE0183589D4F0E940A0D60E2CE012A
:102D900083589D4F0E94F10C9C0140E050E0BE0121
:102DA00063587D4FC6010E944A0D6FE2CE018358E1
:102DB0009D4F0E94F10C7C01CF57DD4F8881998196
:102DC000C158D240E816F90698F4C358DD4FA880E0
:102DD000B980CD57D24060E270E0C5018E0D9F1DD5
:102DE0000E944C33009721F09C012A193B0902C034
:102DF0002FEF3FEFA701BE0163587D4FCE01019633
:102E00000E944A0DC358DD4F88819981CD57D24029
:102E10000097E9F069817A8161157105B1F0C158B7
:102E2000DD4F48815981CF57D2402D813E814217D5
:102E3000530758F00E9457338D819E81CF57DD4F45
:102E400099838883C158D2401CC00E946829898117
:102E50009A81C358DD4F99838883CD57D2408B81A7
:102E60009C81C158DD4F99838883CF57D2408D8193
:102E70009E81CF57DD4F99838883C158D2401A82F3
:102E8000198289819A810E946829CF57DD4FE88095
:102E9000F980C158D240E114F10411F4F80114C0D2
:102EA000FEEFEF16F10418F05EEFE52EF12CC3589B
:102EB000DD4F68817981CD57D240A701C8010E94BA
:102EC0006C33F801EE0DFF1D10826EE672E0C80152
:102ED0000E94B62B8C016EE672E080E090E00E94CA
:102EE000B62B7C016EE672E080E090E00E94B62B8B
:102EF0005C0145E050E060E772E0C8010E945E338B
:102F0000892B09F0E0C16FE172E0CE0101960E94C9
:102F10005733EAE1F4E06591749186E194E00E9410
:102F2000AF2B66E174E0CE0101960E944133E0E0F0
:102F3000F4E06591749186E194E00E94AF2B66E124
:102F400074E0CE0101960E94413380912705909153
:102F500028059E012D573D4F5901009721F4C901C5
:102F60008D52954004C0A901481B590BCA014AE083
:102F700068E474E00E94E22B68E474E0CE010196FC
:102F80000E944133E2E0F4E06591749186E194E0BF
:102F90000E94AF2B66E174E0CE0101960E9441339E
:102FA000609112047091130480911404909115049F
:102FB00008E414E022E044E00E94B028B801CE0109
:102FC00001960E944133E4E0F4E06591749186E15A
:102FD00094E00E94AF2B66E174E0CE0101960E945E
:102FE000413360910E0470910F0480911004909110
:102FF000110422E044E00E94B028B801CE010196FD
:103000000E944133E6E0F4E06591749186E194E03A
:103010000E94AF2B66E174E0CE0101960E9441331D
:1030200060910A0470910B0480910C0490910D043E
:1030300022E044E00E94B028B801CE0101960E942F
:103040004133E8E0F4E06591749186E194E00E94F8
:10305000AF2B66E174E0CE0101960E94413360918E
:10306000060470910704809108049091090422E0FD
:1030700044E00E94B028B801CE0101960E9441337D
:10308000EAE0F4E06591749186E194E00E94AF2B50
:1030900066E174E0CE0101960E9441336091020422
:1030A00070910304809104049091050422E044E0AF
:1030B0000E94B028B801CE0101960E944133ECE095
:1030C000F4E06591749186E194E00E94AF2B66E193
:1030D00074E0CE0101960E9441334AE0B80180912C
:1030E0000004909101040E94E22BB801CE010196E8
:1030F0000E944133EEE0F4E06591749186E194E042
:103100000E94AF2B66E174E0CE0101960E9441332C
:103110004AE0B8018091FE039091FF030E94E22BE8
:10312000B801CE0101960E944133E0E1F4E06591DF
:10313000749186E194E00E94AF2B66E174E0CE01C9
:1031400001960E9441334AE0B8018091FC039091BE
:10315000FD030E94E22BB801CE0101960E9441338B
:10316000E2E1F4E06591749186E194E00E94AF2B76
:1031700066E174E0CE0101960E9441334AE0B80155
:103180008091FA039091FB030E94E22BB801CE01DB
:1031900001960E944133E4E1F4E06591749186E187
:1031A00094E00E94AF2B66E174E0CE0101960E948C
:1031B00041334AE0B8018091F8039091F9030E94ED
:1031C000E22BB801CE0101960E944133E6E1F4E022
:1031D0006591749186E194E00E94AF2B66E174E002
:1031E000CE0101960E9441334AE0B8018091F60376
:1031F0009091F7030E94E22BB801CE0101960E9444
:103200004133E8E1F4E06591749186E194E00E9435
:10321000AF2B66E174E0CE0101960E9441334AE093
:10322000B8018091F4039091F5030E94E22BB8015C
:10323000CE0101960E9441336DE172E0CE0101960C
:103240000E944133ECE1F4E06591749186E194E0F1
:103250000E94AF2B66E174E0CE0101960E944133DB
:103260004FE0E42E42E0F42E00E010E0D7019C9005
:1032700011969C91B2E0EB0EF11C4AE0B501892D4C
:103280000E94E22B892D0E94F90B4AE0BE016A5789
:103290007D4F0E94E22BBE016A577D4FCE01019601
:1032A0000E9441330630110531F066E772E0CE012D
:1032B00001960E9441330F5F1F4F07301105B1F691
:1032C0006DE072E07FC045E050E068E772E0C80161
:1032D0000E945E33892B09F081C0E114F10409F4E6
:1032E000C1C1EDE6EE16E2E0FE0609F4BBC1C7017E
:1032F0000E94882B7C014AE050E060E070E0C5014C
:103300000E94932A2B013C01F7E0EF16F104A0F58F
:10331000672B682B692B81F1F701EE0FFF1FE15F2F
:10332000FD4FA080B1808CE08E9D80018F9D100D9F
:1033300011240D5F1E4FC501BB0CAA0BBB0BF8017E
:1033400080839183A283B3830E941F12D8011496B5
:103350006D937D938D939C931797A8EEB3E0A30193
:1033600092010E94DF2FF80160877187828793871F
:1033700061E08A2D0E94220C6FE172E0CE0101967D
:103380000E9457336EE772E0CE0101960E944133EE
:103390004AE068E474E0C7010E94E22B68E474E04C
:1033A000CE0101960E94413369E872E0CE01019698
:1033B0000E9441334AE068E474E0C2010E94E22BBB
:1033C00068E474E0CE0101960E9441336DE172E041
:1033D000CE0101960E94413310E00EC146E050E05C
:1033E00066E972E0C8010E945E33892BD1F4C701FF
:1033F0000E94882B8C01C5010E94882B0730110583
:1034000008F452C16FE172E0CE0101960E94573379
:10341000ECE2F4E06591749186E194E00E94AF2BB8
:1034200040C146E050E06EE972E0C8010E945E33A0
:10343000892B09F043C06DE972E086ED92E00E94AD
:10344000710EB70186ED92E00E94710EB50186ED16
:1034500092E00E94710EC5010E94882B182FC701AF
:103460000E94882B612F0E94D5206FE172E0CE016F
:1034700001960E945733E6E2F4E06591749186E18B
:1034800094E00E94AF2B66E174E0CE0101960E94A9
:103490004133B701CE0101960E944133E4E2F4E0EA
:1034A0006591749186E194E00E94AF2B66E174E02F
:1034B000CE0101960E944133B50184CF46E050E031
:1034C00065EA72E0C8010E945E33892B49F46FE11E
:1034D00072E0CE0101960E945733EEE2F4E013C091
:1034E00045E050E06CEA72E0C8010E945E33892B2F
:1034F000F1F40E945F156FE172E0CE0101960E9427
:103500005733E0E3F4E06591749186E194E00E9422
:10351000AF2B66E174E0CE0101960E9441336DE16C
:1035200072E0CE0101960E94413311E065C043E094
:1035300050E062EB72E0C8010E945E33892B09F013
:103540003AC06FE172E0CE0101960E945733E2E388
:10355000F4E06591749186E194E00E94AF2B66E1FE
:1035600074E0CE0101960E944133E4E3F4E06591FA
:10357000749186E194E00E94AF2B66E174E0CE0185
:1035800001960E944133E6E3F4E06591749186E18F
:1035900094E00E94AF2B66E174E0CE0101960E9498
:1035A00041330E941F12DC01CB014AE066E174E066
:1035B0000E94E22B76C0E2EFF3E06591749186E120
:1035C00094E00E94AF2B66E174E081E893E00E94F2
:1035D000710EE8EFF3E06591749186E194E00E944A
:1035E000AF2B66E174E081E893E00E94710E81E800
:1035F00093E00E946D0E36C0E0EFF3E065917491A8
:1036000086E194E00E94AF2B66E174E081E893E0EC
:103610000E94710EE8EFF3E06591749186E194E009
:103620000E94AF2B66E174E081E893E00E94710E86
:10363000E6EFF3E06591749186E194E00E94AF2B90
:1036400066E174E081E893E00E94710E81E893E006
:103650000E946D0EBE016F5F7F4F81E893E00E9474
:10366000710E01C010E0D6018D919C910E946829D5
:10367000C358DD4F88819981CD57D2400E94682977
:1036800064E670E080E090E00E94E51181E893E05C
:103690000E941213112309F45EC0E0E0F0E00995E6
:1036A0005AC066E174E08ECE000F111F019711F42D
:1036B00061E001C060E0F801E15FFD4F80810E94A0
:1036C000220C6FE172E0CE0101960E945733EEE1C9
:1036D000F4E06591749186E194E00E94AF2B66E17D
:1036E00074E0CE0101960E944133B701CE010196EC
:1036F0000E944133E0E2F4E06591749186E194E048
:103700000E94AF2B66E174E0CE0101960E94413326
:10371000F801E15FFD4F10814AE066E174E0812F1E
:1037200091810E94E22B66E174E0CE0101960E9435
:103730004133E2E2F4E06591749186E194E00E9405
:10374000AF2B66E174E0CE0101960E944133812FD8
:103750000E94F90B2ACFCC56DD4F0FB6F894DEBF8E
:103760000FBECDBFDF91CF911F910F91FF90EF90D2
:10377000DF90CF90BF90AF909F908F907F906F9091
:103780005F904F903F902F900895FC01818D928D16
:103790000895FC018489958908952FEF31E0FC019B
:1037A00031832083FB014089518962897389FC013F
:1037B00042835383648375830895DC01ED91FC910A
:1037C000048CF58DE02D099480E008952A9A0895DF
:1037D0002A9808958EBD00000DB407FEFDCF8EB56A
:1037E00008958FEF9FEF08958FEF9FEF08958091D9
:1037F000BC0490E0919581959109089580E090E056
:10380000089585ED8093BC008091BC0084FDFCCFC1
:1038100010929604089540917204262F30E0240FF0
:10382000311D21323105DCF4209196042430C9F495
:10383000FC0180E090E0861758F4309172042191E9
:10384000DC01AE5ABB4FA30FB11D2C930196F3CFF1
:1038500080917204680F6093720480E0089581E0A3
:10386000089582E00895CF93DF93CB01EA01642F9E
:103870000E940B1CCE01DF91CF910895CF93DF936F
:103880001F92CDB7DEB7698361E0CE0101960E9439
:103890000B1C81E090E00F90DF91CF910895FC0127
:1038A0001382128288EE93E0A0E0B0E084839583D7
:1038B000A683B78385E292E0918380838FEF91E0C6
:1038C00097878687108A118A128A138A84E0808FEC
:1038D0000895AF92BF92CF92DF92EF92FF920F9333
:1038E0001F93CF93DF93CDB7DEB7AF970FB6F894A2
:1038F000DEBF0FBECDBF7C015B016A010FEF11E09F
:103900001A8309831B821C821D821E82CE010996A6
:103910000E944F1C1BA70AA71CA61DA61EA61FA619
:103920008091750390917603A0917703B09178030D
:103930008EA39FA3A8A7B9A78B839C83AD83BE83C7
:1039400018861F82AE01465D5F4FB501CE0101961C
:103950000E947D0981309105B1F4D701ED91FC9170
:103960000488F589E02D1DA30CA38CA59DA5AEA50B
:10397000BFA58EA39FA3A8A7B9A7A601BE016C5D92
:103980007F4FC7010995AF960FB6F894DEBF0FBE03
:10399000CDBFDF91CF911F910F91FF90EF90DF90FE
:1039A000CF90BF90AF900895CF92DF92EF92FF92A9
:1039B0000F931F93CF93DF93EC017A018B016C017E
:1039C000C40ED51ECC15DD05A9F00E94E81B8FE0C2
:1039D0000E94EA1B8D2F0E94EA1B8C2F0E94EA1B7B
:1039E000219680E00E94EA1BF80181938F010E94DA
:1039F000E61BE8CFC701DF91CF911F910F91FF9098
:103A0000EF90DF90CF900895CF92DF92EF92FF92E8
:103A10000F931F93CF93DF93EC017A018B016C011D
:103A2000C40ED51ECC15DD05A1F00E94E81B80EF69
:103A30000E94EA1B8D2F0E94EA1B8C2F0E94EA1B1A
:103A40002196F80181918F010E94EA1B0E94E61BDA
:103A5000E9CFC701DF91CF911F910F91FF90EF90B8
:103A6000DF90CF9008951F93CF93DF93D82F192F16
:103A7000C62F0E94E81B80EF0E94EA1B812F0E9444
:103A8000EA1B8D2F0E94EA1B8C2F0E94EA1B0E94CA
:103A9000E61B81E0DF91CF911F9108959B0190E09B
:103AA0000496982F8827642F820F931F0C94331D40
:103AB000CF93DF9390E00496982F8827EC01C60FF0
:103AC000D71F0E94E81B8FE00E94EA1B8D2F0E94E7
:103AD000EA1B8C2F0E94EA1B80E00E94EA1BC82F81
:103AE0000E94E61B8C2FDF91CF9108951F93CF93F7
:103AF000DF93182F66E270E00E94581DC82FD0E0B7
:103B000067E270E0812F0E94581DDC2FCC279E01B8
:103B1000282BC901DF91CF911F9108951F93CF9357
:103B2000DF93182F60E270E00E94581DC82FD0E08C
:103B300061E270E0812F0E94581DDC2FCC279E018E
:103B4000282BC901DF91CF911F910895CF93DF9367
:103B5000C82FD62F472F60E170E00E944E1D4D2FD9
:103B600061E170E08C2FDF91CF910C944E1D90E0BD
:103B7000982F882744E050E0845F9B4F0C94041DED
:103B800008958CBD9DBD0895DF92EF92FF920F9333
:103B90001F93CF93DF9300D0CDB7DEB7FB01DC01DD
:103BA00057961C921E9256972281211109C023819B
:103BB000211106C02481211103C025812223E1F0B7
:103BC00041155105C9F07A018F01FC01D08CCE015D
:103BD00001960E94A20389819A810E94C11DB801A9
:103BE0006E5F7F4F8D2D0E94B71DB7018D2D0E94F6
:103BF000A61D81E090E002C080E090E00F900F9061
:103C0000DF91CF911F910F91FF90EF90DF9008957A
:103C1000CF92DF92FF920F931F93CF93DF9300D049
:103C2000CDB7DEB7F82E6B01CE0101960E94A2033C
:103C300089819A810E94C11D68E270E08F2D0E94E7
:103C4000581D082F10E069E270E08F2D0E94581D6A
:103C5000702F6627682B21E030E0A6018F2D0E948F
:103C6000D90481E090E00F900F90DF91CF911F91E8
:103C70000F91FF90DF90CF900895DF92EF92FF9227
:103C80000F931F93CF93DF9300D0CDB7DEB7D82E1D
:103C9000CE0101960E94A20389819A810E94C11DD2
:103CA000E12CF12C8D2D0E94761D8C01892B21F0A9
:103CB0008D2D0E94761D7C010E151F0599F7C801F8
:103CC0000F900F90DF91CF911F910F91FF90EF9088
:103CD000DF9008958F929F92BF92CF92DF92EF92E2
:103CE000FF920F931F93CF93DF9300D0CDB7DEB732
:103CF000B82E6B017A01CE0101960E94A203898140
:103D00009A810E94C11D812C912C8B2D0E94761DC1
:103D10008C01892B21F08B2D0E94761D4C010815FA
:103D2000190599F70115110599F463E070E08B2DE1
:103D30000E94581D8431D9F18823C9F101E010E0B7
:103D40008C3111F400E010E01195019511092FC09C
:103D5000E016F1060CF487011016110644F568E22E
:103D600070E08B2D0E94581DE82EF12C69E270E066
:103D70008B2D0E94581DFE2CEE24E82A9801A601E6
:103D8000B7018B2D0E94D904E00EF11E4F2D68E281
:103D900070E08B2D0E944E1D4E2D69E270E08B2D40
:103DA0000E944E1D60E470E08B2D0E949203C801BA
:103DB0000F900F90DF91CF911F910F91FF90EF9097
:103DC000DF90CF90BF909F908F9008951F93CF93D7
:103DD000DF9300D0CDB7DEB7182FCE0101960E9439
:103DE000A20389819A810E94C11D60E170E0812F48
:103DF0000E9492034FEF62E070E0812F0E944E1DFF
:103E00000F900F90DF91CF911F910895CF93DF9383
:103E1000EC01888D843061F00E94E61EE88DF0E0B0
:103E2000EE0FFF1FED51FC4F1182108284E0888F4E
:103E3000DF91CF910895DF92EF92FF920F931F933E
:103E4000CF93DF9300D0CDB7DEB7182FD62E7A01EF
:103E5000022F0E94E61ECE0101960E94A2038981D4
:103E60009A810E94C11D4D2D402B60E070E0812F92
:103E70000E944E1DE114F10459F4E090BD04F0904D
:103E8000BE048FEFE81AF80AF092BE04E092BD0477
:103E90004F2D64E070E0812F0E944E1D4E2D65E095
:103EA00070E0812F0E944E1D61E070E0812F0E9422
:103EB000920381E00F900F90DF91CF911F910F91AE
:103EC000FF90EF90DF9008951F93CF93DF9300D082
:103ED000CDB7DEB7182FCE0101960E94A2038981CB
:103EE0009A810E94C11D63E070E0812F0E94581DDD
:103EF0000F900F90DF91CF911F910895EF92FF9255
:103F00001F93CF93DF93FC01208D243011F080E0CC
:103F10001CC07B01EC0110E0812F0E94641F811105
:103F200002C0188F05C08831E1F31F5F1430A1F77C
:103F3000888D843061F3FD86EC861A8E198E20E020
:103F4000A70162E00E941B1F81E0DF91CF911F91CA
:103F5000FF90EF9008951F920F920FB60F921124C9
:103F60002F933F934F935F936F937F938F939F9381
:103F7000AF93BF93EF93FF938091B900887F803612
:103F800009F49CC068F5883209F45BC090F4803174
:103F900009F454C038F4882309F4F2C0883009F4D5
:103FA0004DC0F2C0883109F44CC0803209F45DC0C4
:103FB000EBC0803409F468C048F4803309F455C07C
:103FC000883309F0E1C080939504D4C0803509F4AA
:103FD0004FC0883509F45DC0883409F0D5C0D2C01F
:103FE000883909F4C3C0A8F4883709F467C038F4E5
:103FF000883609F463C0803709F460C0C5C08838CA
:1040000009F4B4C0803909F45FC0803809F0BCC03D
:104010005BC0803B09F484C038F4803A09F466C080
:10402000883A09F47DC0B0C0803C09F4A3C0883C44
:1040300009F4A0C0883B09F486C0A6C08091BB04E7
:1040400010C09091BA048091B904981770F5E0916E
:10405000BA0481E08E0F8093BA04F0E0E756FB4F7C
:1040600080818093BB0085EC82C0809395048AC0D8
:10407000E091BA0481E08E0F8093BA048091BB0076
:10408000F0E0E756FB4F80839091BA048091B90429
:104090006AC0E091BA0481E08E0F8093BA048091E7
:1040A000BB00F0E0E756FB4F8083809198048111BC
:1040B00069C081E08093970484EA5DC083E08093C7
:1040C000960410929404CFCF80919404803208F02B
:1040D0004DC0E091940481E08E0F80939404809110
:1040E000BB00F0E0EC58FB4F8083BDCF85EC8093A4
:1040F000BC001092960480919404803230F4E091D8
:104100009404F0E0EC58FB4F10826091940470E04E
:1041100084E794E0E0E0F0E009951092940434C064
:1041200084E0809396041092730410927204E0E08D
:10413000F0E0099580917204811105C081E08093BF
:10414000720410925204E091730481E08E0F809308
:104150007304F0E0EE5AFB4F80818093BB00909196
:10416000730480917204981708F47DCF85E88093DA
:10417000BC000AC085EC8093BC001092960404C079
:10418000109295040E94011CFF91EF91BF91AF9195
:104190009F918F917F916F915F914F913F912F915F
:1041A0000F900FBE0F901F9018950C94802F0C94B9
:1041B000782FBF92CF92DF92EF92FF920F931F93CF
:1041C000CF93DF93E6EDF2E01382128288EEC82EE1
:1041D00083E0D82EE12CF12CC482D582E682F782CE
:1041E0008BE691E09183808385EC90E095878487CE
:1041F00084EC90E09787868780EC90E0918B808BB1
:1042000081EC90E0938B828B82EC90E0958B848B99
:1042100086EC90E0978B868B118E128E138E148E07
:10422000E3EBF3E0CFEFD1E0D183C08312821382BE
:1042300014821582E9EBF3E0D183C08312821382EA
:1042400014821582EFEBF3E0D183C08312821382D4
:1042500014821582E5ECF3E0D183C08312821382CD
:1042600014821582E3E7F3E0D183C08312821382C4
:1042700014821582EBECF3E0D183C08312821382A7
:1042800014821582EBE7F3E0D183C083128213829C
:1042900014821582E1EDF3E013821282C482D5828A
:1042A000E682F7828DE791E091838083EDEDF3E084
:1042B000D183C083128213821482158289E492E032
:1042C000082E000C990B90932F0480932E0487E501
:1042D00092E0082E000C990B9093310480933004E7
:1042E000A0EAB3E089E015968C93159786E11696BF
:1042F0008C931697E1EEF3E0E4911796EC93179701
:10430000EDECF3E0E4911896EC93189740E85EE347
:1043100060E070E01D964D935D936D937C93509794
:1043200080E090E00E94D7200AE913E0F801808342
:1043300081E090E00E94D720F801818382E090E044
:104340000E94D720F801828383E090E00E94D7206A
:10435000F801838384E090E00E94D720F8018483F1
:1043600085E090E00E94D720F801858389E090E005
:104370000E94D720182F88E090E00E94D720082FB5
:1043800087E090E00E94D720B82E86E090E00E945F
:10439000D720E4E9F3E0D183C0838283B38204832E
:1043A0001583EEE8F3E01382128285EE91E09183AB
:1043B000808380E590E095838483E1E8F3E01382D5
:1043C0001282C482D582E682F7828FEB91E09183DC
:1043D000808384E08487DF91CF911F910F91FF90BC
:1043E000EF90DF90CF90BF900895CF93DF93CDB73C
:1043F000DEB760970FB6F894DEBF0FBECDBF7894DE
:1044000084B5826084BD84B5816084BD85B58260D9
:1044100085BD85B5816085BD80916E00816080938A
:104420006E001092810080918100826080938100F3
:104430008091810081608093810080918000816003
:10444000809380008091B10084608093B10080915E
:10445000B00081608093B00080917A008460809386
:104460007A0080917A00826080937A0080917A004D
:10447000816080937A0080917A00806880937A00CE
:104480001092C100E091E602F091E70282E08083A1
:10449000E091E202F091E3021082E091E402F091F7
:1044A000E50280E180831092EE02E091EA02F09151
:1044B000EB0286E08083E091E802F091E9028081DE
:1044C00080618083E091E802F091E9028081886058
:1044D0008083E091E802F091E90280818068808326
:1044E000E091E802F091E90280818F7D8083ECEE1B
:1044F000F3E06591749186E194E00E94AF2B66E150
:1045000074E086ED92E00E94710E81E080930001DC
:104510000FE012E06DE1C62E62E0D62ED801FC90CD
:104520000E5F1F4F61E08F2D0E94510C60E08F2DB8
:104530000E94220CC016D10689F762E08EE00E942C
:10454000510C62E08FE00E94510C62E080E10E9419
:10455000510C62E081E10E94510C62E082E10E9414
:10456000510C62E083E10E94510C62E084E10E9400
:10457000510C80E090E00E94D720182F66EB72E08B
:1045800086ED92E00E94D011412F50E060E070E093
:104590002AE086ED92E00E94DA0D86ED92E00E941C
:1045A0006D0E1F3F09F01AC20E945F1580911D0514
:1045B000811107C082E095E00E944F1C81E080934A
:1045C0001D058FEB94E090937A03809379030E940A
:1045D000A703CE0101960E94A20389819A810E94BD
:1045E000C11D46E050E067E571E089E090E00E947F
:1045F000041D8FEF91E09A8389831B821C821D82A8
:104600001E82CE0103960E94ED140E94C01D0091EF
:10461000790310917A03F80112A213A214A215A231
:1046200016A217A210A611A612A613A614A615A6C6
:1046300080E69AEEA0E0B0E086AB97ABA0AFB1AF5A
:1046400080EA9FE0A0E0B0E082AF93AFA4AFB5AF47
:104650003E9684E1DF011D928A95E9F786E0E7E561
:10466000F1E0D801189601900D928A95E1F7F801D2
:10467000EE5BFF4FFA87E98710820E943C2A2FECFD
:1046800037E040E050E00E94C02FDC01CB010196F2
:10469000A11DB11DF80184839583A683B783808310
:1046A0009183A283B3835801F3E4AF0EB11CC5011B
:1046B0000E94061F64E470E0C5010E947E1F8823EB
:1046C00009F40AC20E941F122B013C01812C912C7B
:1046D00048EEC42E43E0D42EE12CF12C52E0252EDE
:1046E000A985BA858C91833009F404C1811120C059
:1046F000F80184819581A681B7810196A11DB11D24
:1047000084839583A683B7830E941F126419750959
:1047100086099709A70196010E949E2FA90161E0D1
:10472000C8010E94750881E0A985BA858C93CAC02A
:104730008430F9F4F80184819581A681B7810196CE
:10474000A11DB11D84839583A683B7830E941F1288
:104750006419750986099709A70196010E949E2F81
:10476000A90163E0C8010E947508A985BA852C9249
:10477000A9C0813059F5F80142AD53AD64AD75ADB6
:104780009E012F5F3F4FC8010E94A105382EF2E025
:104790008F1392C089819A81AB81BC81F801848397
:1047A0009583A683B7830E941F1264197509860931
:1047B0009709A70196010E949E2FA90163E0C801F5
:1047C0000E947508A985BA853C927CC0823009F0A8
:1047D00079C0F80142AD53AD64AD75AD9E012F5F58
:1047E0003F4FC8010E94A105382EF5E08F135DC030
:1047F000E3E0A985BA85EC93F80182A193A1A4A175
:10480000B5A1892B8A2B8B2B41F484E893E0A0E09F
:10481000B0E082A393A3A4A3B5A3F80186A197A1B6
:10482000A0A5B1A5892B8A2B8B2B61F482A193A122
:10483000A4A1B5A1B695A7959795879586A397A3AB
:10484000A0A7B1A7F80182A593A5A4A5B5A5892B1A
:104850008A2B8B2BA9F482A193A1A4A1B5A1AC01B1
:10486000BD0123E076956795579547952A95D1F731
:10487000841B950BA60BB70B82A793A7A4A7B5A77C
:10488000F80186A197A1A0A5B1A586A797A7A0AB7F
:10489000B1AB82A593A5A4A5B5A582AB93ABA4AB00
:1048A000B5AB88248394912C0DC0F6E08F1304C01F
:1048B000A985BA851C9206C0BFEF3B1203C0E985EB
:1048C000FA851082F1E08F16910409F409CF0E9455
:1048D0001F12DC01CB0184199509A609B709F8015B
:1048E00026A937A940AD51AD281739074A075B07FC
:1048F00008F0F6CEC5010E94061FF801848195815B
:10490000A681B7810196A11DB11D84839583A683DD
:10491000B7830E941F12F801FE9660837183828321
:104920009383F1E08F16910409F055C0CE010196F2
:104930000E94A20389819A810E94C11D609179031E
:1049400070917A03625F7F4FCE0101960E94E50C61
:10495000CE0103960E94ED146091790370917A0361
:104960006A5E7F4FCE0101960E94E50C44E050E064
:10497000BE016D5F7F4F81E090E00E94041D609159
:10498000790370917A036E5E7F4FCE0101960E948B
:10499000E50C44E050E0BE016D5F7F4F85E090E0A4
:1049A0000E94041D0E94C01D6091790370917A03DA
:1049B000625E7F4FCE0101960E94E50C8B819C8147
:1049C000AD81BE818093750390937603A0937703A6
:1049D000B093780317C08928A9F47EC08FEF91E0C7
:1049E0009A8389838091960390919703A09198036D
:1049F000B09199038B839C83AD83BE83CE010196D6
:104A00000E94360461EC72E086ED92E00E94D011C3
:104A10000AE913E030EAE32E33E0F32ED8014D919A
:104A20008D0150E060E070E020E186ED92E00E94B0
:104A3000DA0DE016F10691F786ED92E00E946D0E18
:104A4000EAEFF3E06591749186E194E00E94AF2B68
:104A500066E174E086ED92E00E94D0118FEF91E064
:104A60009A8389831B821C821D821E82CE01079637
:104A70000E94A2038F8198850E94C11D44E050E0EE
:104A8000BE016D5F7F4F8FE090E00E94D41C0E94BA
:104A9000C01D66ED72E0CE0101960E94230E86EDE8
:104AA00092E00E946D0E8EE893E00E947D1262E01B
:104AB0008091A5030E94510C0E941F12DC01CB01C2
:104AC000805D9740A109B1098093A9039093AA033F
:104AD000A093AB03B093AC0361E08DE00E94220C85
:104AE0000E949602882309F454C08091A6038B305B
:104AF00008F441C08D30C0F085518230E0F510914E
:104B0000A203612F6F7770E0762F66278091A30351
:104B1000682B80E090E00E94592E2DEC3CEC4CEC90
:104B20005DE30E94BA2E1EC01091A2036091A30300
:104B30006F7070E080E090E00E945B2E2DEC3CEC0A
:104B40004CEC5DE30E94BA2E6B017C01612F70E09A
:104B500080E090E00E94592E9B01AC01C701B60194
:104B60000E9439306B017C0117FF0BC0F7FAF094FB
:104B7000F7F8F09406C0C12CD12C90ECE92E9FE7F9
:104B8000F92EA7019601C701B6010E943932882388
:104B900019F0C12CD12C7601C0920E04D0920F04D2
:104BA000E0921004F092110426E636E646EE5FE34A
:104BB000C701B6010E94BA2E20E030E040E052E486
:104BC0000E9439306B017C019B01AC010E9439329B
:104BD000882319F0C12CD12C7601C0921204D092F6
:104BE0001304E0921404F09215040E9496028823A4
:104BF00009F448C08091A6038B30B0F18D30A8F045
:104C00008551823088F56091A0037091A1037627C9
:104C10006727762780E090E00E94592E2DEC3CEC2F
:104C20004CEC5DE30E94BA2E1CC06091A10370E0C1
:104C300080E090E00E945B2E2DEC3CEC4CEC5DE3C0
:104C40000E94BA2E6B017C016091A00370E080E0AD
:104C500090E00E945B2E9B01AC01C701B6010E944F
:104C600039306B017C0106C0C12CD12C80ECE82EC0
:104C70008FE7F82EA7019601C701B6010E943932CD
:104C8000882319F0C12CD12C7601C0920A04D0924D
:104C90000B04E0920C04F0920D04809012049090AA
:104CA0001304A0901404B090150420E030E048E80C
:104CB00052E4C501B4010E9438302AE939E949E9D2
:104CC0005FE30E94BA2E2B013C0120E030E044E774
:104CD00052E4C501B4010E9439309B01AC01C3010B
:104CE000B2010E9439302B013C0122E133E840EC53
:104CF0005DE3C701B6010E94BA2E9B01AC01C3015E
:104D0000B2010E94393020E030E040E05FE30E94D1
:104D1000BA2E2B013C0120E030E04EE952E40E9423
:104D2000783118160CF07DC1A5019401C501B401BC
:104D30000E94BA2E2B013C01A7019601C701B601C2
:104D40000E94BA2E69877A878B879C8721E133E29C
:104D500043E050E4C501B4010E94BA2E29E134E8D1
:104D600049E252E40E9438306D877E878F87988BA6
:104D700026E13BE442E251E4C701B6010E94BA2EAB
:104D80009B01AC016D857E858F8598890E943930A5
:104D90006D877E878F87988B28E436E246E65EEB48
:104DA000C501B4010E94BA2EA70196010E94BA2E35
:104DB0009B01AC016D857E858F8598890E94393075
:104DC0006D877E878F87988B20EE3FE040EE5BEB10
:104DD000C301B2010E94BA2E9B01AC016D857E8594
:104DE0008F8598890E9439306D877E878F87988B51
:104DF00028EF37E840E65DEB69857A858B859C85F1
:104E00000E94BA2E9B01AC016D857E858F859889A5
:104E10000E9439306D877E878F87988B2CEA3DE022
:104E200041EA5AE3C301B2010E94BA2EA7019601DA
:104E30000E94BA2E9B01AC016D857E858F85988975
:104E40000E9439306D877E878F87988B28EC3FE8EA
:104E50004FE55AE3C501B4010E94BA2E29853A856F
:104E60004B855C850E94BA2E9B01AC016D857E85C9
:104E70008F8598890E9439306D877E878F87988BC0
:104E800021EF3BE845E056EBC301B2010E94BA2E88
:104E900029853A854B855C850E94BA2E9B01AC0121
:104EA0006D857E858F8598890E9439302B013C0164
:104EB00020E030E040E551E4C701B6010E94542EE5
:104EC00087FF60C020E030E040EA52E4C501B40151
:104ED0000E94783187FD56C020E030E040EE52E479
:104EE000C501B4010E94542E18160CF42DC1A7015F
:104EF000960160E070E080E591E40E94383020E0A7
:104F000030E040E85EE30E94BA2E69877A878B879B
:104F10009C8720E030E04EEB52E4C501B4010E94D2
:104F200038304B015C0120E030E0A9010E9478316B
:104F300018164CF4A501940160E070E088E891E453
:104F40000E94383008C020E030E048E851E4C50154
:104F5000B4010E9439302EE33DEE40E75DE30E944C
:104F6000BA2E0E94F9319B01AC0169857A858B8547
:104F70009C850E94BA2E9B01AC01C301B2010E9424
:104F800038304DC020E030E04AEA52E4C701B601B3
:104F90000E94783118160CF044C020E030E040EA5E
:104FA00052E4C501B4010E94783187FD3AC020E087
:104FB00030E04EEA52E4C501B4010E94542E1816A6
:104FC00084F120E030E04AEA52E4C701B6010E94D1
:104FD00038302DEC3CEC4CEC5DE30E94BA2E698736
:104FE0007A878B879C87A501940160E070E08EEA48
:104FF00092E40E9438302DEC3CEC4CE45EE30E94DD
:10500000BA2E9B01AC0169857A858B859C850E94AF
:10501000BA2E9B01AC01C301B2010E9439302B01B1
:105020003C01A3019201C301B2010E9439328823DD
:1050300019F0412C512C3201409206045092070481
:10504000609208047092090480900E0490900F04FE
:10505000A0901004B090110420E030E040EF50E444
:10506000C501B4010E94BA2E2B013C012DEC3CE499
:105070004DE653E4C501B4010E9439309B01AC01F7
:10508000C301B2010E94A5300E941F3126ED36E512
:105090004CE15FE30E94BA2E4B015C0120E030E05E
:1050A00048EC52E4C701B6010E94A530A501940165
:1050B0000E94BA2EA50194010E9438306093020428
:1050C0007093030480930404909305048FE00E947E
:1050D000BD0D9093FF038093FE0380E10E94BD0D00
:1050E0009093FD038093FC0381E10E94BD0D90939A
:1050F000FB038093FA0382E10E94BD0D9093F903B4
:105100008093F80383E10E94BD0D9093F703809391
:10511000F60384E10E94BD0D9093F5038093F403A0
:105120008EE00E94BD0D90930104809300040E94C4
:10513000971560E08DE00E94220C60ED77E080E042
:1051400090E00E94E511C8CC20E030E04AEA52E449
:10515000C701B6010E94783118160CF428CF61CF30
:10516000EF920F931F93CF93DF93E80147FD02C0A7
:1051700034E001C034E1042E000C550B57FF03C08E
:10518000519541955109E32E022F242FAE010E9423
:105190000F2CCE01DF91CF911F910F91EF900895C9
:1051A0000F931F93CF93DF938230910510F482E029
:1051B00090E0E0912905F0912A0520E030E0A0E0A0
:1051C000B0E0309719F14081518102811381481775
:1051D0005907C8F08417950769F4109731F01296B3
:1051E0000C93129713961C9327C0009329051093D4
:1051F0002A0522C02115310519F04217530718F46A
:105200009A01BD01EF01DF01F801DBCF2115310566
:10521000F9F0281B390B2430310580F48A819B81F9
:105220006115710521F0FB019383828304C0909383
:105230002A0580932905FE01329644C0FE01E20F43
:10524000F31F8193919322503109398328833AC007
:105250002091270530912805232B41F420915F01EF
:1052600030916001309328052093270520915D013E
:1052700030915E012115310541F42DB73EB74091C3
:10528000610150916201241B350BE0912705F091DB
:105290002805E217F307A0F42E1B3F0B2817390748
:1052A00078F0AC014E5F5F4F2417350748F04E0F82
:1052B0005F1F50932805409327058193919302C067
:1052C000E0E0F0E0CF01DF91CF911F910F910895C1
:1052D000CF93DF93009709F481C0FC0132971382CA
:1052E0001282A0912905B0912A05109781F420819E
:1052F0003181820F931F20912705309128052817AF
:10530000390751F5F0932805E093270567C0ED01B3
:1053100020E030E0CE17DF0740F44A815B819E0138
:1053200041155105F1F0EA01F5CFD383C2834081E5
:105330005181840F951FC817D90759F48881998125
:10534000840F951F0296918380838A819B8193832A
:1053500082832115310529F4F0932A05E09329056C
:105360003DC0E901FB83EA8349915991C40FD51FE0
:10537000EC17FD0761F480819181840F951F0296DF
:10538000E90199838883828193819B838A83E0E00A
:10539000F0E012968D919C911397009719F0FD0102
:1053A000DC01F7CF8D919C9111979D012E5F3F4FAE
:1053B000820F931F20912705309128052817390760
:1053C00069F4309729F410922A051092290502C039
:1053D00013821282B0932805A0932705DF91CF9105
:1053E00008958F929F92AF92BF92CF92DF92EF92E9
:1053F000FF92CF93DF93EC01688179818A819B8151
:10540000611571058105910521F464E279ED8BE563
:1054100097E02DE133EF41E050E00E94C02F4901B9
:105420005A019B01AC01A7EAB1E40E94DF2F6B0196
:105430007C01ACEEB4EFA50194010E94ED2FDC01DC
:10544000CB018C0D9D1DAE1DBF1DB7FF03C0019785
:10545000A109B04888839983AA83BB83BC01CD018D
:105460009F77DF91CF91FF90EF90DF90CF90BF902B
:10547000AF909F908F9008958F929F92AF92BF921E
:10548000CF92DF92EF92FF9260916301709164017D
:105490008091650190916601611571058105910505
:1054A00021F464E279ED8BE597E02DE133EF41E003
:1054B00050E00E94C02F49015A019B01AC01A7EAAC
:1054C000B1E40E94DF2F6B017C01ACEEB4EFA501CB
:1054D00094010E94ED2FDC01CB018C0D9D1DAE1DB2
:1054E000BF1DB7FF03C00197A109B04880936301B6
:1054F00090936401A0936501B0936601BC01CD0156
:105500009F77FF90EF90DF90CF90BF90AF909F90EC
:105510008F90089560936301709364018093650197
:10552000909366010895A0E0B0E0E9E9FAE20C94F6
:10553000F32F5C016B017A016115710519F0FB0114
:1055400091838083E114F10429F0C70102978397C6
:1055500008F0C9C0E5012196F5011081812F90E086
:105560000E94A62B892B11F05E01F4CF1D3229F485
:105570002196F501118101E007C01B3221F4E501FC
:105580002296F501118100E0E114F104B1F0F0E19F
:10559000EF16F10429F4B0C010E3E114F10401F1B5
:1055A0002AE0E216F104B1F180E1E816F10471F0AD
:1055B000E8E0EE16F104F1F413C0103341F58881F0
:1055C0008F7D883549F7198122960260F0E1EF2E30
:1055D000F12C88248A94982CA82CAFE0BA2E20C0F5
:1055E00078E0E72EF12C88248A94982CA82CEFE1FF
:1055F000BE2E16C06FEF7FEFCB0197010F2C000C72
:10560000440B550B0E949E2F49015A0109C08AE0A4
:10561000E82EF12C69E9862E982CA82C69E1B62E8B
:1056200040E060E070E0CB0127010F2C000C660821
:105630007708FE0150ED352E310E29E0231570F468
:105640002FEB210F2A3118F439EC332E06C02FE945
:10565000210F2A3130F529EA322E310E232D30E088
:105660002E153F05F4F44F3FC9F086169706A8069D
:10567000B90688F0A30192010E948E2F232D30E0FD
:1056800040E050E0620F731F841F951F621773077D
:105690008407950710F44FEF01C041E02196108177
:1056A000C8CFC114D10451F0442311F0219703C095
:1056B00001FF04C02297F601D183C08300FF07C019
:1056C00090958095709561957F4F8F4F9F4F4F3F7D
:1056D00079F482E290E090932C0580932B053FEFC4
:1056E0002FEF9FEF0DC040E030E020E090E008C0D9
:1056F000462F372F282F04C0103309F067CF5FCF14
:10570000642F732F822FCDB7DEB7E1E10C940F30F9
:10571000FC0188279927E89421912032E9F3293068
:1057200010F02E30C8F32B3241F02D3239F468944A
:1057300004C00E94ED2B820F911D219120532A302D
:10574000C0F31EF4909581959F4F089591110C948C
:10575000412E803219F089508550C8F70895FB0119
:10576000DC0105900D920020E1F7089545E255E037
:105770000E94BB2B0895FA01A191B081009719F402
:105780001097E1F0CD01DC01CD010D90002011F466
:10579000C00113C0FB012191222319F02015D9F774
:1057A000F3CFFB012191201519F41E92119606C02A
:1057B0002223C1F70D900020A1F7D001FA01A19397
:1057C000B0830895BB274A3031F4992322F4BDE217
:1057D000909581959F4F0C94F62B7AE0979F902D92
:1057E000879F802D910D11240895BB27FB0155271C
:1057F000AA27880F991FAA1FA41710F0A41B83952E
:105800005051B9F7A05DAA3308F0A95DA1930097A4
:1058100079F7B111B1931192CB010C94442EA9E008
:10582000B0E0E5E1FCE20C94F82F6A01122FB02EF3
:105830002BE3201720F0FF24F394F00E02C02CE39A
:10584000F22E0F2D27E0AE014F5F5F4F0E94692DB2
:10585000BC014981842F8970813031F0E1FC06C0A0
:10586000E0FE06C090E205C09DE203C09BE201C0DD
:1058700090E05E2D507143FF3CC0911102C083E067
:1058800001C084E0811718F4212F281B01C020E0FB
:1058900051110BC0F601822F30E2882319F03193A9
:1058A0008150FBCFC20ED11C20E0992329F0D601F4
:1058B0009C93F60131966F01C6010396E2FE0AC081
:1058C0003EE4D6013C9341E411964C931197129615
:1058D0003C9306C03EE6F601308341E641833283C5
:1058E000FC01322F40E2332309F442C0419331508E
:1058F000FACF42FF44C0911102C083E001C084E0AE
:10590000811718F4212F281B01C020E051110BC072
:10591000F601822F30E2882319F031938150FBCFBA
:10592000C20ED11C20E0992329F0D6019C93F601E8
:1059300031966F01C6010396E2FE0BC039E4D60131
:105940003C933EE411963C93119736E412963C93B7
:1059500007C039E6F60130833EE6318336E632830E
:10596000FC01322F40E2332319F041933150FBCF39
:10597000FC01E20FF11D10828EEF9FEFA6C021E027
:1059800030E0911102C020E030E0161617061CF43A
:10599000FB01319602C0E1E0F0E02E0F3F1FBB207B
:1059A00021F0EB2DF0E0319602C0E0E0F0E02E0FA8
:1059B0003F1FE12FF0E02E173F071CF4121B212F91
:1059C00001C020E08E2D887159F4F601822F30E25B
:1059D000882319F031938150FBCFC20ED11C20E0F7
:1059E000992329F0D6019C93F60131966F0151114C
:1059F0000BC0F601822F90E3882319F09193815018
:105A0000FBCFC20ED11C20E00F2D060F9A81342F40
:105A1000307144FF03C0913309F40150101624F48F
:105A2000093018F008E001C001E0AB0177FF02C0C7
:105A300040E050E0FB01E41BF50BA1E0B0E0AC0F4F
:105A4000BD1FEA0FFB1F8EE2A82E4B01801A9108A2
:105A50000B2D10E01195019511094F3FBFEF5B072A
:105A600021F4D601AC9211966D01641775072CF0E4
:105A70008416950614F4818101C080E341505109D8
:105A80003196D60111967D014017510724F0D601B9
:105A90008C936701E2CF6417750739F4963320F4CD
:105AA000953319F4311101C081E3F6018083F701C8
:105AB000822F90E2882319F091938150FBCFF70158
:105AC000E20FF11D108280E090E02996ECE00C944A
:105AD0001430283008F027E03327DA01990F311D00
