:100000000C9489030C94BA030C94BA030C94BA03AD
:100010000C94BA030C94BA030C94BA030C94BA036C
:100020000C94BA030C94BA030C94BA030C94BA035C
:100030000C94BA030C94BA030C94BA030C94BA034C
:100040000C94BA030C94BA030C94BA030C94BA033C
:100050000C94BA030C94BA030C94BA030C94F815DC
:100060000C94BA030C945C1F0C94321F0C94BA03CA
:100070000C94BA030C94BA030C94BA030C94BA030C
:100080000C94BA030C94BA030C94BA030C94BA03FC
:100090000C94BA030C94BA030C94BA030C94CD27B5
:1000A0000C94BA030C94BA030C94BA030C94BA03DC
:1000B0000C94BA030C94BA030C94BA030C94BA03CC
:1000C0000C94BA030C94BA030C94BA030C94BA03BC
:1000D0000C94BA030C94BA030C94BA030C94BA03AC
:1000E0000C94BA0349194C193B193F194519831946
:1000F000501954195A195E19621968196C19701936
:10010000831976197A197E190C944A160C943F19A2
:100110000C94C3180C9468190C9415110C941027A6
:100120000C94DF160C94D00C0C949B100C94FC12C5
:100130000C947A190C9450190C945E190C949D121D
:100140000C94E80C0C949E270C94A7190C94B60EF2
:100150000C9419130C94FC0C0C9421180C944C194D
:100160000C94B5170C94A8120C9454190C943C27B9
:100170000C9484130C9449190C9483190C943B1916
:100180000C9470190C94B5190C9471270C942010D0
:100190000C9462190C941A140C94BB160C94D11282
:1001A0000C94D80C0C945A190C9493190C94342771
:1001B0000C94170D0C94BA0C0C94720E0C948712BC
:1001C0000C94301A0C9433130C94C7120C947E19AF
:1001D0000C940E1A0C94D40C0C947B130C94B11246
:1001E0000C9476190C94D3120C9484190C94FA0E76
:1001F0000C9411270C9452130C94D9120C94451999
:100200000C94C1190C94D7120C9437120C946C19DD
:100210000C94D6120C94A3310C9420270C94B01299
:100220000C9415130C9438124E414E494E495459B2
:10023000494E46CDCCCC3D0AD7233C17B7D13877B1
:10024000CC2B329595E6241FB14F0A0000204100C7
:1002500000C84200401C4620BCBE4CCA1B0E5AAE11
:10026000C59D7400407A10F35A00A0724E18090020
:1002700010A5D4E80000E87648170000E40B54020B
:100280000000CA9A3B000000E1F505000080969846
:1002900000000040420F000000A086010000001096
:1002A0002700000000E803000000006400000000D8
:1002B000000A00000000000100000000002C76D8B9
:1002C00088DC674F0823DFC1DFAE59E1B1B796E59F
:1002D000E3E453C63AE651997696E8E6C28426EB03
:1002E000898C9B62ED407C6FFCEFBC9C9F40F2BA16
:1002F000A56FA5F490055A2AF75C936B6CF9676DAE
:10030000C11BFCE0E40D47FEF520E6B500D0ED9002
:100310002E0300943577050080841E080000204ECF
:100320000A000000C80C333333330F986E12831168
:1003300041EF8D2114893BE65516CFFEE6DB18D13F
:10034000844B381BF77C1D901DA4BBE42420328411
:10035000725E228100C9F124ECA1E53D27005EBC5C
:10036000E2613FDD83C29C7E20A3FD1F41009D23EF
:10037000BE46DB65F88C11AF32CA57E97400002223
:1003800000250028002B002E00310034000201005F
:1003900000050108010B0100000A0B02090C0D0EFB
:1003A0000807030401000000000000000000000036
:1003B000000000000000000000000000000000003D
:1003C00000000012111000000000000000000000FA
:1003D00000000000000000000000000000000021FC
:1003E00000240027002A002D003000330001010006
:1003F00000040107010A012C22757074696D6522E1
:100400003A00226669726D77617265223A22312E56
:10041000302E306222002268617264776172652238
:100420003A227265732D76302E3162222C002265BD
:1004300072726F72223A22496E76616C696420632F
:1004400068616E6E656C22007D007B0022616464D1
:1004500072657373223A002C2276616C7565223ABC
:10046000002C22706F736974696F6E223A002C221F
:1004700070696E223A00226368616E6E656C223A82
:10048000002C226368616E6E656C73223A5B002CEF
:10049000226C6F776572466C6F6174223A002C2271
:1004A0007570706572466C6F6174223A002C22720E
:1004B000657354656D70223A002C226F7270223A77
:1004C000002C22646F5F706572223A002C22646FE8
:1004D0005F6D674C223A002C227367223A002C226F
:1004E00073616C223A002C22746473223A002C222D
:1004F0006563223A002C227068223A002C22656E35
:100500007648656174496E646578223A002C2265EC
:100510006E7648756D6964697479223A002C22659B
:100520006E7654656D70223A00226D656D223A0038
:10053000226D657472696373223A7B005377697424
:100540006368696E67206F666600537769746368D5
:10055000696E67206F6E0052455354207365727642
:10056000696365206C697374656E696E67206F6E70
:100570003A2000582D506F77657265642D42793AA4
:100580002043726F7044726F696400436F6E7465CC
:100590006E742D547970653A206170706C69636176
:1005A00074696F6E2F6A736F6E00485454502F3108
:1005B0002E312035303020496E7465726E616C20AA
:1005C000536572766572204572726F72004854549A
:1005D000502F312E3120343034204E6F7420466F2E
:1005E000756E6400485454502F312E312032303013
:1005F000204F4B0044484350204661696C656400BD
:10060000496E697469616C697A696E672072657395
:100610006572766F69722E2E2E0000002000230076
:10062000260029002C002F003200000100000301E9
:100630000601090105050505070508080808020265
:1006400002020A0A0808040404040101010101016C
:1006500001010303030303030303040707070C0C4F
:100660000C0C0C0C0C0C0202020206060606060616
:1006700006060B0B0B0B0B0B0B0B010210202008BB
:1006800008102040102040800201020108040201ED
:10069000010204081020408080402010080402015C
:1006A00080040201804020100804020108040201B5
:1006B000010204081020408001020408102040803C
:1006C0000006F405E405CD05AA058B05730557055D
:1006D0004A053C05300529051D050D05FC04F504FA
:1006E000EE04E604DE04D704CC04C104B904AD046E
:1006F0009E048F04810476046E04610457044C0444
:100700004A0448042E040000000016040204F70303
:10071000A33111241FBECFEFD1E2DEBFCDBF00E079
:100720000CBF16E0A0E0B2E0E0E6FDE700E00BBFA2
:1007300002C007900D92AE30B107D9F728E0AEE0C5
:10074000B6E001C01D92A83FB207E1F713E0C9E887
:10075000D3E000E006C021970109802FFE010E942E
:10076000513DC838D10780E00807A9F70E943B290E
:100770000C94AE3E0C9400004F925F926F927F9269
:100780008F929F92AF92BF92CF92DF92EF92FF92A1
:100790000F931F93CF93DF930E94EC154B015C01E5
:1007A000C0E0D2E0C12CD12C7601412C512C320179
:1007B0004A9488819981AA81BB818F3F9105A105C7
:1007C000B10509F453C04C815D816E817F81950133
:1007D0008401041B150B260B370B488559856A8548
:1007E0007B85401751076207730708F03FC060E040
:1007F0000E94C71E8DEB93E00E943D26C701B60103
:100800000E9441218EEC93E00E943D26488159814F
:100810006A817B812AE089E597E00E94531585ED86
:1008200093E00E943D26688579858A859B8528EE20
:1008300033E040E050E00E94D23BBA01A9012AE037
:1008400089E597E00E94531562EE73E089E597E031
:100850000E94A015488259826A827B821C821D8276
:100860001E821F82188619861A861B862C968FEF89
:10087000C81AD80AE80AF80A80E1C816D104E104C7
:10088000F10409F096CFDF91CF911F910F91FF9066
:10089000EF90DF90CF90BF90AF909F908F907F9020
:1008A0006F905F904F9008959F92AF92BF92CF92BA
:1008B000DF92EF92FF920F931F93CF93DF93CDB709
:1008C000DEB76E970FB6F894DEBF0FBECDBF6C01DA
:1008D0005B016BEE73E08E010F5F1F4FC8010E943A
:1008E0000415C8010E945E2589819A810E94F03317
:1008F00081E080932407C09246071092250710924A
:10090000470762E784E098E00E949E270E94C61B8A
:1009100068EE73E080E090E00E94B2158EE1F8018D
:1009200011928A95E9F7809123078111FCCF81E02C
:1009300080932307809322079FEF909321071092C3
:1009400020079FE190931F078093FE068091FE068B
:100950009C2D990F892B8093FE068091FD06813096
:1009600061F41092FD068091FE068093BB00809199
:10097000BC0083FDF8CF85EC01C085EE8093BC0000
:10098000809123078130E1F380912007803218F4B1
:100990009091200701C090E2AFEFB6E0EBE8F8E0FD
:1009A00080E0891721F02D9121938F5FFACF10926B
:1009B000AC088093AB0884E098E00E9420277C017B
:1009C000912C9091AB088091AC08981779F084E055
:1009D00098E00E942027811103C00E94C61B06C018
:1009E000F801E90DF11D80839394EBCFC70199279E
:1009F0008230910571F024F40197A1F4B8010EC082
:100A00008E3F910549F08F3F910561F46FE174E0ED
:100A100005C06EEF73E002C06DE074E089E597E019
:100A20000E94A01587E294E00E943D26B6010D2C9D
:100A3000000C880B990B0E9441218EE394E00E94E8
:100A40003D26B80189E597E00E94A015F4E6CF168F
:100A5000D10409F076C068E474E0C8010E945A36F7
:100A60000E942836609390067093910680939206B8
:100A70009093930668E474E080E090E00E945A3618
:100A80000E94283660938C0670938D0680938E06A4
:100A900090938F0668E474E080E090E00E945A36FC
:100AA0000E942836609388067093890680938A0690
:100AB00090938B0668E474E080E090E00E945A36E0
:100AC0000E9428366093840670938506809386067C
:100AD000909387068AE494E00E943D2660919006F8
:100AE0007091910680919206909193060E947325D1
:100AF0008FE494E00E943D2660918C0670918D06F3
:100B000080918E0690918F060E94732585E594E072
:100B10000E943D26609188067091890680918A0620
:100B200090918B060E9473258BE594E00E943D26F0
:100B30006091840670918506809186069091870663
:100B40003DC081E6C816D104E1F568E474E0C8014F
:100B50000E945A360E942836609380067093810660
:100B6000809382069093830668E474E080E090E0CE
:100B70000E945A360E94283660937C0670937D0648
:100B800080937E0690937F0680E694E00E943D2647
:100B90006091800670918106809182069091830613
:100BA0000E9473258AE694E00E943D2660917C06AF
:100BB00070917D0680917E0690917F060E9473253C
:100BC00008C0C8010E942836F501608371838283C2
:100BD00093836E960FB6F894DEBF0FBECDBFDF9144
:100BE000CF911F910F91FF90EF90DF90CF90BF902A
:100BF000AF909F9008954F925F926F927F928F92E5
:100C00009F92AF92BF92CF92DF92EF92FF920F939B
:100C10001F93CF93DF93CDB7DEB7C250D3400FB64B
:100C2000F894DEBF0FBECDBF8DE198E00E943A1769
:100C30000CEE16E0F12C28EE422E23E0522E612C11
:100C4000712C35E7C32E33E0D32E1C821B824D82DC
:100C50005E826F827886DA82C982FD86F8012191F0
:100C600031918F018091210890912208281739072E
:100C7000D1F4CE0101960E944216873111F08C31D9
:100C800091F4CE0101960E947B13892B61F02B8198
:100C90003C818D819E81AF81B88589849A84AB84A3
:100CA000BC84FD840AC0F394F4E0FF12CECF88EE3A
:100CB00093E0A0E0B0E020E030E030931308209310
:100CC00012088093140890931508A0931608B09307
:100CD00017088092180890921908A0921A08B092EA
:100CE0001B08F0921C088E010B501E4F8FEFF8016D
:100CF00011928A95E9F7F4E0FF1699F078016E01F8
:100D00002CE0C21A2DEFD20A06C080E198E00E94C2
:100D10007B13892B41F480E198E00E94BB1681117E
:100D2000F4CF10E033C580E198E00E9419138A30B7
:100D300049F08D3039F0EC14FD0421F0F701819376
:100D40007F01E9CFB801CE0186509D4F0E94041566
:100D500060E2CE0186509D4F0E94AB149C0140E0A2
:100D600050E0BE0166507D4FC6010E949E1F6FE29B
:100D7000CE0186509D4F0E94AB147C01C250DD4FC6
:100D800088819981CE5FD240E816F90698F4C65062
:100D9000DD4FA880B980CA5FD24060E270E0C50133
:100DA0008E0D9F1D0E947F3E009721F09C012A1905
:100DB0003B0902C02FEF3FEFA701BE0166507D4FF8
:100DC000CE0101960E949E1FC650DD4F88819981F9
:100DD000CA5FD2400097E9F069817A816115710597
:100DE000B1F0C450DD4F48815981CC5FD2402D8194
:100DF0003E814217530758F00E948A3E8D819E81A2
:100E0000C250DD4F99838883CE5FD2401CC00E94C0
:100E1000F03389819A81C650DD4F99838883CA5FF8
:100E2000D2408B819C81C450DD4F99838883CC5FF5
:100E3000D2408D819E81C250DD4F99838883CE5FE1
:100E4000D2401A82198289819A810E94F033C2505D
:100E5000DD4FE880F980CE5FD240E114F10411F457
:100E6000F80114C0FEEFEF16F10418F09EEFE92E22
:100E7000F12CC650DD4F68817981CA5FD240A7014D
:100E8000C8010E949F3EF801EE0DFF1D10826AE22C
:100E900075E0C8010E945A367C016AE275E080E084
:100EA00090E00E945A368C016AE275E080E090E0A2
:100EB0000E945A365C018CE295E00E943D26B70103
:100EC00089E597E00E94A01587E395E00E943D2602
:100ED000B80189E597E00E94A0158FE395E00E9494
:100EE0003D26B50189E597E00E94A01545E050E058
:100EF00068E475E0C7010E94913E892B09F039C270
:100F00006DEE72E0CE0101960E948A3EE4EDF6E0BD
:100F10006591749184EA96E00E94533664EA76E023
:100F2000CE0101960E94743EE6EDF6E06591749163
:100F300084EA96E00E94533664EA76E0CE01019698
:100F40000E94743E8091F2089091F3089E013D5FEB
:100F50007901009721F4C901885F984004C0F90124
:100F6000E81BF90BCF014AE060EE76E00E9485367F
:100F700060EE76E0CE0101960E94743EE8EDF6E068
:100F80006591749184EA96E00E94533664EA76E0B3
:100F9000CE0101960E94743E6091A0067091A10658
:100FA0008091A2069091A30600EE16E022E044E0B4
:100FB0000E943833B801CE0101960E94743EEAEDDA
:100FC000F6E06591749184EA96E00E94533664EAF3
:100FD00076E0CE0101960E94743E60919C0670916D
:100FE0009D0680919E0690919F0622E044E00E941B
:100FF0003833B801CE0101960E94743EECEDF6E064
:101000006591749184EA96E00E94533664EA76E032
:10101000CE0101960E94743E6091980670919906E7
:1010200080919A0690919B0622E044E00E9438331A
:10103000B801CE0101960E94743EEEEDF6E0659196
:10104000749184EA96E00E94533664EA76E0CE0119
:1010500001960E94743E609194067091950680916D
:1010600096069091970622E044E00E943833B8013A
:10107000CE0101960E94743EE0EEF6E06591749117
:1010800084EA96E00E94533664EA76E0CE01019647
:101090000E94743E60919006709191068091920634
:1010A0009091930622E044E00E943833B801CE01CB
:1010B00001960E94743EE2EEF6E06591749184EA36
:1010C00096E00E94533664EA76E0CE0101960E94D3
:1010D000743E60918C0670918D0680918E06909181
:1010E0008F0622E044E00E943833B801CE01019619
:1010F0000E94743EE4EEF6E06591749184EA96E015
:101100000E94533664EA76E0CE0101960E94743E56
:10111000609188067091890680918A0690918B066D
:1011200022E044E00E943833B801CE0101960E94CB
:10113000743EE6EEF6E06591749184EA96E00E94D2
:10114000533664EA76E0CE0101960E94743E6091C7
:10115000840670918506809186069091870622E02C
:1011600044E00E943833B801CE0101960E94743EDB
:10117000E8EEF6E06591749184EA96E00E945336B9
:1011800064EA76E0CE0101960E94743E609180068A
:101190007091810680918206909183060E94A23C04
:1011A000DC01CB014AE0B8010E948536B801CE01CE
:1011B00001960E94743EEAEEF6E06591749184EA2D
:1011C00096E00E94533664EA76E0CE0101960E94D2
:1011D000743E60917C0670917D0680917E069091B0
:1011E0007F060E94A23CDC01CB014AE0B8010E94CC
:1011F0008536B801CE0101960E94743EECEEF6E011
:101200006591749184EA96E00E94533664EA76E030
:10121000CE0101960E94743E609178067091790625
:1012200080917A0690917B060E94A23CDC01CB0162
:101230004AE0B8010E948536B801CE0101960E94AD
:10124000743EEEEEF6E06591749184EA96E00E94B9
:10125000533664EA76E0CE0101960E94743E6091B6
:10126000740670917506809176069091770622E05B
:1012700044E00E943833B801CE0101960E94743ECA
:10128000E0EFF6E06591749184EA96E00E945336AF
:1012900064EA76E0CE0101960E94743E84E40E94E6
:1012A0001915BC01990F880B990B0E948F3A22E007
:1012B00044E00E943833B801CE0101960E94743E8A
:1012C000E2EFF6E06591749184EA96E00E9453366D
:1012D00064EA76E0CE0101960E94743E85E40E94A5
:1012E0001915BC01990F880B990B0E948F3A22E0C7
:1012F00044E00E943833B801CE0101960E94743E4A
:101300006BEE72E0CE0101960E94743EE4EFF6E0CF
:101310006591749184EA96E00E94533664EA76E01F
:10132000CE0101960E94743E8BEDA82E82E0B82E6D
:1013300000E010E0F50181915F010E949E1E4AE0ED
:10134000B7010E948536B701CE0101960E94743E16
:101350000F30110531F068E474E0CE0101960E946F
:10136000743E0F5F1F4F0031110521F769ED72E0E8
:101370004CC046E050E06FE475E0C7010E94913E2A
:10138000892B09F04EC06EE475E089E597E00E9474
:10139000A015B80189E597E00E94A015B50189E57F
:1013A00097E00E94A015C5010E942C36F82EC801B6
:1013B0000E942C366F2D0E94FF286DEE72E0CE0148
:1013C00001960E948A3EEEEFF6E06591749184EA00
:1013D00096E00E94533664EA76E0CE0101960E94C0
:1013E000743EB801CE0101960E94743EECEFF6E027
:1013F0006591749184EA96E00E94533664EA76E03F
:10140000CE0101960E94743EB501CE0101960E9464
:10141000743E6BEE72E0CE0101960E94743E10E0C5
:1014200073C145E050E066E575E0C7010E94913E5A
:10143000892B09F0A2C00115110521F0F5E00E3D40
:101440001F0739F46CE575E089E597E00E94A01567
:1014500059C1C8010E942C368C014AE050E060E07E
:1014600070E0C5010E941B354B015C010031110584
:1014700008F050C0672B682B692B09F44BC084E33C
:1014800094E00E943D26B801012E000C880B990BB8
:101490000E94412189E597E00E949C158FE695E026
:1014A0000E943D262AE0B501A40189E597E00E944B
:1014B000531589E597E00E949C15F801E552FD4F10
:1014C00070802CE0209FC001219F900D11249C0171
:1014D00020503E4F7901872D90E0A0E0B0E0F90167
:1014E00080839183A283B3830E94EC15F701648308
:1014F000758386839783A8EEB3E0A50194010E94CB
:10150000133C608771878287938761E0872D0E94F3
:10151000C71E06C06AE775E089E597E00E94A0153E
:1015200063E975E0CE0101960E948A3E65E975E0A7
:10153000CE0101960E94743E4AE060EE76E0C8015A
:101540000E94853660EE76E0CE0101960E94743EE0
:1015500060EA75E0CE0101960E94743E4AE060EEBA
:1015600076E0C4010E94853660EE76E0CE010196F9
:101570000E94743E6DEA75E04ECF46E050E06FEA9F
:1015800075E0C7010E94913E892B69F4C8010E9451
:101590002C367C01C5010E942C36F0E1EF16F104D7
:1015A00008F405C1BEC146E050E067EC75E0C70134
:1015B0000E94913E892B79F466EC75E089E597E00D
:1015C0000E94A0156DEE72E0CE0101960E948A3E47
:1015D000E6E0F7E019C045E050E06FEC75E0C701C8
:1015E0000E94913E892B21F56EEC75E089E597E02C
:1015F0000E94A0150E9403296DEE72E0CE010196B3
:101600000E948A3EE8E0F7E06591749184EA96E0F2
:101610000E94533664EA76E0CE0101960E94743E41
:101620006BEE72E0CE0101960E94743E11E06CC038
:1016300046E050E065ED75E0C7010E94913E892BC0
:1016400009F03AC06DEE72E0CE0101960E948A3E2A
:10165000EAE0F7E06591749184EA96E00E945336DF
:1016600064EA76E0CE0101960E94743EECE0F7E079
:101670006591749184EA96E00E94533664EA76E0BC
:10168000CE0101960E94743EEEE0F7E06591749100
:1016900084EA96E00E94533664EA76E0CE01019631
:1016A0000E94743E0E94EC15DC01CB014AE064EA22
:1016B00076E00E94853643C1E6ECF6E065917491D0
:1016C00084EA96E00E94533664EA76E080E198E08E
:1016D0000E94A01564EA76E089E597E00E94A015D3
:1016E000ECECF6E06591749184EA96E00E94533642
:1016F00064EA76E080E198E00E94A01580E198E03D
:101700000E949C1510E035C0E4ECF6E06591749100
:1017100084EA96E00E94533664EA76E080E198E03D
:101720000E94A015ECECF6E06591749184EA96E0D5
:101730000E94533664EA76E080E198E00E94A015AA
:10174000EAECF6E06591749184EA96E00E945336E3
:1017500064EA76E080E198E00E94A01580E198E0DC
:101760000E949C15BE016F5F7F4F80E198E00E9450
:10177000A015F601808191810E94F033C650DD4FA3
:1017800088819981CA5FD2400E94F03364E670E09C
:1017900080E090E00E94B21580E198E00E94DF16A0
:1017A000112309F4CFC0E0E0F0E01995CBC0970118
:1017B00025523D4F7901019739F5F701B0804AE094
:1017C000BE016F5F7F4F8B2D90E00E948536E0ED6C
:1017D000F6E06591749184EA96E00E94533666EBD8
:1017E00075E084EA96E00E94743EBE016F5F7F4F11
:1017F00084EA96E00E94743E64EA76E089E597E028
:101800000E94A01561E026C0F701B0804AE0BE0149
:101810006F5F7F4F8B2D90E00E948536E2EDF6E002
:101820006591749184EA96E00E94533666EB75E008
:1018300084EA96E00E94743EBE016F5F7F4F84EAA7
:1018400096E00E94743E64EA76E089E597E00E94A3
:10185000A01560E08B2D0E94C71E6DEE72E0CE01D8
:1018600001960E948A3EE6EFF6E06591749184EA63
:1018700096E00E94533664EA76E0CE0101960E941B
:10188000743EB801CE0101960E94743EE8EFF6E086
:101890006591749184EA96E00E94533664EA76E09A
:1018A000CE0101960E94743EF70110814AE064EA7D
:1018B00076E0812F90E00E94853664EA76E0CE01E2
:1018C00001960E94743EEAEFF6E06591749184EA15
:1018D00096E00E94533664EA76E0CE0101960E94BB
:1018E000743E812F0E949E1E4AE064EA76E00E94C8
:1018F000853664EA76E0CE0101960E94743E6BEE76
:1019000072E0CE0101960E94743E8CEB95E00E943D
:101910003D26BE016F5F7F4F89E597E00E94A015CD
:101920007ECD6DEE72E0CE0101960E948A3EE4E02B
:10193000F7E06591749184EA96E00E94533664EA78
:1019400076E063CDCE5FDC4F0FB6F894DEBF0FBEFE
:10195000CDBFDF91CF911F910F91FF90EF90DF905E
:10196000CF90BF90AF909F908F907F906F905F903F
:101970004F900895CF93DF931F92CDB7DEB7698361
:10198000DC01ED91FC910280F381E02D41E050E01B
:10199000BE016F5F7F4F19950F90DF91CF91089532
:1019A000FC01818D928D0895FC01848995890895AB
:1019B00025EB33E0FC0131832083FB014089518911
:1019C00062897389FC01428353836483758308951C
:1019D000DC01ED91FC91048CF58DE02D199480E0F3
:1019E00008952C9A08952C9808958EBD00000DB48A
:1019F00007FEFDCF8EB508950895FC011382128273
:101A000088EE93E0A0E0B0E084839583A683B7835B
:101A100083EF92E09183808385EB93E097878687BD
:101A2000108A118A128A138A84E0808F0895AF92F7
:101A3000BF92CF92DF92EF92FF920F931F93CF93BB
:101A4000DF93CDB7DEB7AF970FB6F894DEBF0FBE0A
:101A5000CDBF7C015B016A0105EB13E01A830983AA
:101A60001B821C821D821E82CE0109960E94FD0CE3
:101A70001BA70AA71CA61DA61EA61FA68091F807D5
:101A80009091F907A091FA07B091FB078EA39FA34D
:101A9000A8A7B9A78B839C83AD83BE8318861F82BA
:101AA000AE01465D5F4FB501CE0101960E94221C3A
:101AB00081309105B1F4D701ED91FC910488F5894D
:101AC000E02D1DA30CA38CA59DA5AEA5BFA58EA33F
:101AD0009FA3A8A7B9A7A601BE016C5D7F4FC70150
:101AE0001995AF960FB6F894DEBF0FBECDBFDF914C
:101AF000CF911F910F91FF90EF90DF90CF90BF900B
:101B0000AF900895CF92DF92EF92FF920F931F93C1
:101B1000CF93DF93EC017A018B016C01C40ED51ECB
:101B2000CC15DD05A9F00E94F30C8FE00E94F50CA6
:101B30008D2F0E94F50C8C2F0E94F50C219680E0D1
:101B40000E94F50CF80181938F010E94F10CE8CFFF
:101B5000C701DF91CF911F910F91FF90EF90DF9020
:101B6000CF900895CF92DF92EF92FF920F931F9341
:101B7000CF93DF93EC017A018B016C01C40ED51E6B
:101B8000CC15DD05A1F00E94F30C80EF0E94F50C4E
:101B90008D2F0E94F50C8C2F0E94F50C2196F801D8
:101BA00081918F010E94F50C0E94F10CE9CFC701D1
:101BB000DF91CF911F910F91FF90EF90DF90CF9029
:101BC00008951F93CF93DF93D82F192FC62F0E940C
:101BD000F30C80EF0E94F50C812F0E94F50C8D2FE5
:101BE0000E94F50C8C2F0E94F50C0E94F10C81E0F4
:101BF000DF91CF911F9108959B0190E00496982F5B
:101C00008827642F820F931F0C94E10DCF93DF93ED
:101C100090E00496982F8827EC01C60FD71F0E94EA
:101C2000F30C8FE00E94F50C8D2F0E94F50C8C2F89
:101C30000E94F50C80E00E94F50CC82F0E94F10C68
:101C40008C2FDF91CF9108951F93CF93DF93182F9F
:101C500066E270E00E94060EC82FD0E067E270E0F6
:101C6000812F0E94060EDC2FCC279E01282BC90154
:101C7000DF91CF911F9108951F93CF93DF93182F7A
:101C800060E270E00E94060EC82FD0E061E270E0D2
:101C9000812F0E94060EDC2FCC279E01282BC90124
:101CA000DF91CF911F910895CF93DF93C82FD62F47
:101CB000472F60E170E00E94FC0D4D2F61E170E064
:101CC0008C2FDF91CF910C94FC0D90E0982F8827FA
:101CD00044E050E0845F9B4F0C94B20D08958CBD9E
:101CE0009DBD08958F929F92AF92BF92DF92EF9227
:101CF000FF920F931F93CF93DF931F921F92CDB745
:101D0000DEB77C014B018A01FC01A688B788D08C24
:101D1000CE0101960E94832189819A810E946F0ED3
:101D20008D2D0E9468238017910720F48D2D0E942D
:101D300068238C019801A401B5018D2D0E94032315
:101D4000F70186899789800F911F978B868BC80131
:101D50000F900F90DF91CF911F910F91FF90EF9017
:101D6000DF90BF90AF909F908F9008951F93CF9377
:101D7000DF931F921F92CDB7DEB7FC01108DCE010D
:101D800001960E94832189819A810E946F0E60E2F0
:101D900070E0812F0E94732162E070E0812F0E9429
:101DA000060E84FD19C062E070E0812F0E94060ECD
:101DB00083FF09C048E162E070E0812F0E94FC0DC2
:101DC00080E090E011C0CE0101960E9483218981BC
:101DD0009A810E946F0EE0CF40E162E070E0812FB7
:101DE0000E94FC0D81E090E00F900F90DF91CF9169
:101DF0001F910895DF92EF92FF920F931F93CF935D
:101E0000DF931F921F92CDB7DEB7FB01DC0157961F
:101E10001C921E9256972281211109C02381211103
:101E200006C02481211103C025812223E1F0411540
:101E30005105C9F07A018F01FC01D08CCE010196C9
:101E40000E94832189819A810E946F0EB8016E5F82
:101E50007F4F8D2D0E94650EB7018D2D0E94540E6F
:101E600081E090E002C080E090E00F900F90DF9161
:101E7000CF911F910F91FF90EF90DF900895CF9237
:101E8000DF92FF920F931F93CF93DF931F921F92C6
:101E9000CDB7DEB7F82E6B01CE0101960E948321EB
:101EA00089819A810E946F0E68E270E08F2D0E94F6
:101EB000060E082F10E069E270E08F2D0E94060EDA
:101EC000702F6627682B21E030E0A6018F2D0E943D
:101ED000BB2281E090E00F900F90DF91CF911F9196
:101EE0000F91FF90DF90CF900895DF92EF92FF92D5
:101EF0000F931F93CF93DF931F921F92CDB7DEB73F
:101F0000D82ECE0101960E94832189819A810E9458
:101F10006F0EE12CF12C8D2D0E94240E8C01892B4B
:101F200021F08D2D0E94240E7C010E151F0599F7BE
:101F3000C8010F900F90DF91CF911F910F91FF90EB
:101F4000EF90DF9008958F929F92BF92CF92DF9291
:101F5000EF92FF920F931F93CF93DF931F921F92E5
:101F6000CDB7DEB7B82E6B017A01CE0101960E9483
:101F7000832189819A810E946F0E812C912C8B2D57
:101F80000E94240E8C01892B21F08B2D0E94240E9F
:101F90004C010815190599F70115110599F463E02D
:101FA00070E08B2D0E94060E8431D9F18823C9F18F
:101FB00001E010E08C3111F400E010E01195019582
:101FC00011092FC0E016F1060CF487011016110656
:101FD00044F568E270E08B2D0E94060EE82EF12C8D
:101FE00069E270E08B2D0E94060EFE2CEE24E82A9A
:101FF0009801A601B7018B2D0E94BB22E00EF11EB5
:102000004F2D68E270E08B2D0E94FC0D4E2D69E291
:1020100070E08B2D0E94FC0D60E470E08B2D0E941F
:102020007321C8010F900F90DF91CF911F910F91F5
:10203000FF90EF90DF90CF90BF909F908F9008958A
:102040000F931F93CF93DF93CDB7DEB728970FB6CB
:10205000F894DEBF0FBECDBF8C01D80159968D918B
:102060009C915A97892B41F0ED91FC910284F38564
:10207000E02DC8011995F1CFF801808D0E94750FF0
:102080001816190654F548E050E0BE016F5F7F4F07
:10209000D80158968C910E94A30F18161906FCF4CB
:1020A000D801509684E0FE01319601900D928A95F8
:1020B000E1F78D8190E0982F88272E81820F911D66
:1020C000F801958B848B8F8190E0982F8827288545
:1020D000820F911D928F818F02C080E090E0289640
:1020E0000FB6F894DEBF0FBECDBFDF91CF911F9129
:1020F0000F9108951F93CF93DF931F921F92CDB737
:10210000DEB7182FCE0101960E94832189819A8122
:102110000E946F0E60E170E0812F0E9473214FEFEB
:1021200062E070E0812F0E94FC0D0F900F90DF9114
:10213000CF911F910895CF93DF93EC01888D843068
:1021400061F00E947A10E88DF0E0EE0FFF1FE4517D
:10215000F94F1182108284E0888FDF91CF9108952A
:10216000DF92EF92FF920F931F93CF93DF931F9213
:102170001F92CDB7DEB7182FD62E7A01022F0E94FC
:102180007A10CE0101960E94832189819A810E9452
:102190006F0E4D2D402B60E070E0812F0E94FC0DF2
:1021A000E114F10459F4E090EA06F090EB068FEFA9
:1021B000E81AF80AF092EB06E092EA064F2D64E086
:1021C00070E0812F0E94FC0D4E2D65E070E0812FA4
:1021D0000E94FC0D61E070E0812F0E94732181E07C
:1021E0000F900F90DF91CF911F910F91FF90EF9083
:1021F000DF9008951F93CF93DF931F921F92CDB767
:10220000DEB7182FCE0101960E94832189819A8121
:102210000E946F0E63E070E0812F0E94060E0F9007
:102220000F90DF91CF911F910895EF92FF921F932E
:10223000CF93DF93FC01208D243011F080E01CC08F
:102240007B01EC0110E0812F0E94FA10811102C085
:10225000188F05C08831E1F31F5F1430A1F7888D16
:10226000843061F3FD86EC861A8E198E20E0A7017A
:1022700062E00E94B01081E0DF91CF911F91FF904A
:10228000EF900895DC0180E0615098F02D91982F37
:102290009227E92FEF70F0E0E35AFC4F24919295DA
:1022A0009F70E92FF0E0E359FC4FE491822F8E27D5
:1022B000EBCF0895FC0190810180F281E02DF8942C
:1022C0008181892B81832281892F809528232283F4
:1022D000A7E0B0E01197F1F7218182238183A3E287
:1022E000B0E01197F1F780817894EFECF0E031974E
:1022F000F1F7982381E009F480E00895FC019081D2
:102300000180F281E02D892F809560FF12C0F89442
:102310002281822382838181892B8183A3E2B0E0A1
:102320001197F1F78281982B9283789487ED90E052
:1023300011C0F8942281822382838181892B818339
:10234000AFEFB0E01197F1F78281982B92837894E8
:102350008FE090E00197F1F70895DF92EF92FF92FE
:102360000F931F93CF93DF93EC01D62EE42E08E05A
:1023700010E0FF24F39461E08D2D8F2109F460E0DB
:10238000CE010E947E11FF0C01501109A1F7E1104E
:1023900010C0F894E981FA81918188818095892320
:1023A0008183E981FA819281888180958923828362
:1023B0007894DF91CF911F910F91FF90EF90DF9074
:1023C0000895EF92FF920F931F93CF93DF938C01A9
:1023D0007B0140E065E50E94AD11E70188E0E80E71
:1023E000F11C699140E0C8010E94AD11CE15DF05D6
:1023F000C1F7DF91CF911F910F91FF90EF9008955A
:10240000DC012C911196ED91FC911297F894818149
:10241000922F90958923818378948DE743E050E053
:10242000815021F1DA011197F1F730813223C1F3A4
:10243000F8948281892382838181822B818378949D
:10244000ABE7B7E01197F1F7F89481819823918376
:1024500083E191E00197F1F78081282381E009F081
:1024600080E07894E3E6F6E03197F1F70895089577
:10247000CF92DF92EF92FF920F931F93CF93DF9350
:102480006C017A018B01C0E0D0E0CE15DF0581F050
:10249000D8016D918D01D601ED91FC910190F081F3
:1024A000E02DC6011995892B11F02196EECF7E0102
:1024B000C701DF91CF911F910F91FF90EF90DF90B7
:1024C000CF9008953FB7F8948091F9069091FA065D
:1024D000A091FB06B091FC0626B5A89B05C02F3F36
:1024E00019F00196A11DB11D3FBFBA2FA92F982F3A
:1024F0008827820F911DA11DB11DBC01CD0142E0B5
:10250000660F771F881F991F4A95D1F70895CF93BB
:10251000DF931F92CDB7DEB76983DC01ED91FC91AB
:102520000280F381E02D41E050E0BE016F5F7F4FFC
:1025300019950F90DF91CF910895FC019485FB01CF
:102540008485981303C081E0943009F480E00895F5
:1025500021E0FC018485843009F420E0822F089575
:102560000895CF93DF931F92CDB7DEB76983DC0167
:10257000ED91FC910280F381E02D41E050E0BE013D
:102580006F5F7F4F19950F90DF91CF910895DC0118
:10259000ED91FC91068CF78DE02D199591E089273E
:1025A0000895862F089581E08627089508950E9452
:1025B000593E0F931F93CF93DF931F92CDB7DEB792
:1025C0008C01DC01ED91FC910084F185E02D1995E1
:1025D000892B51F0BE016F5F7F4FF80184850E9407
:1025E0003F0F898190E002C08FEF9FEF0F90DF9146
:1025F000CF911F910F910895CF93DF931F92CDB785
:10260000DEB7FC01218D328D232B49F0BE016F5FB7
:102610007F4F808D0E943F0F898190E002C08FEF35
:102620009FEF0F90DF91CF910895FC0184850C946A
:10263000A30FCF93DF931F92CDB7DEB741E050E0F9
:10264000BE016F5F7F4FFC0184850E94A30F1816A7
:1026500019061CF4898190E002C08FEF9FEF0F9064
:10266000DF91CF910895CF93DF93FC01218D328DBF
:102670002115310519F48FEF9FEF11C0EC014217BE
:10268000530708F0A901888D0E94A30F1816190698
:1026900094F7298D3A8D281B390B3A8F298FDF91BA
:1026A000CF9108950F931F93CF93DF931F92CDB7D0
:1026B000DEB7FC01218D328D232B61F08C0141E0CE
:1026C00050E0BE016F5F7F4F808D0E94A30F1816F0
:1026D00019061CF08FEF9FEF08C0F801818D928DD5
:1026E0000197928F818F898190E00F90DF91CF9138
:1026F0001F910F910895FC018485843011F00C9492
:10270000750F80E090E008956F927F928F929F9274
:10271000AF92BF92CF92DF92EF92FF920F931F93EF
:10272000CF93DF931F921F92CDB7DEB75C013B01C1
:102730006A01FC011485143041F481E090E0F50158
:102740009383828380E090E064C07A0141305840F6
:1027500018F0E12C88E0F82ECE0101960E9483212A
:1027600089819A810E946F0E812F0E9468234C01FB
:1027700063E070E0812F0E94060E082F0E946E0E0B
:10278000073111F00C3121F48E149F0428F302C09C
:10279000E12CF12CCE0101960E94832189819A813E
:1027A0000E946F0E9701A30160E070E0812F0E94EC
:1027B000032360E270E0812F0E94732162E070E0E9
:1027C000812F0E94060E84FD18C063E070E0812F07
:1027D0000E94060E811106C00E946E0E812F0E947B
:1027E0007A10ABCF0E946E0ECE0101960E9483211B
:1027F00089819A810E946F0EE1CF40E162E070E032
:10280000812F0E94FC0D0E946E0EEF2809F495CFD7
:10281000C6010F900F90DF91CF911F910F91FF9004
:10282000EF90DF90CF90BF90AF909F908F907F9070
:102830006F900895BF92CF92DF92EF92FF920F9325
:102840001F93CF93DF9300D000D0CDB7DEB7FC014C
:10285000208D243009F04CC06A017B018C01B12C21
:1028600063E070E08B2D0E94060E811103C0F80119
:10287000B08E06C08831D9F3B394F4E0BF12F0CF24
:10288000F801808D8430A1F196E0E7E1F3E0DE010C
:10289000119601900D929A95E1F7F70193819F7738
:1028A0009C8394819D8395819E83B7016E5F7F4F4A
:1028B0000E94650EB601F801808D0E94540EF80149
:1028C000808D90E0982F882746E050E0BE016F5F32
:1028D0007F4F8A5F9B4F0E94B20DF801128E118EBE
:1028E00020E8A60162E0808D0E94B01081E001C066
:1028F00080E026960FB6F894DEBF0FBECDBFDF9105
:10290000CF911F910F91FF90EF90DF90CF90BF90EC
:102910000895FC01848DDF01A80FB11DA35ABF4F9C
:102920002C91848D90E001968F739927848FA689CE
:10293000B7892C93A089B1898C91837080648C9322
:10294000938D848D981306C00288F389E02D8081D1
:102950008F7D80830895CF93DF93FC01248135819F
:10296000232B69F0C081D181062E000C770BCE019C
:102970000E947F3E009719F08C1B9D0B02C08FEFC9
:102980009FEFDF91CF910895EF92FF920F931F93E6
:10299000CF93DF93EC017B018A01888199810097B5
:1029A00029F02A813B8124173507F8F4B8016F5FBD
:1029B0007F4F0E94743D009759F0998388831B8351
:1029C0000A832C813D81232B81F4FC0110820DC0F0
:1029D00088819981009711F00E94F0331982188242
:1029E0001D821C821B821A8207C01D830C83B701C3
:1029F000888199810E948A3ECE01DF91CF911F91FB
:102A00000F91FF90EF900895FC01118210821382C4
:102A10001282158214826115710551F0FB0101903B
:102A20000020E9F73197AF01461B570B0C94C414F3
:102A30000895863308F0865390917B00282F2870E4
:102A4000977F922B90937B002091C20290E4299F64
:102A5000900111248770822B80937C0080917A00F2
:102A6000806480937A0080917A0086FDFCCF80910B
:102A700078002091790090E0922B089561157105FE
:102A800079F0FB0101900020E9F73197AF01461B77
:102A9000570BDC01ED91FC910280F381E02D19943C
:102AA00080E090E008958F929F92AF92BF92EF9254
:102AB000FF920F931F93CF93DF93CDB7DEB7A1970C
:102AC0000FB6F894DEBF0FBECDBF7C01FA01CB017B
:102AD00019A2223008F42AE08E010F5D1F4F822ECA
:102AE000912CA12CB12CBF01A50194010E94D23BD5
:102AF000F901CA01015011096A3014F4605D01C086
:102B0000695CD8016C93232B242B252B61F7B8012A
:102B1000C7010E943E15A1960FB6F894DEBF0FBE06
:102B2000CDBFDF91CF911F910F91FF90EF90BF909C
:102B3000AF909F908F9008956CED75E00C943E15CA
:102B40000F931F93CF93DF93EC010E943E158C01EE
:102B5000CE010E949C15800F911FDF91CF911F9194
:102B60000F9108958F929F92AF92BF92CF92DF9272
:102B7000EF92FF926B017C010E9462124B015C019B
:102B8000C114D104E104F104F1F00E946212DC01ED
:102B9000CB0188199909AA09BB09883E9340A10570
:102BA000B10570F321E0C21AD108E108F10888EEFE
:102BB000880E83E0981EA11CB11CC114D104E1044D
:102BC000F10419F7DDCFFF90EF90DF90CF90BF9029
:102BD000AF909F908F9008952FB7F8946091F5066D
:102BE0007091F6068091F7069091F8062FBF089530
:102BF0001F920F920FB60F9211242F933F938F9332
:102C00009F93AF93BF938091F5069091F606A091A4
:102C1000F706B091F8063091F40623E0230F2D3724
:102C200020F40196A11DB11D05C026E8230F0296D0
:102C3000A11DB11D2093F4068093F5069093F6062E
:102C4000A093F706B093F8068091F9069091FA06E2
:102C5000A091FB06B091FC060196A11DB11D8093C9
:102C6000F9069093FA06A093FB06B093FC06BF9179
:102C7000AF919F918F913F912F910F900FBE0F9029
:102C80001F901895FC018485843011F00C94FA1083
:102C900080E008958F929F92AF92BF92CF92DF9281
:102CA000EF92FF920F931F93CF93DF93CDB7DEB7D1
:102CB0002F970FB6F894DEBF0FBECDBF7C0100E0AA
:102CC00010E038EE832E33E0932EA12CB12C45E793
:102CD000C42E43E0D42E1C821B828D829E82AF8242
:102CE000B886DA82C9820D87CE0101960E9442160B
:102CF000811129C0F7014481558120E061E0802FD6
:102D00000E94B010CE010E960E9483218E859F8571
:102D10000E946F0E63E070E0802F0E94060E8331E8
:102D200029F462E070E0802F0E9473210E946E0EF1
:102D3000F70184819581000F111FF801E451F94FCB
:102D40009183808305C00F5F1F4F0430110519F672
:102D50002F960FB6F894DEBF0FBECDBFDF91CF9197
:102D60001F910F91FF90EF90DF90CF90BF90AF90A9
:102D70009F908F900895CF93DF93FC01248524309A
:102D8000D1F0EC010E944216843181F0882371F069
:102D9000883161F08C3161F4E881F9810084F1853A
:102DA000E02DCE01199521E0892B19F420E001C016
:102DB00021E0822F01C080E0DF91CF910895CF9272
:102DC000DF92EF92FF920F931F93CF93DF931F92A7
:102DD0001F92CDB7DEB7DC011C96FC90B4E0FB1669
:102DE000F1F18C01CE0101960E94832189819A81A3
:102DF0000E946F0E68E070E08F2D0E9473210E9488
:102E00006E0E0E94EC156B017C01C8010E944216F7
:102E10008823B9F061E070E080E090E00E94B21594
:102E20000E94EC15DC01CB018C199D09AE09BF098C
:102E3000883E9340A105B10540F3F80184850E94C6
:102E40007A10D8011C96EC911C97F0E0EE0FFF1F52
:102E5000E451F94F1182108284E01C968C930F90FC
:102E60000F90DF91CF911F910F91FF90EF90DF9026
:102E7000CF9008954F925F926F927F928F929F9220
:102E8000AF92BF92CF92DF92EF92FF921F93CF93B8
:102E9000DF93CDB7DEB72D970FB6F894DEBF0FBE28
:102EA000CDBF7C019CEEC92E96E0D92E10E0A12C5E
:102EB000B12C28EE422E23E0522E612C712C35E7E6
:102EC000832E33E0932E1C821B824D825E826F82A2
:102ED00078869A8289821D87D6012D913D916D0158
:102EE000F7018481958128173907B1F4CE01019645
:102EF0000E944216843169F0CE0101960E9442166A
:102F00008C3151F4CE0101960E947B13892B91F0F4
:102F100003C0AA24A394B12C1F5F1430A1F6AB28E0
:102F200071F4D701ED91FC910084F185E02DC7018A
:102F3000199505C0CE0101960E94DF16EDCF2D96A2
:102F40000FB6F894DEBF0FBECDBFDF91CF911F91BA
:102F5000FF90EF90DF90CF90BF90AF909F908F90B9
:102F60007F906F905F904F9008953F924F925F9245
:102F70006F927F928F929F92AF92BF92CF92DF9289
:102F8000EF92FF920F931F93CF93DF93CDB7DEB7EE
:102F90002D970FB6F894DEBF0FBECDBF6C015B015D
:102FA0004A010E943A178CEEE82E86E0F82E312C6A
:102FB00000E010E098EE492E93E0592E612C712C20
:102FC0001C821B824D825E826F82788685E793E049
:102FD0009A8389833D86F701219131917F01F60122
:102FE000848195812817390731F4CE0101960E941A
:102FF00042168731E9F03394F4E03F12E1CFC80183
:103000002D960FB6F894DEBF0FBECDBFDF91CF91E6
:103010001F910F91FF90EF90DF90CF90BF90AF90F6
:103020009F908F907F906F905F904F903F9008950A
:10303000A401B501CE0101960E948413080F191F47
:10304000DACFAF92BF92DF92EF92FF920F931F936E
:10305000CF93DF931F921F92CDB7DEB7FC0124857B
:10306000243009F078C05A018B017C01D12C8D2DC0
:103070000E94FA10811103C0F701D48607C08B7F2C
:103080008831D1F3D394F4E0DF12F1CFF7018485D6
:10309000843009F460C02091C0023091C1022F5FDA
:1030A0003F4F11F420E030EC3093C1022093C00276
:1030B0004091C0025091C10220E061E00E94B01036
:1030C000F80182818F3F51F483818F3F99F484818D
:1030D0008F3F81F485818F3F69F43AC081110AC026
:1030E000F8018381811106C08481811103C085812B
:1030F000882371F1A114B10459F1F701D484CE01F0
:1031000001960E94832189819A810E946F0EB801E5
:103110006E5F7F4F8D2D0E94650EB5018D2D0E9433
:10312000540E64E070E08D2D0E9473210E946E0E9B
:10313000C7010E944216873189F061E070E080E0AB
:1031400090E00E94B215C7010E9442168111F0CF93
:1031500084E0F701848780E090E002C081E090E0A5
:103160000F900F90DF91CF911F910F91FF90EF90F3
:10317000DF90BF90AF90089544E050E0BC018FE035
:1031800090E00C94B20DAF92BF92CF92DF92EF928B
:10319000FF920F931F93CF93DF93CDB7DEB7AF9717
:1031A0000FB6F894DEBF0FBECDBF7C015B016A0194
:1031B00005EB13E01A8309831B821C821D821E8289
:1031C000CE0109960E94FD0C1BA70AA71CA61DA6EE
:1031D0001EA61FA68091F8079091F907A091FA0703
:1031E000B091FB078EA39FA3A8A7B9A78B839C834D
:1031F000AD83BE8318861F82AE01465D5F4FB50169
:10320000CE0101960E94221C81309105B1F4D701B4
:10321000ED91FC910684F785E02D1DA30CA38CA5F0
:103220009DA5AEA5BFA58EA39FA3A8A7B9A7A601DC
:10323000BE016C5D7F4FC7011995AF960FB6F8942C
:10324000DEBF0FBECDBFDF91CF911F910F91FF90D9
:10325000EF90DF90CF90BF90AF90089590E0FC0189
:103260003197E231F10508F04EC08827EE58FF4F44
:103270008F4F0C94513D809180008F7703C08091D7
:1032800080008F7D80938000089580918000877FEB
:10329000F9CF84B58F7702C084B58F7D84BD089542
:1032A0008091B0008F7703C08091B0008F7D8093B4
:1032B000B0000895809190008F7707C080919000B2
:1032C0008F7D03C080919000877F80939000089548
:1032D0008091A0008F7707C08091A0008F7D03C0F0
:1032E0008091A000877F8093A000089580912001A5
:1032F0008F7707C0809120018F7D03C080912001CE
:10330000877F809320010895FC01538D448D252FE4
:1033100030E0842F90E0821B930B541710F0CF966F
:10332000089501970895FC01918D828D981761F0A1
:10333000828DDF01A80FB11D5D968C91928D9F5FEC
:103340009F73928F90E008958FEF9FEF0895FC0197
:10335000918D828D981731F0828DE80FF11D858D4A
:1033600090E008958FEF9FEF0895FC01918D228DDD
:10337000892F90E0805C9F4F821B91098F73992762
:103380000895EF92FF920F931F93CF93DF93EC0179
:1033900081E0888F9B8D8C8D981305C0E889F98911
:1033A000808185FD26C0F62E0B8D10E00F5F1F4F2C
:1033B0000F731127E02E8C8DE8120CC00FB607FC9E
:1033C000FACFE889F989808185FFF5CFCE010E9487
:1033D0008914F1CF8B8DFE01E80FF11DE35AFF4FE9
:1033E000F0829FB7F8940B8FEA89FB898081806215
:1033F0000AC09FB7F894EE89FF896083E889F9894C
:1034000080818370806480839FBF81E090E0DF9142
:10341000CF911F910F91FF90EF900895CF93DF937D
:10342000EC01888D8823C9F0EA89FB89808185FDBC
:1034300005C0A889B9898C9186FD0FC00FB607FC1D
:10344000F5CF808185FFF2CFA889B9898C9185FF5E
:10345000EDCFCE010E948914E7CFDF91CF9108957F
:103460008F929F92AF92BF92CF92DF92EF92FF9294
:103470000F931F93CF93DF937C01EB016C0182E0EC
:10348000C80ED11C4701E5E08E0E911C00E010E053
:10349000F60141916F0150E060E070E02AE0CE015A
:1034A0000E9453155C01E881F9810190F081E02DC3
:1034B0006EE2CE0119958A0D9B1D080F191F8C1401
:1034C0009D0431F7F701458150E060E070E02AE0AB
:1034D000CE010E945315800F911FDF91CF911F9154
:1034E0000F91FF90EF90DF90CF90BF90AF909F90A3
:1034F0008F9008957F928F929F92AF92BF92CF92BA
:10350000DF92EF92FF920F931F93CF93DF93CDB78C
:10351000DEB7A6970FB6F894DEBF0FBECDBF8C0105
:10352000762E942E852E20E2B22ECE0101967C01BD
:10353000FC012B2D11922A95E9F785EB93E09AA3D4
:1035400089A38FEF8BA38CA38DA38EA3680183E443
:10355000C80ED11C43E450E0BE016F5D7F4FC60131
:103560000E94FA0E019609F4B9C081E089838A832A
:1035700086E0A82EAB821C82F80164817581868169
:1035800097810E94593D6D837E838F8398878986BA
:103590009A8680E890E09C878B874CE150E0B701E9
:1035A000C6010E94720EF7012B2D11922A95E9F7A0
:1035B000480188E0880E911CF401D70101900D921A
:1035C000AA94E1F740E150E0B701C6010E94720EF3
:1035D000F7011192BA94E9F796E0A92EB12C40E2D6
:1035E00050E0B701C6010E94720EF1E0AF1AB108B7
:1035F000B1F783E6898392E89A8393E59B838C8372
:1036000085E38D8381E08E837F829DE3988797E0B9
:1036100099878A8786E0F401DE011B9601900D925E
:103620008A95E1F78CE0898B8A8B6FED75E0CE018E
:1036300043960E948A3EF8016385CE0149960E9416
:103640008423F8016485CE014B960E948423F801FF
:103650006585CE014D960E9484234EE150E0B7016E
:10366000C6010E94720EF3E07F121EC082E38983BE
:1036700084E08A83F80196859B8397859C83908953
:103680009D8391899E8396E39F838887828D898716
:10369000838D8A87848D8B87858D8C874CE050E065
:1036A000B701C6010E94720E87E3898386E08A8390
:1036B00091E09B8393E09C838D838FE08E838AE3EC
:1036C0008F838BE388878FEF898749E050E0B701CC
:1036D000C6010E94720EC6010E94B60EA6960FB6D3
:1036E000F894DEBF0FBECDBFDF91CF911F910F9138
:1036F000FF90EF90DF90CF90BF90AF909F908F9012
:103700007F9008950F931F93CF93DF93CDB7DEB7CC
:1037100029970FB6F894DEBF0FBECDBF8C01809104
:103720003508909136080E940012882309F1BE01E5
:103730006F5F7F4FC8010E9442268823C9F068E06E
:10374000CE0101960E9442119985891311C08D8185
:103750008F3361F020F48F3159F489E00CC08F353C
:1037600019F08F3739F004C08BE005C08AE003C040
:1037700080E001C08CE029960FB6F894DEBF0FBE42
:10378000CDBFDF91CF911F910F91089530914707E1
:10379000313208F04BC0809123078111FCCF90910A
:1037A000460722E02093230721E0209322072FEFF2
:1037B000209321071092200730931F07E6E2F7E0DD
:1037C000AFEFB6E020E0321721F041914D932F5F2B
:1037D000FACF1092FE062091FE06990F922B90933D
:1037E000FE069091FD06913061F41092FD069091D5
:1037F000FE069093BB009091BC0093FDF8CF95EC32
:1038000001C095EE9093BC00909123079230E1F3B4
:10381000909121079F3F79F080912107803241F0FC
:1038200080912107803331F084E005C081E003C03E
:1038300082E001C083E010922507109247071092A2
:10384000240708954F925F926F927F928F929F927A
:10385000AF92BF92CF92DF92EF92FF920F931F939E
:10386000CF93DF93CDB7DEB763970FB6F894DEBF83
:103870000FBECDBF7C015B013A01FB0120E080E07F
:1038800090E06AE03191332309F140ED430F4A3073
:1038900080F4689FA001699F500D1124CA01C09750
:1038A000830F911D37FD9A958F3F910559F350F382
:1038B00013C03E3289F4233079F0D301A20FB11D39
:1038C00012968C932F5F80E090E0DCCF233021F4C0
:1038D000F301858381E021C0F70142815381648136
:1038E00075818091000890910108A0910208B09123
:1038F0000308481759076A077B0709F495C10E9416
:10390000EC158701085F1F4F6F7077277C5FC80138
:103910000E941511813019F080E090E0F8C185EB2C
:1039200093E09A838983F70182819381A481B58191
:103930008B839C83AD83BE8345E350E0BE016F5F04
:103940007F4FC8010E94FA0E892B19F4C12CD12C8B
:1039500066C10E94EC15F701778366837627672797
:1039600076277A83698342E050E0BE016F5F7F4F24
:10397000C8010E94720E81E090E09E878D8742E030
:1039800050E0BE01635F7F4FC8010E94720E80E06D
:1039900091E09E878D8742E050E0BE01635F7F4FDC
:1039A000C8010E94720E1E861D8642E050E0BE01D4
:1039B000635F7F4FC8010E94720E42E050E0BE017B
:1039C000635F7F4FC8010E94720E42E050E0BE016B
:1039D000635F7F4FC8010E94720E4501F50180812F
:1039E000882301F164015601F60181912F0188239A
:1039F00021F08E3211F06201F6CFC818D9081C14DC
:103A00001D0474F4CF8641E050E0BE01615F7F4F3A
:103A1000C8010E94720EA601B401C8010E94720E74
:103A20004201DCCF1F8641E050E0BE01615F7F4F65
:103A3000C8010E94720EC12CDD24D394DE86CD868F
:103A400042E050E0BE01635F7F4FC8010E94720EEA
:103A5000DE86CD8642E050E0BE01635F7F4FC80145
:103A60000E94720EC8010E94B60E892B09F46ECF17
:103A7000E3E0AE2EB12C230122E0420E511C0E9445
:103A8000EC153B014C01C8010E94201018161906C4
:103A9000A4F00E94EC15DC01CB0186199709A80956
:103AA000B90989389341A105B105D0F462E370E00A
:103AB00080E090E00E94B215E6CFF7014281538189
:103AC00064817581808D918DA28DB38D48175907C2
:103AD0006A077B0749F4848D958DC59729F409C041
:103AE000CC24CA94DC2C92C05EEFC52EDD24DA947F
:103AF0008DC0F70181A192A10C970CF49DC04CE000
:103B000050E0BE016F5F7F4FC8010E9433138B816D
:103B10009C819827892798279A8B898B29813A81BC
:103B2000322723273227F70146815781241735078B
:103B300009F07DC097FF7BC08F709270892B09F0D0
:103B4000E1C06F8078847624672476246114710440
:103B500009F4D3C0C12CD12C8D819E81982789274F
:103B60009827C816D90608F46CC0812C912C41E026
:103B700050E0BE016D5E7F4FC8010E9433138B89F8
:103B8000982F907C09F08FC0811183C042E050E0F3
:103B9000BE01615F7F4FC8010E94331342E050E0D5
:103BA000BE01635F7F4FC8010E943313C8010E94AA
:103BB0005213C8010E945213C8010E945213C80137
:103BC0000E94521342E050E0BE016F5E7F4FC80179
:103BD0000E9433138F8598898115914009F06BC03D
:103BE000CD84DE84DC24CD24DC2481E0C816D1041D
:103BF00009F061C089899A898115944009F078C0DB
:103C000044E050E0B201C8010E94331381E0A81AD9
:103C1000B10829F0FFEFCF16DF0609F430CFC80155
:103C20000E949B10C60173C08EEF9FEF70C04CEFD7
:103C3000C42EDD24DA94EACF9DEFC92EDD24DA9478
:103C4000E5CF41E050E0BE01635F7F4FC8010E94B5
:103C500033138D85882351F08D859FEF980F9D87B5
:103C6000882321F0C8010E945213F6CF8D8581115F
:103C7000E8CFC8010E945213C8010E945213C80124
:103C80000E945213C8010E945213FFEFCF1ADF0A9D
:103C900063CF8B899FEF980F9B8B882341F0C801DE
:103CA0000E945213F6CFC8010E9452131B8A8B89BF
:103CB00081115DCF6BCFC12CD12C89899A8998272E
:103CC00089279827C816D90638F4C8010E945213CC
:103CD000FFEFCF1ADF0AF1CF2FEF821A920A681492
:103CE000790409F044CF26EFC22EDD24DA948ECF7A
:103CF00077EFC72EDD24DA9489CF3AEFC32EDD2487
:103D0000DA9484CF8BEFC82EDD24DA947FCF6396CC
:103D10000FB6F894DEBF0FBECDBFDF91CF911F91DC
:103D20000F91FF90EF90DF90CF90BF90AF909F905A
:103D30008F907F906F905F904F900895CF93DF9317
:103D4000282F30E0F901E956FC4F8491F901E6583B
:103D5000F94FD491F901EC5CF94FC491CC2391F067
:103D600081110E942E19EC2FF0E0EE0FFF1FE65E8E
:103D7000F94FA591B491EC91ED2381E090E021F40D
:103D800080E002C080E090E0DF91CF9108951F9322
:103D9000CF93DF93282F30E0F901E956FC4F84914F
:103DA000F901E658F94FD491F901EC5CF94FC4914F
:103DB000CC23C1F0162F81110E942E19EC2FF0E0B8
:103DC000EE0FFF1FE358FC4FA591B4919FB7F894F5
:103DD000111104C08C91D095D82302C0EC91DE2B38
:103DE000DC939FBFDF91CF911F910895CF93DF9315
:103DF00090E0FC01E658F94F2491FC01EC5CF94F8E
:103E00008491882361F190E0880F991FFC01E352AF
:103E1000FC4FC591D491FC01E358FC4FA591B4919E
:103E2000611109C09FB7F894888120958223888307
:103E3000EC912E230BC0623061F49FB7F894888117
:103E4000322F309583238883EC912E2B2C939FBFA8
:103E500006C08FB7F894E8812E2B28838FBFDF919F
:103E6000CF9108951F920F920FB60F9211240BB6A7
:103E70000F922F933F934F935F936F937F938F9303
:103E80009F93AF93BF93EF93FF9389E597E00E94D1
:103E90008914FF91EF91BF91AF919F918F917F9185
:103EA0006F915F914F913F912F910F900BBE0F90AB
:103EB0000FBE0F901F9018951F920F920FB60F9282
:103EC00011240BB60F922F938F939F93EF93FF9331
:103ED000E0916907F0916A078081E0916F07F091A6
:103EE000700782FD12C09081809172078F5F8F737F
:103EF00020917307821751F0E0917207F0E0E75AC2
:103F0000F84F958F8093720701C08081FF91EF91E8
:103F10009F918F912F910F900BBE0F900FBE0F901E
:103F20001F901895DC0185EB93E08D939D9384E0C1
:103F3000FB0101900D928A95E1F70895AF92BF922F
:103F4000CF92DF92EF92FF920F931F93CF93DF9365
:103F50007C015B01EA0169012417350720F48D2FEC
:103F6000E901C42ED82E6EED75E0C7010E9404153C
:103F7000D50114960D911C911597C017D107C8F55E
:103F8000C016D10608F48601D501ED91FC91119778
:103F9000E00FF11FD08010826D917C916C0F7D1F1E
:103FA0006115710561F0FB0101900020E9F731977F
:103FB000AF01461B570BC7010E94C41413C0F70181
:103FC00080819181009711F00E94F033D701119602
:103FD0001C921E9215961C921E92149713961C9278
:103FE0001E921297F50180819181FC01E00FF11F73
:103FF000D082C701DF91CF911F910F91FF90EF9079
:10400000DF90CF90BF90AF900895CF92DF92EF9264
:10401000FF92CF93DF93B0914A08882311F0AB2F22
:1040200001C0A0E080914B0890E0880F991F865E48
:10403000994FC0905008D0905108E0905208F090ED
:10404000530820E030E0FC01C591D491E881EB23D6
:10405000A90160E070E0EA130CC02F5F3F4F4C15E0
:104060005D056E057F0578F33FEF2FEF8FEF9FEF34
:1040700003C0322F252FCB01632F722FDF91CF91F9
:10408000FF90EF90DF90CF900895CF92DF92EF9264
:10409000FF920F931F93CF93DF93CDB7DEB7C0543A
:1040A000D1400FB6F894DEBF0FBECDBF0E94EC1515
:1040B00000914C0810914D0820914E0830914F0806
:1040C0006B017C01C01AD10AE20AF30A40EDC41662
:1040D00047E0D406E104F10418F480915408C1C00B
:1040E00060934C0870934D0880934E0890934F084E
:1040F0001092470810924608109245081092440802
:104100001092430862E0809148080E94F61E61E028
:1041100070E080E090E00E94B21561E08091480874
:104120000E94F61E60E0809148080E94C71E8091A0
:1041300049088551823028F48BE291E10197F1F72B
:1041400006C064E170E080E090E00E94B21562E099
:10415000809148080E94F61E8BE990E00197F1F7E4
:10416000F89480E00E9405206F3F7F4F8F4F9F4F54
:1041700021F410925408789441C081E00E940520F7
:104180006F3F7F4F8F4F9F4FA1F38E010F5F1F4FE8
:104190006E012FEBC21A2EEFD20A780180E00E9446
:1041A0000520F701608371838283938381E00E94FD
:1041B0000520F7016483758386839783F8E0EF0E0B
:1041C000F11CEC14FD0451F7789420E030E0F80184
:1041D000C080D180E280F3804481558166817781FF
:1041E000FFEFCF16DF06EF06FF0631F04F3F8FEFF0
:1041F00058076807780721F41092540880E031C00E
:10420000F90183E0F595E7958A95E1F7ED5BF74FC6
:104210008081880FC416D506E606F70608F481608B
:1042200080832F5F3F4F085F1F4F2832310579F69B
:104230002091470830E0409143088091440890E085
:10424000840F911D40914508840F911D40914608AF
:10425000840F911D99272817390771F681E0809303
:104260005408C05CDE4F0FB6F894DEBF0FBECDBF62
:10427000DF91CF911F910F91FF90EF90DF90CF9042
:104280000895CF92DF92EF92FF92CF93DF93AB012D
:10429000BC0177FF1DC06A017B016DE289E597E0F3
:1042A0000E94C119EC0144275527BA014C195D0938
:1042B0006E097F092AE089E597E00E9453158C0F6B
:1042C0009D1FDF91CF91FF90EF90DF90CF900895E9
:1042D0002AE089E597E0DF91CF91FF90EF90DF90A2
:1042E000CF900C945315CF93C82F462F61E070E008
:1042F0000E94FC0D61E070E08C2F0E94060E81117F
:10430000F9CFCF91089520E5FC0120831182089513
:104310001F93CF93DF931F921F92CDB7DEB76CE24E
:1043200071E080E090E00E94B2151FB7F894809190
:104330005807811127C0E9E6F6E08491EFEAF6E03C
:104340009491E82FF0E0EE0FFF1FE352FC4FA59190
:10435000B491EC91E92321F461E085E30E94C71E4A
:1043600061E085E30E94F61E8CB580618CBD8CB542
:1043700080648CBD61E084E30E94F61E61E083E30B
:104380000E94F61E809158078F5F809358071FBFC9
:10439000249ACE0101960E94832189819A810E94EC
:1043A0006F0E60E880E090E00E94E10D65E58BE132
:1043B00090E00E94E10D65E58AE190E00E94E10D48
:1043C0000E946E0E80E090E4909349078093480726
:1043D00080E090E6909351078093500780E098E446
:1043E00090934B0780934A0780E098E69093530799
:1043F0008093520780E090E590934D0780934C079F
:1044000080E090E7909355078093540780E098E50B
:1044100090934F0780934E0780E098E7909357075B
:10442000809356070F900F90DF91CF911F910895C1
:104430001F93CF93DF93CDB7DEB7C454D1090FB626
:10444000F894DEBF0FBECDBFFC0182819381A481B1
:10445000B58123968CAF9DAFAEAFBFAF239711E070
:1044600023961FAF239723964CAD5DAD6EAD7FAD08
:1044700023974BAB5CAB6DAB7EAB8DA79EA7AFA775
:10448000B8AB18AB4DA55EA56FA578A94FA358A7EB
:1044900069A77AA71EAB4BA95CA96DA97EA949A300
:1044A0005AA36BA37CA325EB33E03C8B2B8B4FEF04
:1044B0004D8B4E8B4F8B188E3E872D871AA74FA1A1
:1044C00058A569A57AA54F87588B698B7A8B1CA351
:1044D00049A15AA16BA17CA149875A876B877C8728
:1044E0003A8329838B839C83AD83BE830E9488217A
:1044F000CE018D5B9F4F0E94832125968EAD9FAD8F
:1045000025970E946F0E46E050E069E278E089E06E
:1045100090E00E94B20DCE0103960E94BC1844E0C8
:1045200050E0BE01615F7F4F81E090E00E94B20DDC
:1045300044E050E0BE016B5E7F4F85E090E00E945A
:10454000B20D0E946E0E1C8789859A85AB85BC854D
:104550008093F8079093F907A093FA07B093FB07AD
:10456000CC5BDF4F0FB6F894DEBF0FBECDBFDF913F
:10457000CF911F910895AF92BF92CF92DF92EF92A9
:10458000FF920F931F93CF93DF931F921F92CDB78C
:10459000DEB77A836983BA01A901E981FA81F770EC
:1045A000082F10E0000F111F005B184FD8018D91EC
:1045B0009C918E0F9F1F9F01240F351F2130384083
:1045C000A0F07A015B0160E078E06B01CE1ADF0AAF
:1045D000A601B5010E94820DA7014C195D09B50124
:1045E0006C0D7D1DF801808191810F900F90DF91FE
:1045F000CF911F910F91FF90EF90DF90CF90BF90E0
:10460000AF900C94820D9F92AF92BF92CF92DF92A7
:10461000EF92FF920F931F93CF93DF93982E8B010E
:104620005A01690164E270E00E94060EE82EF12C46
:1046300065E270E0892D0E94060EFE2CEE24E82A29
:10464000E801CE0DDF1D9E013770E92CF12CC7016A
:10465000880F991FAC01485B584F7A01FA0180819D
:104660009181820F931FA9014C0D5D1D413058406F
:1046700090F000E018E0021B130BA801B5010E94A6
:10468000B20DA601401B510BB501600F711FF70160
:104690008081918102C0A601B5010E94B20DCC0DAE
:1046A000DD1D4D2F64E270E0892D0E94FC0D4C2F22
:1046B00065E270E0892DDF91CF911F910F91FF90FE
:1046C000EF90DF90CF90BF90AF909F900C94FC0D37
:1046D000FF920F931F93CF93DF93F82E00E010E02B
:1046E0008F2D0E943C0EEC01892B21F08F2D0E9412
:1046F0003C0E8C01C017D10799F7CE01DF91CF9105
:104700001F910F91FF90089520E3FC0120833296C2
:10471000862F82958F7090E1899F601911246A30ED
:1047200014F4605D01C0695C6293682F8111F0CF61
:1047300008952F923F924F925F926F927F928F9245
:104740009F92AF92BF92CF92DF92EF92FF920F9320
:104750001F93CF93DF93CDB7DEB7E2970FB6F894F0
:10476000DEBF0FBECDBF7C012A013B0169010E9463
:10477000EC154B015C0187010D5B1F4FC8010E94C6
:10478000201018161906A4F00E94EC15DC01CB01CC
:1047900088199909AA09BB09481659066A067B06B1
:1047A000D8F062E370E080E090E00E94B215E6CFBE
:1047B00042E250E0BE016F5F7F4FC8010E94331399
:1047C0008981823011F080E060C1F8018489958987
:1047D00083349105C1F702C08FEF57C16D817E818F
:1047E0008F8198850E94593D4B015C01F6016083E1
:1047F00071838283938346E050E0B701685F7F4F07
:10480000CE014D960E945E3E892BE9F6F70180812C
:104810009181A281B38188169906AA06BB0698F2F7
:1048200084819581A681B78188159905AA05BB0564
:1048300050F289899A89AB89BC8986879787A08B32
:10484000B18B8EECC82ED12CC8010E945213F1E01E
:10485000CF1AD108C9F7712CC70182969AA789A7E8
:10486000F701B696FCA7EBA708969EA78DA73C97E5
:104870004F01899698AB8FA73897FAABE9AB170130
:10488000F6E12F0E311C27018EE1480E511CF80174
:10489000818D928D181619060CF0F6C0C8010E9481
:1048A00052138333910509F4C9C0F4F481309105A2
:1048B000B9F11CF4892B59F3DBC083309105C1F1A8
:1048C000069709F0D5C0C8010E9452136C0144E05C
:1048D00050E0B201C8010E943313A12CB12CDD2499
:1048E00094E0C91AD1083FC08A33910509F47AC00F
:1048F0003CF48533910561F0C69709F43FC0B8C018
:104900008B33910509F484C08F3F910501F2B0C04B
:10491000C8010E945213C8010E945213782EB7CFCB
:10492000C8010E94521344E050E069A97AA93AC034
:10493000C8010E9452136C0144E050E0B101C8016B
:104940000E943313A12CB12CDD24F4E0CF1AD1083E
:10495000AC14BD040CF09BCFC8010E9452138FEF22
:10496000A81AB80AF5CFAC14BD040CF090CFC8015A
:104970000E945213EFEFAE1ABE0AF5CFC8010E9493
:104980005213682EF701828D811110C0838D811121
:104990000DC0848D81110AC0858D811107C044E04E
:1049A00050E0B401C8010E94331371CFEFA5F8A9FC
:1049B000A080B180C280D380B401CE0183960E94D2
:1049C000921F8DA19EA1AFA1B8A5A816B906CA06CF
:1049D000DB0629F3662009F45ACFC8010E9452135E
:1049E0006A94F8CFC8010E94521344E050E06BA5CE
:1049F0007CA5C8010E943313F70166A177A180A5A9
:104A000091A50E94593D66A377A380A791A73FCFA8
:104A1000C8010E94521344E050E06DA57EA5C80174
:104A20000E943313F70162A573A584A595A50E9482
:104A3000593D62A773A784A795A729CFC8010E94F3
:104A4000521344E050E069A57AA5C8010E943313CF
:104A5000F70162A173A184A195A10E94593D62A3AF
:104A600073A384A395A366A777A780AB91AB0FCF61
:104A7000C8010E945213D82EDD2009F408CFC801C6
:104A80000E945213DA94F8CF872DE2960FB6F8946D
:104A9000DEBF0FBECDBFDF91CF911F910F91FF9071
:104AA000EF90DF90CF90BF90AF909F908F907F90CE
:104AB0006F905F904F903F902F900895CF93DF932A
:104AC000FC01448155816081718189E597E00E94F4
:104AD0003812EC0189E597E00E949C158C0F9D1F10
:104AE000DF91CF9108954F925F926F927F928F9254
:104AF0009F92AF92BF92CF92DF92EF92FF92CF93AD
:104B00006B017C019B01AC010E94233D882319F0BD
:104B100061E076E01AC046015701E894B7F82FEF3C
:104B20003FEF4FE75FE7C501B4010E94233D8111CC
:104B300012C02FEF3FEF4FE75FE7C501B4010E94BE
:104B4000883A181644F465E076E089E597E00E941B
:104B50003E157C017EC02FEF3FEF4FE75FE4C701BA
:104B6000B6010E94D83C18161CF469E076E0EDCF3F
:104B70002FEF3FEF4FE75FECC701B6010E94883A85
:104B800087FDF3CF20E030E0A901C701B6010E9404
:104B9000883A87FF0BC06DE289E597E00E94C11952
:104BA0005C01F7FAF094F7F8F09402C0A12CB12C54
:104BB0002AE037ED43EA5BE3C701B6010E94363CC9
:104BC0002B013C010E94A93C6B017C010E948D3AA3
:104BD0009B01AC01C301B2010E94353C2B013C0199
:104BE0002AE0B701A60189E597E00E9453157C01F0
:104BF000EA0CFB1C6EE289E597E00E94C119E80E01
:104C0000F91EC3E0C15029F120E030E040E251E458
:104C1000C301B2010E94EE3A2B013C010E94A93C63
:104C20004B01A12CB12C2AE0B501A40189E597E044
:104C30000E945315E80EF91EC501B4010E948D3A79
:104C40009B01AC01C301B2010E94353C2B013C0128
:104C5000D9CF89E597E00E949C158E0D9F1DCF91BD
:104C6000FF90EF90DF90CF90BF90AF909F908F908C
:104C70007F906F905F904F900895BC0189E597E019
:104C80000C943E15AF92BF92CF92DF92EF92FF92BB
:104C90000F931F93CF93DF938B01BC018091350855
:104CA000909136080E94E11140E06EEB809135084A
:104CB000909136080E94AD11E801680189E0C80EA4
:104CC000D11CA0903508B090360888E0E82EF12C71
:104CD00010E001E0C5010E945A118111102B000F54
:104CE00081E0E81AF108B1F71993CC16DD0649F70F
:104CF00080913508909136080E94001291E0813031
:104D000009F090E0892FDF91CF911F910F91FF90D3
:104D1000EF90DF90CF90BF90AF900895BF92CF9269
:104D2000DF92EF92FF920F931F93CF93DF93EC01EB
:104D30006B018D85811105C0CE010E940012811189
:104D400005C01B861D861C8680E060C040E060EFC9
:104D5000CE010E94AD1101E0E12CB12C11E0CE0199
:104D60000E945A11F82ECE010E945A1191E0F912B8
:104D700003C08130B1F434C02E2D30E0F8121BC0D6
:104D80008B85181738F4FE01E20FF31F838180230F
:104D900041F402C0811729F0F12C193058F41C8716
:104DA00009C0FE01EE0DF11D8381802B8383FF245A
:104DB000F39409C0B12EFE01E20FF31F9381802FFF
:104DC0008095892383836F2DCE010E947E111F5F02
:104DD000000F11F4E39401E087E08E1508F0BFCFD7
:104DE000113408F4AECFBB86B11002C081E08D87CC
:104DF0008B81882309F4A5CFDE011396F6012B964B
:104E00008D918193CA17DB07D9F781E0DF91CF91AC
:104E10001F910F91FF90EF90DF90CF90BF9008957A
:104E20000895E091AC088091AB08E81730F4F0E009
:104E3000E557F74F808190E008958FEF9FEF089539
:104E40009091AC088091AB08981750F4E92FF0E0EE
:104E5000E557F74F208130E09F5F9093AC0802C088
:104E60002FEF3FEFC90108958091AB0890E02091AA
:104E7000AC08821B9109089580E090E0089585EDCB
:104E80008093BC008091BC0084FDFCCF109223076E
:104E900008954091CD08262F30E0240F311D213296
:104EA0003105DCF4209123072430C9F4FC0180E0B3
:104EB00090E0861758F43091CD082191DC01A3557C
:104EC000B74FA30FB11D2C930196F3CF8091CD085E
:104ED000680F6093CD0880E0089581E0089582E036
:104EE0000895CF92DF92EF92FF920F931F93CF938B
:104EF000DF937C01CB018A0120912407222389F0D2
:104F0000EB016B01C40ED51ECC15DD0569F069916E
:104F1000D701ED91FC910190F081E02DC701199529
:104F2000F3CF642F0E944927C801DF91CF911F91D1
:104F30000F91FF90EF90DF90CF900895CF93DF9384
:104F40001F92CDB7DEB76983209124072223D1F0C9
:104F500020914707203240F021E030E0FC0133830C
:104F6000228380E090E015C080912507E82FF0E0D3
:104F7000EA5DF84F998190838F5F80932507809336
:104F8000470705C061E0CE0101960E94492781E0F4
:104F900090E00F90DF91CF9108951F920F920FB67E
:104FA0000F9211240BB60F922F933F934F935F9361
:104FB0006F937F938F939F93AF93BF93EF93FF93E1
:104FC0008091B900887F803609F49CC068F58832EA
:104FD00009F45BC090F4803109F454C038F488239C
:104FE00009F4F6C0883009F44DC0F6C0883109F4E0
:104FF0004CC0803209F45DC0EFC0803409F468C051
:1050000048F4803309F455C0883309F0E5C0809333
:105010002107D8C0803509F44FC0883509F45DC038
:10502000883409F0D9C0D6C0883909F4C7C0A8F4BB
:10503000883709F467C038F4883609F463C08037CC
:1050400009F460C0C9C0883809F4B8C0803909F4CF
:105050005FC0803809F0C0C05BC0803B09F486C0E7
:1050600038F4803A09F466C0883A09F47FC0B4C0C5
:10507000803C09F4A7C0883C09F4A4C0883B09F42B
:105080008AC0AAC08091FE0610C09091200780912E
:105090001F07981770F5E091200781E08E0F80932D
:1050A0002007F0E0E150F94F80818093BB0085EC50
:1050B00086C0809321078EC0E091200781E08E0F8B
:1050C000809320078091BB00F0E0E150F94F80838E
:1050D0009091200780911F076EC0E091200781E02A
:1050E0008E0F809320078091BB00F0E0E150F94FD4
:1050F00080838091220781116DC081E08093FD063D
:1051000084EA61C083E0809323071092EF08CFCF39
:105110008091EF08803208F051C0E091EF0881E003
:105120008E0F8093EF088091BB00F0E0E153F74FC2
:105130008083BDCF85EC8093BC00109223078091C3
:10514000EF08803230F4E091EF08F0E0E153F74FE0
:1051500010826091EF0870E0E0918908F0918A0870
:105160008FEC98E019951092EF0836C084E0809398
:1051700023071092CE081092CD08E0918708F09195
:10518000880819958091CD08811105C081E0809330
:10519000CD081092AD08E091CE0881E08E0F80938B
:1051A000CE08F0E0E355F74F80818093BB009091EB
:1051B000CE088091CD08981708F479CF85E88093C0
:1051C000BC000AC085EC8093BC001092230704C089
:1051D000109221070E943F27FF91EF91BF91AF915D
:1051E0009F918F917F916F915F914F913F912F91FF
:1051F0000F900BBE0F900FBE0F901F9018950C9440
:10520000B43B0C94AC3BCF93DF93C3ECD2E068810A
:1052100080E090E00E94FF28698181E090E00E9498
:10522000FF286A8182E090E00E94FF286B8183E082
:1052300090E00E94FF286C8184E090E00E94FF28AB
:105240006D8185E090E00E94FF2860EC86E090E0B0
:105250000E94FF2868EA87E090E00E94FF2860E053
:1052600088E090E00E94FF286CE589E090E0DF9103
:10527000CF910C94FF28CF93DF93CDB7DEB769971A
:105280000FB6F894DEBF0FBECDBF789484B58260B0
:1052900084BD84B5816084BD85B5826085BD85B5DA
:1052A000816085BD80916E00816080936E00109258
:1052B00081008091810082608093810080918100D3
:1052C0008160809381008091800081608093800064
:1052D0008091B10084608093B1008091B0008160C2
:1052E0008093B000809191008260809391008091C2
:1052F0009100816080939100809190008160809303
:1053000090008091A10082608093A1008091A10013
:1053100081608093A1008091A00081608093A000B3
:10532000809121018260809321018091210181601F
:1053300080932101809120018160809320018091E0
:105340007A00846080937A0080917A0082608093F2
:105350007A0080917A00816080937A0080917A004F
:10536000806880937A001092C1001092AC0810926D
:10537000AB0810922507109247071092230781E08F
:10538000809322071092FD0661E084E10E94C71E0F
:1053900061E085E10E94C71E8091B9008E7F8093F5
:1053A000B9008091B9008D7F8093B90088E4809323
:1053B000B80085E48093BC008CEF9CE09093880853
:1053C0008093870880E197E290938A088093890808
:1053D00062E0809148080E94F61E0E94EC15DC01F4
:1053E000CB01805D9740A109B10980934C0890934F
:1053F0004D08A0934E08B0934F08E0913508F09106
:105400003608138615861486DF011B9633961E9286
:10541000EA17FB07E1F7109233081092340801E015
:10542000BE016F5F7F4F80913508909136080E94D2
:105430008E26882309F465C067E0CE0101960E949C
:10544000421198858913ECCF80912F08811127C0D4
:1054500080913508909136080E940012BE016F5F5E
:105460007F4F80913508909136080E94E11140E00D
:1054700064EB80913508909136080E94AD118091BF
:105480003508909136080E945A11182F80913508DE
:10549000909136080E940012112309F4C7C310919D
:1054A00030088981803109F4DBC6CE0101960E9463
:1054B000821B811718F48091300809C089818031DE
:1054C00011F48CE004C0CE0101960E94821B8093EF
:1054D0003008809133088F5F809333088981883248
:1054E00009F4A7C338F4803109F4A3C3823209F068
:1054F00097CF9FC38B3309F49CC3823409F090CFBC
:1055000098C381E08093C2020BED12E0D801FD90B8
:105510008D0161E08F2D0E94F61E60E08F2D0E94AC
:10552000C71EB2E00B3E1B0789F762E084E40E94CD
:10553000F61E62E085E40E94F61EE0916907F09194
:105540006A0782E08083E0916507F0916607108228
:10555000E0916707F091680780E1808310927107FE
:10556000E0916D07F0916E0786E08083E0916B0714
:10557000F0916C07808180618083E0916B07F091EE
:105580006C07808188608083E0916B07F0916C07E5
:10559000808180688083E0916B07F0916C07808147
:1055A0008F7D8083E0ECF6E06591749184EA96E06B
:1055B0000E94533664EA76E089E597E00E94A015E0
:1055C00080E090E00E940129182F87E794E00E9474
:1055D0003D26412F50E060E070E02AE089E597E049
:1055E0000E94531589E597E00E949C151F3F09F022
:1055F00028C20E94032980916C06811107C081E5B1
:1056000096E00E94FD0C81E080936C068EE096E0AF
:105610009093FD078093FC070E948821CE0101969C
:105620000E94832189819A810E946F0E46E050E09A
:1056300063EC72E089E090E00E94B20D85EB93E0AC
:105640009A8389831B821C821D821E82CE0103964F
:105650000E94BC180E946E0E0091FC071091FD077D
:10566000F80112A213A214A215A216A217A210A644
:1056700011A612A613A614A615A680E69AEEA0E01F
:10568000B0E086AB97ABA0AFB1AF80EA9FE0A0E0FF
:10569000B0E082AF93AFA4AFB5AF3E9684E1DF0137
:1056A0001D928A95E9F786E0E3ECF2E0D8011896BE
:1056B00001900D928A95E1F7F801EE5BFF4FFF8BA9
:1056C000EE8B10820E94C4342FEC37E040E050E0B3
:1056D0000E94F43BDC01CB010196A11DB11DF80134
:1056E00084839583A683B78380839183A283B383C6
:1056F0005801F3E4AF0EB11CC5010E949B1064E495
:1057000070E0C5010E94151181110FC0E2ECF6E0B6
:105710006591749184EA96E00E94533664EA76E0DB
:1057200089E597E00E94A015F1C10E94EC152B01BC
:105730003C01812C912C48EEC42E43E0D42EE12C68
:10574000F12C52E0252EAE89BF898C91833009F46B
:1057500004C1811120C0F80184819581A681B7819F
:105760000196A11DB11D84839583A683B7830E94F2
:10577000EC156419750986099709A70196010E941D
:10578000D23BA90161E0C8010E947A1A81E0AE898A
:10579000BF898C93CAC08430F9F4F8018481958163
:1057A000A681B7810196A11DB11D84839583A6832F
:1057B000B7830E94EC156419750986099709A7013A
:1057C00096010E94D23BA90163E0C8010E947A1AA7
:1057D000AE89BF892C92A9C0813059F5F80142AD3C
:1057E00053AD64AD75AD9E012F5F3F4FC8010E9460
:1057F0009923382EF2E08F1392C089819A81AB8170
:10580000BC81F80184839583A683B7830E94EC153D
:105810006419750986099709A70196010E94D23B70
:10582000A90163E0C8010E947A1AAE89BF893C923F
:105830007CC0823009F079C0F80142AD53AD64AD4F
:1058400075AD9E012F5F3F4FC8010E949923382EEE
:10585000F5E08F135DC0E3E0AE89BF89EC93F801FA
:1058600082A193A1A4A1B5A1892B8A2B8B2B41F4F2
:1058700084E893E0A0E0B0E082A393A3A4A3B5A33F
:10588000F80186A197A1A0A5B1A5892B8A2B8B2B06
:1058900061F482A193A1A4A1B5A1B695A79597950E
:1058A000879586A397A3A0A7B1A7F80182A593A582
:1058B000A4A5B5A5892B8A2B8B2BA9F482A193A132
:1058C000A4A1B5A1AC01BD0123E0769567955795DC
:1058D00047952A95D1F7841B950BA60BB70B82A78A
:1058E00093A7A4A7B5A7F80186A197A1A0A5B1A5E4
:1058F00086A797A7A0ABB1AB82A593A5A4A5B5A594
:1059000082AB93ABA4ABB5AB88248394912C0DC030
:10591000F6E08F1304C0AE89BF891C9206C0BFEFAA
:105920003B1203C0EE89FF891082F1E08F169104CB
:1059300009F409CF0E94EC15DC01CB01841995090B
:10594000A609B709F80126A937A940AD51AD281716
:1059500039074A075B0708F0F6CEC5010E949B1085
:10596000F80184819581A681B7810196A11DB11DA1
:1059700084839583A683B7830E94EC15F801FE9675
:105980006083718382839383F1E08F16910409F021
:1059900055C0CE0101960E94832189819A810E947F
:1059A0006F0E6091FC077091FD07625F7F4FCE0123
:1059B00001960E94921FCE0103960E94BC1860912E
:1059C000FC077091FD076A5E7F4FCE0101960E9431
:1059D000921F44E050E0BE016D5F7F4F81E090E098
:1059E0000E94B20D6091FC077091FD076E5E7F4FC3
:1059F000CE0101960E94921F44E050E0BE016D5F0F
:105A00007F4F85E090E00E94B20D0E946E0E609183
:105A1000FC077091FD07625E7F4FCE0101960E94E8
:105A2000921F8B819C81AD81BE818093F8079093FA
:105A3000F907A093FA07B093FB0717C08928A9F4C8
:105A400065CE85EB93E09A838983809125089091B8
:105A50002608A0912708B09128088B839C83AD83EA
:105A6000BE83CE0101960E94182288E894E00E942D
:105A70003D2609E218E0EFE2EE2EE8E0FE2ED80126
:105A80004D918D0150E060E070E020E189E597E004
:105A90000E945315E016F10691F789E597E00E9400
:105AA0009C15EEECF6E06591749184EA96E00E9414
:105AB000533684EA96E00E943D2685EB93E09A8374
:105AC00089831B821C821D821E82CE010A960E943F
:105AD00083218A859B850E946F0E44E050E0BE01C1
