:100000000C9489030C94BA030C94BA030C94BA03AD
:100010000C94BA030C94BA030C94BA030C94BA036C
:100020000C94BA030C94BA030C94BA030C94BA035C
:100030000C94BA030C94BA030C94BA030C94BA034C
:100040000C94BA030C94BA030C94BA030C94BA033C
:100050000C94BA030C94BA030C94BA030C94F115E3
:100060000C94BA030C94551F0C942B1F0C94BA03D8
:100070000C94BA030C94BA030C94BA030C94BA030C
:100080000C94BA030C94BA030C94BA030C94BA03FC
:100090000C94BA030C94BA030C94BA030C94C627BC
:1000A0000C94BA030C94BA030C94BA030C94BA03DC
:1000B0000C94BA030C94BA030C94BA030C94BA03CC
:1000C0000C94BA030C94BA030C94BA030C94BA03BC
:1000D0000C94BA030C94BA030C94BA030C94BA03AC
:1000E0000C94BA0342194519341938193E197C1970
:1000F00049194D19531957195B196119651969196E
:100100007C196F19731977190C9443160C943819CC
:100110000C94BC180C9461190C940E110C940927C2
:100120000C94D8160C94C90C0C9494100C94F512E1
:100130000C9473190C9449190C9457190C94961239
:100140000C94E10C0C9497270C94A0190C94AF0E0E
:100150000C9412130C94F50C0C941A180C94451969
:100160000C94AE170C94A1120C944D190C943527D5
:100170000C947D130C9442190C947C190C94341932
:100180000C9469190C94AE190C946A270C941910EC
:100190000C945B190C9413140C94B4160C94CA129E
:1001A0000C94D10C0C9453190C948C190C942D278D
:1001B0000C94100D0C94B30C0C946B0E0C948012D8
:1001C0000C94291A0C942C130C94C0120C947719CB
:1001D0000C94071A0C94CD0C0C9474130C94AA1262
:1001E0000C946F190C94CC120C947D190C94F30E92
:1001F0000C940A270C944B130C94D2120C943E19B5
:100200000C94BA190C94D0120C9430120C946519F9
:100210000C94CF120C949C310C9419270C94A912B5
:100220000C940E130C9431124E414E494E495459C0
:10023000494E46CDCCCC3D0AD7233C17B7D13877B1
:10024000CC2B329595E6241FB14F0A0000204100C7
:1002500000C84200401C4620BCBE4CCA1B0E5AAE11
:10026000C59D7400407A10F35A00A0724E18090020
:1002700010A5D4E80000E87648170000E40B54020B
:100280000000CA9A3B000000E1F505000080969846
:1002900000000040420F000000A086010000001096
:1002A0002700000000E803000000006400000000D8
:1002B000000A00000000000100000000002C76D8B9
:1002C00088DC674F0823DFC1DFAE59E1B1B796E59F
:1002D000E3E453C63AE651997696E8E6C28426EB03
:1002E000898C9B62ED407C6FFCEFBC9C9F40F2BA16
:1002F000A56FA5F490055A2AF75C936B6CF9676DAE
:10030000C11BFCE0E40D47FEF520E6B500D0ED9002
:100310002E0300943577050080841E080000204ECF
:100320000A000000C80C333333330F986E12831168
:1003300041EF8D2114893BE65516CFFEE6DB18D13F
:10034000844B381BF77C1D901DA4BBE42420328411
:10035000725E228100C9F124ECA1E53D27005EBC5C
:10036000E2613FDD83C29C7E20A3FD1F41009D23EF
:10037000BE46DB65F88C11AF32CA57E97400002223
:1003800000250028002B002E00310034000201005F
:1003900000050108010B0100000A0B02090C0D0EFB
:1003A0000807030401000000000000000000000036
:1003B000000000000000000000000000000000003D
:1003C00000000012111000000000000000000000FA
:1003D00000000000000000000000000000000021FC
:1003E00000240027002A002D003000330001010006
:1003F00000040107010A012C22757074696D6522E1
:100400003A00226669726D77617265223A22302E57
:10041000302E336122002268617264776172652236
:100420003A227265732D76302E3661222C002265B9
:1004300072726F72223A22496E76616C696420632F
:1004400068616E6E656C22007D007B0022616464D1
:1004500072657373223A002C2276616C7565223ABC
:10046000002C22706F736974696F6E223A002C221F
:1004700070696E223A00226368616E6E656C223A82
:10048000002C226368616E6E656C73223A5B002CEF
:10049000226C6F776572466C6F6174223A002C2271
:1004A0007570706572466C6F6174223A002C22720E
:1004B000657354656D70223A002C224F5250223AD7
:1004C000002C22444F5F504552223A002C22444FC8
:1004D0005F6D674C223A002C225347223A002C22AF
:1004E00053414C223A002C22544453223A002C22ED
:1004F0004543223A002C225048223A002C22656EB5
:100500007648656174496E646578223A002C2265EC
:100510006E7648756D6964697479223A002C22659B
:100520006E7654656D70223A00226D656D223A0038
:10053000226D657472696373223A7B005377697424
:100540006368696E67206F666600537769746368D5
:10055000696E67206F6E0052455354207365727642
:10056000696365206C697374656E696E67206F6E70
:100570003A2000582D506F77657265642D42793AA4
:100580002043726F7044726F696400436F6E7465CC
:100590006E742D547970653A206170706C69636176
:1005A00074696F6E2F6A736F6E00485454502F3108
:1005B0002E312035303020496E7465726E616C20AA
:1005C000536572766572204572726F72004854549A
:1005D000502F312E3120343034204E6F7420466F2E
:1005E000756E6400485454502F312E312032303013
:1005F000204F4B0044484350204661696C656400BD
:10060000496E697469616C697A696E672072657395
:100610006572766F69722E2E2E0000002000230076
:10062000260029002C002F003200000100000301E9
:100630000601090105050505070508080808020265
:1006400002020A0A0808040404040101010101016C
:1006500001010303030303030303040707070C0C4F
:100660000C0C0C0C0C0C0202020206060606060616
:1006700006060B0B0B0B0B0B0B0B010210202008BB
:1006800008102040102040800201020108040201ED
:10069000010204081020408080402010080402015C
:1006A00080040201804020100804020108040201B5
:1006B000010204081020408001020408102040803C
:1006C0000006F405E405CD05AA058B05730557055D
:1006D0004A053C05300529051D050D05FC04F504FA
:1006E000EE04E604DE04D704CC04C104B904AD046E
:1006F0009E048F04810476046E04610457044C0444
:100700004A0448042E040000000016040204F70303
:100710009C3111241FBECFEFD1E2DEBFCDBF00E080
:100720000CBF16E0A0E0B2E0E2E5FDE700E00BBFA1
:1007300002C007900D92AA30B107D9F728E0AAE0CD
:10074000B6E001C01D92A43FB207E1F713E0C9E88B
:10075000D3E000E006C021970109802FFE010E942E
:100760004A3DC838D10780E00807A9F70E9434291C
:100770000C94A73E0C9400004F925F926F927F9270
:100780008F929F92AF92BF92CF92DF92EF92FF92A1
:100790000F931F93CF93DF930E94E5154B015C01EC
:1007A000C0E0D2E0C12CD12C7601412C512C320179
:1007B0004A9488819981AA81BB818F3F9105A105C7
:1007C000B10509F453C04C815D816E817F81950133
:1007D0008401041B150B260B370B488559856A8548
:1007E0007B85401751076207730708F03FC060E040
:1007F0000E94C01E8DEB93E00E943626C701B60111
:100800000E943A218EEC93E00E943626488159815D
:100810006A817B812AE085E597E00E944C1585ED91
:1008200093E00E943626688579858A859B8528EE27
:1008300033E040E050E00E94CB3BBA01A9012AE03E
:1008400085E597E00E944C1562EE73E085E597E040
:100850000E949915488259826A827B821C821D827D
:100860001E821F82188619861A861B862C968FEF89
:10087000C81AD80AE80AF80A80E1C816D104E104C7
:10088000F10409F096CFDF91CF911F910F91FF9066
:10089000EF90DF90CF90BF90AF909F908F907F9020
:1008A0006F905F904F9008959F92AF92BF92CF92BA
:1008B000DF92EF92FF920F931F93CF93DF93CDB709
:1008C000DEB76E970FB6F894DEBF0FBECDBF6C01DA
:1008D0005B016BEE73E08E010F5F1F4FC8010E943A
:1008E000FD14C8010E94572589819A810E94E9332D
:1008F00081E080932007C092420710922107109256
:10090000430762E780E098E00E9497270E94BF1BA0
:1009100068EE73E080E090E00E94AB158EE1F80194
:1009200011928A95E9F780911F078111FCCF81E030
:1009300080931F0780931E079FEF90931D071092CF
:100940001C079FE190931B078093FA068091FA069B
:100950009C2D990F892B8093FA068091F90681309E
:1009600061F41092F9068091FA068093BB008091A1
:10097000BC0083FDF8CF85EC01C085EE8093BC0000
:1009800080911F078130E1F380911C07803218F4B9
:1009900090911C0701C090E2ABEFB6E0E7E8F8E009
:1009A00080E0891721F02D9121938F5FFACF10926B
:1009B000A8088093A70880E098E00E9419277C018E
:1009C000912C9091A7088091A808981779F080E061
:1009D00098E00E941927811103C00E94BF1B06C026
:1009E000F801E90DF11D80839394EBCFC70199279E
:1009F0008230910571F024F40197A1F4B8010EC082
:100A00008E3F910549F08F3F910561F46FE174E0ED
:100A100005C06EEF73E002C06DE074E085E597E01D
:100A20000E94991587E294E00E943626B6010D2CAB
:100A3000000C880B990B0E943A218EE394E00E94EF
:100A40003626B80185E597E00E949915F4E6CF16A1
:100A5000D10409F076C068E474E0C8010E945336FE
:100A60000E94213660938C0670938D0680938E06CB
:100A700090938F0668E474E080E090E00E94533623
:100A80000E942136609388067093890680938A06B7
:100A900090938B0668E474E080E090E00E94533607
:100AA0000E942136609384067093850680938606A3
:100AB0009093870668E474E080E090E00E945336EB
:100AC0000E9421366093800670938106809382068F
:100AD000909383068AE494E00E94362660918C0607
:100AE00070918D0680918E0690918F060E946C25E4
:100AF0008FE494E00E943626609188067091890602
:100B000080918A0690918B060E946C2585E594E081
:100B10000E94362660918406709185068091860633
:100B2000909187060E946C258BE594E00E94362602
:100B30006091800670918106809182069091830673
:100B40003DC081E6C816D104E1F568E474E0C8014F
:100B50000E9453360E94213660937C0670937D0676
:100B600080937E0690937F0668E474E080E090E0D6
:100B70000E9453360E94213660937806709379065E
:100B800080937A0690937B0680E694E00E94362656
:100B900060917C0670917D0680917E0690917F0623
:100BA0000E946C258AE694E00E94362660917806C1
:100BB0007091790680917A0690917B060E946C254F
:100BC00008C0C8010E942136F501608371838283C9
:100BD00093836E960FB6F894DEBF0FBECDBFDF9144
:100BE000CF911F910F91FF90EF90DF90CF90BF902A
:100BF000AF909F9008954F925F926F927F928F92E5
:100C00009F92AF92BF92CF92DF92EF92FF920F939B
:100C10001F93CF93DF93CDB7DEB7C250D3400FB64B
:100C2000F894DEBF0FBECDBF89E198E00E94331774
:100C300098EEE92E96E0F92E10E028EE422E23E001
:100C4000522E612C712C35E7C32E33E0D32E1C823B
:100C50001B824D825E826F827886DA82C9821D870E
:100C6000F701219131917F0180911D0890911E081B
:100C700028173907D1F4CE0101960E943B1687311F
:100C800011F08C3191F4CE0101960E947413892BDE
:100C900061F02B813C818D819E81AF81B8858984F3
:100CA0009A84AB84BC841D8509C01F5F143079F61B
:100CB00088EE93E0A0E0B0E020E030E030930F0851
:100CC00020930E088093100890931108A0931208A7
:100CD000B09313088092140890921508A0921608F9
:100CE000B0921708109318081430B1F08E010B5011
:100CF0001E4F6E01FCE0CF1AFDEFDF0A780106C03F
:100D00008CE098E00E947413892B41F48CE098E009
:100D10000E94B4168111F4CF10E031C58CE098E048
:100D20000E9412138A3049F08D3039F00C151D05E0
:100D300021F0F80181938F01E9CFB701CE018650F0
:100D40009D4F0E94FD1460E2CE0186509D4F0E948F
:100D5000A4149C0140E050E0BE0166507D4FC601E6
:100D60000E94971F6FE2CE0186509D4F0E94A414EF
:100D70008C01C250DD4F88819981CE5FD240081727
:100D8000190798F4C650DD4FA880B980CA5FD240D9
:100D900060E270E0C501800F911F0E94783E0097CD
:100DA00021F09C012A193B0902C02FEF3FEFA80157
:100DB000BE0166507D4FCE0101960E94971FC6501E
:100DC000DD4F88819981CA5FD2400097E9F069813F
:100DD0007A8161157105B1F0C450DD4F48815981A8
:100DE000CC5FD2402D813E814217530758F00E94BC
:100DF000833E8D819E81C250DD4F99838883CE5F73
:100E0000D2401CC00E94E93389819A81C650DD4FCF
:100E100099838883CA5FD2408B819C81C450DD4F07
:100E200099838883CC5FD2408D819E81C250DD4FF3
:100E300099838883CE5FD2401A82198289819A81F0
:100E40000E94E933C250DD4F08811981CE5FD24044
:100E50000115110511F4F70112C00E3F110510F034
:100E60000EEF10E0C650DD4F68817981CA5FD24035
:100E7000A801C7010E94983EF701E00FF11F108200
:100E80006AE275E0C7010E9453367C016AE275E0B0
:100E900080E090E00E9453368C016AE275E080E0C9
:100EA00090E00E9453365C018CE295E00E94362669
:100EB000B70185E597E00E94991587E395E00E94C8
:100EC0003626B80185E597E00E9499158FE395E0F5
:100ED0000E943626B50185E597E00E94991545E008
:100EE00050E068E475E0C7010E948A3E892B09F052
:100EF00039C26DEE72E0CE0101960E94833EE4EDB0
:100F0000F6E06591749180EA96E00E944C3660EAC2
:100F100076E0CE0101960E946D3EE6EDF6E0659129
:100F2000749180EA96E00E944C3660EA76E0CE0149
:100F300001960E946D3E8091EE089091EF089E010F
:100F40003D5F7901009721F4C901845F984004C096
:100F5000F901E81BF90BCF014AE06CED76E00E9445
:100F60007E366CED76E0CE0101960E946D3EE8ED96
:100F7000F6E06591749180EA96E00E944C3660EA52
:100F800076E0CE0101960E946D3E60919C067091C4
:100F90009D0680919E0690919F060CED16E022E042
:100FA00044E00E943133B801CE0101960E946D3EAB
:100FB000EAEDF6E06591749180EA96E00E944C3685
:100FC00060EA76E0CE0101960E946D3E609198063F
:100FD0007091990680919A0690919B0622E044E0D8
:100FE0000E943133B801CE0101960E946D3EECEDB6
:100FF000F6E06591749180EA96E00E944C3660EAD2
:1010000076E0CE0101960E946D3E6091940670914B
:101010009506809196069091970622E044E00E9402
:101020003133B801CE0101960E946D3EEEEDF6E03F
:101030006591749180EA96E00E944C3660EA76E011
:10104000CE0101960E946D3E6091900670919106CE
:10105000809192069091930622E044E00E94313301
:10106000B801CE0101960E946D3EE0EEF6E065917A
:10107000749180EA96E00E944C3660EA76E0CE01F8
:1010800001960E946D3E60918C0670918D06809154
:101090008E0690918F0622E044E00E943133B80121
:1010A000CE0101960E946D3EE2EEF6E065917491EC
:1010B00080EA96E00E944C3660EA76E0CE01019626
:1010C0000E946D3E609188067091890680918A0623
:1010D00090918B0622E044E00E943133B801CE01AA
:1010E00001960E946D3EE4EEF6E06591749180EA0F
:1010F00096E00E944C3660EA76E0CE0101960E94AE
:101100006D3E60918406709185068091860690916F
:10111000870622E044E00E943133B801CE010196F7
:101120000E946D3EE6EEF6E06591749180EA96E0ED
:101130000E944C3660EA76E0CE0101960E946D3E38
:10114000609180067091810680918206909183065D
:1011500022E044E00E943133B801CE0101960E94A2
:101160006D3EE8EEF6E06591749180EA96E00E94AB
:101170004C3660EA76E0CE0101960E946D3E6091A9
:101180007C0670917D0680917E0690917F060E947C
:101190009B3CDC01CB014AE0B8010E947E36B801DD
:1011A000CE0101960E946D3EEAEEF6E065917491E3
:1011B00080EA96E00E944C3660EA76E0CE01019625
:1011C0000E946D3E609178067091790680917A0652
:1011D00090917B060E949B3CDC01CB014AE0B80168
:1011E0000E947E36B801CE0101960E946D3EECEE63
:1011F000F6E06591749180EA96E00E944C3660EAD0
:1012000076E0CE0101960E946D3E60917406709169
:10121000750680917606909177060E949B3CDC01D2
:10122000CB014AE0B8010E947E36B801CE0101969A
:101230000E946D3EEEEEF6E06591749180EA96E0D4
:101240000E944C3660EA76E0CE0101960E946D3E27
:10125000609170067091710680917206909173068C
:1012600022E044E00E943133B801CE0101960E9491
:101270006D3EE0EFF6E06591749180EA96E00E94A1
:101280004C3660EA76E0CE0101960E946D3E86E320
:101290000E941215BC01990F880B990B0E94883A85
:1012A00022E044E00E943133B801CE0101960E9451
:1012B0006D3EE2EFF6E06591749180EA96E00E945F
:1012C0004C3660EA76E0CE0101960E946D3E87E3DF
:1012D0000E941215BC01990F880B990B0E94883A45
:1012E00022E044E00E943133B801CE0101960E9411
:1012F0006D3E6BEE72E0CE0101960E946D3EE4EF12
:10130000F6E06591749180EA96E00E944C3660EABE
:1013100076E0CE0101960E946D3E8BEDA82E82E014
:10132000B82E00E010E0F50181915F010E94971E48
:101330004AE0B7010E947E36B701CE0101960E94B5
:101340006D3E0F30110531F068E474E0CE01019676
:101350000E946D3E0F5F1F4F0031110521F769EDAF
:1013600072E04CC046E050E06FE475E0C7010E94B7
:101370008A3E892B09F04EC06EE475E085E597E062
:101380000E949915B80185E597E00E949915B5016D
:1013900085E597E00E949915C5010E942536F82E33
:1013A000C8010E9425366F2D0E94F8286DEE72E06C
:1013B000CE0101960E94833EEEEFF6E065917491B6
:1013C00080EA96E00E944C3660EA76E0CE01019613
:1013D0000E946D3EB801CE0101960E946D3EECEF79
:1013E000F6E06591749180EA96E00E944C3660EADE
:1013F00076E0CE0101960E946D3EB501CE010196C8
:101400000E946D3E6BEE72E0CE0101960E946D3E31
:1014100010E073C145E050E066E575E0C7010E9449
:101420008A3E892B09F0A2C00115110521F0F5E0D3
:101430000B3D1F0739F46CE575E085E597E00E94E8
:10144000991559C1C8010E9425368C014AE050E027
:1014500060E070E0C5010E9414354B015C010F3063
:10146000110508F050C0672B682B692B09F44BC09D
:1014700084E394E00E943626B801012E000C880B0C
:10148000990B0E943A2185E597E00E9495158FE619
:1014900095E00E9436262AE0B501A40185E597E093
:1014A0000E944C1585E597E00E949515F801E552DC
:1014B000FD4F70802CE0209FC001219F900D1124D2
:1014C0009C0120503E4F7901872D90E0A0E0B0E0D4
:1014D000F90180839183A283B3830E94E515F7010C
:1014E0006483758386839783A8EEB3E0A501940196
:1014F0000E940C3C608771878287938761E0872D0B
:101500000E94C01E06C06AE775E085E597E00E946C
:10151000991563E975E0CE0101960E94833E65E965
:1015200075E0CE0101960E946D3E4AE06CED76E0DA
:10153000C8010E947E366CED76E0CE0101960E94D5
:101540006D3E60EA75E0CE0101960E946D3E4AE074
:101550006CED76E0C4010E947E366CED76E0CE0143
:1015600001960E946D3E6DEA75E04ECF46E050E078
:101570006FEA75E0C7010E948A3E892B69F4C801B1
:101580000E9425367C01C5010E942536F0E1EF1648
:10159000F10408F405C1BEC146E050E067EC75E017
:1015A000C7010E948A3E892B79F466EC75E085E5D7
:1015B00097E00E9499156DEE72E0CE0101960E94AF
:1015C000833EE6E0F7E019C045E050E06FEC75E0DF
:1015D000C7010E948A3E892B21F56EEC75E085E5F6
:1015E00097E00E9499150E94FC286DEE72E0CE01F2
:1015F00001960E94833EE8E0F7E06591749180EAED
:1016000096E00E944C3660EA76E0CE0101960E9498
:101610006D3E6BEE72E0CE0101960E946D3E11E0D0
:101620006CC046E050E065ED75E0C7010E948A3E5F
:10163000892B09F03AC06DEE72E0CE0101960E944E
:10164000833EEAE0F7E06591749180EA96E00E94BB
:101650004C3660EA76E0CE0101960E946D3EECE0E9
:10166000F7E06591749180EA96E00E944C3660EA5A
:1016700076E0CE0101960E946D3EEEE0F7E06591C6
:10168000749180EA96E00E944C3660EA76E0CE01E2
:1016900001960E946D3E0E94E515DC01CB014AE0F7
:1016A00060EA76E00E947E3643C1E6ECF6E06591A2
:1016B000749180EA96E00E944C3660EA76E08CE015
:1016C00098E00E94991560EA76E085E597E00E942F
:1016D0009915ECECF6E06591749180EA96E00E9431
:1016E0004C3660EA76E08CE098E00E9499158CE038
:1016F00098E00E94951510E035C0E4ECF6E06591A5
:10170000749180EA96E00E944C3660EA76E08CE0C4
:1017100098E00E949915ECECF6E06591749180EAEE
:1017200096E00E944C3660EA76E08CE098E00E94F9
:101730009915EAECF6E06591749180EA96E00E94D2
:101740004C3660EA76E08CE098E00E9499158CE0D7
:1017500098E00E949515BE016F5F7F4F8CE098E086
:101760000E949915F601808191810E94E933C6504B
:10177000DD4F88819981CA5FD2400E94E93364E6D7
:1017800070E080E090E00E94AB158CE098E00E9451
:10179000D816112309F4CFC0E0E0F0E01995CBC0D2
:1017A000970125523D4F7901019739F5F701B08036
:1017B0004AE0BE016F5F7F4F8B2D90E00E947E3626
:1017C000E0EDF6E06591749180EA96E00E944C3677
:1017D00066EB75E080EA96E00E946D3EBE016F5FA9
:1017E0007F4F80EA96E00E946D3E60EA76E085E5F4
:1017F00097E00E94991561E026C0F701B0804AE0A9
:10180000BE016F5F7F4F8B2D90E00E947E36E2ED30
:10181000F6E06591749180EA96E00E944C3666EBA2
:1018200075E080EA96E00E946D3EBE016F5F7F4FDB
:1018300080EA96E00E946D3E60EA76E085E597E0FA
:101840000E94991560E08B2D0E94C01E6DEE72E023
:10185000CE0101960E94833EE6EFF6E06591749119
:1018600080EA96E00E944C3660EA76E0CE0101966E
:101870000E946D3EB801CE0101960E946D3EE8EFD8
:10188000F6E06591749180EA96E00E944C3660EA39
:1018900076E0CE0101960E946D3EF70110814AE08C
:1018A00060EA76E0812F90E00E947E3660EA76E082
:1018B000CE0101960E946D3EEAEFF6E065917491CB
:1018C00080EA96E00E944C3660EA76E0CE0101960E
:1018D0000E946D3E812F0E94971E4AE060EA76E0EA
:1018E0000E947E3660EA76E0CE0101960E946D3E4F
:1018F0006BEE72E0CE0101960E946D3E8CEB95E09E
:101900000E943626BE016F5F7F4F85E597E00E94FB
:1019100099157ECD6DEE72E0CE0101960E94833E58
:10192000E4E0F7E06591749180EA96E00E944C361D
:1019300060EA76E063CDCE5FDC4F0FB6F894DEBF91
:101940000FBECDBFDF91CF911F910F91FF90EF9010
:10195000DF90CF90BF90AF909F908F907F906F90CF
:101960005F904F900895CF93DF931F92CDB7DEB76E
:101970006983DC01ED91FC910280F381E02D41E06F
:1019800050E0BE016F5F7F4F19950F90DF91CF91AF
:101990000895FC01818D928D0895FC0184899589BB
:1019A000089525EB33E0FC0131832083FB0140895E
:1019B000518962897389FC014283538364837583EF
:1019C0000895DC01ED91FC91048CF58DE02D1994C6
:1019D00080E008952C9A08952C9808958EBD0000FB
:1019E0000DB407FEFDCF8EB508950895FC01138256
:1019F000128288EE93E0A0E0B0E084839583A68312
:101A0000B78383EF92E09183808385EB93E09787A0
:101A10008687108A118A128A138A84E0808F08953B
:101A2000AF92BF92CF92DF92EF92FF920F931F93EC
:101A3000CF93DF93CDB7DEB7AF970FB6F894DEBF85
:101A40000FBECDBF7C015B016A0105EB13E01A8379
:101A500009831B821C821D821E82CE0109960E9470
:101A6000F60C1BA70AA71CA61DA61EA61FA68091E2
:101A7000F4079091F507A091F607B091F7078EA3B0
:101A80009FA3A8A7B9A78B839C83AD83BE83188629
:101A90001F82AE01465D5F4FB501CE0101960E94E7
:101AA0001B1C81309105B1F4D701ED91FC910488A4
:101AB000F589E02D1DA30CA38CA59DA5AEA5BFA502
:101AC0008EA39FA3A8A7B9A7A601BE016C5D7F4FF7
:101AD000C7011995AF960FB6F894DEBF0FBECDBF04
:101AE000DF91CF911F910F91FF90EF90DF90CF90FA
:101AF000BF90AF900895CF92DF92EF92FF920F9335
:101B00001F93CF93DF93EC017A018B016C01C40E1C
:101B1000D51ECC15DD05A9F00E94EC0C8FE00E94CB
:101B2000EE0C8D2F0E94EE0C8C2F0E94EE0C219655
:101B300080E00E94EE0CF80181938F010E94EA0C74
:101B4000E8CFC701DF91CF911F910F91FF90EF90E8
:101B5000DF90CF900895CF92DF92EF92FF920F9394
:101B60001F93CF93DF93EC017A018B016C01C40EBC
:101B7000D51ECC15DD05A1F00E94EC0C80EF0E9473
:101B8000EE0C8D2F0E94EE0C8C2F0E94EE0C2196F5
:101B9000F80181918F010E94EE0C0E94EA0CE9CFBE
:101BA000C701DF91CF911F910F91FF90EF90DF90D0
:101BB000CF9008951F93CF93DF93D82F192FC62F5F
:101BC0000E94EC0C80EF0E94EE0C812F0E94EE0C24
:101BD0008D2F0E94EE0C8C2F0E94EE0C0E94EA0CBE
:101BE00081E0DF91CF911F9108959B0190E00496D1
:101BF000982F8827642F820F931F0C94DA0DCF93B0
:101C0000DF9390E00496982F8827EC01C60FD71F2A
:101C10000E94EC0C8FE00E94EE0C8D2F0E94EE0CC7
:101C20008C2F0E94EE0C80E00E94EE0CC82F0E94C8
:101C3000EA0C8C2FDF91CF9108951F93CF93DF9300
:101C4000182F66E270E00E94FF0DC82FD0E067E217
:101C500070E0812F0E94FF0DDC2FCC279E01282BE6
:101C6000C901DF91CF911F9108951F93CF93DF9307
:101C7000182F60E270E00E94FF0DC82FD0E061E2F3
:101C800070E0812F0E94FF0DDC2FCC279E01282BB6
:101C9000C901DF91CF911F910895CF93DF93C82F92
:101CA000D62F472F60E170E00E94F50D4D2F61E1C6
:101CB00070E08C2FDF91CF910C94F50D90E0982F70
:101CC000882744E050E0845F9B4F0C94AB0D08954F
:101CD0008CBD9DBD08958F929F92AF92BF92DF926F
:101CE000EF92FF920F931F93CF93DF931F921F9258
:101CF000CDB7DEB77C014B018A01FC01A688B7880D
:101D0000D08CCE0101960E947C2189819A810E940B
:101D1000680E8D2D0E9461238017910720F48D2D70
:101D20000E9461238C019801A401B5018D2D0E94B0
:101D3000FC22F70186899789800F911F978B868BEC
:101D4000C8010F900F90DF91CF911F910F91FF90DD
:101D5000EF90DF90BF90AF909F908F9008951F936A
:101D6000CF93DF931F921F92CDB7DEB7FC01108D8A
:101D7000CE0101960E947C2189819A810E94680E81
:101D800060E270E0812F0E946C2162E070E0812FA0
:101D90000E94FF0D84FD19C062E070E0812F0E9457
:101DA000FF0D83FF09C048E162E070E0812F0E94CF
:101DB000F50D80E090E011C0CE0101960E947C21DB
:101DC00089819A810E94680EE0CF40E162E070E074
:101DD000812F0E94F50D81E090E00F900F90DF9130
:101DE000CF911F910895DF92EF92FF920F931F936F
:101DF000CF93DF931F921F92CDB7DEB7FB01DC01BB
:101E000057961C921E9256972281211109C0238158
:101E1000211106C02481211103C025812223E1F074
:101E200041155105C9F07A018F01FC01D08CCE011A
:101E300001960E947C2189819A810E94680EB801D6
:101E40006E5F7F4F8D2D0E945E0EB7018D2D0E941B
:101E50004D0E81E090E002C080E090E00F900F9086
:101E6000DF91CF911F910F91FF90EF90DF90089538
:101E7000CF92DF92FF920F931F93CF93DF931F9226
:101E80001F92CDB7DEB7F82E6B01CE0101960E94EE
:101E90007C2189819A810E94680E68E270E08F2D12
:101EA0000E94FF0D082F10E069E270E08F2D0E9464
:101EB000FF0D702F6627682B21E030E0A6018F2DE3
:101EC0000E94B42281E090E00F900F90DF91CF91BB
:101ED0001F910F91FF90DF90CF900895DF92EF92C6
:101EE000FF920F931F93CF93DF931F921F92CDB753
:101EF000DEB7D82ECE0101960E947C2189819A817D
:101F00000E94680EE12CF12C8D2D0E941D0E8C017B
:101F1000892B21F08D2D0E941D0E7C010E151F05B1
:101F200099F7C8010F900F90DF91CF911F910F91FA
:101F3000FF90EF90DF9008958F929F92BF92CF9283
:101F4000DF92EF92FF920F931F93CF93DF931F9235
:101F50001F92CDB7DEB7B82E6B017A01CE01019684
:101F60000E947C2189819A810E94680E812C912C8B
:101F70008B2D0E941D0E8C01892B21F08B2D0E9430
:101F80001D0E4C010815190599F70115110599F455
:101F900063E070E08B2D0E94FF0D8431D9F188231E
:101FA000C9F101E010E08C3111F400E010E011956E
:101FB000019511092FC0E016F1060CF487011016E7
:101FC000110644F568E270E08B2D0E94FF0DE82EAB
:101FD000F12C69E270E08B2D0E94FF0DFE2CEE24A7
:101FE000E82A9801A601B7018B2D0E94B422E00EC9
:101FF000F11E4F2D68E270E08B2D0E94F50D4E2DE5
:1020000069E270E08B2D0E94F50D60E470E08B2D8D
:102010000E946C21C8010F900F90DF91CF911F910A
:102020000F91FF90EF90DF90CF90BF909F908F9097
:1020300008950F931F93CF93DF93CDB7DEB7289703
:102040000FB6F894DEBF0FBECDBF8C01D8015996F4
:102050008D919C915A97892B41F0ED91FC910284CE
:10206000F385E02DC8011995F1CFF801808D0E940C
:102070006E0F1816190654F548E050E0BE016F5F68
:102080007F4FD80158968C910E949C0F1816190604
:10209000FCF4D801509684E0FE01319601900D9237
:1020A0008A95E1F78D8190E0982F88272E81820F05
:1020B000911DF801958B848B8F8190E0982F882754
:1020C0002885820F911D928F818F02C080E090E061
:1020D00028960FB6F894DEBF0FBECDBFDF91CF912B
:1020E0001F910F9108951F93CF93DF931F921F921B
:1020F000CDB7DEB7182FCE0101960E947C218981D1
:102100009A810E94680E60E170E0812F0E946C212C
:102110004FEF62E070E0812F0E94F50D0F900F905D
:10212000DF91CF911F910895CF93DF93EC01888DBC
:10213000843061F00E947310E88DF0E0EE0FFF1F15
:10214000E851F94F1182108284E0888FDF91CF919E
:102150000895DF92EF92FF920F931F93CF93DF9337
:102160001F921F92CDB7DEB7182FD62E7A01022FFD
:102170000E947310CE0101960E947C2189819A8170
:102180000E94680E4D2D402B60E070E0812F0E9470
:10219000F50DE114F10459F4E090E606F090E7063D
:1021A0008FEFE81AF80AF092E706E092E6064F2D64
:1021B00064E070E0812F0E94F50D4E2D65E070E027
:1021C000812F0E94F50D61E070E0812F0E946C214B
:1021D00081E00F900F90DF91CF911F910F91FF90B1
:1021E000EF90DF9008951F93CF93DF931F921F927C
:1021F000CDB7DEB7182FCE0101960E947C218981D0
:102200009A810E94680E63E070E0812F0E94FF0DAA
:102210000F900F90DF91CF911F910895EF92FF9251
:102220001F93CF93DF93FC01208D243011F080E0C9
:102230001CC07B01EC0110E0812F0E94F310811182
:1022400002C0188F05C08831E1F31F5F1430A1F779
:10225000888D843061F3FD86EC861A8E198E20E01D
:10226000A70162E00E94A91081E0DF91CF911F9148
:10227000FF90EF900895DC0180E0615098F02D917F
:10228000982F9227E92FEF70F0E0E35AFC4F24914A
:1022900092959F70E92FF0E0E359FC4FE491822F73
:1022A0008E27EBCF0895FC0190810180F281E02D13
:1022B000F8948181892B81832281892F809528231D
:1022C0002283A7E0B0E01197F1F721818223818377
:1022D000A3E2B0E01197F1F780817894EFECF0E0A1
:1022E0003197F1F7982381E009F480E00895FC012B
:1022F00090810180F281E02D892F809560FF12C0CE
:10230000F8942281822382838181892B8183A3E2B5
:10231000B0E01197F1F78281982B9283789487ED42
:1023200090E011C0F8942281822382838181892BDD
:102330008183AFEFB0E01197F1F78281982B928300
:1023400078948FE090E00197F1F70895DF92EF9293
:10235000FF920F931F93CF93DF93EC01D62EE42EC1
:1023600008E010E0FF24F39461E08D2D8F2109F443
:1023700060E0CE010E947711FF0C01501109A1F716
:10238000E11010C0F894E981FA81918188818095EB
:1023900089238183E981FA819281888180958923CB
:1023A00082837894DF91CF911F910F91FF90EF90EE
:1023B000DF900895EF92FF920F931F93CF93DF93D7
:1023C0008C017B0140E065E50E94A611E70188E0F1
:1023D000E80EF11C699140E0C8010E94A611CE15DB
:1023E000DF05C1F7DF91CF911F910F91FF90EF9023
:1023F0000895DC012C911196ED91FC911297F894BF
:102400008181922F90958923818378948DE743E091
:1024100050E0815021F1DA011197F1F73081322338
:10242000C1F3F8948281892382838181822B818305
:102430007894ABE7B7E01197F1F7F894818198238E
:10244000918383E191E00197F1F78081282381E076
:1024500009F080E07894E3E6F6E03197F1F708952B
:102460000895CF92DF92EF92FF920F931F93CF9335
:10247000DF936C017A018B01C0E0D0E0CE15DF055F
:1024800081F0D8016D918D01D601ED91FC91019003
:10249000F081E02DC6011995892B11F02196EECF20
:1024A0007E01C701DF91CF911F910F91FF90EF90B7
:1024B000DF90CF9008953FB7F8948091F506909102
:1024C000F606A091F706B091F80626B5A89B05C0C0
:1024D0002F3F19F00196A11DB11D3FBFBA2FA92FA3
:1024E000982F8827820F911DA11DB11DBC01CD0120
:1024F00042E0660F771F881F991F4A95D1F708950C
:10250000CF93DF931F92CDB7DEB76983DC01ED91E6
:10251000FC910280F381E02D41E050E0BE016F5F4D
:102520007F4F19950F90DF91CF910895FC0194850D
:10253000FB018485981303C081E0943009F480E0A6
:10254000089521E0FC018485843009F420E0822F85
:1025500008950895CF93DF931F92CDB7DEB76983B7
:10256000DC01ED91FC910280F381E02D41E050E02F
:10257000BE016F5F7F4F19950F90DF91CF91089546
:10258000DC01ED91FC91068CF78DE02D199591E021
:1025900089270895862F089581E086270895089554
:1025A0000E94523E0F931F93CF93DF931F92CDB79C
:1025B000DEB78C01DC01ED91FC910084F185E02D0A
:1025C0001995892B51F0BE016F5F7F4FF80184850B
:1025D0000E94380F898190E002C08FEF9FEF0F902B
:1025E000DF91CF911F910F910895CF93DF931F92A9
:1025F000CDB7DEB7FC01218D328D232B49F0BE0112
:102600006F5F7F4F808D0E94380F898190E002C0FC
:102610008FEF9FEF0F90DF91CF910895FC0184859C
:102620000C949C0FCF93DF931F92CDB7DEB741E0A0
:1026300050E0BE016F5F7F4FFC0184850E949C0FBC
:10264000181619061CF4898190E002C08FEF9FEFE5
:102650000F90DF91CF910895CF93DF93FC01218DEF
:10266000328D2115310519F48FEF9FEF11C0EC0168
:102670004217530708F0A901888D0E949C0F181675
:10268000190694F7298D3A8D281B390B3A8F298F1B
:10269000DF91CF9108950F931F93CF93DF931F92F4
:1026A000CDB7DEB7FC01218D328D232B61F08C017B
:1026B00041E050E0BE016F5F7F4F808D0E949C0F14
:1026C000181619061CF08FEF9FEF08C0F801818DD6
:1026D000928D0197928F818F898190E00F90DF9189
:1026E000CF911F910F910895FC018485843011F0E2
:1026F0000C946E0F80E090E008956F927F928F921D
:102700009F92AF92BF92CF92DF92EF92FF920F9380
:102710001F93CF93DF931F921F92CDB7DEB75C015B
:102720003B016A01FC011485143041F481E090E022
:10273000F5019383828380E090E064C07A014130A8
:10274000584018F0E12C88E0F82ECE0101960E9446
:102750007C2189819A810E94680E812F0E946123C9
:102760004C0163E070E0812F0E94FF0D082F0E9452
:10277000670E073111F00C3121F48E149F0428F3F9
:1027800002C0E12CF12CCE0101960E947C218981AE
:102790009A810E94680E9701A30160E070E0812F8A
:1027A0000E94FC2260E270E0812F0E946C2162E0B6
:1027B00070E0812F0E94FF0D84FD18C063E070E07F
:1027C000812F0E94FF0D811106C00E94670E812F8C
:1027D0000E947310ABCF0E94670ECE0101960E943B
:1027E0007C2189819A810E94680EE1CF40E162E0FC
:1027F00070E0812F0E94F50D0E94670EEF2809F40A
:1028000095CFC6010F900F90DF91CF911F910F913F
:10281000FF90EF90DF90CF90BF90AF909F908F9000
:102820007F906F900895BF92CF92DF92EF92FF92C8
:102830000F931F93CF93DF9300D000D0CDB7DEB7B7
:10284000FC01208D243009F04CC06A017B018C0111
:10285000B12C63E070E08B2D0E94FF0D811103C04D
:10286000F801B08E06C08831D9F3B394F4E0BF12FA
:10287000F0CFF801808D8430A1F196E0E7E1F3E03C
:10288000DE01119601900D929A95E1F7F70193817F
:102890009F779C8394819D8395819E83B7016E5F12
:1028A0007F4F0E945E0EB601F801808D0E944D0E92
:1028B000F801808D90E0982F882746E050E0BE0117
:1028C0006F5F7F4F8A5F9B4F0E94AB0DF801128EA6
:1028D000118E20E8A60162E0808D0E94A91081E09F
:1028E00001C080E026960FB6F894DEBF0FBECDBFC4
:1028F000DF91CF911F910F91FF90EF90DF90CF90DC
:10290000BF900895FC01848DDF01A80FB11DA35A6B
:10291000BF4F2C91848D90E001968F739927848FFF
:10292000A689B7892C93A089B1898C918370806422
:102930008C93938D848D981306C00288F389E02DC3
:1029400080818F7D80830895CF93DF93FC01248164
:102950003581232B69F0C081D181062E000C770BC5
:10296000CE010E94783E009719F08C1B9D0B02C08F
:102970008FEF9FEFDF91CF910895EF92FF920F932A
:102980001F93CF93DF93EC017B018A0188819981AA
:10299000009729F02A813B8124173507F8F4B80104
:1029A0006F5F7F4F0E946D3D009759F09983888338
:1029B0001B830A832C813D81232B81F4FC0110822F
:1029C0000DC088819981009711F00E94E933198226
:1029D00018821D821C821B821A8207C01D830C83F1
:1029E000B701888199810E94833ECE01DF91CF910A
:1029F0001F910F91FF90EF900895FC0111821082BA
:102A000013821282158214826115710551F0FB0147
:102A100001900020E9F73197AF01461B570B0C944A
:102A2000BD140895863308F0865390917B00282FBB
:102A30002870977F922B90937B002091C20290E4A4
:102A4000299F900111248770822B80937C008091B4
:102A50007A00806480937A0080917A0086FDFCCFB2
:102A6000809178002091790090E0922B0895611573
:102A7000710579F0FB0101900020E9F73197AF0172
:102A8000461B570BDC01ED91FC910280F381E02D98
:102A9000199480E090E008958F929F92AF92BF9238
:102AA000EF92FF920F931F93CF93DF93CDB7DEB7D3
:102AB000A1970FB6F894DEBF0FBECDBF7C01FA011F
:102AC000CB0119A2223008F42AE08E010F5D1F4FBE
:102AD000822E912CA12CB12CBF01A50194010E9442
:102AE000CB3BF901CA01015011096A3014F4605D51
:102AF00001C0695CD8016C93232B242B252B61F733
:102B0000B801C7010E943715A1960FB6F894DEBF31
:102B10000FBECDBFDF91CF911F910F91FF90EF902E
:102B2000BF90AF909F908F90089569ED75E00C94E1
:102B300037150F931F93CF93DF93EC010E94371546
:102B40008C01CE010E949515800F911FDF91CF91CE
:102B50001F910F9108958F929F92AF92BF92CF9243
:102B6000DF92EF92FF926B017C010E945B124B019E
:102B70005C01C114D104E104F104F1F00E945B1284
:102B8000DC01CB0188199909AA09BB09883E934049
:102B9000A105B10570F321E0C21AD108E108F108DE
:102BA00088EE880E83E0981EA11CB11CC114D104CC
:102BB000E104F10419F7DDCFFF90EF90DF90CF90A3
:102BC000BF90AF909F908F9008952FB7F894609129
:102BD000F1067091F2068091F3069091F4062FBFF2
:102BE00008951F920F920FB60F9211242F933F93C7
:102BF0008F939F93AF93BF938091F1069091F206CC
:102C0000A091F306B091F4063091F00623E0230F73
:102C10002D3720F40196A11DB11D05C026E8230F14
:102C20000296A11DB11D2093F0068093F1069093AA
:102C3000F206A093F306B093F4068091F506909106
:102C4000F606A091F706B091F8060196A11DB11DF8
:102C50008093F5069093F606A093F706B093F806D6
:102C6000BF91AF919F918F913F912F910F900FBE88
:102C70000F901F901895FC018485843011F00C94FE
:102C8000F31080E008958F929F92AF92BF92CF92FF
:102C9000DF92EF92FF920F931F93CF93DF93CDB705
:102CA000DEB72F970FB6F894DEBF0FBECDBF7C0105
:102CB00000E010E038EE832E33E0932EA12CB12CEF
:102CC00045E7C42E43E0D42E1C821B828D829E8257
:102CD000AF82B886DA82C9820D87CE0101960E9442
:102CE0003B16811129C0F7014481558120E061E044
:102CF000802F0E94A910CE010E960E947C218E8505
:102D00009F850E94680E63E070E0802F0E94FF0D97
:102D1000833129F462E070E0802F0E946C210E94D0
:102D2000670EF70184819581000F111FF801E851AA
:102D3000F94F9183808305C00F5F1F4F0430110549
:102D400019F62F960FB6F894DEBF0FBECDBFDF91F8
:102D5000CF911F910F91FF90EF90DF90CF90BF9098
:102D6000AF909F908F900895CF93DF93FC012485BF
:102D70002430D1F0EC010E943B16843181F088238D
:102D800071F0883161F08C3161F4E881F98100845F
:102D9000F185E02DCE01199521E0892B19F420E071
:102DA00001C021E0822F01C080E0DF91CF91089522
:102DB000CF92DF92EF92FF920F931F93CF93DF9307
:102DC0001F921F92CDB7DEB7DC011C96FC90B4E0D9
:102DD000FB16F1F18C01CE0101960E947C218981C4
:102DE0009A810E94680E68E070E08F2D0E946C212D
:102DF0000E94670E0E94E5156B017C01C8010E94CC
:102E00003B168823B9F061E070E080E090E00E941A
:102E1000AB150E94E515DC01CB018C199D09AE09AB
:102E2000BF09883E9340A105B10540F3F8018485B0
:102E30000E947310D8011C96EC911C97F0E0EE0FE5
:102E4000FF1FE851F94F1182108284E01C968C9389
:102E50000F900F90DF91CF911F910F91FF90EF9006
:102E6000DF90CF9008954F925F926F927F928F92F2
:102E70009F92AF92BF92CF92DF92EF92FF921F93F9
:102E8000CF93DF93CDB7DEB72D970FB6F894DEBFA3
:102E90000FBECDBF7C0198EEC92E96E0D92E10E072
:102EA000A12CB12C28EE422E23E0522E612C712C45
:102EB00035E7832E33E0932E1C821B824D825E8287
:102EC0006F8278869A8289821D87D6012D913D91E5
:102ED0006D01F7018481958128173907B1F4CE017E
:102EE00001960E943B16843169F0CE0101960E9442
:102EF0003B168C3151F4CE0101960E947413892B3C
:102F000091F003C0AA24A394B12C1F5F1430A1F642
:102F1000AB2871F4D701ED91FC910084F185E02D8F
:102F2000C701199505C0CE0101960E94D816EDCFB4
:102F30002D960FB6F894DEBF0FBECDBFDF91CF91B7
:102F40001F91FF90EF90DF90CF90BF90AF909F9038
:102F50008F907F906F905F904F9008953F924F9227
:102F60005F926F927F928F929F92AF92BF92CF9219
:102F7000DF92EF92FF920F931F93CF93DF93CDB722
:102F8000DEB72D970FB6F894DEBF0FBECDBF6C0134
:102F90005B014A010E94331788EEE82E86E0F82E86
:102FA000312C00E010E098EE492E93E0592E612C70
:102FB000712C1C821B824D825E826F82788685E72F
:102FC00093E09A8389833D86F701219131917F01B6
:102FD000F601848195812817390731F4CE010196D5
:102FE0000E943B168731E9F03394F4E03F12E1CFC1
:102FF000C8012D960FB6F894DEBF0FBECDBFDF918E
:10300000CF911F910F91FF90EF90DF90CF90BF90E5
:10301000AF909F908F907F906F905F904F903F9078
:103020000895A401B501CE0101960E947D13080FF9
:10303000191FDACFAF92BF92DF92EF92FF920F93F8
:103040001F93CF93DF931F921F92CDB7DEB7FC0182
:103050002485243009F078C05A018B017C01D12CE1
:103060008D2D0E94F310811103C0F701D48607C093
:103070008B7F8831D1F3D394F4E0DF12F1CFF701E5
:103080008485843009F460C02091C0023091C1026F
:103090002F5F3F4F11F420E030EC3093C1022093BA
:1030A000C0024091C0025091C10220E061E00E9444
:1030B000A910F80182818F3F51F483818F3F99F4E9
:1030C00084818F3F81F485818F3F69F43AC08111FB
:1030D0000AC0F8018381811106C08481811103C077
:1030E0008581882371F1A114B10459F1F701D484C9
:1030F000CE0101960E947C2189819A810E94680EEE
:10310000B8016E5F7F4F8D2D0E945E0EB5018D2D33
:103110000E944D0E64E070E08D2D0E946C210E9493
:10312000670EC7010E943B16873189F061E070E0AD
:1031300080E090E00E94AB15C7010E943B16811110
:10314000F0CF84E0F701848780E090E002C081E066
:1031500090E00F900F90DF91CF911F910F91FF9012
:10316000EF90DF90BF90AF90089544E050E0BC0135
:103170008FE090E00C94AB0DAF92BF92CF92DF92B4
:10318000EF92FF920F931F93CF93DF93CDB7DEB7EC
:10319000AF970FB6F894DEBF0FBECDBF7C015B01C9
:1031A0006A0105EB13E01A8309831B821C821D82CE
:1031B0001E82CE0109960E94F60C1BA70AA71CA628
:1031C0001DA61EA61FA68091F4079091F507A09159
:1031D000F607B091F7078EA39FA3A8A7B9A78B8383
:1031E0009C83AD83BE8318861F82AE01465D5F4F10
:1031F000B501CE0101960E941B1C81309105B1F4EE
:10320000D701ED91FC910684F785E02D1DA30CA359
:103210008CA59DA5AEA5BFA58EA39FA3A8A7B9A762
:10322000A601BE016C5D7F4FC7011995AF960FB621
:10323000F894DEBF0FBECDBFDF91CF911F910F91EC
:10324000FF90EF90DF90CF90BF90AF90089590E007
:10325000FC013197E231F10508F04EC08827EE58A5
:10326000FF4F8F4F0C944A3D809180008F7703C0B1
:10327000809180008F7D80938000089580918000F0
:10328000877FF9CF84B58F7702C084B58F7D84BDE9
:1032900008958091B0008F7703C08091B0008F7D3A
:1032A0008093B0000895809190008F7707C080913F
:1032B00090008F7D03C080919000877F8093900065
:1032C00008958091A0008F7707C08091A0008F7D26
:1032D00003C08091A000877F8093A0000895809113
:1032E00020018F7707C0809120018F7D03C08091DE
:1032F0002001877F809320010895FC01538D448D28
:10330000252F30E0842F90E0821B930B541710F090
:10331000CF96089501970895FC01918D828D98179D
:1033200061F0828DDF01A80FB11D5D968C91928DA9
:103330009F5F9F73928F90E008958FEF9FEF0895A6
:10334000FC01918D828D981731F0828DE80FF11D6F
:10335000858D90E008958FEF9FEF0895FC01918D8A
:10336000228D892F90E0805C9F4F821B91098F7383
:1033700099270895EF92FF920F931F93CF93DF93B6
:10338000EC0181E0888F9B8D8C8D981305C0E889B6
:10339000F989808185FD26C0F62E0B8D10E00F5F28
:1033A0001F4F0F731127E02E8C8DE8120CC00FB643
:1033B00007FCFACFE889F989808185FFF5CFCE0136
:1033C0000E948214F1CF8B8DFE01E80FF11DE35AAC
:1033D000FF4FF0829FB7F8940B8FEA89FB898081B9
:1033E00080620AC09FB7F894EE89FF896083E889FC
:1033F000F98980818370806480839FBF81E090E041
:10340000DF91CF911F910F91FF90EF900895CF938F
:10341000DF93EC01888D8823C9F0EA89FB898081DC
:1034200085FD05C0A889B9898C9186FD0FC00FB6AE
:1034300007FCF5CF808185FFF2CFA889B9898C91EF
:1034400085FFEDCFCE010E948214E7CFDF91CF91AF
:1034500008958F929F92AF92BF92CF92DF92EF9298
:10346000FF920F931F93CF93DF937C01EB016C01CD
:1034700082E0C80ED11C4701E5E08E0E911C00E0F1
:1034800010E0F60141916F0150E060E070E02AE049
:10349000CE010E944C155C01E881F9810190F08118
:1034A000E02D6EE2CE0119958A0D9B1D080F191FA4
:1034B0008C149D0431F7F701458150E060E070E025
:1034C0002AE0CE010E944C15800F911FDF91CF9111
:1034D0001F910F91FF90EF90DF90CF90BF90AF9032
:1034E0009F908F9008957F928F929F92AF92BF92FC
:1034F000CF92DF92EF92FF920F931F93CF93DF93C0
:10350000CDB7DEB7A6970FB6F894DEBF0FBECDBF1E
:103510008C01762E942E852E20E2B22ECE010196BD
:103520007C01FC012B2D11922A95E9F785EB93E0A4
:103530009AA389A38FEF8BA38CA38DA38EA368017D
:1035400083E4C80ED11C43E450E0BE016F5D7F4FA1
:10355000C6010E94F30E019609F4B9C081E0898387
:103560008A8386E0A82EAB821C82F8016481758173
:10357000868197810E94523D6D837E838F839887D9
:1035800089869A8680E890E09C878B874CE150E0A2
:10359000B701C6010E946B0EF7012B2D11922A95DF
:1035A000E9F7480188E0880E911CF401D7010190E9
:1035B0000D92AA94E1F740E150E0B701C6010E94E4
:1035C0006B0EF7011192BA94E9F796E0A92EB12C8F
:1035D00040E250E0B701C6010E946B0EF1E0AF1A65
:1035E000B108B1F783E6898392E89A8393E59B83D8
:1035F0008C8385E38D8381E08E837F829DE3988732
:1036000097E099878A8786E0F401DE011B96019096
:103610000D928A95E1F78CE0898B8A8B6CED75E0D1
:10362000CE0143960E94833EF8016385CE01499600
:103630000E947D23F8016485CE014B960E947D2374
:10364000F8016585CE014D960E947D234EE150E044
:10365000B701C6010E946B0EF3E07F121EC082E329
:10366000898384E08A83F80196859B8397859C8370
:1036700090899D8391899E8396E39F838887828D1D
:103680008987838D8A87848D8B87858D8C874CE095
:1036900050E0B701C6010E946B0E87E3898386E084
:1036A0008A8391E09B8393E09C838D838FE08E835C
:1036B0008AE38F838BE388878FEF898749E050E027
:1036C000B701C6010E946B0EC6010E94AF0EA696FE
:1036D0000FB6F894DEBF0FBECDBFDF91CF911F9123
:1036E0000F91FF90EF90DF90CF90BF90AF909F90A1
:1036F0008F907F9008950F931F93CF93DF93CDB753
:10370000DEB729970FB6F894DEBF0FBECDBF8C0190
:1037100080913108909132080E94F911882309F1B3
:10372000BE016F5F7F4FC8010E943B268823C9F00E
:1037300068E0CE0101960E943B119985891311C062
:103740008D818F3361F020F48F3159F489E00CC002
:103750008F3519F08F3739F004C08BE005C08AE04F
:1037600003C080E001C08CE029960FB6F894DEBF5C
:103770000FBECDBFDF91CF911F910F910895309172
:103780004307313208F04BC080911F078111FCCFF5
:103790009091420722E020931F0721E020931E070B
:1037A0002FEF20931D0710921C0730931B07E2E2B6
:1037B000F7E0ABEFB6E020E0321721F041914D93F6
:1037C0002F5FFACF1092FA062091FA06990F922BEA
:1037D0009093FA069091F906913061F41092F906EF
:1037E0009091FA069093BB009091BC0093FDF8CFA6
:1037F00095EC01C095EE9093BC0090911F0792301C
:10380000E1F390911D079F3F79F080911D07803271
:1038100041F080911D07803331F084E005C081E0E4
:1038200003C082E001C083E0109221071092430799
:103830001092200708954F925F926F927F928F921D
:103840009F92AF92BF92CF92DF92EF92FF920F932F
:103850001F93CF93DF93CDB7DEB763970FB6F8947E
:10386000DEBF0FBECDBF7C015B013A01FB0120E052
:1038700080E090E06AE03191332309F140ED430F9D
:103880004A3080F4689FA001699F500D1124CA013D
:10389000C097830F911D37FD9A958F3F910559F37E
:1038A00050F313C03E3289F4233079F0D301A20FD4
:1038B000B11D12968C932F5F80E090E0DCCF233017
:1038C00021F4F301858381E021C0F7014281538116
:1038D000648175818091FC079091FD07A091FE079E
:1038E000B091FF07481759076A077B0709F495C18C
:1038F0000E94E5158701085F1F4F6F7077277C5F77
:10390000C8010E940E11813019F080E090E0F8C1EA
:1039100085EB93E09A838983F70182819381A48167
:10392000B5818B839C83AD83BE8345E350E0BE01AC
:103930006F5F7F4FC8010E94F30E892B19F4C12CD1
:10394000D12C66C10E94E515F7017783668376273F
:10395000672776277A83698342E050E0BE016F5F74
:103960007F4FC8010E946B0E81E090E09E878D879B
:1039700042E050E0BE01635F7F4FC8010E946B0EC2
:1039800080E091E09E878D8742E050E0BE01635F5A
:103990007F4FC8010E946B0E1E861D8642E050E0DC
:1039A000BE01635F7F4FC8010E946B0E42E050E092
:1039B000BE01635F7F4FC8010E946B0E42E050E082
:1039C000BE01635F7F4FC8010E946B0E4501F50188
:1039D0008081882301F164015601F60181912F0154
:1039E000882321F08E3211F06201F6CFC818D90871
:1039F0001C141D0474F4CF8641E050E0BE01615FE9
:103A00007F4FC8010E946B0EA601B401C8010E943D
:103A10006B0E4201DCCF1F8641E050E0BE01615FCA
:103A20007F4FC8010E946B0EC12CDD24D394DE862B
:103A3000CD8642E050E0BE01635F7F4FC8010E9427
:103A40006B0EDE86CD8642E050E0BE01635F7F4FA5
:103A5000C8010E946B0EC8010E94AF0E892B09F4A9
:103A60006ECFE3E0AE2EB12C230122E0420E511CBA
:103A70000E94E5153B014C01C8010E94191018165F
:103A80001906A4F00E94E515DC01CB0186199709FF
:103A9000A809B90989389341A105B105D0F462E3B9
:103AA00070E080E090E00E94AB15E6CFF701428124
:103AB000538164817581808D918DA28DB38D48175E
:103AC00059076A077B0749F4848D958DC59729F4BA
:103AD00009C0CC24CA94DC2C92C05EEFC52EDD2434
:103AE000DA948DC0F70181A192A10C970CF49DC0CE
:103AF0004CE050E0BE016F5F7F4FC8010E942C1365
:103B00008B819C819827892798279A8B898B29817B
:103B10003A81322723273227F7014681578124171C
:103B2000350709F07DC097FF7BC08F709270892B9D
:103B300009F0E1C06F8078847624672476246114CC
:103B4000710409F4D3C0C12CD12C8D819E8198279A
:103B500089279827C816D90608F46CC0812C912CA7
:103B600041E050E0BE016D5E7F4FC8010E942C1302
:103B70008B89982F907C09F08FC0811183C042E01F
:103B800050E0BE01615F7F4FC8010E942C1342E0EC
:103B900050E0BE01635F7F4FC8010E942C13C80133
:103BA0000E944B13C8010E944B13C8010E944B1383
:103BB000C8010E944B1342E050E0BE016F5E7F4F90
:103BC000C8010E942C138F8598898115914009F0B6
:103BD0006BC0CD84DE84DC24CD24DC2481E0C816D7
:103BE000D10409F061C089899A898115944009F04E
:103BF00078C044E050E0B201C8010E942C1381E07B
:103C0000A81AB10829F0FFEFCF16DF0609F430CF6C
:103C1000C8010E949410C60173C08EEF9FEF70C060
:103C20004CEFC42EDD24DA94EACF9DEFC92EDD24BB
:103C3000DA94E5CF41E050E0BE01635F7F4FC801F9
:103C40000E942C138D85882351F08D859FEF980F4E
:103C50009D87882321F0C8010E944B13F6CF8D85E4
:103C60008111E8CFC8010E944B13C8010E944B1379
:103C7000C8010E944B13C8010E944B13FFEFCF1ADB
:103C8000DF0A63CF8B899FEF980F9B8B882341F0CE
:103C9000C8010E944B13F6CFC8010E944B131B8A28
:103CA0008B8981115DCF6BCFC12CD12C89899A89E9
:103CB000982789279827C816D90638F4C8010E9482
:103CC0004B13FFEFCF1ADF0AF1CF2FEF821A920AC0
:103CD0006814790409F044CF26EFC22EDD24DA946B
:103CE0008ECF77EFC72EDD24DA9489CF3AEFC32E3B
:103CF000DD24DA9484CF8BEFC82EDD24DA947FCFD5
:103D000063960FB6F894DEBF0FBECDBFDF91CF91A3
:103D10001F910F91FF90EF90DF90CF90BF90AF90E9
:103D20009F908F907F906F905F904F900895CF936A
:103D3000DF93282F30E0F901E956FC4F8491F90117
:103D4000E658F94FD491F901EC5CF94FC491CC23BA
:103D500091F081110E942719EC2FF0E0EE0FFF1F68
:103D6000E65EF94FA591B491EC91ED2381E090E0EE
:103D700021F480E002C080E090E0DF91CF910895CF
:103D80001F93CF93DF93282F30E0F901E956FC4FC2
:103D90008491F901E658F94FD491F901EC5CF94F9F
:103DA000C491CC23C1F0162F81110E942719EC2F4A
:103DB000F0E0EE0FFF1FE358FC4FA591B4919FB7C1
:103DC000F894111104C08C91D095D82302C0EC91C5
:103DD000DE2BDC939FBFDF91CF911F910895CF938E
:103DE000DF9390E0FC01E658F94F2491FC01EC5C74
:103DF000F94F8491882361F190E0880F991FFC01AD
:103E0000E352FC4FC591D491FC01E358FC4FA591BE
:103E1000B491611109C09FB7F894888120958223DD
:103E20008883EC912E230BC0623061F49FB7F89425
:103E30008881322F309583238883EC912E2B2C930D
:103E40009FBF06C08FB7F894E8812E2B28838FBFC1
:103E5000DF91CF9108951F920F920FB60F92112408
:103E60000BB60F922F933F934F935F936F937F9374
:103E70008F939F93AF93BF93EF93FF9385E597E065
:103E80000E948214FF91EF91BF91AF919F918F910A
:103E90007F916F915F914F913F912F910F900BBE4A
:103EA0000F900FBE0F901F9018951F920F920FB694
:103EB0000F9211240BB60F922F938F939F93EF9332
:103EC000FF93E0916507F09166078081E0916B07B1
:103ED000F0916C0782FD12C0908180916E078F5F18
:103EE0008F7320916F07821751F0E0916E07F0E019
:103EF000EB5AF84F958F80936E0701C08081FF9138
:103F0000EF919F918F912F910F900BBE0F900FBE4D
:103F10000F901F901895DC0185EB93E08D939D9396
:103F200084E0FB0101900D928A95E1F70895AF922C
:103F3000BF92CF92DF92EF92FF920F931F93CF9396
:103F4000DF937C015B01EA0169012417350720F446
:103F50008D2FE901C42ED82E6BED75E0C7010E94AC
:103F6000FD14D50114960D911C911597C017D1071A
:103F7000C8F5C016D10608F48601D501ED91FC9173
:103F80001197E00FF11FD08010826D917C916C0F22
:103F90007D1F6115710561F0FB0101900020E9F7BB
:103FA0003197AF01461B570BC7010E94BD1413C0C8
:103FB000F70180819181009711F00E94E933D701C8
:103FC00011961C921E9215961C921E92149713968F
:103FD0001C921E921297F50180819181FC01E00FE5
:103FE000F11FD082C701DF91CF911F910F91FF90F8
:103FF000EF90DF90CF90BF90AF900895CF92DF9277
:10400000EF92FF92CF93DF93B0914608882311F08F
:10401000AB2F01C0A0E08091470890E0880F991F66
:10402000865E994FC0904C08D0904D08E0904E08A5
:10403000F0904F0820E030E0FC01C591D491E88178
:10404000EB23A90160E070E0EA130CC02F5F3F4F43
:104050004C155D056E057F0578F33FEF2FEF8FEF71
:104060009FEF03C0322F252FCB01632F722FDF91DB
:10407000CF91FF90EF90DF90CF900895CF92DF9295
:10408000EF92FF920F931F93CF93DF93CDB7DEB7DD
:10409000C054D1400FB6F894DEBF0FBECDBF0E9412
:1040A000E515009148081091490820914A0830917F
:1040B0004B086B017C01C01AD10AE20AF30A40EDF9
:1040C000C41647E0D406E104F10418F480915008C6
:1040D000C1C0609348087093490880934A08909340
:1040E0004B08109243081092420810924108109217
:1040F000400810923F0862E0809144080E94EF1E41
:1041000061E070E080E090E00E94AB1561E080919A
:1041100044080E94EF1E60E0809144080E94C01E87
:10412000809145088551823028F48BE291E1019716
:10413000F1F706C064E170E080E090E00E94AB150A
:1041400062E0809144080E94EF1E8BE990E00197A5
:10415000F1F7F89480E00E94FE1F6F3F7F4F8F4F72
:104160009F4F21F410925008789441C081E00E9442
:10417000FE1F6F3F7F4F8F4F9F4FA1F38E010F5F49
:104180001F4F6E012FEBC21A2EEFD20A780180E08A
:104190000E94FE1FF701608371838283938381E015
:1041A0000E94FE1FF7016483758386839783F8E07E
:1041B000EF0EF11CEC14FD0451F7789420E030E090
:1041C000F801C080D180E280F3804481558166810E
:1041D0007781FFEFCF16DF06EF06FF0631F04F3F86
:1041E0008FEF58076807780721F41092500880E095
:1041F00031C0F90183E0F595E7958A95E1F7E15C37
:10420000F74F8081880FC416D506E606F70608F436
:10421000816080832F5F3F4F085F1F4F2832310539
:1042200079F62091430830E040913F0880914008A2
:1042300090E0840F911D40914108840F911D4091A1
:104240004208840F911D99272817390771F681E0DC
:1042500080935008C05CDE4F0FB6F894DEBF0FBEEF
:10426000CDBFDF91CF911F910F91FF90EF90DF9025
:10427000CF900895CF92DF92EF92FF92CF93DF938A
:10428000AB01BC0177FF1DC06A017B016DE285E5D2
:1042900097E00E94BA19EC0144275527BA014C193E
:1042A0005D096E097F092AE085E597E00E944C15BB
:1042B0008C0F9D1FDF91CF91FF90EF90DF90CF90FB
:1042C00008952AE085E597E0DF91CF91FF90EF9088
:1042D000DF90CF900C944C15CF93C82F462F61E000
:1042E00070E00E94F50D61E070E08C2F0E94FF0DE0
:1042F0008111F9CFCF91089520E5FC01208311822F
:1043000008951F93CF93DF931F921F92CDB7DEB70F
:104310006CE271E080E090E00E94AB151FB7F8946A
:1043200080915407811127C0E9E6F6E08491EFEA15
:10433000F6E09491E82FF0E0EE0FFF1FE352FC4F00
:10434000A591B491EC91E92321F461E085E30E9409
:10435000C01E61E085E30E94EF1E8CB580618CBDBC
:104360008CB580648CBD61E084E30E94EF1E61E047
:1043700083E30E94EF1E809154078F5F8093540760
:104380001FBF249ACE0101960E947C2189819A81C7
:104390000E94680E60E880E090E00E94DA0D65E51A
:1043A0008BE190E00E94DA0D65E58AE190E00E94E1
:1043B000DA0D0E94670E80E090E4909345078093A9
:1043C000440780E090E690934D0780934C0780E08F
:1043D00098E4909347078093460780E098E690938F
:1043E0004F0780934E0780E090E5909349078093B4
:1043F000480780E090E7909351078093500780E052
:1044000098E590934B0780934A0780E098E7909354
:104410005307809352070F900F90DF91CF911F9118
:1044200008951F93CF93DF93CDB7DEB7C454D1095E
:104430000FB6F894DEBF0FBECDBFFC018281938121
:10444000A481B58123968CAF9DAFAEAFBFAF23974C
:1044500011E023961FAF239723964CAD5DAD6EAD53
:104460007FAD23974BAB5CAB6DAB7EAB8DA79EA7AF
:10447000AFA7B8AB18AB4DA55EA56FA578A94FA3A4
:1044800058A769A77AA71EAB4BA95CA96DA97EA9FD
:1044900049A35AA36BA37CA325EB33E03C8B2B8B66
:1044A0004FEF4D8B4E8B4F8B188E3E872D871AA763
:1044B0004FA158A569A57AA54F87588B698B7A8B30
:1044C0001CA349A15AA16BA17CA149875A876B877C
:1044D0007C873A8329838B839C83AD83BE830E9430
:1044E0008121CE018D5B9F4F0E947C2125968EAD50
:1044F0009FAD25970E94680E46E050E065E278E0A7
:1045000089E090E00E94AB0DCE0103960E94B518A1
:1045100044E050E0BE01615F7F4F81E090E00E9487
:10452000AB0D44E050E0BE016B5E7F4F85E090E054
:104530000E94AB0D0E94670E1C8789859A85AB850A
:10454000BC858093F4079093F507A093F607B0938A
:10455000F707CC5BDF4F0FB6F894DEBF0FBECDBFC1
:10456000DF91CF911F910895AF92BF92CF92DF92CA
:10457000EF92FF920F931F93CF93DF931F921F929F
:10458000CDB7DEB77A836983BA01A901E981FA81DF
:10459000F770082F10E0000F111F045B184FD801AF
:1045A0008D919C918E0F9F1F9F01240F351F2130ED
:1045B0003840A0F07A015B0160E078E06B01CE1A30
:1045C000DF0AA601B5010E947B0DA7014C195D0908
:1045D000B5016C0D7D1DF801808191810F900F90C8
:1045E000DF91CF911F910F91FF90EF90DF90CF90CF
:1045F000BF90AF900C947B0D9F92AF92BF92CF92E1
:10460000DF92EF92FF920F931F93CF93DF93982E39
:104610008B015A01690164E270E00E94FF0DE82EEF
:10462000F12C65E270E0892D0E94FF0DFE2CEE2436
:10463000E82AE801CE0DDF1D9E013770E92CF12C30
:10464000C701880F991FAC014C5B584F7A01FA01E2
:1046500080819181820F931FA9014C0D5D1D413016
:10466000584090F000E018E0021B130BA801B501C0
:104670000E94AB0DA601401B510BB501600F711FCD
:10468000F7018081918102C0A601B5010E94AB0DA6
:10469000CC0DDD1D4D2F64E270E0892D0E94F50DDB
:1046A0004C2F65E270E0892DDF91CF911F910F9122
:1046B000FF90EF90DF90CF90BF90AF909F900C94C1
:1046C000F50DFF920F931F93CF93DF93F82E00E029
:1046D00010E08F2D0E94350EEC01892B21F08F2DDB
:1046E0000E94350E8C01C017D10799F7CE01DF91DA
:1046F000CF911F910F91FF90089520E3FC0120833B
:104700003296862F82958F7090E1899F60191124CF
:104710006A3014F4605D01C0695C6293682F811196
:10472000F0CF08952F923F924F925F926F927F92B7
:104730008F929F92AF92BF92CF92DF92EF92FF92B1
:104740000F931F93CF93DF93CDB7DEB7E2970FB6EA
:10475000F894DEBF0FBECDBF7C012A013B01690189
:104760000E94E5154B015C0187010D5B1F4FC801DD
:104770000E94191018161906A4F00E94E515DC0114
:10478000CB0188199909AA09BB09481659066A0676
:104790007B06D8F062E370E080E090E00E94AB1509
:1047A000E6CF42E250E0BE016F5F7F4FC8010E943A
:1047B0002C138981823011F080E060C1F801848976
:1047C000958983349105C1F702C08FEF57C16D8180
:1047D0007E818F8198850E94523D4B015C01F601DC
:1047E000608371838283938346E050E0B701685F02
:1047F0007F4FCE014D960E94573E892BE9F6F70177
:1048000080819181A281B38188169906AA06BB0690
:1048100098F284819581A681B78188159905AA05AA
:10482000BB0550F289899A89AB89BC8986879787AD
:10483000A08BB18B8EECC82ED12CC8010E944B13DB
:10484000F1E0CF1AD108C9F7712CC70182969AA757
:1048500089A7F701B696FCA7EBA708969EA78DA798
:104860003C974F01899698AB8FA73897FAABE9AB85
:104870001701F6E12F0E311C27018EE1480E511C65
:10488000F801818D928D181619060CF0F6C0C8013A
:104890000E944B138333910509F4C9C0F4F48130AD
:1048A0009105B9F11CF4892B59F3DBC083309105D4
:1048B000C1F1069709F0D5C0C8010E944B136C01E5
:1048C00044E050E0B201C8010E942C13A12CB12C8D
:1048D000DD2494E0C91AD1083FC08A33910509F458
:1048E0007AC03CF48533910561F0C69709F43FC066
:1048F000B8C08B33910509F484C08F3F910501F254
:10490000B0C0C8010E944B13C8010E944B13782EFF
:10491000B7CFC8010E944B1344E050E069A97AA9BF
:104920003AC0C8010E944B136C0144E050E0B10151
:10493000C8010E942C13A12CB12CDD24F4E0CF1A65
:10494000D108AC14BD040CF09BCFC8010E944B13DE
:104950008FEFA81AB80AF5CFAC14BD040CF090CFB5
:10496000C8010E944B13EFEFAE1ABE0AF5CFC80183
:104970000E944B13682EF701828D811110C0838D28
:1049800081110DC0848D81110AC0858D811107C0F0
:1049900044E050E0B401C8010E942C1371CFEFA590
:1049A000F8A9A080B180C280D380B401CE018396E3
:1049B0000E948B1F8DA19EA1AFA1B8A5A816B90614
:1049C000CA06DB0629F3662009F45ACFC8010E9403
:1049D0004B136A94F8CFC8010E944B1344E050E097
:1049E0006BA57CA5C8010E942C13F70166A177A1D5
:1049F00080A591A50E94523D66A377A380A791A7A9
:104A00003FCFC8010E944B1344E050E06DA57EA546
:104A1000C8010E942C13F70162A573A584A595A572
:104A20000E94523D62A773A784A795A729CFC8010A
:104A30000E944B1344E050E069A57AA5C8010E948A
:104A40002C13F70162A173A184A195A10E94523D8C
:104A500062A373A384A395A366A777A780AB91AB4A
:104A60000FCFC8010E944B13D82EDD2009F408CFC8
:104A7000C8010E944B13DA94F8CF872DE2960FB647
:104A8000F894DEBF0FBECDBFDF91CF911F910F9184
:104A9000FF90EF90DF90CF90BF90AF909F908F905E
:104AA0007F906F905F904F903F902F900895CF939D
:104AB000DF93FC01448155816081718185E597E038
:104AC0000E943112EC0185E597E00E9495158C0F4C
:104AD0009D1FDF91CF9108954F925F926F927F92C9
:104AE0008F929F92AF92BF92CF92DF92EF92FF92FE
:104AF000CF936B017C019B01AC010E941C3D88237C
:104B000019F06EEF75E01AC046015701E894B7F846
:104B10002FEF3FEF4FE75FE7C501B4010E941C3D57
:104B2000811112C02FEF3FEF4FE75FE7C501B401DE
:104B30000E94813A181644F462E076E085E597E039
:104B40000E9437157C017EC02FEF3FEF4FE75FE4F7
:104B5000C701B6010E94D13C18161CF466E076E04D
:104B6000EDCF2FEF3FEF4FE75FECC701B6010E949B
:104B7000813A87FDF3CF20E030E0A901C701B601FB
:104B80000E94813A87FF0BC06DE285E597E00E94A5
:104B9000BA195C01F7FAF094F7F8F09402C0A12C6E
:104BA000B12C2AE037ED43EA5BE3C701B6010E946E
:104BB0002F3C2B013C010E94A23C6B017C010E9416
:104BC000863A9B01AC01C301B2010E942E3C2B012D
:104BD0003C012AE0B701A60185E597E00E944C154B
:104BE0007C01EA0CFB1C6EE285E597E00E94BA1995
:104BF000E80EF91EC3E0C15029F120E030E040E2A8
:104C000051E4C301B2010E94E73A2B013C010E942A
:104C1000A23C4B01A12CB12C2AE0B501A40185E5F1
:104C200097E00E944C15E80EF91EC501B4010E94E0
:104C3000863A9B01AC01C301B2010E942E3C2B01BC
:104C40003C01D9CF85E597E00E9495158E0D9F1DFB
:104C5000CF91FF90EF90DF90CF90BF90AF909F905B
:104C60008F907F906F905F904F900895BC0185E585
:104C700097E00C943715AF92BF92CF92DF92EF92EC
:104C8000FF920F931F93CF93DF938B01BC01809111
:104C90003108909132080E94DA1140E06EEB809169
:104CA0003108909132080E94A611E801680189E05C
:104CB000C80ED11CA0903108B090320888E0E82ED0
:104CC000F12C10E001E0C5010E9453118111102B5D
:104CD000000F81E0E81AF108B1F71993CC16DD0650
:104CE00049F780913108909132080E94F91191E0C2
:104CF000813009F090E0892FDF91CF911F910F91C2
:104D0000FF90EF90DF90CF90BF90AF900895BF924B
:104D1000CF92DF92EF92FF920F931F93CF93DF9387
:104D2000EC016B018D85811105C0CE010E94F91146
:104D3000811105C01B861D861C8680E060C040E096
:104D400060EFCE010E94A61101E0E12CB12C11E030
:104D5000CE010E945311F82ECE010E94531191E012
:104D6000F91203C08130B1F434C02E2D30E0F812B6
:104D70001BC08B85181738F4FE01E20FF31F8381E7
:104D8000802341F402C0811729F0F12C193058F426
:104D90001C8709C0FE01EE0DF11D8381802B8383EA
:104DA000FF24F39409C0B12EFE01E20FF31F93819B
:104DB000802F8095892383836F2DCE010E947711E8
:104DC0001F5F000F11F4E39401E087E08E1508F0F7
:104DD000BFCF113408F4AECFBB86B11002C081E062
:104DE0008D878B81882309F4A5CFDE011396F60108
:104DF0002B968D918193CA17DB07D9F781E0DF915C
:104E0000CF911F910F91FF90EF90DF90CF90BF90C7
:104E100008950895E091A8088091A708E81730F454
:104E2000F0E0E957F74F808190E008958FEF9FEF12
:104E300008959091A8088091A708981750F4E92F39
:104E4000F0E0E957F74F208130E09F5F9093A8088A
:104E500002C02FEF3FEFC90108958091A70890E0AD
:104E60002091A808821B9109089580E090E00895A0
:104E700085ED8093BC008091BC0084FDFCCF109236
:104E80001F0708954091C908262F30E0240F311DD7
:104E900021323105DCF420911F072430C9F4FC01D4
:104EA00080E090E0861758F43091C9082191DC0128
:104EB000A755B74FA30FB11D2C930196F3CF809147
:104EC000C908680F6093C90880E0089581E00895DB
:104ED00082E00895CF92DF92EF92FF920F931F939B
:104EE000CF93DF937C01CB018A01209120072223FD
:104EF00089F0EB016B01C40ED51ECC15DD0569F000
:104F00006991D701ED91FC910190F081E02DC701ED
:104F10001995F3CF642F0E944227C801DF91CF91EA
:104F20001F910F91FF90EF90DF90CF900895CF9356
:104F3000DF931F92CDB7DEB769832091200722232C
:104F4000D1F020914307203240F021E030E0FC0115
:104F50003383228380E090E015C080912107E82F01
:104F6000F0E0EE5DF84F998190838F5F8093210789
:104F70008093430705C061E0CE0101960E9442275D
:104F800081E090E00F90DF91CF9108951F920F92F2
:104F90000FB60F9211240BB60F922F933F934F939E
:104FA0005F936F937F938F939F93AF93BF93EF9391
:104FB000FF938091B900887F803609F49CC068F522
:104FC000883209F45BC090F4803109F454C038F49D
:104FD000882309F4F6C0883009F44DC0F6C0883142
:104FE00009F44CC0803209F45DC0EFC0803409F48C
:104FF00068C048F4803309F455C0883309F0E5C02F
:1050000080931D07D8C0803509F44FC0883509F456
:105010005DC0883409F0D9C0D6C0883909F4C7C04A
:10502000A8F4883709F467C038F4883609F463C0F7
:10503000803709F460C0C9C0883809F4B8C0803925
:1050400009F45FC0803809F0C0C05BC0803B09F440
:1050500086C038F4803A09F466C0883A09F47FC003
:10506000B4C0803C09F4A7C0883C09F4A4C0883BC4
:1050700009F48AC0AAC08091FA0610C090911C075A
:1050800080911B07981770F5E0911C0781E08E0F47
:1050900080931C07F0E0E550F94F80818093BB00BE
:1050A00085EC86C080931D078EC0E0911C0781E0CF
:1050B0008E0F80931C078091BB00F0E0E550F94F04
:1050C000808390911C0780911B076EC0E0911C07A4
:1050D00081E08E0F80931C078091BB00F0E0E550CB
:1050E000F94F808380911E0781116DC081E080930C
:1050F000F90684EA61C083E080931F071092EB08F1
:10510000CFCF8091EB08803208F051C0E091EB08DE
:1051100081E08E0F8093EB088091BB00F0E0E553B7
:10512000F74F8083BDCF85EC8093BC0010921F07A2
:105130008091EB08803230F4E091EB08F0E0E55329
:10514000F74F10826091EB0870E0E0918508F091D4
:1051500086088BEC98E019951092EB0836C084E035
:1051600080931F071092CA081092C908E091830823
:10517000F091840819958091C908811105C081E0DA
:105180008093C9081092A908E091CA0881E08E0FA7
:105190008093CA08F0E0E755F74F80818093BB0009
:1051A0009091CA088091C908981708F479CF85E8CA
:1051B0008093BC000AC085EC8093BC0010921F074E
:1051C00004C010921D070E943827FF91EF91BF91F4
:1051D000AF919F918F917F916F915F914F913F918F
:1051E0002F910F900BBE0F900FBE0F901F90189530
:1051F0000C94AD3B0C94A53BCF93DF93C3ECD2E072
:10520000688180E090E00E94F828698181E090E068
:105210000E94F8286A8182E090E00E94F8286B8161
:1052200083E090E00E94F8286C8184E090E00E9486
:10523000F8286D8185E090E00E94F82860EC86E017
:1052400090E00E94F82868EA87E090E00E94F82841
:1052500060E088E090E00E94F8286CE589E090E04A
:10526000DF91CF910C94F828CF93DF93CDB7DEB7C1
:1052700069970FB6F894DEBF0FBECDBF789484B5A2
:10528000826084BD84B5816084BD85B5826085BD42
:1052900085B5816085BD80916E00816080936E00D0
:1052A00010928100809181008260809381008091C2
:1052B0008100816080938100809180008160809373
:1052C00080008091B10084608093B1008091B00033
:1052D00081608093B0008091910082608093910002
:1052E0008091910081608093910080919000816015
:1052F000809390008091A10082608093A1008091B2
:10530000A10081608093A1008091A00081608093C2
:10531000A000809121018260809321018091210170
:105320008160809321018091200181608093200120
:1053300080917A00846080937A0080917A00826004
:1053400080937A0080917A00816080937A008091C6
:105350007A00806880937A001092C1001092A808A9
:105360001092A708109221071092430710921F076E
:1053700081E080931E071092F90661E084E10E94AB
:10538000C01E61E085E10E94C01E8091B9008E7F41
:105390008093B9008091B9008D7F8093B90088E433
:1053A0008093B80085E48093BC0085EF9CE09093E7
:1053B00084088093830889E097E29093860880931D
:1053C000850862E0809144080E94EF1E0E94E51566
:1053D000DC01CB01805D9740A109B10980934808A9
:1053E00090934908A0934A08B0934B08E091310884
:1053F000F0913208138615861486DF011B963396CA
:105400001E92EA17FB07E1F710922F08109230085E
:1054100001E0BE016F5F7F4F8091310890913208AB
:105420000E948726882309F465C067E0CE010196B3
:105430000E943B1198858913ECCF80912B08811134
:1054400027C080913108909132080E94F911BE0165
:105450006F5F7F4F80913108909132080E94DA117E
:1054600040E064EB80913108909132080E94A611CF
:1054700080913108909132080E945311182F809129
:105480003108909132080E94F911112309F4C7C321
:1054900010912C088981803109F4DBC6CE01019678
:1054A0000E947B1B811718F480912C0809C0898108
:1054B000803111F48CE004C0CE0101960E947B1B68
:1054C00080932C0880912F088F5F80932F0889810B
:1054D000883209F4A7C338F4803109F4A3C38232B7
:1054E00009F097CF9FC38B3309F49CC3823409F032
:1054F00090CF98C381E08093C2020BED12E0D801F7
:10550000FD908D0161E08F2D0E94EF1E60E08F2DD8
:105510000E94C01EB2E00B3E1B0789F760E086E3E5
:105520000E94EF1E60E087E30E94EF1EE091650796
:10553000F091660782E08083E0916107F091620755
:105540001082E0916307F091640780E180831092FC
:105550006D07E0916907F0916A0786E08083E0912A
:105560006707F0916807808180618083E091670719
:10557000F0916807808188608083E0916707F091EF
:105580006807808180688083E0916707F0916807F1
:1055900080818F7D8083E0ECF6E06591749180EAF4
:1055A00096E00E944C3660EA76E085E597E00E943E
:1055B000991580E090E00E94FA28182F87E794E080
:1055C0000E943626412F50E060E070E02AE085E539
:1055D00097E00E944C1585E597E00E9495151F3FC6
:1055E00009F028C20E94FC2880916806811107C03A
:1055F0008DE496E00E94F60C81E0809368068AE0D4
:1056000096E09093F9078093F8070E948121CE01DC
:1056100001960E947C2189819A810E94680E46E051
:1056200050E063EC72E089E090E00E94AB0D85EB06
:1056300093E09A8389831B821C821D821E82CE0185
:1056400003960E94B5180E94670E0091F80710910A
:10565000F907F80112A213A214A215A216A217A20A
:1056600010A611A612A613A614A615A680E69AEEF9
:10567000A0E0B0E086AB97ABA0AFB1AF80EA9FE00F
:10568000A0E0B0E082AF93AFA4AFB5AF3E9684E1A7
:10569000DF011D928A95E9F786E0E3ECF2E0D8019C
:1056A000189601900D928A95E1F7F801EE5BFF4F95
:1056B000FF8BEE8B10820E94BD342FEC37E040E070
:1056C00050E00E94ED3BDC01CB010196A11DB11D14
:1056D000F80184839583A683B78380839183A28313
:1056E000B3835801F3E4AF0EB11CC5010E949410BE
:1056F00064E470E0C5010E940E1181110FC0E2EC5C
:10570000F6E06591749180EA96E00E944C3660EA7A
:1057100076E085E597E00E949915F1C10E94E515B4
:105720002B013C01812C912C48EEC42E43E0D42E59
:10573000E12CF12C52E0252EAE89BF898C9183306B
:1057400009F404C1811120C0F80184819581A681EA
:10575000B7810196A11DB11D84839583A683B7836C
:105760000E94E5156419750986099709A701960134
:105770000E94CB3BA90161E0C8010E94731A81E03D
:10578000AE89BF898C93CAC08430F9F4F801848152
:105790009581A681B7810196A11DB11D8483958352
:1057A000A683B7830E94E5156419750986099709D0
:1057B000A70196010E94CB3BA90163E0C8010E94AA
:1057C000731AAE89BF892C92A9C0813059F5F801AE
:1057D00042AD53AD64AD75AD9E012F5F3F4FC80123
:1057E0000E949223382EF2E08F1392C089819A8111
:1057F000AB81BC81F80184839583A683B7830E9423
:10580000E5156419750986099709A70196010E9493
:10581000CB3BA90163E0C8010E94731AAE89BF891E
:105820003C927CC0823009F079C0F80142AD53ADA2
:1058300064AD75AD9E012F5F3F4FC8010E9492235A
:10584000382EF5E08F135DC0E3E0AE89BF89EC939D
:10585000F80182A193A1A4A1B5A1892B8A2B8B2B3E
:1058600041F484E893E0A0E0B0E082A393A3A4A372
:10587000B5A3F80186A197A1A0A5B1A5892B8A2B74
:105880008B2B61F482A193A1A4A1B5A1B695A79594
:105890009795879586A397A3A0A7B1A7F80182A59E
:1058A00093A5A4A5B5A5892B8A2B8B2BA9F482A13E
:1058B00093A1A4A1B5A1AC01BD0123E076956795A4
:1058C000579547952A95D1F7841B950BA60BB70BD7
:1058D00082A793A7A4A7B5A7F80186A197A1A0A521
:1058E000B1A586A797A7A0ABB1AB82A593A5A4A5A8
:1058F000B5A582AB93ABA4ABB5AB88248394912CB4
:105900000DC0F6E08F1304C0AE89BF891C9206C09B
:10591000BFEF3B1203C0EE89FF891082F1E08F16C2
:10592000910409F409CF0E94E515DC01CB0184192B
:105930009509A609B709F80126A937A940AD51ADC7
:10594000281739074A075B0708F0F6CEC5010E9401
:105950009410F80184819581A681B7810196A11DDB
:10596000B11D84839583A683B7830E94E515F80152
:10597000FE966083718382839383F1E08F16910496
:1059800009F055C0CE0101960E947C2189819A813F
:105990000E94680E6091F8077091F907625F7F4F6F
:1059A000CE0101960E948B1FCE0103960E94B5186E
:1059B0006091F8077091F9076A5E7F4FCE010196FA
:1059C0000E948B1F44E050E0BE016D5F7F4F81E07D
:1059D00090E00E94AB0D6091F8077091F9076E5E40
:1059E0007F4FCE0101960E948B1F44E050E0BE0124
:1059F0006D5F7F4F85E090E00E94AB0D0E94670EC7
:105A00006091F8077091F907625E7F4FCE010196B1
:105A10000E948B1F8B819C81AD81BE818093F40796
:105A20009093F507A093F607B093F70717C089285E
:105A3000A9F465CE85EB93E09A8389838091210850
:105A400090912208A0912308B09124088B839C8315
:105A5000AD83BE83CE0101960E94112288E894E0B6
:105A60000E94362605E218E0EBE2EE2EE8E0FE2E7C
:105A7000D8014D918D0150E060E070E020E185E5B6
:105A800097E00E944C15E016F10691F785E597E046
:105A90000E949515EEECF6E06591749180EA96E02F
:105AA0000E944C3680EA96E00E94362685EB93E011
:105AB0009A8389831B821C821D821E82CE010A96D4
:105AC0000E947C218A859B850E94680E44E050E0FC
:105AD000BE016D5F7F4F8FE090E00E947B0D0E94C2
