:100000000C9448010C9470010C9470010C947001D4
:100010000C9470010C9470010C9470010C9470019C
:100020000C9470010C9470010C9470010C9470018C
:100030000C9470010C9470010C9470010C9470017C
:100040000C940E110C9470010C941B090C94F5087F
:100050000C9470010C9470010C9470010C9470015C
:100060000C9470010C947001000000002300260025
:10007000290000000008000201000003040700003E
:10008000000000000000226669726D7761726522CF
:100090003A22312E302E306222002268617264775B
:1000A000617265223A22646F7365722D76302E314B
:1000B00062222C00226572726F72223A22496E7699
:1000C000616C6964206368616E6E656C22007D00FE
:1000D0007B002261646472657373223A002C22767D
:1000E000616C7565223A002C22706F736974696FB8
:1000F0006E223A002C2270696E223A0022636861F7
:100100006E6E656C223A002C226368616E6E656CBF
:1001100073223A5B00226D657472696373223A7BC5
:10012000002C22757074696D65223A00226D656D30
:10013000223A00537769746368696E67206F666658
:1001400000537769746368696E67206F6E0052456B
:1001500053542073657276696365206C69737465A6
:100160006E696E67206F6E3A2000582D506F77656C
:100170007265642D42793A2043726F7044726F69E0
:10018000642076312E3000436F6E74656E742D548A
:100190007970653A206170706C69636174696F6E23
:1001A0002F6A736F6E00485454502F312E31203512
:1001B000303020496E7465726E616C2053657276C2
:1001C0006572204572726F7200485454502F312E60
:1001D0003120343034204E6F7420466F756E6400C9
:1001E000485454502F312E3120323030204F4B00A4
:1001F00044484350204661696C656400496E6974E7
:1002000069616C697A696E6720646F73696E6720D3
:10021000636F6E74726F6C6C65722E2E2E00000010
:100220000000250028002B0000000000240027000B
:100230002A00040404040404040402020202020268
:10024000030303030303010204081020408001029A
:1002500004081020010204081020FC01F001E00154
:10026000C901A60187016A014E01410133012C0138
:10027000210115010701FC00F400E700DD00D200B8
:10028000D000CE00B400000000009A008600D91E05
:1002900011241FBECFEFD8E0DEBFCDBF13E0A0E03A
:1002A000B1E0E6E0FAE402C005900D92AC31B1078E
:1002B000D9F724E0ACE1B3E001C01D92A83DB2073C
:1002C000E1F711E0C8E4D1E004C02197FE010E94EB
:1002D000E023C734D107C9F70E94921B0C94012573
:1002E0000C940000CF93DF93C8EAD1E0688180E0EE
:1002F00090E00E948E1B698181E090E00E948E1B3D
:100300006A8182E090E00E948E1B6B8183E090E026
:100310000E948E1B6C8184E090E00E948E1B6D8198
:1003200085E090E00E948E1B60EC86E090E00E94E9
:100330008E1B68EA87E090E00E948E1B60E088E0F8
:1003400090E00E948E1B6DE589E090E0DF91CF91F7
:100350000C948E1B2F923F924F925F926F927F92DE
:100360008F929F92AF92BF92CF92DF92EF92FF92C5
:100370000F931F93CF93DF93CDB7DEB7CD52D2400B
:100380000FB6F894DEBF0FBECDBF0E9402114B0125
:100390005C0100E011E058EA252E51E0352E412C99
:1003A000512C32014A94F80180819181A281B3815C
:1003B0008F3F9105A105B105B9F1C480D580E680D4
:1003C000F780A50194012C193D094E095F09CE5D06
:1003D000DD4F288339834A835B83C252D2404085F4
:1003E000518562857385CE5DDD4FC880D980EA80F6
:1003F000FB80C252D2404C155D056E057F05A0F40E
:1004000060E00E94C608D8014D925D926D927C9288
:100410001397F801148215821682178218961D927E
:100420001D921D921C921B97045F1F4F20163106D0
:1004300009F0B9CF87E994E00E944F120EEB13E068
:10044000B12C38EE432E33E0532E612C712C4AE14F
:10045000842E42E0942E1C821B824D825E826F822B
:1004600078869A828982BD86F801219131918F0127
:1004700080919B0490919C042817390711F5CE01B7
:1004800001960E945811873111F08C31D1F4CE01C0
:1004900001960E94A10E892BA1F02B813C818D81B8
:1004A0009E81AF81B885C984DA84EB84FC84C65D03
:1004B000DD4FC882D982EA82FB82CA52D240BD8413
:1004C0000BC0B39424E0D22EBD10C5CF88EE93E0CC
:1004D000A0E0B0E020E030E030938D0420938C0465
:1004E00080938E0490938F04A0939004B093910412
:1004F000C65DDD4FC880D980EA80FB80CA52D240F9
:10050000C0929204D0929304E0929404F0929504E5
:10051000B09296048E010C5E1E4F8FEFD8011D9293
:100520008A95E9F7B4E0BB1699F078016E01EDEE1B
:10053000CE1AEDEFDE0A06C08AE894E00E94A10E12
:10054000892B41F48AE894E00E94D1118111F4CF03
:1005500010E034C38AE894E00E943F0E8A3049F0EC
:100560008D3039F0EC14FD0421F0D7018D937D011D
:10057000E9CFC75EDD4F19821882C951D240C55EEE
:10058000DD4F19821882CB51D240C35EDD4F1982F4
:100590001882CD51D240F80101900020E9F731973F
:1005A000AF01401B510BB801CE01875E9D4F0E94E9
:1005B000720960E2CE01875E9D4F0E9459099C013D
:1005C00040E050E0BE01675E7D4FC6010E94B20967
:1005D0006FE2CE01875E9D4F0E9459097C01C35E88
:1005E000DD4F88819981CD51D240E816F90698F403
:1005F000C75EDD4FA880B980C951D24060E270E08B
:10060000C5018E0D9F1D0E94D224009721F09C01F0
:100610002A193B0902C02FEF3FEFA701BE01675E19
:100620007D4FCE0101960E94B209C75EDD4F8881E1
:100630009981C951D2400097E9F069817A816115A9
:100640007105B1F0C55EDD4F48815981CB51D24073
:100650002D813E814217530758F00E94DD248D8181
:100660009E81C35EDD4F99838883CD51D2401CC0EB
:100670000E945F2089819A81C75EDD4F99838883BC
:10068000C951D2408B819C81C55EDD4F998388839F
:10069000CB51D2408D819E81C35EDD4F998388838B
:1006A000CD51D2401A82198289819A810E945F209D
:1006B000C35EDD4FE880F980CD51D240E114F104F2
:1006C00011F4F80114C0FEEFEF16F10418F09EEFDC
:1006D000E92EF12CC75EDD4F68817981C951D24086
:1006E000A701C8010E94F224F801EE0DFF1D10823F
:1006F0006AE872E0C8010E94AD227C016AE872E0FB
:1007000080E090E00E94AD228C016AE872E080E017
:1007100090E00E94AD225C0145E050E06CE872E0A0
:10072000C7010E94E424892B09F078C06CEC71E0C9
:10073000CE0101960E94DD24E2E7F2E0659174911A
:100740008CE893E00E94A6226CE873E0CE0101964B
:100750000E94C724EEE6F2E0659174918CE893E084
:100760000E94A6226CE873E0CE0101960E94C72485
:100770008091D2049091D3049E01215E3D4F790176
:10078000009721F4C901885D944004C0A901481B69
:10079000590BCA014AE062E873E00E94D92262E87C
:1007A00073E0CE0101960E94C7246AEC71E0CE018D
:1007B00001960E94C724E4E7F2E0659174918CE809
:1007C00093E00E94A6226CE873E0CE0101960E949D
:1007D000C7248CEBA82E81E0B82E00E010E0D501F4
:1007E0008D915D010E949D084AE0B7010E94D922C7
:1007F000B701CE0101960E94C7240D30110531F0DA
:1008000062E972E0CE0101960E94C7240F5F1F4F7C
:100810000E30110521F76AEB71E04CC046E050E064
:1008200065E972E0C7010E94E424892B09F04EC0FB
:1008300064E972E08FED93E00E94D10AB8018FED78
:1008400093E00E94D10AB5018FED93E00E94D10A96
:10085000C5010E947F22F82EC8010E947F226F2DC1
:100860000E948E1B6CEC71E0CE0101960E94DD248B
:10087000EEE7F2E0659174918CE893E00E94A62285
:100880006CE873E0CE0101960E94C724B801CE0146
:1008900001960E94C724ECE7F2E0659174918CE820
:1008A00093E00E94A6226CE873E0CE0101960E94BC
:1008B000C724B501CE0101960E94C7246AEC71E0FD
:1008C000CE0101960E94C72410E036C145E050E0F9
:1008D0006CE972E0C7010E94E424892B09F077C01B
:1008E0000115110521F0B2E00F3F1B0739F462EA50
:1008F00072E08FED93E00E94D10A1CC1C8010E94F2
:100900007F228C014AE050E060E070E0C5010E9467
:100910008A214B015C010E30110590F5672B682B85
:10092000692B71F1F801E454FE4F70802CE0209F98
:10093000C001219F900D1124FC01E050FF4F7F0169
:10094000872D90E0A0E0B0E080839183A283B38301
:100950000E940211D70114966D937D938D939C9301
:100960001797A8EEB3E0A50194010E948023F70138
:10097000608771878287938761E0872D0E94C60810
:100980006CEC71E0CE0101960E94DD2465EB72E013
:10099000CE0101960E94C7244AE062E873E0C801D4
:1009A0000E94D92262E873E0CE0101960E94C7241A
:1009B00060EC72E0CE0101960E94C7244AE062E832
:1009C00073E0C4010E94D92262E873E073CF46E06D
:1009D00050E06DEC72E0C7010E94E424892B69F4B9
:1009E000C8010E947F227C01C5010E947F22FEE097
:1009F000EF16F10408F4F3C049C146E050E064ED9D
:100A000072E0C7010E94E424892B49F46CEC71E088
:100A1000CE0101960E94DD24E6E8F2E013C045E035
:100A200050E06BED72E0C7010E94E424892BF1F4E1
:100A30000E9472016CEC71E0CE0101960E94DD24EF
:100A4000E8E8F2E0659174918CE893E00E94A622B8
:100A50006CE873E0CE0101960E94C7246AEC71E055
:100A6000CE0101960E94C72411E066C043E050E029
:100A700061EE72E0C7010E94E424892B09F03AC0BC
:100A80006CEC71E0CE0101960E94DD24EAE8F2E010
:100A9000659174918CE893E00E94A6226CE873E063
:100AA000CE0101960E94C724ECE8F2E065917491B2
:100AB0008CE893E00E94A6226CE873E0CE010196D8
:100AC0000E94C724E0E7F2E0659174918CE893E01E
:100AD0000E94A6226CE873E0CE0101960E94C72412
:100AE0000E940211DC01CB014AE06CE873E00E9435
:100AF000D922DAC0E0E6F2E0659174918CE893E0E7
:100B00000E94A6226CE873E08AE894E00E94D10A71
:100B1000E6E6F2E0659174918CE893E00E94A622EB
:100B20006CE873E08AE894E00E94D10A8AE894E0D5
:100B30000E94CD0A10E035C0EEE5F2E065917491B7
:100B40008CE893E00E94A6226CE873E08AE894E0C7
:100B50000E94D10AE6E6F2E0659174918CE893E098
:100B60000E94A6226CE873E08AE894E00E94D10A11
:100B7000E4E6F2E0659174918CE893E00E94A6228D
:100B80006CE873E08AE894E00E94D10A8AE894E075
:100B90000E94CD0ABE016F5F7F4F8AE894E00E94F9
:100BA000D10AF601808191810E945F20C75EDD4FEE
:100BB00088819981C951D2400E945F2064E670E02B
:100BC00080E090E00E94E30A8AE894E00E94F51138
:100BD000112309F46CC0E0E0F0E0099568C09701CA
:100BE00024543E4F7901019721F461E0D7018C91A3
:100BF00003C060E0F70180810E94C6086CEC71E0E0
:100C0000CE0101960E94DD24E6E7F2E06591749141
:100C10008CE893E00E94A6226CE873E0CE01019676
:100C20000E94C724B801CE0101960E94C724E8E7BC
:100C3000F2E0659174918CE893E00E94A6226CE842
:100C400073E0CE0101960E94C724D7011C914AE0AF
:100C50006CE873E0812F90E00E94D9226CE873E089
:100C6000CE0101960E94C724EAE7F2E065917491F3
:100C70008CE893E00E94A6226CE873E0CE01019616
:100C80000E94C724812F0E949D082ECF6CEC71E03A
:100C9000CE0101960E94DD24E4E8F2E065917491B2
:100CA0008CE893E00E94A6226CE873E003CEC35D5B
:100CB000DD4F0FB6F894DEBF0FBECDBFDF91CF91F1
:100CC0001F910F91FF90EF90DF90CF90BF90AF906A
:100CD0009F908F907F906F905F904F903F902F905C
:100CE0000895833081F028F4813099F08230A1F0AA
:100CF00008958730A9F08830B9F08430D1F480911C
:100D000080008F7D03C0809180008F77809380006A
:100D1000089584B58F7702C084B58F7D84BD089512
:100D20008091B0008F7703C08091B0008F7D809359
:100D3000B0000895FC01538D448D252F30E0842FA1
:100D400090E0821B930B541710F0CF9608950197F3
:100D50000895FC01918D828D981761F0828DDF01DD
:100D6000A80FB11D5D968C91928D9F5F9F73928F9E
:100D700090E008958FEF9FEF0895FC01918D828D93
:100D8000981731F0828DE80FF11D858D90E0089560
:100D90008FEF9FEF0895FC01918D228D892F90E0B8
:100DA000805C9F4F821B91098F7399270895FC01E6
:100DB000848DDF01A80FB11DA35ABF4F2C91848DE4
:100DC00090E001968F739927848FA689B7892C9319
:100DD000A089B1898C91837080648C93938D848D6C
:100DE000981306C00288F389E02D80818F7D80836F
:100DF0000895EF92FF920F931F93CF93DF93EC012F
:100E000081E0888F9B8D8C8D981305C0E889F989C6
:100E1000808185FD26C0F62E0B8D10E00F5F1F4FE1
:100E20000F731127E02E8C8DE8120CC00FB607FC53
:100E3000FACFE889F989808185FFF5CFCE010E943C
:100E4000D706F1CF8B8DFE01E80FF11DE35AFF4F5E
:100E5000F0829FB7F8940B8FEA89FB8980818062CA
:100E60000AC09FB7F894EE89FF896083E889F98901
:100E700080818370806480839FBF81E090E0DF91F8
:100E8000CF911F910F91FF90EF900895CF93DF9333
:100E9000EC01888D8823C9F0EA89FB89808185FD72
:100EA00005C0A889B9898C9186FD0FC00FB607FCD3
:100EB000F5CF808185FFF2CFA889B9898C9185FF14
:100EC000EDCFCE010E94D706E7CFDF91CF910895F5
:100ED0000895CF92DF92EF92FF920F931F93CF93DB
:100EE000DF936C017A018B01C0E0D0E0CE15DF0505
:100EF00081F0D8016D918D01D601ED91FC910190A9
:100F0000F081E02DC6010995892B11F02196EECFD5
:100F10007E01C701DF91CF911F910F91FF90EF905C
:100F2000DF90CF9008950E94AC247F928F929F9281
:100F3000AF92BF92CF92DF92EF92FF920F931F93E7
:100F4000CF93DF93CDB7DEB7A6970FB6F894DEBF89
:100F50000FBECDBF8C01762E942E852E20E2B22EB0
:100F6000CE0101967C01FC012B2D11922A95E9F707
:100F70008AE592E09AA389A38FEF8BA38CA38DA31C
:100F80008EA3680183E4C80ED11C43E450E0BE0187
:100F90006F5D7F4FC6010E94CD0F019609F4B9C065
:100FA00081E089838A8386E0A82EAB821C82F801C7
:100FB00064817581868197810E94D9236D837E83A8
:100FC0008F83988789869A8680E890E09C878B87B4
:100FD0004CE150E0B701C6010E94880FF7012B2DAC
:100FE00011922A95E9F7480188E0880E911CF401D6
:100FF000D70101900D92AA94E1F740E150E0B701CA
:10100000C6010E94880FF7011192BA94E9F796E0A1
:10101000A92EB12C40E250E0B701C6010E94880F12
:10102000F1E0AF1AB108B1F783E6898392E89A83B9
:1010300093E59B838C8385E38D8381E08E837F8220
:101040009DE3988797E099878A8786E0F401DE011F
:101050001B9601900D928A95E1F78CE0898B8A8B23
:1010600066EF72E0CE0143960E94DD24F8016385AD
:10107000CE0149960E946D16F8016485CE014B960B
:101080000E946D16F8016585CE014D960E946D1681
:101090004EE150E0B701C6010E94880FF3E07F12D5
:1010A0001EC082E3898384E08A83F80196859B834E
:1010B00097859C8390899D8391899E8396E39F83E6
:1010C0008887828D8987838D8A87848D8B87858D9C
:1010D0008C874CE050E0B701C6010E94880F87E37F
:1010E000898386E08A8391E09B8393E09C838D8350
:1010F0008FE08E838AE38F838BE388878FEF8987E6
:1011000049E050E0B701C6010E94880FC6010E9465
:10111000AA0EA6960FB6F894DEBF0FBECDBFDF9124
:10112000CF911F910F91FF90EF90DF90CF90BF90E4
:10113000AF909F908F907F900895CF93DF93282F4B
:1011400030E0F901EE58FF4F8491F901EA5BFD4F61
:10115000D491F901EE5CFD4FC491CC2391F0811143
:101160000E947106EC2FF0E0EE0FFF1FE859FF4FD1
:10117000A591B491EC91ED2381E090E021F480E021
:1011800002C080E090E0DF91CF9108951F93CF934C
:10119000DF93282F30E0F901EE58FF4F8491F901D9
:1011A000EA5BFD4FD491F901EE5CFD4FC491CC2375
:1011B000C1F0162F81110E947106EC2FF0E0EE0FA6
:1011C000FF1FE25EFD4FA591B4919FB7F8941111F6
:1011D00004C08C91D095D82302C0EC91DE2BDC9317
:1011E0009FBFDF91CF911F9108951F920F920FB66D
:1011F0000F9211242F933F934F935F936F937F939D
:101200008F939F93AF93BF93EF93FF938FED93E0F3
:101210000E94D706FF91EF91BF91AF919F918F915F
:101220007F916F915F914F913F912F910F900FBEE2
:101230000F901F9018951F920F920FB60F921124C6
:101240002F938F939F93EF93FF93E091EF03F09190
:10125000F0038081E091F503F091F60382FD12C066
:1012600090818091F8038F5F8F732091F90382172B
:1012700051F0E091F803F0E0E152FC4F958F80933C
:10128000F80301C08081FF91EF919F918F912F9181
:101290000F900FBE0F901F901895DC018AE592E029
:1012A0008D939D9384E0FB0101900D928A95E1F767
:1012B0000895CF93DF93FC0124813581232B69F0BE
:1012C000C081D181062E000C770BCE010E94D22462
:1012D000009719F08C1B9D0B02C08FEF9FEFDF91E1
:1012E000CF910895EF92FF920F931F93CF93DF93C7
:1012F000EC017B018A0188819981009729F02A817C
:101300003B8124173507F8F4B8016F5F7F4F0E94C7
:10131000E623009759F0998388831B830A832C81E5
:101320003D81232B81F4FC0110820DC088819981BD
:10133000009711F00E945F20198218821D821C8282
:101340001B821A8207C01D830C83B7018881998193
:101350000E94DD24CE01DF91CF911F910F91FF906C
:10136000EF900895AF92BF92CF92DF92EF92FF92EB
:101370000F931F93CF93DF938C015B01EA01690107
:101380002417350720F48D2FE901C42ED82ED8015B
:1013900011961C921E9213961C921E9212971596ED
:1013A0001C921E92149740E050E06FEF72E0C8016B
:1013B0000E947209F501E480F580CE15DF05C8F5BD
:1013C000CE14DF0408F47601D501ED91FC9111975C
:1013D000EE0DFF1DD08010826D917C916C0F7D1FF2
:1013E0006115710561F0FB0101900020E9F731976B
:1013F000AF01461B570BC8010E94720913C0F801C8
:1014000080819181009711F00E945F20D801119690
:101410001C921E9215961C921E92149713961C9263
:101420001E921297F50180819181FC01EE0DFF1D46
:10143000D082C801DF91CF911F910F91FF90EF9063
:10144000DF90CF90BF90AF9008956115710579F04E
:10145000FB0101900020E9F73197AF01461B570BC4
:10146000DC01ED91FC910280F381E02D099480E094
:1014700090E008958F929F92AF92BF92EF92FF9269
:101480000F931F93CF93DF93CDB7DEB7A1970FB61E
:10149000F894DEBF0FBECDBF7C01FA01CB0119A2CB
:1014A000223008F42AE08E010F5D1F4F822E912C0E
:1014B000A12CB12CBF01A50194010E943F23F90189
:1014C000CA01015011096A3014F4605D01C0695C01
:1014D000D8016C93232B242B252B61F7B801C7016E
:1014E0000E94250AA1960FB6F894DEBF0FBECDBFAD
:1014F000DF91CF911F910F91FF90EF90BF90AF9030
:101500009F908F9008958F929F92AF92BF92CF92AB
:10151000DF92EF92FF920F931F93CF93DF937C01A3
:10152000EB016C0182E0C80ED11C4701E5E08E0E94
:10153000911C00E010E0F60141916F0150E060E085
:1015400070E02AE0CE010E943A0A5C01E881F9814C
:101550000190F081E02D6EE2CE0109958A0D9B1D70
:10156000080F191F8C149D0431F7F701458150E0D5
:1015700060E070E02AE0CE010E943A0A800F911FDD
:10158000DF91CF911F910F91FF90EF90DF90CF905F
:10159000BF90AF909F908F9008956DEF72E00C9484
:1015A000250A0F931F93CF93DF93EC010E94250A26
:1015B0008C01CE010E94CD0A800F911FDF91CF9147
:1015C0001F910F9108958F929F92AF92BF92CF92E9
:1015D000DF92EF92FF926B017C010E94DD104B01C4
:1015E0005C01C114D104E104F104F1F00E94DD10AA
:1015F000DC01CB0188199909AA09BB09883E9340EF
:10160000A105B10570F321E0C21AD108E108F10883
:1016100088EE880E83E0981EA11CB11CC114D10471
:10162000E104F10419F7DDCFFF90EF90DF90CF9048
:10163000BF90AF909F908F9008954F925F926F925E
:101640007F928F929F92AF92BF92CF92DF92EF9252
:10165000FF920F931F93CF93DF93CDB7DEB76397BE
:101660000FB6F894DEBF0FBECDBF7C015B013A011F
:10167000FB0120E080E090E06AE03191332309F142
:1016800040ED430F4A3080F4689FA001699F500DE0
:101690001124CA01C097830F911D37FD9A958F3F82
:1016A000910559F350F313C03E3289F4233079F099
:1016B000D301A20FB11D12968C932F5F80E090E0B2
:1016C000DCCF233021F4F301858381E021C0F701D1
:1016D0004281538164817581809186049091870451
:1016E000A0918804B0918904481759076A077B07BD
:1016F00009F495C10E9402118701085F1F4F6F70A6
:1017000077277C5FC8010E94611B813019F080E05F
:1017100090E0F8C18AE592E09A838983F70182819B
:101720009381A481B5818B839C83AD83BE8345E384
:1017300050E0BE016F5F7F4FC8010E94CD0F892B23
:1017400019F4C12CD12C66C10E940211F7017783D4
:1017500066837627672776277A83698342E050E09D
:10176000BE016F5F7F4FC8010E94880F81E090E04B
:101770009E878D8742E050E0BE01635F7F4FC801C6
:101780000E94880F80E091E09E878D8742E050E0C4
:10179000BE01635F7F4FC8010E94880F1E861D86B1
:1017A00042E050E0BE01635F7F4FC8010E94880F96
:1017B00042E050E0BE01635F7F4FC8010E94880F86
:1017C00042E050E0BE01635F7F4FC8010E94880F76
:1017D0004501F5018081882301F164015601F6017C
:1017E00081912F01882321F08E3211F06201F6CF12
:1017F000C818D9081C141D0474F4CF8641E050E0C9
:10180000BE01615F7F4FC8010E94880FA601B4012D
:10181000C8010E94880F4201DCCF1F8641E050E0E2
:10182000BE01615F7F4FC8010E94880FC12CDD247B
:10183000D394DE86CD8642E050E0BE01635F7F4FE9
:10184000C8010E94880FDE86CD8642E050E0BE01CE
:10185000635F7F4FC8010E94880FC8010E94AA0ED3
:10186000892B09F46ECFE3E0AE2EB12C230122E0E8
:10187000420E511C0E9402113B014C01C8010E9402
:10188000831018161906A4F00E940211DC01CB0186
:1018900086199709A809B90989389341A105B105A5
:1018A000D0F462E370E080E090E00E94E30AE6CFCB
:1018B000F7014281538164817581808D918DA28D64
:1018C000B38D481759076A077B0749F4848D958DB6
:1018D000C59729F409C0CC24CA94DC2C92C05EEFD1
:1018E000C52EDD24DA948DC0F70181A192A10C9759
:1018F0000CF49DC04CE050E0BE016F5F7F4FC8010B
:101900000E94590E8B819C819827892798279A8B52
:10191000898B29813A81322723273227F701468193
:1019200057812417350709F07DC097FF7BC08F7062
:101930009270892B09F0E1C06F8078847624672447
:1019400076246114710409F4D3C0C12CD12C8D818B
:101950009E81982789279827C816D90608F46CC055
:10196000812C912C41E050E0BE016D5E7F4FC8019B
:101970000E94590E8B89982F907C09F08FC081119D
:1019800083C042E050E0BE01615F7F4FC8010E940A
:10199000590E42E050E0BE01635F7F4FC8010E94D4
:1019A000590EC8010E94780EC8010E94780EC80125
:1019B0000E94780EC8010E94780E42E050E0BE01FD
:1019C0006F5E7F4FC8010E94590E8F8598898115DF
:1019D000914009F06BC0CD84DE84DC24CD24DC246E
:1019E00081E0C816D10409F061C089899A898115FE
:1019F000944009F078C044E050E0B201C8010E9470
:101A0000590E81E0A81AB10829F0FFEFCF16DF06C2
:101A100009F430CFC8010E94E91AC60173C08EEFE5
:101A20009FEF70C04CEFC42EDD24DA94EACF9DEF17
:101A3000C92EDD24DA94E5CF41E050E0BE01635FBA
:101A40007F4FC8010E94590E8D85882351F08D85E6
:101A50009FEF980F9D87882321F0C8010E94780E80
:101A6000F6CF8D858111E8CFC8010E94780EC8019C
:101A70000E94780EC8010E94780EC8010E94780E5C
:101A8000FFEFCF1ADF0A63CF8B899FEF980F9B8BF5
:101A9000882341F0C8010E94780EF6CFC8010E9449
:101AA000780E1B8A8B8981115DCF6BCFC12CD12C15
:101AB00089899A89982789279827C816D90638F4DA
:101AC000C8010E94780EFFEFCF1ADF0AF1CF2FEF87
:101AD000821A920A6814790409F044CF26EFC22EC4
:101AE000DD24DA948ECF77EFC72EDD24DA9489CF08
:101AF0003AEFC32EDD24DA9484CF8BEFC82EDD2499
:101B0000DA947FCF63960FB6F894DEBF0FBECDBFD9
:101B1000DF91CF911F910F91FF90EF90DF90CF90C9
:101B2000BF90AF909F908F907F906F905F904F90FD
:101B30000895CF93DF931F92CDB7DEB76983DC01A1
:101B4000ED91FC910280F381E02D41E050E0BE0177
:101B50006F5F7F4F09950F90DF91CF910895FC0142
:101B60009485FB018485981303C081E0943009F4C7
:101B700080E0089521E0FC018485843009F420E0B0
:101B8000822F08950895CF93DF931F92CDB7DEB7CC
:101B90006983DC01ED91FC910280F381E02D41E04D
:101BA00050E0BE016F5F7F4F09950F90DF91CF919D
:101BB0000895DC01ED91FC91068CF78DE02D0995DF
:101BC00091E089270895862F089581E0862708955A
:101BD0000895CF93DF931F92CDB7DEB76983DC0101
:101BE000ED91FC910280F381E02D41E050E0BE01D7
:101BF0006F5F7F4F09950F90DF91CF9108950F93FD
:101C00001F93CF93DF931F92CDB7DEB78C01DC011A
:101C1000ED91FC910084F185E02D0995892B51F01F
:101C2000BE016F5F7F4FF80184850E94EB198981A7
:101C300090E002C08FEF9FEF0F90DF91CF911F9147
:101C40000F910895CF93DF931F92CDB7DEB7FC01BC
:101C5000218D328D232B49F0BE016F5F7F4F808D28
:101C60000E94EB19898190E002C08FEF9FEF0F90E7
:101C7000DF91CF910895FC0184850C944D1ACF9388
:101C8000DF931F92CDB7DEB741E050E0BE016F5F3A
:101C90007F4FFC0184850E944D1A181619061CF40A
:101CA000898190E002C08FEF9FEF0F90DF91CF917D
:101CB0000895CF93DF93FC01218D328D21153105DD
:101CC00019F48FEF9FEF11C0EC014217530708F092
:101CD000A901888D0E944D1A1816190694F7298DAE
:101CE0003A8D281B390B3A8F298FDF91CF910895B8
:101CF0000F931F93CF93DF931F92CDB7DEB7FC01F5
:101D0000218D328D232B61F08C0141E050E0BE012A
:101D10006F5F7F4F808D0E944D1A181619061CF0B8
:101D20008FEF9FEF08C0F801818D928D0197928F00
:101D3000818F898190E00F90DF91CF911F910F915A
:101D40000895FC018485843011F00C94201A80E001
:101D500090E008951F93CF93DF9300D0CDB7DEB707
:101D6000FC01108DCE0101960E94521489819A8146
:101D70000E94E81960E270E0812F0E94421462E044
:101D800070E0812F0E947F1984FD1DC062E070E029
:101D9000812F0E947F1983FF0BC048E162E070E051
:101DA000812F0E9475190E94E71980E090E015C00C
:101DB0000E94E719CE0101960E94521489819A81EE
:101DC0000E94E819DCCF40E162E070E0812F0E94C0
:101DD00075190E94E71981E090E00F900F90DF9154
:101DE000CF911F9108956F927F928F929F92AF92A1
:101DF000BF92CF92DF92EF92FF920F931F93CF93F8
:101E0000DF9300D0CDB7DEB75C013B016A01FC0176
:101E10001485143041F481E090E0F50193838283CE
:101E200080E090E064C07A014130584018F0E12C25
:101E300088E0F82ECE0101960E94521489819A8181
:101E40000E94E819812F0E9451164C0163E070E056
:101E5000812F0E947F19082F0E94E719073111F086
:101E60000C3121F48E149F0428F302C0E12CF12CD4
:101E7000CE0101960E94521489819A810E94E8192C
:101E80009701A30160E070E0812F0E94EC1560E2F1
:101E900070E0812F0E94421462E070E0812F0E9466
:101EA0007F1984FD18C063E070E0812F0E947F19C4
:101EB000811106C00E94E719812F0E94C91AABCF79
:101EC0000E94E719CE0101960E94521489819A81DD
:101ED0000E94E819E1CF40E162E070E0812F0E94AA
:101EE00075190E94E719EF2809F495CFC6010F90E4
:101EF0000F90DF91CF911F910F91FF90EF90DF90A6
:101F0000CF90BF90AF909F908F907F906F900895EB
:101F10008F929F92AF92BF92DF92EF92FF920F93B8
:101F20001F93CF93DF9300D0CDB7DEB77C014B0179
:101F30008A01FC01A688B788D08CCE0101960E9448
:101F4000521489819A810E94E8198D2D0E945116A0
:101F50008017910720F48D2D0E9451168C01980155
:101F6000A401B5018D2D0E94EC150E94E719F7011F
:101F700086899789800F911F978B868BC8010F9058
:101F80000F90DF91CF911F910F91FF90EF90DF9015
:101F9000BF90AF909F908F900895DF92EF92FF9245
:101FA0000F931F93CF93DF9300D0CDB7DEB7FB0124
:101FB000DC0157961C921E9256972281211109C06E
:101FC0002381211106C02481211103C025812223F0
:101FD000F1F041155105D9F07A018F01FC01D08C47
:101FE000CE0101960E94521489819A810E94E819BB
:101FF000B8016E5F7F4F8D2D0E94DE19B7018D2DC8
:102000000E94CD190E94E71981E090E002C080E0B3
:1020100090E00F900F90DF91CF911F910F91FF9063
:10202000EF90DF900895BF92CF92DF92EF92FF92F0
:102030000F931F93CF93DF9300D000D000D0CDB784
:10204000DEB7FC01208D243009F04CC06A017B0111
:102050008C01B12C63E070E08B2D0E947F198111FF
:1020600003C0F801B08E06C08831D9F3B394F4E010
:10207000BF12F0CFF801808D8430A1F196E0EEEC34
:10208000F1E0DE01119601900D929A95E1F7F701CA
:1020900093819F779C8394819D8395819E83B701D3
:1020A0006E5F7F4F0E94DE19B601F801808D0E949D
:1020B000CD19F801808D90E0982F882746E050E0F8
:1020C000BE016F5F7F4F8A5F9B4F0E942B19F80103
:1020D000128E118E20E8A60162E0808D0E94FE1A09
:1020E00081E001C080E026960FB6F894DEBF0FBEF7
:1020F000CDBFDF91CF911F910F91FF90EF90DF90B7
:10210000CF90BF9008950F931F93CF93DF93CDB7D8
:10211000DEB728970FB6F894DEBF0FBECDBF8C0197
:10212000D80159968D919C915A97892B41F0ED9148
:10213000FC910284F385E02DC8010995F1CFF801E7
:10214000808D0E94201A1816190654F548E050E0B8
:10215000BE016F5F7F4FD80158968C910E944D1A37
:1021600018161906FCF4D801509684E0FE01319649
:1021700001900D928A95E1F78D8190E0982F882744
:102180002E81820F911DF801958B848B8F8190E0B9
:10219000982F88272885820F911D928F818F02C0EA
:1021A00080E090E028960FB6F894DEBF0FBECDBF5A
:1021B000DF91CF911F910F9108953FB7F8948091CF
:1021C000CB039091CC03A091CD03B091CE0326B563
:1021D000A89B05C02F3F19F00196A11DB11D3FBF5F
:1021E000BA2FA92F982F8827820F911DA11DB11DED
:1021F000BC01CD0142E0660F771F881F991F4A95E9
:10220000D1F708952FB7F8946091C7037091C80370
:102210008091C9039091CA032FBF08951F920F9216
:102220000FB60F9211242F933F938F939F93AF93E9
:10223000BF938091C7039091C803A091C903B09147
:10224000CA033091C60323E0230F2D3720F40196F3
:10225000A11DB11D05C026E8230F0296A11DB11DC9
:102260002093C6038093C7039093C803A093C90328
:10227000B093CA038091CB039091CC03A091CD037E
:10228000B091CE030196A11DB11D8093CB03909315
:10229000CC03A093CD03B093CE03BF91AF919F9198
:1022A0008F913F912F910F900FBE0F901F90189517
:1022B000FC018485843011F00C94471B80E0089564
:1022C0008F929F92AF92BF92CF92DF92EF92FF9246
:1022D0000F931F93CF93DF93CDB7DEB72F970FB632
:1022E000F894DEBF0FBECDBF7C0100E010E038EEF9
:1022F000832E33E0932EA12CB12C4AE1C42E42E070
:10230000D42E1C821B828D829E82AF82B886DA8296
:10231000C9820D87CE0101960E945811811129C0F2
:10232000F7014481558120E061E0802F0E94FE1A70
:10233000CE010E960E9452148E859F850E94E81948
:1023400063E070E0802F0E947F19833129F462E0FE
:1023500070E0802F0E9442140E94E719F7018481E7
:102360009581000F111FF801E254FC4F9183808387
:1023700005C00F5F1F4F0430110519F62F960FB6D9
:10238000F894DEBF0FBECDBFDF91CF911F910F91AB
:10239000FF90EF90DF90CF90BF90AF909F908F9085
:1023A0000895CF93DF93FC0124852430D1F0EC0114
:1023B0000E945811843181F0882371F0883161F0D6
:1023C0008C3161F4E881F9810084F185E02DCE0142
:1023D000099521E0892B19F420E001C021E0822F2A
:1023E00001C080E0DF91CF910895CF92DF92EF920C
:1023F000FF920F931F93CF93DF9300D0CDB7DEB73B
:10240000DC011C96FC90B4E0FB16F1F18C01CE01CE
:1024100001960E94521489819A810E94E81968E00D
:1024200070E08F2D0E9442140E94E7190E94021151
:102430006B017C01C8010E9458118823B9F061E04A
:1024400070E080E090E00E94E30A0E940211DC014B
:10245000CB018C199D09AE09BF09883E9340A105A7
:10246000B10540F3F80184850E94C91AD8011C9671
:10247000EC911C97F0E0EE0FFF1FE254FC4F11822D
:10248000108284E01C968C930F900F90DF91CF9177
:102490001F910F91FF90EF90DF90CF9008954F9292
:1024A0005F926F927F928F929F92AF92BF92CF92E4
:1024B000DF92EF92FF921F93CF93DF93CDB7DEB7FA
:1024C0002D970FB6F894DEBF0FBECDBF7C019EEBFB
:1024D000C92E93E0D92E10E0A12CB12C28EE422E6B
:1024E00023E0522E612C712C3AE1832E32E0932EA0
:1024F0001C821B824D825E826F8278869A828982DC
:102500001D87D6012D913D916D01F7018481958143
:1025100028173907B1F4CE0101960E945811843171
:1025200069F0CE0101960E9458118C3151F4CE0110
:1025300001960E94A10E892B91F003C0AA24A394B6
:10254000B12C1F5F1430A1F6AB2871F4D701ED91C7
:10255000FC910084F185E02DC701099505C0CE01ED
:1025600001960E94F511EDCF2D960FB6F894DEBFBF
:102570000FBECDBFDF91CF911F91FF90EF90DF9005
:10258000CF90BF90AF909F908F907F906F905F9013
:102590004F9008953F924F925F926F927F928F92E9
:1025A0009F92AF92BF92CF92DF92EF92FF920F93E2
:1025B0001F93CF93DF93CDB7DEB72D970FB6F89467
:1025C000DEBF0FBECDBF6C015B014A010E944F12FE
:1025D0008EEBE82E83E0F82E312C00E010E098EE30
:1025E000492E93E0592E612C712C1C821B824D8246
:1025F0005E826F8278868AE192E09A8389833D8643
:10260000F701219131917F01F6018481958128178D
:10261000390731F4CE0101960E9458118731E9F053
:102620003394F4E03F12E1CFC8012D960FB6F89431
:10263000DEBF0FBECDBFDF91CF911F910F91FF90F5
:10264000EF90DF90CF90BF90AF909F908F907F9052
:102650006F905F904F903F900895A401B501CE0117
:1026600001960E94F30E080F191FDACFAF92BF92A6
:10267000DF92EF92FF920F931F93CF93DF9300D0DF
:10268000CDB7DEB7FC012485243009F078C05A01AB
:102690008B017C01D12C8D2D0E94471B811103C021
:1026A000F701D48607C08B7F8831D1F3D394F4E04F
:1026B000DF12F1CFF7018485843009F460C02091E6
:1026C000AE013091AF012F5F3F4F11F420E030ECAD
:1026D0003093AF012093AE014091AE015091AF0114
:1026E00020E061E00E94FE1AF80182818F3F51F4E0
:1026F00083818F3F99F484818F3F81F485818F3F5F
:1027000069F43AC081110AC0F8018381811106C0C1
:102710008481811103C08581882371F1A114B104E2
:1027200059F1F701D484CE0101960E945214898197
:102730009A810E94E819B8016E5F7F4F8D2D0E942B
:10274000DE19B5018D2D0E94CD1964E070E08D2D4C
:102750000E9442140E94E719C7010E945811873154
:1027600089F061E070E080E090E00E94E30AC70138
:102770000E9458118111F0CF84E0F701848780E036
:1027800090E002C081E090E00F900F90DF91CF9138
:102790001F910F91FF90EF90DF90BF90AF90089541
:1027A00044E050E0BC018FE090E00C942B19AF9214
:1027B000BF92CF92DF92EF92FF920F931F93CF932E
:1027C000DF93CDB7DEB7AF970FB6F894DEBF0FBE7D
:1027D000CDBF7C015B016A010AE512E01A8309831F
:1027E0001B821C821D821E82CE0109960E947618D1
:1027F0001BA70AA71CA61DA61EA61FA680917E04C5
:1028000090917F04A0918004B09181048EA39FA336
:10281000A8A7B9A78B839C83AD83BE8318861F822C
:10282000AE01465D5F4FB501CE0101960E941D0BC2
:1028300081309105B1F4D701ED91FC910684F785C3
:10284000E02D1DA30CA38CA59DA5AEA5BFA58EA3B1
:102850009FA3A8A7B9A7A601BE016C5D7F4FC701C2
:102860000995AF960FB6F894DEBF0FBECDBFDF91CE
:10287000CF911F910F91FF90EF90DF90CF90BF907D
:10288000AF900895CF93C82F462F61E070E00E946B
:10289000751961E070E08C2F0E947F198111F9CFCA
:1028A000CF91089520E5FC0120831182089590E0E6
:1028B000FC01EA5BFD4F2491FC01EE5CFD4F84912D
:1028C000882399F090E0880F991FFC01E85DFD4F87
:1028D000A591B491FC01E25EFD4F859194918FB773
:1028E000F894EC91E22BEC938FBF08951F93CF9354
:1028F000DF9300D0CDB7DEB76CE271E080E090E00E
:102900000E94E30A1FB7F8948091A904811124C0A2
:10291000ECE3F2E08491E0E5F2E09491E82FF0E05E
:10292000EE0FFF1FE85DFD4FA591B491EC91E923F7
:1029300021F461E08AE00E94C6088AE00E945714F0
:102940008CB580618CBD8CB580648CBD8DE00E949F
:1029500057148BE00E9457148091A9048F5F8093D5
:10296000A9041FBF229ACE0101960E9452148981A8
:102970009A810E94E81960E880E090E00E945A196C
:1029800065E58BE190E00E945A1965E58AE190E0E7
:102990000E945A190E94E71980E090E49093D003B6
:1029A0008093CF0380E090E69093D8038093D70381
:1029B00080E098E49093D2038093D10380E098E67E
:1029C0009093DA038093D90380E090E59093D40349
:1029D0008093D30380E090E79093DC038093DB0344
:1029E00080E098E59093D6038093D50380E098E744
:1029F0009093DE038093DD030F900F90DF91CF91D2
:102A00001F9108951F93CF93DF93CDB7DEB7C454C2
:102A1000D1090FB6F894DEBF0FBECDBFFC01828195
:102A20009381A481B58123968CAF9DAFAEAFBFAF2C
:102A3000239711E023961FAF239723964CAD5DADEE
:102A40006EAD7FAD23974BAB5CAB6DAB7EAB8DA713
:102A50009EA7AFA7B8AB18AB4DA55EA56FA578A98B
:102A60004FA358A769A77AA71EAB4BA95CA96DA96C
:102A70007EA949A35AA36BA37CA32AE532E03C8B31
:102A80002B8B4FEF4D8B4E8B4F8B188E3E872D87A8
:102A90001AA74FA158A569A57AA54F87588B698BAE
:102AA0007A8B1CA349A15AA16BA17CA149875A87A3
:102AB0006B877C873A8329838B839C83AD83BE831A
:102AC0000E947614CE018D5B9F4F0E945214259672
:102AD0008EAD9FAD25970E94E81946E050E063EA6D
:102AE00074E089E090E00E942B19CE0103960E94C9
:102AF000D01344E050E0BE01615F7F4F81E090E081
:102B00000E942B1944E050E0BE016B5E7F4F85E0D0
:102B100090E00E942B190E94E7191C8789859A85ED
:102B2000AB85BC8580937E0490937F04A093800442
:102B3000B0938104CC5BDF4F0FB6F894DEBF0FBEBD
:102B4000CDBFDF91CF911F910895AF92BF92CF92E9
:102B5000DF92EF92FF920F931F93CF93DF9300D0FA
:102B6000CDB7DEB77A836983BA01A901E981FA8119
:102B7000F770082F10E0000F111F09521C4FD801E9
:102B80008D919C918E0F9F1F9F01240F351F213027
:102B90003840A0F07A015B0160E078E06B01CE1A6A
:102BA000DF0AA601B5010E94FB18A7014C195D09B7
:102BB000B5016C0D7D1DF801808191810F900F9002
:102BC000DF91CF911F910F91FF90EF90DF90CF9009
:102BD000BF90AF900C94FB189F92AF92BF92CF9290
:102BE000DF92EF92FF920F931F93CF93DF93982E74
:102BF0008B015A01690164E270E00E947F19E82E9E
:102C0000F12C65E270E0892D0E947F19FE2CEE24E4
:102C1000E82AE801CE0DDF1D9E013770E92CF12C6A
:102C2000C701880F991FAC0141535C4F7A01FA012B
:102C300080819181820F931FA9014C0D5D1D413050
:102C4000584090F000E018E0021B130BA801B501FA
:102C50000E942B19A601401B510BB501600F711F7B
:102C6000F7018081918102C0A601B5010E942B1954
:102C7000CC0DDD1D4D2F64E270E0892D0E94751989
:102C80004C2F65E270E0892DDF91CF911F910F915C
:102C9000FF90EF90DF90CF90BF90AF909F900C94FB
:102CA0007519FF920F931F93CF93DF93F82E00E0D7
:102CB00010E08F2D0E94B519EC01892B21F08F2D8A
:102CC0000E94B5198C01C017D10799F7CE01DF9189
:102CD000CF911F910F91FF90089520E3FC01208375
:102CE0003296862F82958F7090E1899F601911240A
:102CF0006A3014F4605D01C0695C6293682F8111D1
:102D0000F0CF08952F923F924F925F926F927F92F1
:102D10008F929F92AF92BF92CF92DF92EF92FF92EB
:102D20000F931F93CF93DF93CDB7DEB7E2970FB624
:102D3000F894DEBF0FBECDBF7C012A013B016901C3
:102D40000E9402114B015C0187010D5B1F4FC801FE
:102D50000E94831018161906A4F00E940211DC01CB
:102D6000CB0188199909AA09BB09481659066A06B0
:102D70007B06D8F062E370E080E090E00E94E30A16
:102D8000E6CF42E250E0BE016F5F7F4FC8010E9474
:102D9000590E8981823011F080E060C1F801848988
:102DA000958983349105C1F702C08FEF57C16D81BA
:102DB0007E818F8198850E94D9234B015C01F601A9
:102DC000608371838283938346E050E0B701685F3C
:102DD0007F4FCE014D960E94B124892BE9F6F70171
:102DE00080819181A281B38188169906AA06BB06CB
:102DF00098F284819581A681B78188159905AA05E5
:102E0000BB0550F289899A89AB89BC8986879787E7
:102E1000A08BB18B8EECC82ED12CC8010E94780EED
:102E2000F1E0CF1AD108C9F7712CC70182969AA791
:102E300089A7F701B696FCA7EBA708969EA78DA7D2
:102E40003C974F01899698AB8FA73897FAABE9ABBF
:102E50001701F6E12F0E311C27018EE1480E511C9F
:102E6000F801818D928D181619060CF0F6C0C80174
:102E70000E94780E8333910509F4C9C0F4F48130BF
:102E80009105B9F11CF4892B59F3DBC0833091050E
:102E9000C1F1069709F0D5C0C8010E94780E6C01F7
:102EA00044E050E0B201C8010E94590EA12CB12C9F
:102EB000DD2494E0C91AD1083FC08A33910509F492
:102EC0007AC03CF48533910561F0C69709F43FC0A0
:102ED000B8C08B33910509F484C08F3F910501F28E
:102EE000B0C0C8010E94780EC8010E94780E782EEA
:102EF000B7CFC8010E94780E44E050E069A97AA9D2
:102F00003AC0C8010E94780E6C0144E050E0B10163
:102F1000C8010E94590EA12CB12CDD24F4E0CF1A77
:102F2000D108AC14BD040CF09BCFC8010E94780EF0
:102F30008FEFA81AB80AF5CFAC14BD040CF090CFEF
:102F4000C8010E94780EEFEFAE1ABE0AF5CFC80195
:102F50000E94780E682EF701828D811110C0838D3A
:102F600081110DC0848D81110AC0858D811107C02A
:102F700044E050E0B401C8010E94590E71CFEFA5A2
:102F8000F8A9A080B180C280D380B401CE0183961D
:102F90000E944D098DA19EA1AFA1B8A5A816B906A2
:102FA000CA06DB0629F3662009F45ACFC8010E943D
:102FB000780E6A94F8CFC8010E94780E44E050E081
:102FC0006BA57CA5C8010E94590EF70166A177A1E7
:102FD00080A591A50E94D92366A377A380A791A776
:102FE0003FCFC8010E94780E44E050E06DA57EA559
:102FF000C8010E94590EF70162A573A584A595A585
:103000000E94D92362A773A784A795A729CFC801D7
:103010000E94780E44E050E069A57AA5C8010E949C
:10302000590EF70162A173A184A195A10E94D92331
:1030300062A373A384A395A366A777A780AB91AB84
:103040000FCFC8010E94780ED82EDD2009F408CFDA
:10305000C8010E94780EDA94F8CF872DE2960FB659
:10306000F894DEBF0FBECDBFDF91CF911F910F91BE
:10307000FF90EF90DF90CF90BF90AF909F908F9098
:103080007F906F905F904F903F902F900895FC013C
:10309000818D928D0895FC018489958908952AE592
:1030A00032E0FC0131832083FB0140895189628930
:1030B0007389FC0142835383648375830895DC0123
:1030C000ED91FC91048CF58DE02D099480E008953C
:1030D00080E090E008952A9A08952A9808958EBD78
:1030E00000000DB407FEFDCF8EB50895FC011382DC
:1030F000128288EE93E0A0E0B0E084839583A683FB
:10310000B78386E692E0918380838AE592E0978791
:103110008687108A118A128A138A84E0808F089524
:10312000AF92BF92CF92DF92EF92FF920F931F93D5
:10313000CF93DF93CDB7DEB7AF970FB6F894DEBF6E
:103140000FBECDBF7C015B016A010AE512E01A8364
:1031500009831B821C821D821E82CE0109960E9459
:1031600076181BA70AA71CA61DA61EA61FA680913F
:103170007E0490917F04A0918004B09181048EA37D
:103180009FA3A8A7B9A78B839C83AD83BE83188612
:103190001F82AE01465D5F4FB501CE0101960E94D0
:1031A0001D0B81309105B1F4D701ED91FC9104889C
:1031B000F589E02D1DA30CA38CA59DA5AEA5BFA5EB
:1031C0008EA39FA3A8A7B9A7A601BE016C5D7F4FE0
:1031D000C7010995AF960FB6F894DEBF0FBECDBFFD
:1031E000DF91CF911F910F91FF90EF90DF90CF90E3
:1031F000BF90AF900895CF92DF92EF92FF920F931E
:103200001F93CF93DF93EC017A018B016C01C40E05
:10321000D51ECC15DD05A9F00E946D188FE00E9427
:103220006F188D2F0E946F188C2F0E946F18219697
:1032300080E00E946F18F80181938F010E946B1843
:10324000E8CFC701DF91CF911F910F91FF90EF90D1
:10325000DF90CF900895CF92DF92EF92FF920F937D
:103260001F93CF93DF93EC017A018B016C01C40EA5
:10327000D51ECC15DD05A1F00E946D1880EF0E94CF
:103280006F188D2F0E946F188C2F0E946F18219637
:10329000F80181918F010E946F180E946B18E9CF8D
:1032A000C701DF91CF911F910F91FF90EF90DF90B9
:1032B000CF9008951F93CF93DF93D82F192FC62F48
:1032C0000E946D1880EF0E946F18812F0E946F1866
:1032D0008D2F0E946F188C2F0E946F180E946B1800
:1032E00081E0DF91CF911F9108959B0190E00496BA
:1032F000982F8827642F820F931F0C945A19CF930D
:10330000DF9390E00496982F8827EC01C60FD71F13
:103310000E946D188FE00E946F188D2F0E946F1809
:103320008C2F0E946F1880E00E946F18C82F0E9497
:103330006B188C2FDF91CF9108951F93CF93DF935C
:10334000182F66E270E00E947F19C82FD0E067E274
:1033500070E0812F0E947F19DC2FCC279E01282B43
:10336000C901DF91CF911F9108951F93CF93DF93F0
:10337000182F60E270E00E947F19C82FD0E061E250
:1033800070E0812F0E947F19DC2FCC279E01282B13
:10339000C901DF91CF911F910895CF93DF93C82F7B
:1033A000D62F472F60E170E00E9475194D2F61E123
:1033B00070E08C2FDF91CF910C94751990E0982FCD
:1033C000882744E050E0845F9B4F0C942B190895AC
:1033D0008CBD9DBD0895CF92DF92FF920F931F93F6
:1033E000CF93DF9300D0CDB7DEB7F82E6B01CE01BF
:1033F00001960E94521489819A810E94E81968E21C
:1034000070E08F2D0E947F19082F10E069E270E0B4
:103410008F2D0E947F19702F6627682B21E030E0E6
:10342000A6018F2D0E94A51581E090E00F900F90CE
:10343000DF91CF911F910F91FF90DF90CF90089572
:10344000DF92EF92FF920F931F93CF93DF9300D001
:10345000CDB7DEB7D82ECE0101960E9452148981D5
:103460009A810E94E819E12CF12C8D2D0E949D1962
:103470008C01892B21F08D2D0E949D197C010E1548
:103480001F0599F7C8010F900F90DF91CF911F9101
:103490000F91FF90EF90DF9008958F929F92BF92CF
:1034A000CF92DF92EF92FF920F931F93CF93DF9310
:1034B00000D0CDB7DEB7B82E6B017A01CE010196F0
:1034C0000E94521489819A810E94E819812C912CC2
:1034D0008B2D0E949D198C01892B21F08B2D0E9430
:1034E0009D194C010815190599F70115110599F455
:1034F00063E070E08B2D0E947F198431D9F188231D
:10350000C9F101E010E08C3111F400E010E01195F8
:10351000019511092FC0E016F1060CF48701101671
:10352000110644F568E270E08B2D0E947F19E82EA9
:10353000F12C69E270E08B2D0E947F19FE2CEE24A5
:10354000E82A9801A601B7018B2D0E94A515E00E6F
:10355000F11E4F2D68E270E08B2D0E9475194E2DE3
:1035600069E270E08B2D0E94751960E470E08B2D8C
:103570000E944214C8010F900F90DF91CF911F91CC
:103580000F91FF90EF90DF90CF90BF909F908F9022
:1035900008951F93CF93DF9300D0CDB7DEB7182FD8
:1035A000CE0101960E94521489819A810E94E819E5
:1035B00060E170E0812F0E9442144FEF62E070E002
:1035C000812F0E9475190F900F90DF91CF911F915D
:1035D0000895CF93DF93EC01888D843061F00E94D1
:1035E000C91AE88DF0E0EE0FFF1FE254FC4F118284
:1035F000108284E0888FDF91CF910895DF92EF925F
:10360000FF920F931F93CF93DF9300D0CDB7DEB718
:10361000182FD62E7A01022F0E94C91ACE010196C8
:103620000E94521489819A810E94E8194D2D402BE5
:1036300060E070E0812F0E947519E114F10459F4E3
:10364000E090CE04F090CF048FEFE81AF80AF092E1
:10365000CF04E092CE044F2D64E070E0812F0E94F1
:1036600075194E2D65E070E0812F0E94751961E09B
:1036700070E0812F0E94421481E00F900F90DF9143
:10368000CF911F910F91FF90EF90DF9008951F93BE
:10369000CF93DF9300D0CDB7DEB7182FCE010196C0
:1036A0000E94521489819A810E94E81963E070E0B7
:1036B000812F0E947F190F900F90DF91CF911F9162
:1036C0000895EF92FF921F93CF93DF93FC01208D1B
:1036D000243011F080E01CC07B01EC0110E0812F50
:1036E0000E94471B811102C0188F05C08831E1F389
:1036F0001F5F1430A1F7888D843061F3FD86EC865E
:103700001A8E198E20E0A70162E00E94FE1A81E065
:10371000DF91CF911F91FF90EF9008950C9421239A
:103720000C941923CF93DF93CDB7DEB72A970FB64A
:10373000F894DEBF0FBECDBF789484B5826084BD9F
:1037400084B5816084BD85B5826085BD85B58160A5
:1037500085BD80916E00816080936E001092810023
:1037600080918100826080938100809181008160DE
:10377000809381008091800081608093800080919F
:10378000B10084608093B1008091B000816080932B
:10379000B00080917A00846080937A0080917A00F2
:1037A000826080937A0080917A00816080937A00B1
:1037B00080917A00806880937A001092C100E09135
:1037C000EF03F091F00382E08083E091EB03F0914E
:1037D000EC031082E091ED03F091EE0380E1808331
:1037E0001092F703E091F303F091F40386E08083F5
:1037F000E091F103F091F203808180618083E09198
:10380000F103F091F203808188608083E091F103FD
:10381000F091F203808180688083E091F103F09160
:10382000F20380818F7D8083EAE5F2E065917491F7
:103830008CE893E00E94A6226CE873E08FED93E0A1
:103840000E94D10A0CEB11E06AECC62E61E0D62E84
:10385000D801FD908D018F2D0E94571460E08F2DAF
:103860000E94C608C016D10699F780E090E00E9439
:10387000901B182F65EE72E08FED93E00E94250AF1
:10388000412F50E060E070E02AE08FED93E00E946D
:103890003A0A8FED93E00E94CD0A1F3F09F01AC249
:1038A0000E94720180917A03811107C08FE593E035
:1038B0000E94761881E080937A038CE193E09093E4
:1038C0008304809382040E947614CE0101960E94A4
:1038D000521489819A810E94E81946E050E068EA12
:1038E00071E089E090E00E942B198AE592E09A83CA
:1038F00089831B821C821D821E82CE0103960E9438
:10390000D0130E94E7190091820410918304F801FA
:1039100012A213A214A215A216A217A210A611A6F3
:1039200012A613A614A615A680E69AEEA0E0B0E0B3
:1039300086AB97ABA0AFB1AF80EA9FE0A0E0B0E06C
:1039400082AF93AFA4AFB5AF3E9684E1DF011D9285
:103950008A95E9F786E0E8EAF1E0D8011896019047
:103960000D928A95E1F7F801EE5BFF4FFA87E98740
:1039700010820E9433212FEC37E040E050E00E949B
:103980006123DC01CB010196A11DB11DF8018483E7
:103990009583A683B78380839183A283B3835801E1
:1039A000F3E4AF0EB11CC5010E94E91A64E470E0B3
:1039B000C5010E94611B882309F4F2C10E94021113
:1039C0002B013C01812C912C48EEC42E43E0D42ED7
:1039D000E12CF12C52E0252EA985BA858C918330FB
:1039E00009F404C1811120C0F80184819581A68168
:1039F000B7810196A11DB11D84839583A683B783EA
:103A00000E9402116419750986099709A701960198
:103A10000E943F23A90161E0C8010E94950781E04F
:103A2000A985BA858C93CAC08430F9F4F8018481E1
:103A30009581A681B7810196A11DB11D84839583CF
:103A4000A683B7830E940211641975098609970934
:103A5000A70196010E943F23A90163E0C8010E94CB
:103A60009507A985BA852C92A9C0813059F5F8012E
:103A700042AD53AD64AD75AD9E012F5F3F4FC801A0
:103A80000E948216382EF2E08F1392C089819A81AB
:103A9000AB81BC81F80184839583A683B7830E94A0
:103AA00002116419750986099709A70196010E94F8
:103AB0003F23A90163E0C8010E949507A985BA8543
:103AC0003C927CC0823009F079C0F80142AD53AD20
:103AD00064AD75AD9E012F5F3F4FC8010E948216F5
:103AE000382EF5E08F135DC0E3E0A985BA85EC932D
:103AF000F80182A193A1A4A1B5A1892B8A2B8B2BBC
:103B000041F484E893E0A0E0B0E082A393A3A4A3EF
:103B1000B5A3F80186A197A1A0A5B1A5892B8A2BF1
:103B20008B2B61F482A193A1A4A1B5A1B695A79511
:103B30009795879586A397A3A0A7B1A7F80182A51B
:103B400093A5A4A5B5A5892B8A2B8B2BA9F482A1BB
:103B500093A1A4A1B5A1AC01BD0123E07695679521
:103B6000579547952A95D1F7841B950BA60BB70B54
:103B700082A793A7A4A7B5A7F80186A197A1A0A59E
:103B8000B1A586A797A7A0ABB1AB82A593A5A4A525
:103B9000B5A582AB93ABA4ABB5AB88248394912C31
:103BA0000DC0F6E08F1304C0A985BA851C9206C02B
:103BB000BFEF3B1203C0E985FA851082F1E08F1652
:103BC000910409F409CF0E940211DC01CB01841990
:103BD0009509A609B709F80126A937A940AD51AD45
:103BE000281739074A075B0708F0F6CEC5010E947F
:103BF000E91AF80184819581A681B7810196A11DFA
:103C0000B11D84839583A683B7830E940211F801B6
:103C1000FE966083718382839383F1E08F16910413
:103C200009F055C0CE0101960E94521489819A81F3
:103C30000E94E8196091820470918304625F7F4F53
:103C4000CE0101960E944D09CE0103960E94D01329
:103C500060918204709183046A5E7F4FCE01019669
:103C60000E944D0944E050E0BE016D5F7F4F81E04E
:103C700090E00E942B1960918204709183046E5E23
:103C80007F4FCE0101960E944D0944E050E0BE01F5
:103C90006D5F7F4F85E090E00E942B190E94E7192D
:103CA0006091820470918304625E7F4FCE01019621
:103CB0000E944D098B819C81AD81BE8180937E04E1
:103CC00090937F04A0938004B093810417C0892847
:103CD000A9F466C08AE592E09A83898380919F0463
:103CE0009091A004A091A104B091A2048B839C8325
:103CF000AD83BE83CE0101960E94021560EF72E093
:103D00008FED93E00E94250A03EA14E0D8014D915B
:103D10008D0150E060E070E020E18FED93E00E94C3
:103D20003A0AB4E0093A1B0789F78FED93E00E9445
:103D3000CD0AE8E6F2E0659174918CE893E00E9488
:103D4000A6226CE873E08FED93E00E94250A8AE5D5
:103D500092E09A8389831B821C821D821E82CE017F
:103D600007960E9452148F8198850E94E81944E0BA
:103D700050E0BE016D5F7F4F8FE090E00E94FB1826
:103D80000E94E7196FED73E0CE0101960E94830A4D
:103D90008FED93E00E94CD0A87E994E00E946011C4
:103DA0000E94AA0164E670E080E090E00E94E30ACD
:103DB000F7CFBF92CF92DF92EF92FF920F931F93B4
:103DC000CF93DF93EFEDF3E01382128288EEC82EDB
:103DD00083E0D82EE12CF12CC482D582E682F782D2
:103DE00088ED91E09183808385EC90E095878487CE
:103DF00084EC90E09787868780EC90E0918B808BB5
:103E000081EC90E0938B828B82EC90E0958B848B9D
:103E100086EC90E0978B868B118E128E138E148E0B
:103E2000EAEAF4E0CAE5D2E0D183C08312821382C9
:103E300014821582E0EBF4E0D183C08312821382F6
:103E400014821582E6EBF4E0D183C08312821382E0
:103E500014821582ECEBF4E0D183C08312821382CA
:103E600014821582ECE7F4E0D183C08312821382BE
:103E700014821582E2ECF4E0D183C08312821382B3
:103E800014821582E4E8F4E0D183C08312821382A5
:103E900014821582E8ECF4E0D183C083128213828D
:103EA00014821582EAE5F2E080E093E0082E000C2F
:103EB000990B95A784A78EE093E0082E000C990B30
:103EC00097A786A780E090E00E94901B03EA14E089
:103ED000F801808381E090E00E94901BF8018183CB
:103EE00082E090E00E94901BF801828383E090E0E2
:103EF0000E94901BF801838384E090E00E94901B55
:103F0000F801848385E090E00E94901BF80185838E
:103F100089E090E00E94901B182F88E090E00E94BA
:103F2000901B082F87E090E00E94901BB82E86E03F
:103F300090E00E94901BEDE9F4E0D183C08382837E
:103F4000B38204831583E7E9F4E01382128280E4EC
:103F500092E09183808380E590E095838483EAE812
:103F6000F4E013821282C482D582E682F7828AE16B
:103F700092E09183808384E08487DF91CF911F91C9
:103F80000F91FF90EF90DF90CF90BF9008950F9327
:103F90001F93CF93DF938230910510F482E090E07D
:103FA000E091D404F091D50420E030E0A0E0B0E04E
:103FB000309719F1408151810281138148175907C7
:103FC000C8F08417950769F4109731F012960C9396
:103FD000129713961C9327C00093D4041093D50412
:103FE00022C02115310519F04217530718F49A0120
:103FF000BD01EF01DF01F801DBCF21153105F9F03B
:10400000281B390B2430310580F48A819B8161158E
:10401000710521F0FB019383828304C09093D50442
:104020008093D404FE01329644C0FE01E20FF31FD8
:104030008193919322503109398328833AC020918A
:10404000D2043091D304232B41F42091B20130915A
:10405000B3013093D3042093D2042091B001309166
:10406000B1012115310541F42DB73EB74091B4019E
:104070005091B501241B350BE091D204F091D3048B
:10408000E217F307A0F42E1B3F0B2817390778F02F
:10409000AC014E5F5F4F2417350748F04E0F5F1F8E
:1040A0005093D3044093D2048193919302C0E0E0F3
:1040B000F0E0CF01DF91CF911F910F910895CF9341
:1040C000DF93009709F481C0FC01329713821282BA
:1040D000A091D404B091D504109781F4208131814E
:1040E000820F931F2091D2043091D30428173907EF
:1040F00051F5F093D304E093D20467C0ED0120E0C2
:1041000030E0CE17DF0740F44A815B819E01411504
:104110005105F1F0EA01F5CFD383C283408151818B
:10412000840F951FC817D90759F488819981840F86
:10413000951F0296918380838A819B8193838283DA
:104140002115310529F4F093D504E093D4043DC042
:10415000E901FB83EA8349915991C40FD51FEC17FC
:10416000FD0761F480819181840F951F0296E9011A
:1041700099838883828193819B838A83E0E0F0E046
:1041800012968D919C911397009719F0FD01DC0117
:10419000F7CF8D919C9111979D012E5F3F4F820F1C
:1041A000931F2091D2043091D3042817390769F462
:1041B000309729F41092D5041092D40402C01382CF
:1041C0001282B093D304A093D204DF91CF910895CB
:1041D0008F929F92AF92BF92CF92DF92EF92FF9217
:1041E000CF93DF93EC01688179818A819B8161158E
:1041F00071058105910521F464E279ED8BE597E085
:104200002DE133EF41E050E00E94612349015A0162
:104210009B01AC01A7EAB1E40E9480236B017C0101
:10422000ACEEB4EFA50194010E948E23DC01CB011A
:104230008C0D9D1DAE1DBF1DB7FF03C00197A109C9
:10424000B04888839983AA83BB83BC01CD019F7743
:10425000DF91CF91FF90EF90DF90CF90BF90AF9024
:104260009F908F9008958F929F92AF92BF92CF921E
:10427000DF92EF92FF926091B6017091B701809149
:10428000B8019091B901611571058105910521F47D
:1042900064E279ED8BE597E02DE133EF41E050E00A
:1042A0000E94612349015A019B01AC01A7EAB1E4D4
:1042B0000E9480236B017C01ACEEB4EFA501940158
:1042C0000E948E23DC01CB018C0D9D1DAE1DBF1DF8
:1042D000B7FF03C00197A109B0488093B60190933E
:1042E000B701A093B801B093B901BC01CD019F778C
:1042F000FF90EF90DF90CF90BF90AF909F908F9006
:1043000008956093B6017093B7018093B8019093BC
:10431000B9010895A0E0B0E0E0E9F1E20C94942343
:104320005C016B017A016115710519F0FB01918344
:104330008083E114F10429F0C7010297839708F004
:10434000C9C0E5012196F5011081812F90E00E94FE
:104350009D22892B11F05E01F4CF1D3229F42196A4
:10436000F501118101E007C01B3221F4E50122961D
:10437000F501118100E0E114F104B1F0F0E1EF1674
:10438000F10429F4B0C010E3E114F10401F12AE0D2
:10439000E216F104B1F180E1E816F10471F0E8E011
:1043A000EE16F104F1F413C0103341F588818F7DCE
:1043B000883549F7198122960260F0E1EF2EF12C41
:1043C00088248A94982CA82CAFE0BA2E20C078E0DC
:1043D000E72EF12C88248A94982CA82CEFE1BE2E8D
:1043E00016C06FEF7FEFCB0197010F2C000C440B31
:1043F000550B0E943F2349015A0109C08AE0E82E6B
:10440000F12C69E9862E982CA82C69E1B62E40E0A3
:1044100060E070E0CB0127010F2C000C66087708E4
:10442000FE0150ED352E310E29E0231570F42FEBEF
:10443000210F2A3118F439EC332E06C02FE9210F51
:104440002A3130F529EA322E310E232D30E02E1597
:104450003F05F4F44F3FC9F086169706A806B90643
:1044600088F0A30192010E942F23232D30E040E029
:1044700050E0620F731F841F951F62177307840734
:10448000950710F44FEF01C041E021961081C8CF8D
:10449000C114D10451F0442311F0219703C001FF4E
:1044A00004C02297F601D183C08300FF07C0909516
:1044B0008095709561957F4F8F4F9F4F4F3F79F457
:1044C00082E290E09093D7048093D6043FEF2FEFE1
:1044D0009FEF0DC040E030E020E090E008C0462FA4
:1044E000372F282F04C0103309F067CF5FCF642F18
:1044F000732F822FCDB7DEB7E1E10C94B023FC011E
:1045000088279927E89421912032E9F3293010F087
:104510002E30C8F32B3241F02D3239F4689404C0A8
:104520000E94E422820F911D219120532A30C0F372
:104530001EF4909581959F4F089591110C94062338
:10454000803219F089508550C8F70895FB01DC01CD
:1045500005900D920020E1F7089540ED54E00E948F
:10456000B2220895FA01A191B081009719F4109731
:10457000E1F0CD01DC01CD010D90002011F4C0016E
:1045800013C0FB012191222319F02015D9F7F3CF95
:10459000FB012191201519F41E92119606C02223C9
:1045A000C1F70D900020A1F7D001FA01A193B083CB
:1045B0000895BB274A3031F4992322F4BDE2909547
:1045C00081959F4F0C94ED227AE0979F902D879FC5
:1045D000802D910D11240895BB27FB015527AA2793
:1045E000880F991FAA1FA41710F0A41B8395505180
:1045F000B9F7A05DAA3308F0A95DA193009779F7F8
:10460000B111B1931192CB010C94092399278827FA
:104610000895DC01FC01672F71917723E1F7329750
:1046200004C07C916D9370836291AE17BF07C8F38D
:104630000895F999FECF92BD81BDF89A992780B56A
:104640000895262FF999FECF1FBA92BD81BD20BDD6
:104650000FB6F894FA9AF99A0FBE01960895DB0105
:104660008F939F930E948023BF91AF91A29F800D53
:10467000911DA39F900DB29F900D11240895A1E26A
:104680001A2EAA1BBB1BFD010DC0AA1FBB1FEE1FCC
:10469000FF1FA217B307E407F50720F0A21BB30B17
:1046A000E40BF50B661F771F881F991F1A9469F793
:1046B00060957095809590959B01AC01BD01CF01EF
:1046C0000895052E97FB1EF400940E94782357FD51
:1046D00007D00E943F2307FC03D04EF40C947823AC
:1046E00050954095309521953F4F4F4F5F4F08951E
:1046F00090958095709561957F4F8F4F9F4F08954E
:104700000E94CA23A59F900DB49F900DA49F800D79
:10471000911D11240895B7FF0C9480230E948023DB
:10472000821B930B08952F923F924F925F926F924C
:104730007F928F929F92AF92BF92CF92DF92EF9231
:10474000FF920F931F93CF93DF93CDB7DEB7CA1BB2
:10475000DB0B0FB6F894DEBF0FBECDBF09942A88DD
:10476000398848885F846E847D848C849B84AA8485
:10477000B984C884DF80EE80FD800C811B81AA8112
:10478000B981CE0FD11D0FB6F894DEBF0FBECDBFDD
:10479000ED010895A29FB001B39FC001A39F700DCA
:1047A000811D1124911DB29F700D811D1124911D39
:1047B00008956927962769277827872778270895F6
:1047C000EE0FFF1F0590F491E02D0994A0E0B0E0FA
:1047D000ECEEF3E20C949723EC01009721F4CB016B
:1047E0000E94C71FB4C0FC01E60FF71F9C012250B6
:1047F0003109E217F30708F4A8C0D9010D911C9103
:10480000119706171707B0F00530110508F49BC083
:10481000C80104978617970708F495C0025011093C
:10482000061B170B019311936D937C93CF010E948C
:104830005F2089C05B01A01AB10A4C01800E911E55
:10484000A091D404B091D504612C712CE12CF12CF1
:10485000109709F446C08D919C911197A815B90540
:10486000B1F56C0142E0C40ED11CCA14DB0478F12E
:104870004C018A189B08640142E0C40ED11C1296B8
:10488000BC9012971396AC91B5E0CB16D10440F0D2
:10489000B282A38391828082D9016D937C9309C0F7
:1048A0000E5F1F4F800F911FF90191838083EB2DC5
:1048B000FA2FE114F10431F0D7011396FC93EE9333
:1048C000129741C0F093D504E093D4043CC068161D
:1048D000790608F43C017D0112960D90BC91A02D43
:1048E000B7CF8091D2049091D30488169906E1F451
:1048F00066167706C8F48091B0019091B1010097D7
:1049000041F48DB79EB74091B4015091B501841B1D
:10491000950BE817F907C8F4F093D304E093D20499
:10492000F901718360830FC0CB010E94C71F7C0116
:10493000009759F0A801BE010E94BE24CE010E943A
:104940005F20C70104C0CE0102C080E090E0CDB777
:10495000DEB7EEE00C94B32381E090E0F8940C9481
:104960000125FB01DC0104C08D910190801921F427
:1049700041505040C8F7881B990B0895FB01DC019A
:1049800002C001900D9241505040D8F70895FB01AC
:10499000DC010D900020E9F7119701900D920020A5
:1049A000E1F70895FC018191861721F08823D9F75A
:1049B000992708953197CF010895FB01DC010190FB
:1049C0000D920020E1F70895FB01DC0141505040B9
:1049D00030F08D910190801919F40020B9F7881BEF
:1049E000990B0895FB01DC014150504048F00190C3
:1049F0000D920020C9F701C01D9241505040E0F7D0
:064A00000895F894FFCFB9
:104A0600FF0000000000000000000000FF000000A2
:104A16000000000000000000FF0000000000000091
:104A260000000000FF000000000000000000000081
:104A3600FF0000000000000000000000FF00000072
:104A46000000000000000000FF0000000000000061
:104A560000000000FF000000000000000000000051
:104A6600FF0000000000000000000000FF00000042
:104A76000000000000000000FF0000000000000031
:104A860000000000FF000000000000000000000021
:104A9600FF0000000000000000000000FF00000012
:104AA600000000000000000004020000000300C037
:104AB6000000D8048000010000005D000203040528
:104AC600060708090E0F101112137D007B00010066
:104AD6005E00000000000000F90669079A06460716
:104AE600CB06A906BD0600000000930769076818F3
:104AF600680793079307930700000000930793073F
:104B060068189307930793079307930793079307E9
:104B160093079307930700000000C30DF30E681870
:104B2600C20DA10E3F0EFF0D3613D7133B0EF51126
:104B3600D111BA0DE50DE30DAF0DD90D0000000042
:104B4600990DCA12681868076011000000009307E3
:104B560069076818680700000000830A0000000063
:104B6600930700000000E90D880F6818E80D471844
:104B7600780E220E611B1310E91ACD0F9018AA0E9B
:104B86008310590E5F184F184B182F0073746174F9
:104B960065002C002F656570726F6D0074696D6518
:104BA6007200706172616D657465722072657175EF
:104BB6006972656400226368616E6E656C223A00F4
:104BC6002C226475726174696F6E223A007377697C
:104BD600746368007265626F6F74007265736574E2
:104BE60000737973006D616342797465313A200010
:104BF6004D41433A200057495A6E6574000D0A002C
:104C0600227265626F6F74223A7472756500227241
:0C4C160065736574223A747275650000C5
:00000001FF
