:100000000C9448010C9470010C9470010C947001D4
:100010000C9470010C9470010C9470010C9470019C
:100020000C9470010C9470010C9470010C9470018C
:100030000C9470010C9470010C9470010C9470017C
:100040000C941E120C9470010C94080A0C94E20992
:100050000C9470010C9470010C9470010C9470015C
:100060000C9470010C947001000000002300260025
:10007000290000000008000201000003040700003E
:10008000000000000000226669726D7761726522CF
:100090003A22302E302E336122002268617264775A
:1000A000617265223A22646F7365722D76302E3547
:1000B00061222C00226572726F72223A22496E769A
:1000C000616C6964206368616E6E656C22007D00FE
:1000D0007B002261646472657373223A002C22767D
:1000E000616C7565223A002C22706F736974696FB8
:1000F0006E223A002C2270696E223A0022636861F7
:100100006E6E656C223A002C226368616E6E656CBF
:1001100073223A5B00226D657472696373223A7BC5
:10012000002C22757074696D65223A00226D656D30
:10013000223A00537769746368696E67206F666658
:1001400000537769746368696E67206F6E0052456B
:1001500053542073657276696365206C69737465A6
:100160006E696E67206F6E3A2000582D506F77656C
:100170007265642D42793A2043726F7044726F69E0
:10018000642076312E3000436F6E74656E742D548A
:100190007970653A206170706C69636174696F6E23
:1001A0002F6A736F6E00485454502F312E31203512
:1001B000303020496E7465726E616C2053657276C2
:1001C0006572204572726F7200485454502F312E60
:1001D0003120343034204E6F7420466F756E6400C9
:1001E000485454502F312E3120323030204F4B00A4
:1001F00044484350204661696C656400496E6974E7
:1002000069616C697A696E6720646F73696E6720D3
:10021000636F6E74726F6C6C65722E2E2E00000010
:100220000000250028002B0000000000240027000B
:100230002A00040404040404040402020202020268
:10024000030303030303010204081020408001029A
:1002500004081020010204081020FC01F001E00154
:10026000C901A60187016A014E01410133012C0138
:10027000210115010701FC00F400E700DD00D200B8
:10028000D000CE00B400000000009A008600F61FE7
:1002900011241FBECFEFD8E0DEBFCDBF13E0A0E03A
:1002A000B1E0E0E4FCE402C005900D92AA3BB10786
:1002B000D9F725E0AAEBB3E001C01D92A637B2073B
:1002C000E1F711E0C8E4D1E004C02197FE010E94EB
:1002D000FD24C734D107C9F70E94A71C0C941E2621
:1002E0000C940000CF93DF936AE872E08DE794E00E
:1002F0000E94E10BC8EAD1E0688180E090E00E94B2
:10030000A31C698181E090E00E94A31C6A8182E0C5
:1003100090E00E94A31C6B8183E090E00E94A31CEC
:100320006C8184E090E00E94A31C6D8185E090E0E8
:100330000E94A31C60EC86E090E00E94A31C68EA87
:1003400087E090E00E94A31C60E088E090E00E94BB
:10035000A31C6DE589E090E0DF91CF910C94A31C84
:100360004F925F926F927F928F929F92AF92BF92C5
:10037000CF92DF92EF92FF920F931F93CF93DF9371
:10038000CDB7DEB7C952D2400FB6F894DEBF0FBE6C
:10039000CDBF0E9412124B015C0100E011E0C12CA4
:1003A000D12C7601F80180819181A281B3818F3FA8
:1003B0009105A105B10509F461C0448155816681AB
:1003C000778124013501441A550A660A770A408567
:1003D000518562857385441555056605770508F0D6
:1003E0004DC060E00E94B30984E992E00E94671565
:1003F0002AE0B701A6018DE794E00E94270B85EA69
:1004000092E00E946715D8014D915D916D917C91AC
:100410002AE08DE794E00E94270B8CEA92E00E948C
:100420006715F801608571858285938528EE33E034
:1004300040E050E00E945C24BA01A9012AE08DE767
:1004400094E00E94270B69EB72E08DE794E00E9434
:10045000E10B412C512C32014A94D8014D925D920E
:100460006D927C921397F80114821582168217827E
:1004700018961D921D921D921C921B97045F1F4F90
:10048000BFEFCB1ADB0AEB0AFB0AEEE0CE16D10473
:10049000E104F10409F086CF85E395E00E945F1343
:1004A0002CE5E22E24E0F22E10E038EE832E33E02D
:1004B000932EA12CB12C4AE1C42E42E0D42E1C82F2
:1004C0001B828D829E82AF82B886DA82C9821D87A6
:1004D000D7012D913D917D018091390590913A058B
:1004E0002817390711F5CE0101960E94681287314D
:1004F00011F08C31D1F4CE0101960E94B10F892BFD
:10050000A1F02B813C818D819E81AF81B88549848A
:100510005A846B847C84CE5DDD4F488259826A8226
:100520007B82C252D2401D8509C01F5F143039F64C
:1005300088EE93E0A0E0B0E020E030E030932B05BF
:1005400020932A0580932C0590932D05A0932E05CA
:10055000B0932F05CE5DDD4F488059806A807B8047
:10056000C252D2404092300550923105609232051D
:1005700070923305109334051430C1F07E012CEED7
:10058000E21A2EEFF20A6E013DEEC31A3DEFD30AD6
:10059000870106C088E295E00E94B10F892B41F4E3
:1005A00088E295E00E94E1128111F4CF10E087C348
:1005B00088E295E00E944F0F8A3049F08D3039F083
:1005C000CE14DF0421F0D7018D937D01E9CFC75E02
:1005D000DD4F19821882C951D240C55EDD4F1982A4
:1005E0001882CB51D240C35EDD4F19821882CD51A3
:1005F000D240F80101900020E9F73197AF01401B8C
:10060000510BB801CE01875E9D4F0E945F0A60E2E8
:10061000CE01875E9D4F0E94460A9C0140E050E05B
:10062000BE01675E7D4FC6010E949F0A6FE2CE0148
:10063000875E9D4F0E94460A7C01C35EDD4F888124
:100640009981CD51D240E816F90698F4C75EDD4F86
:10065000A880B980C951D24060E270E0C5018E0D1A
:100660009F1D0E94EF25009721F09C012A193B094C
:1006700002C02FEF3FEFA701BE01675E7D4FCE01A5
:1006800001960E949F0AC75EDD4F88819981C951FA
:10069000D240009799F069817A816115710561F006
:1006A000C55EDD4F48815981CB51D2402D813E81BD
:1006B0004217530708F014C30E947C2189819A8154
:1006C000C75EDD4F99838883C951D2408B819C815D
:1006D000C55EDD4F99838883CB51D2408D819E8149
:1006E000C35EDD4F99838883CD51D2401A8219822F
:1006F00089819A810E947C21C35EDD4FE880F98068
:10070000CD51D240E114F10411F4F80114C0FEEF10
:10071000EF16F10418F09EEFE92EF12CC75EDD4FC5
:1007200068817981C951D240A701C8010E940F2672
:10073000F801EE0DFF1D108262EC72E0C8010E940C
:10074000CA237C0162EC72E080E090E00E94CA2340
:100750008C0162EC72E080E090E00E94CA235C01B0
:1007600084EC92E00E946715B7018DE794E00E9447
:10077000E10B8FEC92E00E946715B8018DE794E0E1
:100780000E94E10B88ED92E00E946715B5018DE7AC
:1007900094E00E94E10B45E050E061EE72E0C70199
:1007A0000E940126892B09F078C06CEC71E0CE0123
:1007B00001960E94FA25E2E7F2E0659174918AE2DF
:1007C00094E00E94C3236AE274E0CE0101960E9485
:1007D000E425EEE6F2E0659174918AE294E00E94ED
:1007E000C3236AE274E0CE0101960E94E425809161
:1007F0007005909171059E01215E3D4F7901009732
:1008000021F4C9018657954004C0A901481B590B22
:10081000CA014AE060E274E00E94F62360E274E0FC
:10082000CE0101960E94E4256AEC71E0CE010196AA
:100830000E94E425E4E7F2E0659174918AE294E095
:100840000E94C3236AE274E0CE0101960E94E4256F
:100850008CEBA82E81E0B82E00E010E0D5018D9140
:100860005D010E948A094AE0B7010E94F623B701A0
:10087000CE0101960E94E4250D30110531F067EE9E
:1008800072E0CE0101960E94E4250F5F1F4F0E30EB
:10089000110521F76AEB71E04CC046E050E06AEECA
:1008A00072E0C7010E940126892B09F04EC069EE53
:1008B00072E08DE794E00E94E10BB8018DE794E0CF
:1008C0000E94E10BB5018DE794E00E94E10BC501A8
:1008D0000E949C23F82EC8010E949C236F2D0E9429
:1008E000A31C6CEC71E0CE0101960E94FA25EEE7A4
:1008F000F2E0659174918AE294E00E94C3236AE277
:1009000074E0CE0101960E94E425B801CE01019663
:100910000E94E425ECE7F2E0659174918AE294E0AC
:100920000E94C3236AE274E0CE0101960E94E4258E
:10093000B501CE0101960E94E4256AEC71E0CE017A
:1009400001960E94E42510E078C145E050E061EF97
:1009500072E0C7010E940126892B09F0A1C0011590
:10096000110521F0B3E00E391B0739F467EF72E08F
:100970008DE794E00E94E10B5EC1C8010E949C23B8
:100980008C014AE050E060E070E0C5010E94A722BF
:100990004B015C010D30110508F055C0672B682B29
:1009A000692B09F450C08AE093E00E9467152AE0A1
:1009B000A801012E000C660B770B8DE794E00E94D6
:1009C000270B8DE794E00E94DD0B84E193E00E9409
:1009D00067152AE0B501A4018DE794E00E94270B7A
:1009E0008DE794E00E94DD0BF801E454FE4F708027
:1009F0002CE0209FC001219F900D1124FC01E050AC
:100A0000FF4F7F01872D90E0A0E0B0E080839183CD
:100A1000A283B3830E941212D70114966D937D9323
:100A20008D939C931797A8EEB3E0A50194010E94C3
:100A30009D24F701608771878287938761E0872D06
:100A40000E94B30906C06FE173E08DE794E00E9455
:100A5000E10B6CEC71E0CE0101960E94FA2568E38F
:100A600073E0CE0101960E94E4254AE060E274E062
:100A7000C8010E94F62360E274E0CE0101960E9454
:100A8000E42563E473E0CE0101960E94E4254AE088
:100A900060E274E0C4010E94F62360E274E049CF92
:100AA00046E050E060E573E0C7010E940126892B13
:100AB00069F4C8010E949C237C01C5010E949C230B
:100AC000FEE0EF16F10408F416C1CFC146E050E095
:100AD00068E673E0C7010E940126892B79F467E676
:100AE00073E08DE794E00E94E10B6CEC71E0CE01C5
:100AF00001960E94FA25E6E8F2E019C045E050E0D0
:100B000060E773E0C7010E940126892B21F56FE69B
:100B100073E08DE794E00E94E10B0E9472016CEC9F
:100B200071E0CE0101960E94FA25E8E8F2E06591B5
:100B300074918AE294E00E94C3236AE274E0CE01D9
:100B400001960E94E4256AEC71E0CE0101960E94B4
:100B5000E42511E072C043E050E066E773E0C701AE
:100B60000E940126892B09F03AC06CEC71E0CE019D
:100B700001960E94FA25EAE8F2E0659174918AE212
:100B800094E00E94C3236AE274E0CE0101960E94C1
:100B9000E425ECE8F2E0659174918AE294E00E9429
:100BA000C3236AE274E0CE0101960E94E425E0E7E7
:100BB000F2E0659174918AE294E00E94C3236AE2B4
:100BC00074E0CE0101960E94E4250E941212DC011D
:100BD000CB014AE06AE274E00E94F62354C16AE75E
:100BE00073E08DE794E00E94E10BE0E6F2E06591AE
:100BF00074918AE294E00E94C3236AE274E088E27E
:100C000095E00E94E10B6AE274E08DE794E00E94B7
:100C1000E10BE6E6F2E0659174918AE294E00E94CD
:100C2000C3236AE274E088E295E00E94E10B88E267
:100C300095E00E94DD0B10E035C0EEE5F2E0659135
:100C400074918AE294E00E94C3236AE274E088E22D
:100C500095E00E94E10BE6E6F2E0659174918AE28C
:100C600094E00E94C3236AE274E088E295E00E9467
:100C7000E10BE4E6F2E0659174918AE294E00E946F
:100C8000C3236AE274E088E295E00E94E10B88E207
:100C900095E00E94DD0BBE016F5F7F4F88E295E01B
:100CA0000E94E10BF601808191810E947C21C75E48
:100CB000DD4F88819981C951D2400E947C2164E630
:100CC00070E080E090E00E94F30B88E295E00E94E3
:100CD0000513112309F4DAC0E0E0F0E00995D6C06D
:100CE0000E94FA258D819E81C35EDD4F99838883A2
:100CF000CD51D240FDCC970124543E4F790101974C
:100D000039F5D701BC904AE0BE016F5F7F4F8B2D54
:100D100090E00E94F623EAE6F2E0659174918AE29F
:100D200094E00E94C32367E573E08AE294E00E94A6
:100D3000E425BE016F5F7F4F8AE294E00E94E425C4
:100D40006AE274E08DE794E00E94E10B61E026C066
:100D5000F701B0804AE0BE016F5F7F4F8B2D90E0BE
:100D60000E94F623ECE6F2E0659174918AE294E049
:100D70000E94C32367E573E08AE294E00E94E425C1
:100D8000BE016F5F7F4F8AE294E00E94E4256AE231
:100D900074E08DE794E00E94E10B60E08B2D0E94EF
:100DA000B3096CEC71E0CE0101960E94FA25E6E7EA
:100DB000F2E0659174918AE294E00E94C3236AE2B2
:100DC00074E0CE0101960E94E425B801CE0101969F
:100DD0000E94E425E8E7F2E0659174918AE294E0EC
:100DE0000E94C3236AE274E0CE0101960E94E425CA
:100DF000D7011C914AE06AE274E0812F90E00E94E2
:100E0000F6236AE274E0CE0101960E94E425EAE747
:100E1000F2E0659174918AE294E00E94C3236AE251
:100E200074E0CE0101960E94E425812F0E948A0978
:100E30004AE06AE274E00E94F6236AE274E0CE01BE
:100E400001960E94E4256AEC71E0CE0101960E94B1
:100E5000E4258DE593E00E946715BE016F5F7F4F2B
:100E60008DE794E00E94E10B6ECD6CEC71E0CE0159
:100E700001960E94FA25E4E8F2E0659174918AE215
:100E800094E00E94C3236AE274E053CDC75DDD4F56
:100E90000FB6F894DEBF0FBECDBFDF91CF911F918B
:100EA0000F91FF90EF90DF90CF90BF90AF909F9009
:100EB0008F907F906F905F904F900895833081F076
:100EC00028F4813099F08230A1F008958730A9F09C
:100ED0008830B9F08430D1F4809180008F7D03C0D8
:100EE000809180008F7780938000089584B58F77FC
:100EF00002C084B58F7D84BD08958091B0008F7746
:100F000003C08091B0008F7D8093B0000895FC01F4
:100F1000538D448D252F30E0842F90E0821B930B5E
:100F2000541710F0CF96089501970895FC01918D04
:100F3000828D981761F0828DDF01A80FB11D5D963B
:100F40008C91928D9F5F9F73928F90E008958FEFA9
:100F50009FEF0895FC01918D828D981731F0828D5D
:100F6000E80FF11D858D90E008958FEF9FEF0895B4
:100F7000FC01918D228D892F90E0805C9F4F821B18
:100F800091098F7399270895FC01848DDF01A80FC3
:100F9000B11DA35ABF4F2C91848D90E001968F73A1
:100FA0009927848FA689B7892C93A089B1898C91C0
:100FB000837080648C93938D848D981306C002880F
:100FC000F389E02D80818F7D80830895EF92FF92D9
:100FD0000F931F93CF93DF93EC0181E0888F9B8D5C
:100FE0008C8D981305C0E889F989808185FD26C01C
:100FF000F62E0B8D10E00F5F1F4F0F731127E02EA1
:101000008C8DE8120CC00FB607FCFACFE889F9897D
:10101000808185FFF5CFCE010E94C407F1CF8B8D73
:10102000FE01E80FF11DE35AFF4FF0829FB7F894DD
:101030000B8FEA89FB89808180620AC09FB7F89490
:10104000EE89FF896083E889F989808183708064F3
:1010500080839FBF81E090E0DF91CF911F910F913E
:10106000FF90EF900895CF93DF93EC01888D882354
:10107000C9F0EA89FB89808185FD05C0A889B98905
:101080008C9186FD0FC00FB607FCF5CF808185FFE0
:10109000F2CFA889B9898C9185FFEDCFCE010E944E
:1010A000C407E7CFDF91CF9108950895CF92DF92E3
:1010B000EF92FF920F931F93CF93DF936C017A010E
:1010C0008B01C0E0D0E0CE15DF0581F0D8016D9135
:1010D0008D01D601ED91FC910190F081E02DC601CA
:1010E0000995892B11F02196EECF7E01C701DF9182
:1010F000CF911F910F91FF90EF90DF90CF900895C7
:101100000E94C9257F928F929F92AF92BF92CF92F9
:10111000DF92EF92FF920F931F93CF93DF93CDB7A0
:10112000DEB7A6970FB6F894DEBF0FBECDBF8C0119
:10113000762E942E852E20E2B22ECE0101967C01D1
:10114000FC012B2D11922A95E9F78AE592E09AA3EA
:1011500089A38FEF8BA38CA38DA38EA3680183E457
:10116000C80ED11C43E450E0BE016F5D7F4FC60145
:101170000E94DD10019609F4B9C081E089838A8359
:1011800086E0A82EAB821C82F8016481758186817D
:1011900097810E94F6246D837E838F83988789864A
:1011A0009A8680E890E09C878B874CE150E0B701FD
:1011B000C6010E949810F7012B2D11922A95E9F78C
:1011C000480188E0880E911CF401D70101900D922E
:1011D000AA94E1F740E150E0B701C6010E949810DF
:1011E000F7011192BA94E9F796E0A92EB12C40E2EA
:1011F00050E0B701C6010E949810F1E0AF1AB108A3
:10120000B1F783E6898392E89A8393E59B838C8385
:1012100085E38D8381E08E837F829DE3988797E0CD
:1012200099878A8786E0F401DE011B9601900D9272
:101230008A95E1F78CE0898B8A8B65E973E0CE01B2
:1012400043960E94FA25F8016385CE0149960E94D3
:101250008217F8016485CE014B960E948217F8012F
:101260006585CE014D960E9482174EE150E0B70190
:10127000C6010E949810F3E07F121EC082E38983AA
:1012800084E08A83F80196859B8397859C83908967
:101290009D8391899E8396E39F838887828D89872A
:1012A000838D8A87848D8B87858D8C874CE050E079
:1012B000B701C6010E94981087E3898386E08A837C
:1012C00091E09B8393E09C838D838FE08E838AE300
:1012D0008F838BE388878FEF898749E050E0B701E0
:1012E000C6010E949810C6010E94BA0FA6960FB6BA
:1012F000F894DEBF0FBECDBFDF91CF911F910F914C
:10130000FF90EF90DF90CF90BF90AF909F908F9025
:101310007F900895CF93DF93282F30E0F901EE58A6
:10132000FF4F8491F901EA5BFD4FD491F901EE5C26
:10133000FD4FC491CC2391F081110E945E07EC2FE8
:10134000F0E0EE0FFF1FE859FF4FA591B491EC912B
:10135000ED2381E090E021F480E002C080E090E0A5
:10136000DF91CF9108951F93CF93DF93282F30E023
:10137000F901EE58FF4F8491F901EA5BFD4FD491DA
:10138000F901EE5CFD4FC491CC23C1F0162F811101
:101390000E945E07EC2FF0E0EE0FFF1FE25EFD4FB4
:1013A000A591B4919FB7F894111104C08C91D09578
:1013B000D82302C0EC91DE2BDC939FBFDF91CF914D
:1013C0001F9108951F920F920FB60F9211242F9321
:1013D0003F934F935F936F937F938F939F93AF93BD
:1013E000BF93EF93FF938DE794E00E94C407FF91B2
:1013F000EF91BF91AF919F918F917F916F915F918D
:101400004F913F912F910F900FBE0F901F90189505
:101410001F920F920FB60F9211242F938F939F93C9
:10142000EF93FF93E0918D04F0918E048081E09121
:101430009304F091940482FD12C0908180919604EF
:101440008F5F8F7320919704821751F0E09196047B
:10145000F0E0E358FB4F958F8093960401C08081A4
:10146000FF91EF919F918F912F910F900FBE0F9051
:101470001F901895DC018AE592E08D939D9384E09E
:10148000FB0101900D928A95E1F70895CF93DF93C8
:10149000FC0124813581232B69F0C081D181062E86
:1014A000000C770BCE010E94EF25009719F08C1BE2
:1014B0009D0B02C08FEF9FEFDF91CF910895EF92C8
:1014C000FF920F931F93CF93DF93EC017B018A016F
:1014D00088819981009729F02A813B81241735075B
:1014E000F8F4B8016F5F7F4F0E940325009759F011
:1014F000998388831B830A832C813D81232B81F46C
:10150000FC0110820DC088819981009711F00E9422
:101510007C21198218821D821C821B821A8207C0BC
:101520001D830C83B701888199810E94FA25CE0121
:10153000DF91CF911F910F91FF90EF900895AF929F
:10154000BF92CF92DF92EF92FF920F931F93CF93B0
:10155000DF938C015B01EA0169012417350720F450
:101560008D2FE901C42ED82ED80111961C921E92FF
:1015700013961C921E92129715961C921E92149707
:1015800040E050E06EE973E0C8010E945F0AF50197
:10159000E480F580CE15DF05C8F5CE14DF0408F42D
:1015A0007601D501ED91FC911197EE0DFF1DD080D4
:1015B00010826D917C916C0F7D1F6115710561F03A
:1015C000FB0101900020E9F73197AF01461B570B53
:1015D000C8010E945F0A13C0F801808191810097C1
:1015E00011F00E947C21D80111961C921E92159632
:1015F0001C921E92149713961C921E921297F5013C
:1016000080819181FC01EE0DFF1DD082C801DF9128
:10161000CF911F910F91FF90EF90DF90CF90BF90EF
:10162000AF9008956115710579F0FB0101900020DC
:10163000E9F73197AF01461B570BDC01ED91FC91A7
:101640000280F381E02D099480E090E008958F926C
:101650009F92AF92BF92EF92FF920F931F93CF93FF
:10166000DF93CDB7DEB7A1970FB6F894DEBF0FBEFC
:10167000CDBF7C01FA01CB0119A2223008F42AE087
:101680008E010F5D1F4F822E912CA12CB12CBF011A
:10169000A50194010E945C24F901CA0101501109BD
:1016A0006A3014F4605D01C0695CD8016C93232B2F
:1016B000242B252B61F7B801C7010E94120BA196BC
:1016C0000FB6F894DEBF0FBECDBFDF91CF911F9153
:1016D0000F91FF90EF90BF90AF909F908F900895E3
:1016E000CF92DF92EF92FF92CF93DF936B017C0159
:1016F0006DE28DE794E00E94E607EC014427552750
:10170000BA014C195D096E097F092AE08DE794E062
:101710000E94270B8C0F9D1FDF91CF91FF90EF90C0
:10172000DF90CF9008958F929F92AF92BF92CF9209
:10173000DF92EF92FF920F931F93CF93DF937C0181
:10174000EB016C0182E0C80ED11C4701E5E08E0E72
:10175000911C00E010E0F60141916F0150E060E063
:1017600070E02AE0CE010E94270B5C01E881F9813C
:101770000190F081E02D6EE2CE0109958A0D9B1D4E
:10178000080F191F8C149D0431F7F701458150E0B3
:1017900060E070E02AE0CE010E94270B800F911FCD
:1017A000DF91CF911F910F91FF90EF90DF90CF903D
:1017B000BF90AF909F908F9008956CE973E00C9468
:1017C000120B0F931F93CF93DF93EC010E94120B28
:1017D0008C01CE010E94DD0B800F911FDF91CF9114
:1017E0001F910F9108958F929F92AF92BF92CF92C7
:1017F000DF92EF92FF926B017C010E94ED114B0191
:101800005C01C114D104E104F104F1F00E94ED1176
:10181000DC01CB0188199909AA09BB09883E9340CC
:10182000A105B10570F321E0C21AD108E108F10861
:1018300088EE880E83E0981EA11CB11CC114D1044F
:10184000E104F10419F7DDCFFF90EF90DF90CF9026
:10185000BF90AF909F908F9008954F925F926F923C
:101860007F928F929F92AF92BF92CF92DF92EF9230
:10187000FF920F931F93CF93DF93CDB7DEB763979C
:101880000FB6F894DEBF0FBECDBF7C015B013A01FD
:10189000FB0120E080E090E06AE03191332309F120
:1018A00040ED430F4A3080F4689FA001699F500DBE
:1018B0001124CA01C097830F911D37FD9A958F3F60
:1018C000910559F350F313C03E3289F4233079F077
:1018D000D301A20FB11D12968C932F5F80E090E090
:1018E000DCCF233021F4F301858381E021C0F701AF
:1018F00042815381648175818091240590912505F1
:10190000A0912605B0912705481759076A077B075C
:1019100009F495C10E9412128701085F1F4F6F7072
:1019200077277C5FC8010E94761C813019F080E027
:1019300090E0F8C18AE592E09A838983F701828179
:101940009381A481B5818B839C83AD83BE8345E362
:1019500050E0BE016F5F7F4FC8010E94DD10892BF0
:1019600019F4C12CD12C66C10E941212F7017783A1
:1019700066837627672776277A83698342E050E07B
:10198000BE016F5F7F4FC8010E94981081E090E018
:101990009E878D8742E050E0BE01635F7F4FC801A4
:1019A0000E94981080E091E09E878D8742E050E091
:1019B000BE01635F7F4FC8010E9498101E861D867E
:1019C00042E050E0BE01635F7F4FC8010E94981063
:1019D00042E050E0BE01635F7F4FC8010E94981053
:1019E00042E050E0BE01635F7F4FC8010E94981043
:1019F0004501F5018081882301F164015601F6015A
:101A000081912F01882321F08E3211F06201F6CFEF
:101A1000C818D9081C141D0474F4CF8641E050E0A6
:101A2000BE01615F7F4FC8010E949810A601B401FA
:101A3000C8010E9498104201DCCF1F8641E050E0AF
:101A4000BE01615F7F4FC8010E949810C12CDD2448
:101A5000D394DE86CD8642E050E0BE01635F7F4FC7
:101A6000C8010E949810DE86CD8642E050E0BE019B
:101A7000635F7F4FC8010E949810C8010E94BA0F8F
:101A8000892B09F46ECFE3E0AE2EB12C230122E0C6
:101A9000420E511C0E9412123B014C01C8010E94CF
:101AA000931118161906A4F00E941212DC01CB0142
:101AB00086199709A809B90989389341A105B10583
:101AC000D0F462E370E080E090E00E94F30BE6CF98
:101AD000F7014281538164817581808D918DA28D42
:101AE000B38D481759076A077B0749F4848D958D94
:101AF000C59729F409C0CC24CA94DC2C92C05EEFAF
:101B0000C52EDD24DA948DC0F70181A192A10C9736
:101B10000CF49DC04CE050E0BE016F5F7F4FC801E8
:101B20000E94690F8B819C819827892798279A8B1F
:101B3000898B29813A81322723273227F701468171
:101B400057812417350709F07DC097FF7BC08F7040
:101B50009270892B09F0E1C06F8078847624672425
:101B600076246114710409F4D3C0C12CD12C8D8169
:101B70009E81982789279827C816D90608F46CC033
:101B8000812C912C41E050E0BE016D5E7F4FC80179
:101B90000E94690F8B89982F907C09F08FC081116A
:101BA00083C042E050E0BE01615F7F4FC8010E94E8
:101BB000690F42E050E0BE01635F7F4FC8010E94A1
:101BC000690FC8010E94880FC8010E94880FC801D0
:101BD0000E94880FC8010E94880F42E050E0BE01B9
:101BE0006F5E7F4FC8010E94690F8F8598898115AC
:101BF000914009F06BC0CD84DE84DC24CD24DC244C
:101C000081E0C816D10409F061C089899A898115DB
:101C1000944009F078C044E050E0B201C8010E944D
:101C2000690F81E0A81AB10829F0FFEFCF16DF068F
:101C300009F430CFC8010E94FE1BC60173C08EEFAD
:101C40009FEF70C04CEFC42EDD24DA94EACF9DEFF5
:101C5000C92EDD24DA94E5CF41E050E0BE01635F98
:101C60007F4FC8010E94690F8D85882351F08D85B3
:101C70009FEF980F9D87882321F0C8010E94880F4D
:101C8000F6CF8D858111E8CFC8010E94880FC80169
:101C90000E94880FC8010E94880FC8010E94880F07
:101CA000FFEFCF1ADF0A63CF8B899FEF980F9B8BD3
:101CB000882341F0C8010E94880FF6CFC8010E9416
:101CC000880F1B8A8B8981115DCF6BCFC12CD12CE2
:101CD00089899A89982789279827C816D90638F4B8
:101CE000C8010E94880FFFEFCF1ADF0AF1CF2FEF54
:101CF000821A920A6814790409F044CF26EFC22EA2
:101D0000DD24DA948ECF77EFC72EDD24DA9489CFE5
:101D10003AEFC32EDD24DA9484CF8BEFC82EDD2476
:101D2000DA947FCF63960FB6F894DEBF0FBECDBFB7
:101D3000DF91CF911F910F91FF90EF90DF90CF90A7
:101D4000BF90AF909F908F907F906F905F904F90DB
:101D50000895CF93DF931F92CDB7DEB76983DC017F
:101D6000ED91FC910280F381E02D41E050E0BE0155
:101D70006F5F7F4F09950F90DF91CF910895FC0120
:101D80009485FB018485981303C081E0943009F4A5
:101D900080E0089521E0FC018485843009F420E08E
:101DA000822F08950895CF93DF931F92CDB7DEB7AA
:101DB0006983DC01ED91FC910280F381E02D41E02B
:101DC00050E0BE016F5F7F4F09950F90DF91CF917B
:101DD0000895DC01ED91FC91068CF78DE02D0995BD
:101DE00091E089270895862F089581E08627089538
:101DF0000895CF93DF931F92CDB7DEB76983DC01DF
:101E0000ED91FC910280F381E02D41E050E0BE01B4
:101E10006F5F7F4F09950F90DF91CF9108950F93DA
:101E20001F93CF93DF931F92CDB7DEB78C01DC01F8
:101E3000ED91FC910084F185E02D0995892B51F0FD
:101E4000BE016F5F7F4FF80184850E94001B89816E
:101E500090E002C08FEF9FEF0F90DF91CF911F9125
:101E60000F910895CF93DF931F92CDB7DEB7FC019A
:101E7000218D328D232B49F0BE016F5F7F4F808D06
:101E80000E94001B898190E002C08FEF9FEF0F90AE
:101E9000DF91CF910895FC0184850C94621BCF9350
:101EA000DF931F92CDB7DEB741E050E0BE016F5F18
:101EB0007F4FFC0184850E94621B181619061CF4D2
:101EC000898190E002C08FEF9FEF0F90DF91CF915B
:101ED0000895CF93DF93FC01218D328D21153105BB
:101EE00019F48FEF9FEF11C0EC014217530708F070
:101EF000A901888D0E94621B1816190694F7298D76
:101F00003A8D281B390B3A8F298FDF91CF91089595
:101F10000F931F93CF93DF931F92CDB7DEB7FC01D2
:101F2000218D328D232B61F08C0141E050E0BE0108
:101F30006F5F7F4F808D0E94621B181619061CF080
:101F40008FEF9FEF08C0F801818D928D0197928FDE
:101F5000818F898190E00F90DF91CF911F910F9138
:101F60000895FC018485843011F00C94351B80E0C9
:101F700090E008951F93CF93DF9300D0CDB7DEB7E5
:101F8000FC01108DCE0101960E94621589819A8113
:101F90000E94FD1A60E270E0812F0E94521562E0FB
:101FA00070E0812F0E94941A84FD1DC062E070E0F1
:101FB000812F0E94941A83FF0BC048E162E070E019
:101FC000812F0E948A1A0E94FC1A80E090E015C0BE
:101FD0000E94FC1ACE0101960E94621589819A81A5
:101FE0000E94FD1ADCCF40E162E070E0812F0E9488
:101FF0008A1A0E94FC1A81E090E00F900F90DF9106
:10200000CF911F9108956F927F928F929F92AF927E
:10201000BF92CF92DF92EF92FF920F931F93CF93D5
:10202000DF9300D0CDB7DEB75C013B016A01FC0154
:102030001485143041F481E090E0F50193838283AC
:1020400080E090E064C07A014130584018F0E12C03
:1020500088E0F82ECE0101960E94621589819A814E
:102060000E94FD1A812F0E9466174C0163E070E008
:10207000812F0E94941A082F0E94FC1A073111F038
:102080000C3121F48E149F0428F302C0E12CF12CB2
:10209000CE0101960E94621589819A810E94FD1AE3
:1020A0009701A30160E070E0812F0E94011760E2B8
:1020B00070E0812F0E94521562E070E0812F0E9433
:1020C000941A84FD18C063E070E0812F0E94941A76
:1020D000811106C00E94FC1A812F0E94DE1BABCF2B
:1020E0000E94FC1ACE0101960E94621589819A8194
:1020F0000E94FD1AE1CF40E162E070E0812F0E9472
:102100008A1A0E94FC1AEF2809F495CFC6010F9095
:102110000F90DF91CF911F910F91FF90EF90DF9083
:10212000CF90BF90AF909F908F907F906F900895C9
:102130008F929F92AF92BF92DF92EF92FF920F9396
:102140001F93CF93DF9300D0CDB7DEB77C014B0157
:102150008A01FC01A688B788D08CCE0101960E9426
:10216000621589819A810E94FD1A8D2D0E94661741
:102170008017910720F48D2D0E9466178C0198011D
:10218000A401B5018D2D0E9401170E94FC1AF701D0
:1021900086899789800F911F978B868BC8010F9036
:1021A0000F90DF91CF911F910F91FF90EF90DF90F3
:1021B000BF90AF909F908F900895DF92EF92FF9223
:1021C0000F931F93CF93DF9300D0CDB7DEB7FB0102
:1021D000DC0157961C921E9256972281211109C04C
:1021E0002381211106C02481211103C025812223CE
:1021F000F1F041155105D9F07A018F01FC01D08C25
:10220000CE0101960E94621589819A810E94FD1A71
:10221000B8016E5F7F4F8D2D0E94F31AB7018D2D8F
:102220000E94E21A0E94FC1A81E090E002C080E065
:1022300090E00F900F90DF91CF911F910F91FF9041
:10224000EF90DF900895BF92CF92DF92EF92FF92CE
:102250000F931F93CF93DF9300D000D000D0CDB762
:10226000DEB7FC01208D243009F04CC06A017B01EF
:102270008C01B12C63E070E08B2D0E94941A8111C7
:1022800003C0F801B08E06C08831D9F3B394F4E0EE
:10229000BF12F0CFF801808D8430A1F196E0EEEC12
:1022A000F1E0DE01119601900D929A95E1F7F701A8
:1022B00093819F779C8394819D8395819E83B701B1
:1022C0006E5F7F4F0E94F31AB601F801808D0E9465
:1022D000E21AF801808D90E0982F882746E050E0C0
:1022E000BE016F5F7F4F8A5F9B4F0E94401AF801CB
:1022F000128E118E20E8A60162E0808D0E94131CD0
:1023000081E001C080E026960FB6F894DEBF0FBED4
:10231000CDBFDF91CF911F910F91FF90EF90DF9094
:10232000CF90BF9008950F931F93CF93DF93CDB7B6
:10233000DEB728970FB6F894DEBF0FBECDBF8C0175
:10234000D80159968D919C915A97892B41F0ED9126
:10235000FC910284F385E02DC8010995F1CFF801C5
:10236000808D0E94351B1816190654F548E050E080
:10237000BE016F5F7F4FD80158968C910E94621BFF
:1023800018161906FCF4D801509684E0FE01319627
:1023900001900D928A95E1F78D8190E0982F882722
:1023A0002E81820F911DF801958B848B8F8190E097
:1023B000982F88272885820F911D928F818F02C0C8
:1023C00080E090E028960FB6F894DEBF0FBECDBF38
:1023D000DF91CF911F910F9108953FB7F8948091AD
:1023E000690490916A04A0916B04B0916C0426B5C5
:1023F000A89B05C02F3F19F00196A11DB11D3FBF3D
:10240000BA2FA92F982F8827820F911DA11DB11DCA
:10241000BC01CD0142E0660F771F881F991F4A95C6
:10242000D1F708952FB7F894609165047091660410
:1024300080916704909168042FBF08951F920F92B6
:102440000FB60F9211242F933F938F939F93AF93C7
:10245000BF938091650490916604A0916704B09148
:1024600068043091640423E0230F2D3720F4019693
:10247000A11DB11D05C026E8230F0296A11DB11DA7
:10248000209364048093650490936604A09367048A
:10249000B09368048091690490916A04A0916B04E0
:1024A000B0916C040196A11DB11D809369049093B5
:1024B0006A04A0936B04B0936C04BF91AF919F9199
:1024C0008F913F912F910F900FBE0F901F901895F5
:1024D000FC018485843011F00C945C1C80E008952C
:1024E0008F929F92AF92BF92CF92DF92EF92FF9224
:1024F0000F931F93CF93DF93CDB7DEB72F970FB610
:10250000F894DEBF0FBECDBF7C0100E010E038EED6
:10251000832E33E0932EA12CB12C4AE1C42E42E04D
:10252000D42E1C821B828D829E82AF82B886DA8274
:10253000C9820D87CE0101960E946812811129C0BF
:10254000F7014481558120E061E0802F0E94131C37
:10255000CE010E960E9462158E859F850E94FD1AFF
:1025600063E070E0802F0E94941A833129F462E0C6
:1025700070E0802F0E9452150E94FC1AF70184819E
:102580009581000F111FF801E45AFB4F918380835E
:1025900005C00F5F1F4F0430110519F62F960FB6B7
:1025A000F894DEBF0FBECDBFDF91CF911F910F9189
:1025B000FF90EF90DF90CF90BF90AF909F908F9063
:1025C0000895CF93DF93FC0124852430D1F0EC01F2
:1025D0000E946812843181F0882371F0883161F0A3
:1025E0008C3161F4E881F9810084F185E02DCE0120
:1025F000099521E0892B19F420E001C021E0822F08
:1026000001C080E0DF91CF910895CF92DF92EF92E9
:10261000FF920F931F93CF93DF9300D0CDB7DEB718
:10262000DC011C96FC90B4E0FB16F1F18C01CE01AC
:1026300001960E94621589819A810E94FD1A68E0C4
:1026400070E08F2D0E9452150E94FC1A0E941212F7
:102650006B017C01C8010E9468128823B9F061E017
:1026600070E080E090E00E94F30B0E941212DC0107
:10267000CB018C199D09AE09BF09883E9340A10585
:10268000B10540F3F80184850E94DE1BD8011C9639
:10269000EC911C97F0E0EE0FFF1FE45AFB4F118204
:1026A000108284E01C968C930F900F90DF91CF9155
:1026B0001F910F91FF90EF90DF90CF9008954F9270
:1026C0005F926F927F928F929F92AF92BF92CF92C2
:1026D000DF92EF92FF921F93CF93DF93CDB7DEB7D8
:1026E0002D970FB6F894DEBF0FBECDBF7C019CE5E1
:1026F000C92E94E0D92E10E0A12CB12C28EE422E48
:1027000023E0522E612C712C3AE1832E32E0932E7D
:102710001C821B824D825E826F8278869A828982B9
:102720001D87D6012D913D916D01F7018481958121
:1027300028173907B1F4CE0101960E94681284313E
:1027400069F0CE0101960E9468128C3151F4CE01DD
:1027500001960E94B10F892B91F003C0AA24A39483
:10276000B12C1F5F1430A1F6AB2871F4D701ED91A5
:10277000FC910084F185E02DC701099505C0CE01CB
:1027800001960E940513EDCF2D960FB6F894DEBF8B
:102790000FBECDBFDF91CF911F91FF90EF90DF90E3
:1027A000CF90BF90AF909F908F907F906F905F90F1
:1027B0004F9008953F924F925F926F927F928F92C7
:1027C0009F92AF92BF92CF92DF92EF92FF920F93C0
:1027D0001F93CF93DF93CDB7DEB72D970FB6F89445
:1027E000DEBF0FBECDBF6C015B014A010E945F13CB
:1027F0008CE5E82E84E0F82E312C00E010E098EE15
:10280000492E93E0592E612C712C1C821B824D8223
:102810005E826F8278868AE192E09A8389833D8620
:10282000F701219131917F01F6018481958128176B
:10283000390731F4CE0101960E9468128731E9F020
:102840003394F4E03F12E1CFC8012D960FB6F8940F
:10285000DEBF0FBECDBFDF91CF911F910F91FF90D3
:10286000EF90DF90CF90BF90AF909F908F907F9030
:102870006F905F904F903F900895A401B501CE01F5
:1028800001960E940310080F191FDACFAF92BF9272
:10289000DF92EF92FF920F931F93CF93DF9300D0BD
:1028A000CDB7DEB7FC012485243009F078C05A0189
:1028B0008B017C01D12C8D2D0E945C1C811103C0E9
:1028C000F701D48607C08B7F8831D1F3D394F4E02D
:1028D000DF12F1CFF7018485843009F460C02091C4
:1028E000AE013091AF012F5F3F4F11F420E030EC8B
:1028F0003093AF012093AE014091AE015091AF01F2
:1029000020E061E00E94131CF80182818F3F51F4A6
:1029100083818F3F99F484818F3F81F485818F3F3C
:1029200069F43AC081110AC0F8018381811106C09F
:102930008481811103C08581882371F1A114B104C0
:1029400059F1F701D484CE0101960E946215898164
:102950009A810E94FD1AB8016E5F7F4F8D2D0E94F3
:10296000F31AB5018D2D0E94E21A64E070E08D2DFE
:102970000E9452150E94FC1AC7010E9468128731FA
:1029800089F061E070E080E090E00E94F30BC70105
:102990000E9468128111F0CF84E0F701848780E003
:1029A00090E002C081E090E00F900F90DF91CF9116
:1029B0001F910F91FF90EF90DF90BF90AF9008951F
:1029C00044E050E0BC018FE090E00C94401AAF92DC
:1029D000BF92CF92DF92EF92FF920F931F93CF930C
:1029E000DF93CDB7DEB7AF970FB6F894DEBF0FBE5B
:1029F000CDBF7C015B016A010AE512E01A830983FD
:102A00001B821C821D821E82CE0109960E948B1998
:102A10001BA70AA71CA61DA61EA61FA680911C0503
:102A200090911D05A0911E05B0911F058EA39FA337
:102A3000A8A7B9A78B839C83AD83BE8318861F820A
:102A4000AE01465D5F4FB501CE0101960E942D0C8F
:102A500081309105B1F4D701ED91FC910684F785A1
:102A6000E02D1DA30CA38CA59DA5AEA5BFA58EA38F
:102A70009FA3A8A7B9A7A601BE016C5D7F4FC701A0
:102A80000995AF960FB6F894DEBF0FBECDBFDF91AC
:102A9000CF911F910F91FF90EF90DF90CF90BF905B
:102AA000AF900895CF93C82F462F61E070E00E9449
:102AB0008A1A61E070E08C2F0E94941A8111F9CF7C
:102AC000CF91089520E5FC01208311820895BC0177
:102AD0008DE794E00C94120B90E0FC01EA5BFD4F53
:102AE0002491FC01EE5CFD4F8491882399F090E0E5
:102AF000880F991FFC01E85DFD4FA591B491FC0181
:102B0000E25EFD4F859194918FB7F894EC91E22BA2
:102B1000EC938FBF08951F93CF93DF9300D0CDB771
:102B2000DEB76CE271E080E090E00E94F30B1FB72B
:102B3000F89480914705811124C0ECE3F2E0849180
:102B4000E0E5F2E09491E82FF0E0EE0FFF1FE85D82
:102B5000FD4FA591B491EC91E92321F461E08AE065
:102B60000E94B3098AE00E946C158CB580618CBD0F
:102B70008CB580648CBD8DE00E946C158BE00E944A
:102B80006C15809147058F5F809347051FBF229A80
:102B9000CE0101960E94621589819A810E94FD1AD8
:102BA00060E880E090E00E946F1A65E58BE190E0BC
:102BB0000E946F1A65E58AE190E00E946F1A0E94F8
:102BC000FC1A80E090E490936E0480936D0480E0A2
:102BD00090E6909376048093750480E098E4909357
:102BE000700480936F0480E098E69093780480935B
:102BF000770480E090E5909372048093710480E004
:102C000090E790937A048093790480E098E590931C
:102C100074048093730480E098E790937C0480931D
:102C20007B040F900F90DF91CF911F9108951F9318
:102C3000CF93DF93CDB7DEB7C454D1090FB6F89464
:102C4000DEBF0FBECDBFFC0182819381A481B5811F
:102C500023968CAF9DAFAEAFBFAF239711E0239605
:102C60001FAF239723964CAD5DAD6EAD7FAD23971F
:102C70004BAB5CAB6DAB7EAB8DA79EA7AFA7B8ABE4
:102C800018AB4DA55EA56FA578A94FA358A769A756
:102C90007AA71EAB4BA95CA96DA97EA949A35AA32B
:102CA0006BA37CA32AE532E03C8B2B8B4FEF4D8B43
:102CB0004E8B4F8B188E3E872D871AA74FA158A594
:102CC00069A57AA54F87588B698B7A8B1CA349A17C
:102CD0005AA16BA17CA149875A876B877C873A836D
:102CE00029838B839C83AD83BE830E948B15CE0189
:102CF0008D5B9F4F0E94621525968EAD9FAD2597E7
:102D00000E94FD1A46E050E061E475E089E090E041
:102D10000E94401ACE0103960E94E01444E050E065
:102D2000BE01615F7F4F81E090E00E94401A44E065
:102D300050E0BE016B5E7F4F85E090E00E94401A3C
:102D40000E94FC1A1C8789859A85AB85BC85809377
:102D50001C0590931D05A0931E05B0931F05CC5B29
:102D6000DF4F0FB6F894DEBF0FBECDBFDF91CF911E
:102D70001F910895AF92BF92CF92DF92EF92FF9290
:102D80000F931F93CF93DF9300D0CDB7DEB77A8335
:102D90006983BA01A901E981FA81F770082F10E06F
:102DA000000F111F0B581B4FD8018D919C918E0F56
:102DB0009F1F9F01240F351F21303840A0F07A015A
:102DC0005B0160E078E06B01CE1ADF0AA601B50175
:102DD0000E94101AA7014C195D09B5016C0D7D1DEB
:102DE000F801808191810F900F90DF91CF911F9119
:102DF0000F91FF90EF90DF90CF90BF90AF900C9429
:102E0000101A9F92AF92BF92CF92DF92EF92FF92F1
:102E10000F931F93CF93DF93982E8B015A01690173
:102E200064E270E00E94941AE82EF12C65E270E0F2
:102E3000892D0E94941AFE2CEE24E82AE801CE0D7A
:102E4000DF1D9E013770E92CF12CC701880F991FF7
:102E5000AC0143595B4F7A01FA0180819181820F65
:102E6000931FA9014C0D5D1D4130584090F000E0CA
:102E700018E0021B130BA801B5010E94401AA6011D
:102E8000401B510BB501600F711FF70180819181CB
:102E900002C0A601B5010E94401ACC0DDD1D4D2FC8
:102EA00064E270E0892D0E948A1A4C2F65E270E07E
:102EB000892DDF91CF911F910F91FF90EF90DF90BF
:102EC000CF90BF90AF909F900C948A1AFF920F936F
:102ED0001F93CF93DF93F82E00E010E08F2D0E9418
:102EE000CA1AEC01892B21F08F2D0E94CA1A8C017D
:102EF000C017D10799F7CE01DF91CF911F910F91A4
:102F0000FF90089520E3FC0120833296862F82955E
:102F10008F7090E1899F601911246A3014F4605D0C
:102F200001C0695C6293682F8111F0CF08952F92E0
:102F30003F924F925F926F927F928F929F92AF9249
:102F4000BF92CF92DF92EF92FF920F931F93CF9396
:102F5000DF93CDB7DEB7E2970FB6F894DEBF0FBEB2
:102F6000CDBF7C012A013B0169010E9412124B0175
:102F70005C0187010D5B1F4FC8010E949311181659
:102F80001906A4F00E941212DC01CB0188199909DC
:102F9000AA09BB09481659066A067B06D8F062E3FF
:102FA00070E080E090E00E94F30BE6CF42E250E058
:102FB000BE016F5F7F4FC8010E94690F8981823017
:102FC00011F080E060C1F80184899589833491050E
:102FD000C1F702C08FEF57C16D817E818F819885C7
:102FE0000E94F6244B015C01F601608371838283A9
:102FF000938346E050E0B701685F7F4FCE014D9666
:103000000E94CE25892BE9F6F70180819181A2816A
:10301000B38188169906AA06BB0698F28481958129
:10302000A681B78188159905AA05BB0550F2898943
:103030009A89AB89BC8986879787A08BB18B8EECE8
:10304000C82ED12CC8010E94880FF1E0CF1AD108F8
:10305000C9F7712CC70182969AA789A7F701B6967E
:10306000FCA7EBA708969EA78DA73C974F018996D2
:1030700098AB8FA73897FAABE9AB1701F6E12F0EA3
:10308000311C27018EE1480E511CF801818D928D73
:10309000181619060CF0F6C0C8010E94880F833379
:1030A000910509F4C9C0F4F481309105B9F11CF41B
:1030B000892B59F3DBC083309105C1F1069709F0E4
:1030C000D5C0C8010E94880F6C0144E050E0B201F5
:1030D000C8010E94690FA12CB12CDD2494E0C91A0B
:1030E000D1083FC08A33910509F47AC03CF4853396
:1030F000910561F0C69709F43FC0B8C08B339105C4
:1031000009F484C08F3F910501F2B0C0C8010E944C
:10311000880FC8010E94880F782EB7CFC8010E947F
:10312000880F44E050E069A97AA93AC0C8010E941A
:10313000880F6C0144E050E0B101C8010E94690FA2
:10314000A12CB12CDD24F4E0CF1AD108AC14BD04BD
:103150000CF09BCFC8010E94880F8FEFA81AB80A05
:10316000F5CFAC14BD040CF090CFC8010E94880FBD
:10317000EFEFAE1ABE0AF5CFC8010E94880F682E85
:10318000F701828D811110C0838D81110DC0848D56
:1031900081110AC0858D811107C044E050E0B4015F
:1031A000C8010E94690F71CFEFA5F8A9A080B18076
:1031B000C280D380B401CE0183960E943A0A8DA1C9
:1031C0009EA1AFA1B8A5A816B906CA06DB0629F3C9
:1031D000662009F45ACFC8010E94880F6A94F8CF7C
:1031E000C8010E94880F44E050E06BA57CA5C8018F
:1031F0000E94690FF70166A177A180A591A50E94A1
:10320000F62466A377A380A791A73FCFC8010E94A9
:10321000880F44E050E06DA57EA5C8010E94690FAB
:10322000F70162A573A584A595A50E94F62462A75F
:1032300073A784A795A729CFC8010E94880F44E0EF
:1032400050E069A57AA5C8010E94690FF70162A143
:1032500073A184A195A10E94F62462A373A384A301
:1032600095A366A777A780AB91AB0FCFC8010E944B
:10327000880FD82EDD2009F408CFC8010E94880FDE
:10328000DA94F8CF872DE2960FB6F894DEBF0FBE22
:10329000CDBFDF91CF911F910F91FF90EF90DF9005
:1032A000CF90BF90AF909F908F907F906F905F90E6
:1032B0004F903F902F900895FC01818D928D08953D
:1032C000FC018489958908952AE532E0FC01318367
:1032D0002083FB014089518962897389FC01428303
:1032E0005383648375830895DC01ED91FC91048C14
:1032F000F58DE02D099480E0089580E090E0089538
:103300002A9A08952A9808958EBD00000DB407FEEC
:10331000FDCF8EB50895FC011382128288EE93E0F2
:10332000A0E0B0E084839583A683B78386E692E02D
:10333000918380838AE592E097878687108A118A35
:10334000128A138A84E0808F0895AF92BF92CF9241
:10335000DF92EF92FF920F931F93CF93DF93CDB73E
:10336000DEB7AF970FB6F894DEBF0FBECDBF7C01BE
:103370005B016A010AE512E01A8309831B821C8241
:103380001D821E82CE0109960E948B191BA70AA7D7
:103390001CA61DA61EA61FA680911C0590911D05AA
:1033A000A0911E05B0911F058EA39FA3A8A7B9A742
:1033B0008B839C83AD83BE8318861F82AE01465DDE
:1033C0005F4FB501CE0101960E942D0C8130910511
:1033D000B1F4D701ED91FC910488F589E02D1DA38E
:1033E0000CA38CA59DA5AEA5BFA58EA39FA3A8A742
:1033F000B9A7A601BE016C5D7F4FC7010995AF96C5
:103400000FB6F894DEBF0FBECDBFDF91CF911F91F5
:103410000F91FF90EF90DF90CF90BF90AF90089505
:10342000CF92DF92EF92FF920F931F93CF93DF9390
:10343000EC017A018B016C01C40ED51ECC15DD05A3
:10344000A9F00E9482198FE00E9484198D2F0E949A
:1034500084198C2F0E948419219680E00E9484197F
:10346000F80181938F010E948019E8CFC701DF9195
:10347000CF911F910F91FF90EF90DF90CF90089523
:10348000CF92DF92EF92FF920F931F93CF93DF9330
:10349000EC017A018B016C01C40ED51ECC15DD0543
:1034A000A1F00E94821980EF0E9484198D2F0E9442
:1034B00084198C2F0E9484192196F80181918F0123
:1034C0000E9484190E948019E9CFC701DF91CF9132
:1034D0001F910F91FF90EF90DF90CF9008951F9371
:1034E000CF93DF93D82F192FC62F0E94821980EF18
:1034F0000E948419812F0E9484198D2F0E948419A3
:103500008C2F0E9484190E94801981E0DF91CF9155
:103510001F9108959B0190E00496982F8827642FAF
:10352000820F931F0C946F1ACF93DF9390E0049651
:10353000982F8827EC01C60FD71F0E9482198FE0B1
:103540000E9484198D2F0E9484198C2F0E94841947
:1035500080E00E948419C82F0E9480198C2FDF916F
:10356000CF9108951F93CF93DF93182F66E270E0F9
:103570000E94941AC82FD0E067E270E0812F0E9469
:10358000941ADC2FCC279E01282BC901DF91CF9103
:103590001F9108951F93CF93DF93182F60E270E07F
:1035A0000E94941AC82FD0E061E270E0812F0E943F
:1035B000941ADC2FCC279E01282BC901DF91CF91D3
:1035C0001F910895CF93DF93C82FD62F472F60E127
:1035D00070E00E948A1A4D2F61E170E08C2FDF911C
:1035E000CF910C948A1A90E0982F882744E050E0FD
:1035F000845F9B4F0C94401A08958CBD9DBD089527
:10360000CF92DF92FF920F931F93CF93DF9300D05F
:10361000CDB7DEB7F82E6B01CE0101960E94621580
:1036200089819A810E94FD1A68E270E08F2D0E94C4
:10363000941A082F10E069E270E08F2D0E94941A0E
:10364000702F6627682B21E030E0A6018F2D0E94A5
:10365000BA1681E090E00F900F90DF91CF911F910B
:103660000F91FF90DF90CF900895DF92EF92FF923D
:103670000F931F93CF93DF9300D0CDB7DEB7D82E33
:10368000CE0101960E94621589819A810E94FD1ADD
:10369000E12CF12C8D2D0E94B21A8C01892B21F086
:1036A0008D2D0E94B21A7C010E151F0599F7C801D5
:1036B0000F900F90DF91CF911F910F91FF90EF909E
:1036C000DF9008958F929F92BF92CF92DF92EF92F8
:1036D000FF920F931F93CF93DF9300D0CDB7DEB748
:1036E000B82E6B017A01CE0101960E946215898184
:1036F0009A810E94FD1A812C912C8B2D0E94B21A66
:103700008C01892B21F08B2D0E94B21A4C010815D7
:10371000190599F70115110599F463E070E08B2DF7
:103720000E94941A8431D9F18823C9F101E010E094
:103730008C3111F400E010E01195019511092FC0B2
:10374000E016F1060CF487011016110644F568E244
:1037500070E08B2D0E94941AE82EF12C69E270E043
:103760008B2D0E94941AFE2CEE24E82A9801A601C3
:10377000B7018B2D0E94BA16E00EF11E4F2D68E2A4
:1037800070E08B2D0E948A1A4E2D69E270E08B2D1D
:103790000E948A1A60E470E08B2D0E945215C801C5
:1037A0000F900F90DF91CF911F910F91FF90EF90AD
:1037B000DF90CF90BF909F908F9008951F93CF93ED
:1037C000DF9300D0CDB7DEB7182FCE0101960E944F
:1037D000621589819A810E94FD1A60E170E0812F53
:1037E0000E9452154FEF62E070E0812F0E948A1A0A
:1037F0000F900F90DF91CF911F910895CF93DF939A
:10380000EC01888D843061F00E94DE1BE88DF0E0D1
:10381000EE0FFF1FE45AFB4F1182108284E0888F65
:10382000DF91CF910895DF92EF92FF920F931F9354
:10383000CF93DF9300D0CDB7DEB7182FD62E7A0105
:10384000022F0E94DE1BCE0101960E946215898123
:103850009A810E94FD1A4D2D402B60E070E0812F6F
:103860000E948A1AE114F10459F4E0906C05F0907A
:103870006D058FEFE81AF80AF0926D05E0926C057D
:103880004F2D64E070E0812F0E948A1A4E2D65E072
:1038900070E0812F0E948A1A61E070E0812F0E94FF
:1038A000521581E00F900F90DF91CF911F910F91F2
:1038B000FF90EF90DF9008951F93CF93DF9300D098
:1038C000CDB7DEB7182FCE0101960E94621589810F
:1038D0009A810E94FD1A63E070E0812F0E94941A81
:1038E0000F900F90DF91CF911F910895EF92FF926B
:1038F0001F93CF93DF93FC01208D243011F080E0E3
:103900001CC07B01EC0110E0812F0E945C1C811126
:1039100002C0188F05C08831E1F31F5F1430A1F792
:10392000888D843061F3FD86EC861A8E198E20E036
:10393000A70162E00E94131C81E0DF91CF911F91EB
:10394000FF90EF9008950C943E240C943624CF936E
:10395000DF93CDB7DEB72A970FB6F894DEBF0FBE60
:10396000CDBF789484B5826084BD84B5816084BD08
:1039700085B5826085BD85B5816085BD80916E000D
:10398000816080936E00109281008091810082603E
:10399000809381008091810081608093810080917B
:1039A00080008160809380008091B100846080936A
:1039B000B1008091B00081608093B00080917A0066
:1039C000846080937A0080917A00826080937A008C
:1039D00080917A00816080937A0080917A0080687B
:1039E00080937A001092C100E0918D04F0918E04D2
:1039F00082E08083E0918904F0918A041082E09152
:103A00008B04F0918C0480E1808310929504E09106
:103A10009104F091920486E08083E0918F04F0910C
:103A20009004808180618083E0918F04F091900404
:103A3000808188608083E0918F04F0919004808180
:103A400080688083E0918F04F091900480818F7D65
:103A50008083EAE5F2E0659174918AE294E00E9445
:103A6000C3236AE274E08DE794E00E94E10B0CEB63
:103A700011E06AECC62E61E0D62ED801FD908D01D2
:103A80008F2D0E946C1560E08F2D0E94B309C01627
:103A9000D10699F780E090E00E94A51C182F8EE7D0
:103AA00093E00E946715412F50E060E070E02AE04B
:103AB0008DE794E00E94270B8DE794E00E94DD0BD8
:103AC0001F3F09F028C20E947201809118048111E1
:103AD00007C08DEF93E00E948B1981E0809318045A
:103AE0008AEB93E090932105809320050E948B152B
:103AF000CE0101960E94621589819A810E94FD1A69
:103B000046E050E068EA71E089E090E00E94401AE7
:103B10008AE592E09A8389831B821C821D821E8221
:103B2000CE0103960E94E0140E94FC1A0091200529
:103B300010912105F80112A213A214A215A216A237
:103B400017A210A611A612A613A614A615A680E603
:103B50009AEEA0E0B0E086AB97ABA0AFB1AF80EA41
:103B60009FE0A0E0B0E082AF93AFA4AFB5AF3E96C8
:103B700084E1DF011D928A95E9F786E0E8EAF1E049
:103B8000D801189601900D928A95E1F7F801EE5B45
:103B9000FF4FFA87E98710820E9450222FEC37E00E
:103BA00040E050E00E947E24DC01CB010196A11D83
:103BB000B11DF80184839583A683B78380839183A5
:103BC000A283B3835801F3E4AF0EB11CC5010E9478
:103BD000FE1B64E470E0C5010E94761C81110FC0D9
:103BE000ECE5F2E0659174918AE294E00E94C323CF
:103BF0006AE274E08DE794E00E94E10BEEC10E945E
:103C000012122B013C01812C912C48EEC42E43E072
:103C1000D42EE12CF12C52E0252EA985BA858C9169
:103C2000833009F404C1811120C0F8018481958199
:103C3000A681B7810196A11DB11D84839583A683BA
:103C4000B7830E9412126419750986099709A701A2
:103C500096010E945C24A90161E0C8010E948208CB
:103C600081E0A985BA858C93CAC08430F9F4F80143
:103C700084819581A681B7810196A11DB11D8483A0
:103C80009583A683B7830E94121264197509860969
:103C90009709A70196010E945C24A90163E0C8016D
:103CA0000E948208A985BA852C92A9C0813059F555
:103CB000F80142AD53AD64AD75AD9E012F5F3F4F2E
:103CC000C8010E949717382EF2E08F1392C08981A5
:103CD0009A81AB81BC81F80184839583A683B783E5
:103CE0000E9412126419750986099709A7019601A5
:103CF0000E945C24A90163E0C8010E948208A98592
:103D0000BA853C927CC0823009F079C0F80142AD9E
:103D100053AD64AD75AD9E012F5F3F4FC8010E944A
:103D20009717382EF5E08F135DC0E3E0A985BA85BB
:103D3000EC93F80182A193A1A4A1B5A1892B8A2BB0
:103D40008B2B41F484E893E0A0E0B0E082A393A33E
:103D5000A4A3B5A3F80186A197A1A0A5B1A5892B1D
:103D60008A2B8B2B61F482A193A1A4A1B5A1B69556
:103D7000A7959795879586A397A3A0A7B1A7F801C4
:103D800082A593A5A4A5B5A5892B8A2B8B2BA9F475
:103D900082A193A1A4A1B5A1AC01BD0123E07695B8
:103DA0006795579547952A95D1F7841B950BA60BD8
:103DB000B70B82A793A7A4A7B5A7F80186A197A1DF
:103DC000A0A5B1A586A797A7A0ABB1AB82A593A5E7
:103DD000A4A5B5A582AB93ABA4ABB5AB8824839463
:103DE000912C0DC0F6E08F1304C0A985BA851C92F2
:103DF00006C0BFEF3B1203C0E985FA851082F1E0EF
:103E00008F16910409F409CF0E941212DC01CB0134
:103E100084199509A609B709F80126A937A940AD63
:103E200051AD281739074A075B0708F0F6CEC501E0
:103E30000E94FE1BF80184819581A681B7810196BD
:103E4000A11DB11D84839583A683B7830E9412129E
:103E5000F801FE966083718382839383F1E08F166D
:103E6000910409F055C0CE0101960E946215898126
:103E70009A810E94FD1A6091200570912105625F70
:103E80007F4FCE0101960E943A0ACE0103960E940E
:103E9000E01460912005709121056A5E7F4FCE018C
:103EA00001960E943A0A44E050E0BE016D5F7F4FE8
:103EB00081E090E00E94401A6091200570912105F8
:103EC0006E5E7F4FCE0101960E943A0A44E050E0B8
:103ED000BE016D5F7F4F85E090E00E94401A0E9416
:103EE000FC1A6091200570912105625E7F4FCE0122
:103EF00001960E943A0A8B819C81AD81BE8180939C
:103F00001C0590931D05A0931E05B0931F0517C0B7
:103F10008928A9F465CE8AE592E09A838983809105
:103F20003D0590913E05A0913F05B09140058B83E2
:103F30009C83AD83BE83CE0101960E9417168FE845
:103F400093E00E94671501E415E0D8014D918D01C1
:103F500050E060E070E020E18DE794E00E94270BE4
:103F6000B5E007341B0789F78DE794E00E94DD0B6D
:103F7000E8E6F2E0659174918AE294E00E94C3233E
:103F80008AE294E00E9467158AE592E09A83898329
:103F90001B821C821D821E82CE0107960E94621522
:103FA0008F8198850E94FD1A44E050E0BE016D5F4C
:103FB0007F4F8FE090E00E94101A0E94FC1A6DE77C
:103FC00074E0CE0101960E94930B8DE794E00E946D
:103FD000DD0B85E395E00E9470120E94B00164E65B
:103FE00070E080E090E00E94F30BF7CFBF92CF9299
:103FF000DF92EF92FF920F931F93CF93DF93EDE742
:10400000F4E01382128288EEC82E83E0D82EE12CD1
:10401000F12CC482D582E682F78288ED91E091830B
:10402000808385EC90E09587848784EC90E0978787
:10403000868780EC90E0918B808B81EC90E0938B75
:10404000828B82EC90E0958B848B86EC90E0978B52
:10405000868B118E128E138E148EE8E4F5E0CAE57D
:10406000D2E0D183C0831282138214821582EEE4DF
:10407000F5E0D183C0831282138214821582E4E5B5
:10408000F5E0D183C0831282138214821582EAE59F
:10409000F5E0D183C0831282138214821582EAE193
:1040A000F5E0D183C0831282138214821582E0E688
:1040B000F5E0D183C0831282138214821582E2E27A
:1040C000F5E0D183C0831282138214821582E6E662
:1040D000F5E0D183C0831282138214821582EAE54F
:1040E000F2E08FE993E0082E000C990B95A784A7C6
:1040F0008DEA93E0082E000C990B97A786A780E025
:1041000090E00E94A51C01E415E0F801808381E0A5
:1041100090E00E94A51CF801818382E090E00E945B
:10412000A51CF801828383E090E00E94A51CF801A1
:10413000838384E090E00E94A51CF801848385E0DD
:1041400090E00E94A51CF801858389E090E00E9420
:10415000A51C182F88E090E00E94A51C082F87E07E
:1041600090E00E94A51CB82E86E090E00E94A51C5D
:10417000EBE3F5E0D183C0838283B38204831583AC
:10418000E5E3F5E01382128280E492E0918380837C
:1041900080E590E095838483E8E2F5E01382128263
:1041A000C482D582E682F7828AE192E0918380839D
:1041B00084E08487DF91CF911F910F91FF90EF9062
:1041C000DF90CF90BF9008950F931F93CF93DF930D
:1041D0008230910510F482E090E0E0917205F09158
:1041E000730520E030E0A0E0B0E0309719F14081A5
:1041F00051810281138148175907C8F08417950728
:1042000069F4109731F012960C93129713961C9341
:1042100027C0009372051093730522C02115310544
:1042200019F04217530718F49A01BD01EF01DF019D
:10423000F801DBCF21153105F9F0281B390B2430AB
:10424000310580F48A819B816115710521F0FB01A4
:104250009383828304C09093730580937205FE015B
:10426000329644C0FE01E20FF31F819391932250D6
:104270003109398328833AC0209170053091710546
:10428000232B41F42091B2013091B3013093710599
:10429000209370052091B0013091B10121153105B5
:1042A00041F42DB73EB74091B4015091B501241BA4
:1042B000350BE0917005F0917105E217F307A0F45A
:1042C0002E1B3F0B2817390778F0AC014E5F5F4F6C
:1042D0002417350748F04E0F5F1F50937105409328
:1042E00070058193919302C0E0E0F0E0CF01DF918F
:1042F000CF911F910F910895CF93DF93009709F409
:1043000081C0FC01329713821282A0917205B09194
:104310007305109781F420813181820F931F2091C2
:104320007005309171052817390751F5F093710523
:10433000E093700567C0ED0120E030E0CE17DF07A5
:1043400040F44A815B819E0141155105F1F0EA017B
:10435000F5CFD383C28340815181840F951FC81745
:10436000D90759F488819981840F951F029691830A
:1043700080838A819B81938382832115310529F46F
:10438000F0937305E09372053DC0E901FB83EA8376
:1043900049915991C40FD51FEC17FD0761F4808135
:1043A0009181840F951F0296E90199838883828108
:1043B00093819B838A83E0E0F0E012968D919C913B
:1043C0001397009719F0FD01DC01F7CF8D919C91B7
:1043D00011979D012E5F3F4F820F931F2091700513
:1043E000309171052817390769F4309729F4109234
:1043F00073051092720502C013821282B093710588
:10440000A0937005DF91CF9108958F929F92AF9204
:10441000BF92CF92DF92EF92FF92CF93DF93EC01A6
:10442000688179818A819B8161157105810591057A
:1044300021F464E279ED8BE597E02DE133EF41E083
:1044400050E00E947E2449015A019B01AC01A7EA79
:10445000B1E40E949D246B017C01ACEEB4EFA50198
:1044600094010E94AB24DC01CB018C0D9D1DAE1D7F
:10447000BF1DB7FF03C00197A109B0488883998386
:10448000AA83BB83BC01CD019F77DF91CF91FF90C1
:10449000EF90DF90CF90BF90AF909F908F90089556
:1044A0008F929F92AF92BF92CF92DF92EF92FF9244
:1044B0006091B6017091B7018091B8019091B901F6
:1044C000611571058105910521F464E279ED8BE5B3
:1044D00097E02DE133EF41E050E00E947E24490156
:1044E0005A019B01AC01A7EAB1E40E949D246B0133
:1044F0007C01ACEEB4EFA50194010E94AB24DC0179
:10450000CB018C0D9D1DAE1DBF1DB7FF03C00197D4
:10451000A109B0488093B6019093B701A093B80168
:10452000B093B901BC01CD019F77FF90EF90DF9070
:10453000CF90BF90AF909F908F9008956093B601F9
:104540007093B7018093B8019093B9010895A0E0EA
:10455000B0E0EDEAF2E20C94B1245C016B017A0167
:104560006115710519F0FB0191838083E114F10459
:1045700029F0C7010297839708F0C9C0E501219689
:10458000F5011081812F90E00E94BA23892B11F050
:104590005E01F4CF1D3229F42196F501118101E06D
:1045A00007C01B3221F4E5012296F501118100E0DC
:1045B000E114F104B1F0F0E1EF16F10429F4B0C018
:1045C00010E3E114F10401F12AE0E216F104B1F183
:1045D00080E1E816F10471F0E8E0EE16F104F1F480
:1045E00013C0103341F588818F7D883549F71981D3
:1045F00022960260F0E1EF2EF12C88248A94982C08
:10460000A82CAFE0BA2E20C078E0E72EF12C882449
:104610008A94982CA82CEFE1BE2E16C06FEF7FEF86
:10462000CB0197010F2C000C440B550B0E945C240E
:1046300049015A0109C08AE0E82EF12C69E9862E69
:10464000982CA82C69E1B62E40E060E070E0CB0128
:1046500027010F2C000C66087708FE0150ED352E5F
:10466000310E29E0231570F42FEB210F2A3118F4B5
:1046700039EC332E06C02FE9210F2A3130F529EA13
:10468000322E310E232D30E02E153F05F4F44F3F2E
:10469000C9F086169706A806B90688F0A30192010C
:1046A0000E944C24232D30E040E050E0620F731F45
:1046B000841F951F621773078407950710F44FEF47
:1046C00001C041E021961081C8CFC114D10451F03E
:1046D000442311F0219703C001FF04C02297F60183
:1046E000D183C08300FF07C0909580957095619538
:1046F0007F4F8F4F9F4F4F3F79F482E290E090932E
:104700007505809374053FEF2FEF9FEF0DC040E0DC
:1047100030E020E090E008C0462F372F282F04C05B
:10472000103309F067CF5FCF642F732F822FCDB77F
:10473000DEB7E1E10C94CD24FC0188279927E894A9
:1047400021912032E9F3293010F02E30C8F32B32BA
:1047500041F02D3239F4689404C00E940124820F84
:10476000911D219120532A30C0F31EF4909581951C
:104770009F4F089591110C942324803219F0895091
:104780008550C8F70895FB01DC0105900D920020CB
:10479000E1F708954EE655E00E94CF230895FA010F
:1047A000A191B081009719F41097E1F0CD01DC01DF
:1047B000CD010D90002011F4C00113C0FB01219127
:1047C000222319F02015D9F7F3CFFB0121912015F1
:1047D00019F41E92119606C02223C1F70D900020F5
:1047E000A1F7D001FA01A193B0830895BB274A3005
:1047F00031F4992322F4BDE2909581959F4F0C945A
:104800000A247AE0979F902D879F802D910D112487
:104810000895BB27FB015527AA27880F991FAA1FB8
:10482000A41710F0A41B83955051B9F7A05DAA33CB
:1048300008F0A95DA193009779F7B111B193119296
:10484000CB010C942624992788270895DC01FC01CC
:10485000672F71917723E1F7329704C07C916D93B4
:1048600070836291AE17BF07C8F30895F999FECF20
:1048700092BD81BDF89A992780B50895262FF999A0
:10488000FECF1FBA92BD81BD20BD0FB6F894FA9A33
:10489000F99A0FBE01960895DB018F939F930E94B2
:1048A0009D24BF91AF91A29F800D911DA39F900D5C
:1048B000B29F900D11240895A1E21A2EAA1BBB1BD2
:1048C000FD010DC0AA1FBB1FEE1FFF1FA217B307DC
:1048D000E407F50720F0A21BB30BE40BF50B661FF2
:1048E000771F881F991F1A9469F7609570958095B6
:1048F00090959B01AC01BD01CF010895052E97FB5A
:104900001EF400940E94952457FD07D00E945C2459
:1049100007FC03D04EF40C949524509540953095A7
:1049200021953F4F4F4F5F4F08959095809570951B
:1049300061957F4F8F4F9F4F08950E94E724A59F59
:10494000900DB49F900DA49F800D911D112408958A
:10495000B7FF0C949D240E949D24821B930B089505
:104960002F923F924F925F926F927F928F929F927F
:10497000AF92BF92CF92DF92EF92FF920F931F936D
:10498000CF93DF93CDB7DEB7CA1BDB0B0FB6F8941E
:10499000DEBF0FBECDBF09942A88398848885F845E
:1049A0006E847D848C849B84AA84B984C884DF80CF
:1049B000EE80FD800C811B81AA81B981CE0FD11DB3
:1049C0000FB6F894DEBF0FBECDBFED010895A29FD4
:1049D000B001B39FC001A39F700D811D1124911DD3
:1049E000B29F700D811D1124911D0895692796278E
:1049F00069277827872778270895EE0FFF1F0590EE
:104A0000F491E02D0994A0E0B0E0E9E0F5E20C9427
:104A1000B424EC01009721F4CB010E94E420B4C03F
:104A2000FC01E60FF71F9C0122503109E217F30742
:104A300008F4A8C0D9010D911C911197061717070A
:104A4000B0F00530110508F49BC0C8010497861723
:104A5000970708F495C002501109061B170B019324
:104A600011936D937C93CF010E947C2189C05B01DF
:104A7000A01AB10A4C01800E911EA0917205B0914E
:104A80007305612C712CE12CF12C109709F446C0B0
:104A90008D919C911197A815B905B1F56C0142E073
:104AA000C40ED11CCA14DB0478F14C018A189B088F
:104AB000640142E0C40ED11C1296BC90129713966A
:104AC000AC91B5E0CB16D10440F0B282A3839182C1
:104AD0008082D9016D937C9309C00E5F1F4F800FB8
:104AE000911FF90191838083EB2DFA2FE114F104DA
:104AF00031F0D7011396FC93EE93129741C0F093D7
:104B00007305E09372053CC06816790608F43C0111
:104B10007D0112960D90BC91A02DB7CF80917005AC
:104B20009091710588169906E1F466167706C8F427
:104B30008091B0019091B101009741F48DB79EB77B
:104B40004091B4015091B501841B950BE817F9070A
:104B5000C8F4F0937105E0937005F90171836083E7
:104B60000FC0CB010E94E4207C01009759F0A801FE
:104B7000BE010E94DB25CE010E947C21C70104C03A
:104B8000CE0102C080E090E0CDB7DEB7EEE00C943D
:104B9000D02481E090E0F8940C941E26FB01DC0107
:104BA00004C08D910190801921F441505040C8F704
:104BB000881B990B0895FB01DC0102C001900D9246
:104BC00041505040D8F70895FB01DC010D900020C2
:104BD000E9F7119701900D920020E1F70895FC018B
:104BE0008191861721F08823D9F799270895319765
:104BF000CF010895FB01DC0101900D920020E1F747
:104C00000895FB01DC014150504030F08D9101903E
:104C1000801919F40020B9F7881B990B0895FB013E
:104C2000DC014150504048F001900D920020C9F73E
:104C300001C01D9241505040E0F70895F894FFCF15
:104C4000FF0000000000000000000000FF00000066
:104C50000000000000000000FF0000000000000055
:104C600000000000FF000000000000000000000045
:104C7000FF0000000000000000000000FF00000036
:104C80000000000000000000FF0000000000000025
:104C900000000000FF000000000000000000000015
:104CA000FF0000000000000000000000FF00000006
:104CB0000000000000000000FF00000000000000F5
:104CC00000000000FF0000000000000000000000E5
:104CD000FF0000000000000000000000FF000000D6
:104CE000000000000000000004020000000300C0FB
:104CF000000076058000010000005D00020304054D
:104D0000060708090E0F101112137D007B00010029
:104D10005E00000000000000E60756088707330821
:104D2000B8079607AA0700000000800856087D19FA
:104D3000550880088008800800000000800880086E
:104D40007D19800880088008800880088008800815
:104D500080088008800800000000D30E03107D1931
:104D6000D20EB10F4F0F0F0F4614E7144B0F051360
:104D7000E112CA0EF50EF30EBF0EE90E00000000A0
:104D8000A90EDA137D195508701200000000800882
:104D900056087D19550800000000930B0000000024
:104DA000800800000000F90E98107D19F80E5C19BB
:104DB000880F320F761C2311FE1BDD10A519BA0FC8
:104DC0009311690F741964196019726573657474AD
:104DD000696E67005475726E696E67206368616EF4
:104DE0006E656C2000202870696E200029206F6697
:104DF000662061667465722000207365636F6E645F
:104E000073002F005265736F757263653A2000500E
:104E10006172616D313A2000506172616D323A20E9
:104E2000007374617465002C002F656570726F6D7E
:104E30000074696D657200706172616D6574657290
:104E4000207265717569726564004368616E6E6594
:104E50006C3A20004475726174696F6E3A200049A3
:104E60006E76616C6964206368616E6E656C2F6438
:104E700075726174696F6E00226368616E6E656C35
:104E8000223A002C226475726174696F6E223A00B6
:104E9000737769746368002070696E20002F7377E0
:104EA000697463683A20002F7265626F6F74002F17
:104EB000726573657400737973003430340045454E
:104EC00050524F4D2E726561642830293A20004DB2
:104ED00041433A200057495A6E6574000D0A00227A
:104EE0007265626F6F74223A747275650022726522
:0A4EF000736574223A747275650050
:00000001FF
