:100000000C9461020C9489020C9489020C9489026C
:100010000C9489020C9489020C9489020C94890234
:100020000C9489020C9489020C9489020C94890224
:100030000C9489020C9489020C9489020C94890214
:100040000C9429130C9489020C94BF1B0C94991BDB
:100050000C9489020C9489020C9489020C948902F4
:100060000C943B0E0C94890207634236B79BD8A7C9
:100070001A39685618AEBAAB558C1D3CB7CC5763CD
:10008000BD6DEDFD753EF6177231BF000000803F7B
:1000900000407A10F35A00A0724E18090010A5D43F
:1000A000E80000E87648170000E40B54020000CA9C
:1000B0009A3B000000E1F5050000809698000000E2
:1000C00040420F000000A086010000001027000041
:1000D0000000E803000000006400000000000A00C7
:1000E000000000000100000000002C76D888DC67CA
:1000F0004F0823DFC1DFAE59E1B1B796E5E3E45322
:10010000C63AE651997696E8E6C28426EB898C9B3E
:1001100062ED407C6FFCEFBC9C9F40F2BAA56FA5DE
:10012000F490055A2AF75C936B6CF9676DC11BFC60
:10013000E0E40D47FEF520E6B500D0ED902E03007B
:10014000943577050080841E080000204E0A0000C8
:1001500000C80C333333330F986E12831141EF8D87
:100160002114893BE65516CFFEE6DB18D1844B38C7
:100170001BF77C1D901DA4BBE424203284725E22F8
:100180008100C9F124ECA1E53D27005EBCE2613F9E
:10019000DD83C29C7E20A3FD1F41009D23BE46DB64
:1001A00065F88C11AF32CA57E974000000002500D1
:1001B00028002B00000000080002010000030407D3
:1001C00000000000000000002C22757074696D654D
:1001D000223A00226669726D77617265223A223195
:1001E0002E302E306222002268617264776172655F
:1001F000223A22726F6F6D2D76302E3162222C00E2
:10020000226572726F72223A22496E76616C69645D
:10021000206368616E6E656C22007D007B00226148
:10022000646472657373223A002C2276616C756582
:10023000223A002C22706F736974696F6E223A0043
:100240002C2270696E223A00226368616E6E656CC2
:10025000223A002C226368616E6E656C73223A5BF1
:1002600000226D657472696373223A7B002C2270E0
:10027000686F746F223A002C226C65616B31223AF0
:10028000002C226C65616B30223A002C22636F32A5
:10029000223A002C22776174657231223A002C22B6
:1002A000776174657230223A002C22767064223AAB
:1002B000002C2268656174496E64657832223A00C8
:1002C0002C2268756D696469747932223A002C2297
:1002D00074656D704332223A002C2274656D70464D
:1002E00032223A002C2268656174496E6465783167
:1002F000223A002C2268756D696469747931223A5A
:10030000002C2274656D704331223A002C227465F2
:100310006D704631223A002C2268656174496E6422
:10032000657830223A002C2268756D6964697479A9
:1003300030223A002C2274656D704330223A002C32
:100340002274656D704630223A00226D656D223A46
:1003500000537769746368696E67206F666600533F
:100360007769746368696E67206F6E0052455354F5
:100370002073657276696365206C697374656E6954
:100380006E67206F6E3A2000582D506F776572654A
:10039000642D42793A2043726F7044726F69640031
:1003A000436F6E74656E742D547970653A20617078
:1003B000706C69636174696F6E2F6A736F6E004849
:1003C0005454502F312E312035303020496E746511
:1003D000726E616C20536572766572204572726F21
:1003E0007200485454502F312E3120343034204E76
:1003F0006F7420466F756E6400485454502F312E30
:100400003120323030204F4B004448435020466169
:10041000696C656400496E697469616C697A696EBA
:100420006720726F6F6D2E2E2E00000000002300DB
:100430002600290004040404040404040202020245
:100440000202030303030303010204081020408097
:1004500001020408102001020408102015040904F8
:10046000F903E203BF03A00388036C035F03510396
:100470004A033F033403260317030C030103F3026B
:10048000E402D902CE02C002B102A9029E02930286
:100490008B02810277026D02610253024802400220
:1004A000330229021E021C021A0200020000000090
:1004B000E701D301C80100000000240027002A0042
:1004C000F32C11241FBECFEFD8E0DEBFCDBF12E06A
:1004D000A0E0B1E0E2ECF3E702C005900D92AE3B84
:1004E000B107D9F725E0AEEBB2E001C01D92AF38FD
:1004F000B207E1F712E0C1E6D2E004C02197FE01A5
:100500000E94BE38C036D107C9F70E94D3260C948A
:10051000DF390C9400002F923F924F925F926F92BE
:100520007F928F929F92AF92BF92CF92DF92EF9283
:10053000FF920F931F93CF93DF93CDB7DEB7C95FC1
:10054000D1400FB6F894DEBF0FBECDBF0E941D1381
:100550004B015C0100E011E0F8E42F2EF1E03F2EAA
:10056000412C512C32014A94F80180819181A28161
:10057000B3818F3F9105A105B105B9F1C480D58044
:10058000E680F780A50194012C193D094E095F0909
:10059000C251DE4F288339834A835B83CE5ED140CC
:1005A0004085518562857385C251DE4FC880D980F0
:1005B000EA80FB80CE5ED1404C155D056E057F055F
:1005C000A0F460E00E942E1BD8014D925D926D92C6
:1005D0007C921397F801148215821682178218965E
:1005E0001D921D921D921C921B97045F1F4F201697
:1005F000310609F0B9CF8CED94E00E946A140DEA3F
:1006000013E0B12C78EE472E73E0572E612C712C3D
:10061000E9EF8E2EE1E09E2E1C821B824D825E82CF
:100620006F8278869A828982BD86F8012191319104
:100630008F018091E0049091E1042817390711F5AA
:10064000CE0101960E947313873111F08C31D1F4E1
:10065000CE0101960E949210892BA1F02B813C8142
:100660008D819E81AF81B885C984DA84EB84FC8456
:10067000CA50DE4FC882D982EA82FB82C65FD1406F
:10068000BD840BC0B39464E0D62EBD10C5CF88EEF8
:1006900093E0A0E0B0E020E030E03093D20420937B
:1006A000D1048093D3049093D404A093D504B09341
:1006B000D604CA50DE4FC880D980EA80FB80C65F6E
:1006C000D140C092D704D092D804E092D904F092DD
:1006D000DA04B092DB048E0108581E4F84E6D8017C
:1006E0001D928A95E9F7B4E0BB1699F078016E0186
:1006F000E4E2CE1AEEEFDE0A06C08FEC94E00E9430
:100700009210892B41F48FEC94E00E94EC1381113C
:10071000F4CF10E092C58FEC94E00E9430108A3044
:1007200049F08D3039F0CE14DF0421F0D7018D93DC
:100730007D01E9CFCE51DE4F19821882C25ED140D1
:10074000CC51DE4F19821882C45ED140CA51DE4FAF
:1007500019821882C65ED140F80101900020E9F7A5
:100760003197AF01401B510BB801CE018E519E4F06
:100770000E94161C60E2CE018E519E4F0E94FD1B0E
:100780009C0140E050E0BE016E517E4FC6010E94C8
:10079000561C6FE2CE018E519E4F0E94FD1B7C01C4
:1007A000CA51DE4F88819981C65ED140E816F906AC
:1007B00098F4CE51DE4FA880B980C25ED14060E28D
:1007C00070E0C5018E0D9F1D0E94B039009721F089
:1007D0009C012A193B0902C02FEF3FEFA701BE0180
:1007E0006E517E4FCE0101960E94561CCE51DE4FB7
:1007F00088819981C25ED1400097E9F069817A8150
:1008000061157105B1F0CC51DE4F48815981C45E4C
:10081000D1402D813E814217530758F00E94BB39C9
:100820008D819E81CA51DE4F99838883C65ED140F7
:100830001CC00E946E2F89819A81CE51DE4F998310
:100840008883C25ED1408B819C81CC51DE4F9983DD
:100850008883C45ED1408D819E81CA51DE4F9983C9
:100860008883C65ED1401A82198289819A810E944A
:100870006E2FCA51DE4FE880F980C65ED140E11488
:10088000F10411F4F80114C0F3E6EF16F10418F0C6
:1008900053E6E52EF12CCE51DE4F68817981C25EA0
:1008A000D140A701C8010E94D039F801EE0DFF1D0B
:1008B000108261E472E0C8010E94BC318C0161E4E5
:1008C00072E080E090E00E94BC317C0161E472E063
:1008D00080E090E00E94BC315C0145E050E063E4C0
:1008E00072E0C8010E94C239892B09F0C9C26BE6C7
:1008F00071E0CE0101960E94BB39E8E9F4E0659110
:10090000749184E093E00E94B53164E073E0CE011D
:1009100001960E94A539E0E7F4E06591749184E0C6
:1009200093E00E94B53164E073E0CE0101960E942D
:10093000A5398091890590918A059E0128513E4FE5
:100940005901009721F4C9018F58954004C0A901AD
:10095000481B590BCA014AE066E373E00E94E83184
:1009600066E373E0CE0101960E94A539E2E7F4E068
:100970006591749184E093E00E94B53164E073E086
:10098000CE0101960E94A539609100037091010388
:10099000809102039091030306E313E022E044E018
:1009A0000E94B62EB801CE0101960E94A539E4E757
:1009B000F4E06591749184E093E00E94B53164E0C5
:1009C00073E0CE0101960E94A5396091FC027091FE
:1009D000FD028091FE029091FF0222E044E00E941D
:1009E000B62EB801CE0101960E94A539E6E7F4E0E3
:1009F0006591749184E093E00E94B53164E073E006
:100A0000CE0101960E94A5396091F8027091F90219
:100A10008091FA029091FB0222E044E00E94B62EFF
:100A2000B801CE0101960E94A539E8E7F4E065918E
:100A3000749184E093E00E94B53164E073E0CE01EC
:100A400001960E94A5396091F4027091F50280919F
:100A5000F6029091F70222E044E00E94B62EB8011F
:100A6000CE0101960E94A539EAE7F4E06591749100
:100A700084E093E00E94B53164E073E0CE0101961A
:100A80000E94A5396091F0027091F1028091F2020A
:100A90009091F30222E044E00E94B62EB801CE010C
:100AA00001960E94A539ECE7F4E06591749184E029
:100AB00093E00E94B53164E073E0CE0101960E949C
:100AC000A5396091EC027091ED028091EE02909157
:100AD000EF0222E044E00E94B62EB801CE0101965A
:100AE0000E94A539EEE7F4E06591749184E093E00B
:100AF0000E94B53164E073E0CE0101960E94A539F1
:100B00006091E8027091E9028091EA029091EB0213
:100B100022E044E00E94B62EB801CE0101960E9468
:100B2000A539E0E8F4E06591749184E093E00E94D7
:100B3000B53164E073E0CE0101960E94A539609161
:100B4000E4027091E5028091E6029091E70222E0D2
:100B500044E00E94B62EB801CE0101960E94A5394C
:100B6000E2E8F4E06591749184E093E00E94B5318D
:100B700064E073E0CE0101960E94A5396091E00225
:100B80007091E1028091E2029091E30222E044E060
:100B90000E94B62EB801CE0101960E94A539E4E864
:100BA000F4E06591749184E093E00E94B53164E0D3
:100BB00073E0CE0101960E94A5396091DC0270912C
:100BC000DD028091DE029091DF0222E044E00E948B
:100BD000B62EB801CE0101960E94A539E6E8F4E0F0
:100BE0006591749184E093E00E94B53164E073E014
:100BF000CE0101960E94A5396091D8027091D90268
:100C00008091DA029091DB0222E044E00E94B62E4D
:100C1000B801CE0101960E94A539E8E8F4E065919B
:100C2000749184E093E00E94B53164E073E0CE01FA
:100C300001960E94A5396091D4027091D5028091ED
:100C4000D6029091D70222E044E00E94B62EB8016D
:100C5000CE0101960E94A539EAE8F4E0659174910D
:100C600084E093E00E94B53164E073E0CE01019628
:100C70000E94A5396091D0027091D1028091D20278
:100C80009091D30222E044E00E94B62EB801CE013A
:100C900001960E94A539ECE8F4E06591749184E036
:100CA00093E00E94B53164E073E0CE0101960E94AA
:100CB000A5396091CC027091CD028091CE029091C5
:100CC000CF0222E044E00E94B62EB801CE01019688
:100CD0000E94A539EEE8F4E06591749184E093E018
:100CE0000E94B53164E073E0CE0101960E94A539FF
:100CF0006091C8027091C9028091CA029091CB02A2
:100D000022E044E00E94B62EB801CE0101960E9476
:100D1000A539E0E9F4E06591749184E093E00E94E4
:100D2000B53164E073E0CE0101960E94A53960916F
:100D3000C4027091C5028091C6029091C70222E060
:100D400044E00E94B62EB801CE0101960E94A5395A
:100D5000E2E9F4E06591749184E093E00E94B5319A
:100D600064E073E0CE0101960E94A5394AE0B80123
:100D70008091C2029091C3020E94E831B801CE0175
:100D800001960E94A539E4E9F4E06591749184E04C
:100D900093E00E94B53164E073E0CE0101960E94B9
:100DA000A5394AE0B8018091C0029091C1020E9429
:100DB000E831B801CE0101960E94A539E6E9F4E0D8
:100DC0006591749184E093E00E94B53164E073E032
:100DD000CE0101960E94A5394AE0B8018091BE0279
:100DE0009091BF020E94E831B801CE0101960E94A5
:100DF000A53969E671E0CE0101960E94A539EAE9BC
:100E0000F4E06591749184E093E00E94B53164E070
:100E100073E0CE0101960E94A5394DE5E42E41E034
:100E2000F42E00E010E0D7019C9011969C91B2E066
:100E3000EB0EF11C4AE0B501892D0E94E831892DA5
:100E40000E94051B4AE0BE0165517E4F0E94E831B9
:100E5000BE0165517E4FCE0101960E94A539053035
:100E6000110531F069E472E0CE0101960E94A539C6
:100E70000F5F1F4F06301105B1F66BE571E07FC0C3
:100E800045E050E06BE472E0C8010E94C239892B52
:100E900009F081C0E114F10409F4C1C1E2E9EE16E0
:100EA000E2E0FE0609F4BBC1C7010E948E317C015D
:100EB0004AE050E060E070E0C5010E9499302B01EB
:100EC0003C01F6E0EF16F104A0F5672B682B692BC7
:100ED00081F1F701EE0FFF1FE35AFE4FA080B180B2
:100EE0008CE08E9D80018F9D100D112400501F4FAE
:100EF000C501BB0CAA0BBB0BF80180839183A283B5
:100F0000B3830E941D13D80114966D937D938D9326
:100F10009C931797A8EEB3E0A30192010E94E535D8
:100F2000F801608771878287938761E08A2D0E942C
:100F30002E1B6BE671E0CE0101960E94BB3961E584
:100F400072E0CE0101960E94A5394AE066E373E0A3
:100F5000C7010E94E83166E373E0CE0101960E946A
:100F6000A5396CE572E0CE0101960E94A5394AE0F0
:100F700066E373E0C2010E94E83166E373E0CE01EC
:100F800001960E94A53969E671E0CE0101960E94A2
:100F9000A53910E00EC146E050E069E672E0C801F4
:100FA0000E94C239892BD1F4C7010E948E318C0175
:100FB000C5010E948E310630110508F452C16BE65E
:100FC00071E0CE0101960E94BB39EAEAF4E0659136
:100FD000749184E093E00E94B53140C146E050E056
:100FE00061E772E0C8010E94C239892B09F043C051
:100FF00060E772E084E294E00E947D1DB70184E224
:1010000094E00E947D1DB50184E294E00E947D1D64
:10101000C5010E948E31182FC7010E948E31612FA9
:101020000E9497266BE671E0CE0101960E94BB39C3
:10103000E4EAF4E06591749184E093E00E94B531B4
:1010400064E073E0CE0101960E94A539B701CE019C
:1010500001960E94A539E2EAF4E06591749184E07A
:1010600093E00E94B53164E073E0CE0101960E94E6
:10107000A539B50184CF46E050E068E772E0C801C9
:101080000E94C239892B49F46BE671E0CE010196CA
:101090000E94BB39ECEAF4E013C045E050E06FE792
:1010A00072E0C8010E94C239892BF1F40E949B268C
:1010B0006BE671E0CE0101960E94BB39EEEAF4E0E6
:1010C0006591749184E093E00E94B53164E073E02F
:1010D000CE0101960E94A53969E671E0CE01019624
:1010E0000E94A53911E065C043E050E065E872E078
:1010F000C8010E94C239892B09F03AC06BE671E041
:10110000CE0101960E94BB39E0EBF4E06591749149
:1011100084E093E00E94B53164E073E0CE01019673
:101120000E94A539E2EBF4E06591749184E093E0CC
:101130000E94B53164E073E0CE0101960E94A539AA
:10114000E4EBF4E06591749184E093E00E94B531A2
:1011500064E073E0CE0101960E94A5390E941D1340
:10116000DC01CB014AE064E073E00E94E83176C024
:10117000E2E6F4E06591749184E093E00E94B53179
:1011800064E073E08FEC94E00E947D1DE8E6F4E0FB
:101190006591749184E093E00E94B53164E073E05E
:1011A0008FEC94E00E947D1D8FEC94E00E94791DED
:1011B00036C0E0E6F4E06591749184E093E00E942B
:1011C000B53164E073E08FEC94E00E947D1DE8E6A9
:1011D000F4E06591749184E093E00E94B53164E09D
:1011E00073E08FEC94E00E947D1DE6E6F4E06591EB
:1011F000749184E093E00E94B53164E073E08FEC79
:1012000094E00E947D1D8FEC94E00E94791DBE0148
:101210006F5F7F4F8FEC94E00E947D1D01C010E056
:10122000D6018D919C910E946E2FCE51DE4F888108
:101230009981C25ED1400E946E2F64E670E080E02A
:1012400090E00E94E3128FEC94E00E9410141123AE
:1012500009F45EC0E0E0F0E009955AC064E073E094
:101260008ECE000F111F019711F461E001C060E004
:10127000F801E35AFE4F80810E942E1B6BE671E05D
:10128000CE0101960E94BB39ECE9F4E065917491BE
:1012900084E093E00E94B53164E073E0CE010196F2
:1012A0000E94A539B701CE0101960E94A539EEE949
:1012B000F4E06591749184E093E00E94B53164E0BC
:1012C00073E0CE0101960E94A539F801E35AFE4F62
:1012D00010814AE064E073E0812F91810E94E8313F
:1012E00064E073E0CE0101960E94A539E0EAF4E0E3
:1012F0006591749184E093E00E94B53164E073E0FD
:10130000CE0101960E94A539812F0E94051B2ACF8C
:10131000C750DE4F0FB6F894DEBF0FBECDBFDF91D2
:10132000CF911F910F91FF90EF90DF90CF90BF90E2
:10133000AF909F908F907F906F905F904F903F9075
:101340002F900895FC01818D928D0895FC01848970
:101350009589089529E332E0FC0131832083FB0164
:101360004089518962897389FC0142835383648374
:1013700075830895DC01ED91FC91048CF58DE02DD1
:10138000099480E008952A9A08952A9808958EBDB8
:1013900000000DB407FEFDCF8EB508958FEF9FEFCF
:1013A00008958FEF9FEF08958091AA0390E09195A3
:1013B00081959109089580E090E00895CF93DF939F
:1013C000CB01EA01642F0E946F26CE01DF91CF91FD
:1013D0000895CF93DF931F92CDB7DEB7698361E0A5
:1013E000CE0101960E946F2681E090E00F90DF9180
:1013F000CF910895FC011382128288EE93E0A0E061
:10140000B0E084839583A683B78381E791E09183DD
:10141000808389E392E097878687108A118A128AEF
:10142000138A84E0808F0895AF92BF92CF92DF92AB
:10143000EF92FF920F931F93CF93DF93CDB7DEB759
:10144000AF970FB6F894DEBF0FBECDBF7C015B0136
:101450006A0109E312E01A8309831B821C821D8240
:101460001E82CE0109960E94FA091BA70AA71CA694
:101470001DA61EA61FA68091C3049091C404A0912E
:10148000C504B091C6048EA39FA3A8A7B9A78B8358
:101490009C83AD83BE8318861F82AE01465D5F4F7D
:1014A000B501CE0101960E94891881309105B1F4F1
:1014B000D701ED91FC910488F589E02D1DA30CA3C3
:1014C0008CA59DA5AEA5BFA58EA39FA3A8A7B9A7D0
:1014D000A601BE016C5D7F4FC7010995AF960FB69F
:1014E000F894DEBF0FBECDBFDF91CF911F910F915A
:1014F000FF90EF90DF90CF90BF90AF900895CF9284
:10150000DF92EF92FF920F931F93CF93DF93EC0143
:101510007A018B016C01C40ED51ECC15DD05A9F036
:101520000E94C5098FE00E94C7098D2F0E94C7093C
:101530008C2F0E94C709219680E00E94C709F801FC
:1015400081938F010E94C309E8CFC701DF91CF913A
:101550001F910F91FF90EF90DF90CF900895CF9261
:10156000DF92EF92FF920F931F93CF93DF93EC01E3
:101570007A018B016C01C40ED51ECC15DD05A1F0DE
:101580000E94C50980EF0E94C7098D2F0E94C709DC
:101590008C2F0E94C7092196F80181918F010E942A
:1015A000C7090E94C309E9CFC701DF91CF911F91FD
:1015B0000F91FF90EF90DF90CF9008951F93CF93FE
:1015C000DF93D82F192FC62F0E94C50980EF0E94E4
:1015D000C709812F0E94C7098D2F0E94C7098C2F30
:1015E0000E94C7090E94C30981E0DF91CF911F913A
:1015F00008959B0190E00496982F8827642F820F0E
:10160000931F0C94DE0ACF93DF9390E00496982FFB
:101610008827EC01C60FD71F0E94C5098FE00E94E2
:10162000C7098D2F0E94C7098C2F0E94C70980E02F
:101630000E94C709C82F0E94C3098C2FDF91CF9148
:1016400008951F93CF93DF93182F66E270E00E94F6
:10165000030BC82FD0E067E270E0812F0E94030BDC
:10166000DC2FCC279E01282BC901DF91CF911F9140
:1016700008951F93CF93DF93182F60E270E00E94CC
:10168000030BC82FD0E061E270E0812F0E94030BB2
:10169000DC2FCC279E01282BC901DF91CF911F9110
:1016A0000895CF93DF93C82FD62F472F60E170E0C6
:1016B0000E94F90A4D2F61E170E08C2FDF91CF91EC
:1016C0000C94F90A90E0982F882744E050E0845F5A
:1016D0009B4F0C94AF0A08958CBD9DBD0895CF9289
:1016E000DF92FF920F931F93CF93DF9300D0CDB77C
:1016F000DEB7F82E6B01CE0101960E948C22898103
:101700009A810E946C0B68E270E08F2D0E94030B9F
:10171000082F10E069E270E08F2D0E94030B702FFC
:101720006627682B21E030E0A6018F2D0E94C3239D
:1017300081E090E00F900F90DF91CF911F910F917A
:10174000FF90DF90CF900895DF92EF92FF920F937A
:101750001F93CF93DF9300D0CDB7DEB7D82ECE0145
:1017600001960E948C2289819A810E946C0BE12C47
:10177000F12C8D2D0E94210B8C01892B21F08D2DB8
:101780000E94210B7C010E151F0599F7C8010F90CF
:101790000F90DF91CF911F910F91FF90EF90DF900D
:1017A00008958F929F92BF92CF92DF92EF92FF9215
:1017B0000F931F93CF93DF9300D0CDB7DEB7B82E32
:1017C0006B017A01CE0101960E948C2289819A8157
:1017D0000E946C0B812C912C8B2D0E94210B8C0173
:1017E000892B21F08B2D0E94210B4C010815190526
:1017F00099F70115110599F463E070E08B2D0E94B3
:10180000030B8431D9F18823C9F101E010E08C3158
:1018100011F400E010E01195019511092FC0E016B8
:10182000F1060CF487011016110644F568E270E029
:101830008B2D0E94030BE82EF12C69E270E08B2DBA
:101840000E94030BFE2CEE24E82A9801A601B701A2
:101850008B2D0E94C323E00EF11E4F2D68E270E035
:101860008B2D0E94F90A4E2D69E270E08B2D0E94AB
:10187000F90A60E470E08B2D0E947C22C8010F9071
:101880000F90DF91CF911F910F91FF90EF90DF901C
:10189000CF90BF909F908F9008951F93CF93DF9329
:1018A00000D0CDB7DEB7182FCE0101960E948C2252
:1018B00089819A810E946C0B60E170E0812F0E9407
:1018C0007C224FEF62E070E0812F0E94F90A0F90B6
:1018D0000F90DF91CF911F910895CF93DF93EC018B
:1018E000888D843061F00E944D0CE88DF0E0EE0FA1
:1018F000FF1FE355FC4F1182108284E0888FDF9137
:10190000CF910895DF92EF92FF920F931F93CF93A1
:10191000DF9300D0CDB7DEB7182FD62E7A01022F75
:101920000E944D0CCE0101960E948C2289819A81E1
:101930000E946C0B4D2D402B60E070E0812F0E94C7
:10194000F90AE114F10459F4E090AB03F090AC0310
:101950008FEFE81AF80AF092AC03E092AB034F2D38
:1019600064E070E0812F0E94F90A4E2D65E070E07E
:10197000812F0E94F90A61E070E0812F0E947C2291
:1019800081E00F900F90DF91CF911F910F91FF9009
:10199000EF90DF9008951F93CF93DF9300D0CDB7E2
:1019A000DEB7182FCE0101960E948C2289819A8180
:1019B0000E946C0B63E070E0812F0E94030B0F907C
:1019C0000F90DF91CF911F910895EF92FF921F9397
:1019D000CF93DF93FC01208D243011F080E01CC0F8
:1019E0007B01EC0110E0812F0E94CB0C811102C021
:1019F000188F05C08831E1F31F5F1430A1F7888D7F
:101A0000843061F3FD86EC861A8E198E20E0A701E2
:101A100062E00E94820C81E0DF91CF911F91FF90E4
:101A2000EF900895CF92DF92EF92FF921F93CF93A2
:101A3000DF93EC011F81662311F0912F01C090E02C
:101A4000288530E0220F331F265D3B4FA0E0B0E039
:101A5000F90145915491FA0180818123AD0160E043
:101A600070E098130FC01196CD84DE84EF84F8885F
:101A70004C155D056E057F0558F33FEF2FEF8FEF97
:101A80009FEF03C03A2F252FCB01632F722FDF91D9
:101A9000CF911F91FF90EF90DF90CF900895CF935B
:101AA000DF93EC0162E08D810E945D1B0E941D139B
:101AB000DC01CB01805D9740A109B10989879A8734
:101AC000AB87BC87DF91CF910895DC0180E0615046
:101AD00098F02D91982F9227E92FEF70F0E0E657BC
:101AE000FE4F249192959F70E92FF0E0E656FE4F4D
:101AF000E491822F8E27EBCF0895FC019081018025
:101B0000F281E02DF8948181892B81832281892FB4
:101B1000809528232283A7E0B0E01197F1F7218177
:101B200082238183A3E2B0E01197F1F7808178945A
:101B3000EFECF0E03197F1F7982381E009F480E0D1
:101B40000895FC0190810180F281E02D892F80951C
:101B500060FF12C0F8942281822382838181892BC5
:101B60008183A3E2B0E01197F1F78281982B9283F1
:101B7000789487ED90E011C0F894228182238283CB
:101B80008181892B8183AFEFB0E01197F1F78281DA
:101B9000982B928378948FE090E00197F1F7089565
:101BA000DF92EF92FF920F931F93CF93DF93EC019D
:101BB000D62EE42E08E010E0FF24F39461E08D2D92
:101BC0008F2109F460E0CE010E94A10DFF0C0150AD
:101BD0001109A1F7E11010C0F894E981FA8191810F
:101BE0008881809589238183E981FA819281888126
:101BF0008095892382837894DF91CF911F910F91F3
:101C0000FF90EF90DF900895DC012C911196ED91FB
:101C1000FC911297F8948181922F9095892381836A
:101C200078948DE743E050E0815021F1DA0111977B
:101C3000F1F730813223C1F3F894828189238283C2
:101C40008181822B81837894ABE7B7E01197F1F71C
:101C5000F89481819823918383E191E00197F1F7D2
:101C60008081282381E009F080E07894E3E6F6E0C3
:101C70003197F1F708951F920F920FB60F9211242A
:101C80002F933F934F935F936F937F938F939F9384
:101C9000AF93BF93EF93FF938091B900887F803615
:101CA00009F49CC068F5883209F45BC090F4803177
:101CB00009F454C038F4882309F4F2C0883009F4D8
:101CC0004DC0F2C0883109F44CC0803209F45DC0C7
:101CD000EBC0803409F468C048F4803309F455C07F
:101CE000883309F0E1C080938403D4C0803509F4BF
:101CF0004FC0883509F45DC0883409F0D5C0D2C022
:101D0000883909F4C3C0A8F4883709F467C038F4E7
:101D1000883609F463C0803709F460C0C5C08838CC
:101D200009F4B4C0803909F45FC0803809F0BCC040
:101D30005BC0803B09F484C038F4803A09F466C083
:101D4000883A09F47DC0B0C0803C09F4A3C0883C47
:101D500009F4A0C0883B09F486C0A6C08091A903FD
:101D600010C09091A8038091A703981770F5E09197
:101D7000A80381E08E0F8093A803F0E0E957FC4FA1
:101D800080818093BB0085EC82C0809384038AC0ED
:101D9000E091A80381E08E0F8093A8038091BB009F
:101DA000F0E0E957FC4F80839091A8038091A7034E
:101DB0006AC0E091A80381E08E0F8093A803809110
:101DC000BB00F0E0E957FC4F8083809186038111CE
:101DD00069C081E08093850384EA5DC083E08093DD
:101DE000610310928303CFCF80918303803208F088
:101DF0004DC0E091830381E08E0F80938303809137
:101E0000BB00F0E0ED59FC4F8083BDCF85EC8093A3
:101E1000BC001092610380918303803230F4E09122
:101E20008303F0E0ED59FC4F10826091830370E072
:101E300083E693E0E0E0F0E009951092830334C07C
:101E400084E0809361031092620310926003E0E0EB
:101E5000F0E0099580916003811105C081E08093D5
:101E6000600310924003E091620381E08E0F809343
:101E70006203F0E0E05CFC4F80818093BB009091B6
:101E8000620380916003981708F47DCF85E8809302
:101E9000BC000AC085EC8093BC001092610304C0B2
:101EA000109284030E946526FF91EF91BF91AF913C
:101EB0009F918F917F916F915F914F913F912F9162
:101EC0000F900FBE0F901F9018953FB7F894809118
:101ED000BA039091BB03A091BC03B091BD0326B59A
:101EE000A89B05C02F3F19F00196A11DB11D3FBF52
:101EF000BA2FA92F982F8827820F911DA11DB11DE0
:101F0000BC01CD0142E0660F771F881F991F4A95DB
:101F1000D1F70895CF93DF931F92CDB7DEB76983D2
:101F2000DC01ED91FC910280F381E02D41E050E075
:101F3000BE016F5F7F4F09950F90DF91CF9108959C
:101F4000FC019485FB018485981303C081E09430E3
:101F500009F480E0089521E0FC018485843009F4CF
:101F600020E0822F08950895CF93DF931F92CDB77D
:101F7000DEB76983DC01ED91FC910280F381E02DF5
:101F800041E050E0BE016F5F7F4F09950F90DF91F8
:101F9000CF910895DC01ED91FC91068CF78DE02D39
:101FA000099591E089270895862F089581E0862775
:101FB00008950895CF93DF931F92CDB7DEB769835D
:101FC000DC01ED91FC910280F381E02D41E050E0D5
:101FD000BE016F5F7F4F09950F90DF91CF910895FC
:101FE0000F931F93CF93DF931F92CDB7DEB78C0172
:101FF000DC01ED91FC910084F185E02D0995892BA0
:1020000051F0BE016F5F7F4FF80184850E946F0B16
:10201000898190E002C08FEF9FEF0F90DF91CF9109
:102020001F910F910895CF93DF931F92CDB7DEB725
:10203000FC01218D328D232B49F0BE016F5F7F4F54
:10204000808D0E946F0B898190E002C08FEF9FEF1F
:102050000F90DF91CF910895FC0184850C94D10BF2
:10206000CF93DF931F92CDB7DEB741E050E0BE01C2
:102070006F5F7F4FFC0184850E94D10B18161906F3
:102080001CF4898190E002C08FEF9FEF0F90DF91E9
:10209000CF910895CF93DF93FC01218D328D2115CF
:1020A000310519F48FEF9FEF11C0EC014217530770
:1020B00008F0A901888D0E94D10B1816190694F713
:1020C000298D3A8D281B390B3A8F298FDF91CF91BB
:1020D00008950F931F93CF93DF931F92CDB7DEB771
:1020E000FC01218D328D232B61F08C0141E050E009
:1020F000BE016F5F7F4F808D0E94D10B18161906AD
:102100001CF08FEF9FEF08C0F801818D928D019731
:10211000928F818F898190E00F90DF91CF911F91F5
:102120000F910895FC018485843011F00C94A40B68
:1021300080E090E008951F93CF93DF9300D0CDB758
:10214000DEB7FC01108DCE0101960E948C228981A0
:102150009A810E946C0B60E270E0812F0E947C22C9
:1021600062E070E0812F0E94030B84FD1DC062E0DD
:1021700070E0812F0E94030B83FF0BC048E162E0F7
:1021800070E0812F0E94F90A0E946B0B80E090E0C2
:1021900015C00E946B0BCE0101960E948C22898192
:1021A0009A810E946C0BDCCF40E162E070E0812FED
:1021B0000E94F90A0E946B0B81E090E00F900F9053
:1021C000DF91CF911F9108956F927F928F929F928E
:1021D000AF92BF92CF92DF92EF92FF920F931F9335
:1021E000CF93DF9300D0CDB7DEB75C013B016A012E
:1021F000FC011485143041F481E090E0F5019383F3
:10220000828380E090E064C07A014130584018F049
:10221000E12C88E0F82ECE0101960E948C22898163
:102220009A810E946C0B812F0E946F244C0163E005
:1022300070E0812F0E94030B082F0E946B0B073167
:1022400011F00C3121F48E149F0428F302C0E12C0C
:10225000F12CCE0101960E948C2289819A810E94E4
:102260006C0B9701A30160E070E0812F0E940A24AB
:1022700060E270E0812F0E947C2262E070E0812F9A
:102280000E94030B84FD18C063E070E0812F0E9460
:10229000030B811106C00E946B0B812F0E944D0C15
:1022A000ABCF0E946B0BCE0101960E948C228981DC
:1022B0009A810E946C0BE1CF40E162E070E0812FD7
:1022C0000E94F90A0E946B0BEF2809F495CFC60112
:1022D0000F900F90DF91CF911F910F91FF90EF9092
:1022E000DF90CF90BF90AF909F908F907F906F9036
:1022F00008958F929F92AF92BF92DF92EF92FF92DA
:102300000F931F93CF93DF9300D0CDB7DEB77C013F
:102310004B018A01FC01A688B788D08CCE010196BA
:102320000E948C2289819A810E946C0B8D2D0E94C3
:102330006F248017910720F48D2D0E946F248C014B
:102340009801A401B5018D2D0E940A240E946B0BF7
:10235000F70186899789800F911F978B868BC8011B
:102360000F900F90DF91CF911F910F91FF90EF9001
:10237000DF90BF90AF909F908F900895DF92EF9283
:10238000FF920F931F93CF93DF9300D0CDB7DEB7AB
:10239000FB01DC0157961C921E9256972281211157
:1023A00009C02381211106C02481211103C0258188
:1023B0002223F1F041155105D9F07A018F01FC017A
:1023C000D08CCE0101960E948C2289819A810E9434
:1023D0006C0BB8016E5F7F4F8D2D0E94620BB701B1
:1023E0008D2D0E94510B0E946B0B81E090E002C08A
:1023F00080E090E00F900F90DF91CF911F910F91AF
:10240000FF90EF90DF900895BF92CF92DF92EF920E
:10241000FF920F931F93CF93DF9300D000D000D093
:10242000CDB7DEB7FC01208D243009F04CC06A0125
:102430007B018C01B12C63E070E08B2D0E94030BBB
:10244000811103C0F801B08E06C08831D9F3B3946E
:10245000F4E0BF12F0CFF801808D8430A1F196E056
:10246000E5E9F1E0DE01119601900D929A95E1F710
:10247000F70193819F779C8394819D8395819E83AF
:10248000B7016E5F7F4F0E94620BB601F801808D2D
:102490000E94510BF801808D90E0982F882746E02C
:1024A00050E0BE016F5F7F4F8A5F9B4F0E94AF0A73
:1024B000F801128E118E20E8A60162E0808D0E9444
:1024C000820C81E001C080E026960FB6F894DEBF52
:1024D0000FBECDBFDF91CF911F910F91FF90EF9075
:1024E000DF90CF90BF9008950F931F93CF93DF930A
:1024F000CDB7DEB728970FB6F894DEBF0FBECDBFBD
:102500008C01D80159968D919C915A97892B41F055
:10251000ED91FC910284F385E02DC8010995F1CF7E
:10252000F801808D0E94A40B1816190654F548E096
:1025300050E0BE016F5F7F4FD80158968C910E948A
:10254000D10B18161906FCF4D801509684E0FE0150
:10255000319601900D928A95E1F78D8190E0982F48
:1025600088272E81820F911DF801958B848B8F8196
:1025700090E0982F88272885820F911D928F818F58
:1025800002C080E090E028960FB6F894DEBF0FBE40
:10259000CDBFDF91CF911F910F9108956115710506
:1025A00079F0FB0101900020E9F73197AF01461B5C
:1025B000570BDC01ED91FC910280F381E02D099431
:1025C00080E090E008958F929F92AF92BF92CF9259
:1025D000DF92EF92FF926B017C010E94650F4B012D
:1025E0005C01C114D104E104F104F1F00E94650F13
:1025F000DC01CB0188199909AA09BB09883E9340DF
:10260000A105B10570F321E0C21AD108E108F10873
:1026100088EE880E83E0981EA11CB11CC114D10461
:10262000E104F10419F7DDCFFF90EF90DF90CF9038
:10263000BF90AF909F908F9008952FB7F8946091BE
:10264000B6037091B7038091B8039091B9032FBF7F
:1026500008951F920F920FB60F9211242F933F935C
:102660008F939F93AF93BF938091B6039091B703DD
:10267000A091B803B091B9033091B50323E0230FC3
:102680002D3720F40196A11DB11D05C026E8230FAA
:102690000296A11DB11D2093B5038093B6039093BC
:1026A000B703A093B803B093B9038091BA03909194
:1026B000BB03A091BC03B091BD030196A11DB11D48
:1026C0008093BA039093BB03A093BC03B093BD0364
:1026D000BF91AF919F918F913F912F910F900FBE1E
:1026E0000F901F901895FC018485843011F00C9494
:1026F000CB0C80E008958F929F92AF92BF92CF92C1
:10270000DF92EF92FF920F931F93CF93DF93CDB79A
:10271000DEB72F970FB6F894DEBF0FBECDBF7C019A
:1027200000E010E038EE832E33E0932EA12CB12C84
:1027300049EFC42E41E0D42E1C821B828D829E82E2
:10274000AF82B886DA82C9820D87CE0101960E94D7
:102750007313811129C0F7014481558120E061E0A4
:10276000802F0E94820CCE010E960E948C228E85B4
:102770009F850E946C0B63E070E0802F0E94030B2A
:10278000833129F462E070E0802F0E947C220E9455
:102790006B0BF70184819581000F111FF801E35540
:1027A000FC4F9183808305C00F5F1F4F04301105DC
:1027B00019F62F960FB6F894DEBF0FBECDBFDF918E
:1027C000CF911F910F91FF90EF90DF90CF90BF902E
:1027D000AF909F908F900895CF93DF93FC01248555
:1027E0002430D1F0EC010E947313843181F08823EE
:1027F00071F0883161F08C3161F4E881F9810084F5
:10280000F185E02DCE01099521E0892B19F420E016
:1028100001C021E0822F01C080E0DF91CF910895B7
:10282000CF92DF92EF92FF920F931F93CF93DF939C
:1028300000D0CDB7DEB7DC011C96FC90B4E0FB16EF
:10284000F1F18C01CE0101960E948C2289819A813E
:102850000E946C0B68E070E08F2D0E947C220E9429
:102860006B0B0E941D136B017C01C8010E94731346
:102870008823B9F061E070E080E090E00E94E3120C
:102880000E941D13DC01CB018C199D09AE09BF0903
:10289000883E9340A105B10540F3F80184850E946C
:1028A0004D0CD8011C96EC911C97F0E0EE0FFF1F29
:1028B000E355FC4F1182108284E01C968C930F909C
:1028C0000F90DF91CF911F910F91FF90EF90DF90CC
:1028D000CF9008954F925F926F927F928F929F92C6
:1028E000AF92BF92CF92DF92EF92FF921F93CF935E
:1028F000DF93CDB7DEB72D970FB6F894DEBF0FBECE
:10290000CDBF7C019DEAC92E93E0D92E10E0A12C09
:10291000B12C28EE422E23E0522E612C712C39EF7F
:10292000832E31E0932E1C821B824D825E826F8249
:1029300078869A8289821D87D6012D913D916D01FD
:10294000F7018481958128173907B1F4CE010196EA
:102950000E947313843169F0CE0101960E947313B3
:102960008C3151F4CE0101960E949210892B91F086
:1029700003C0AA24A394B12C1F5F1430A1F6AB2886
:1029800071F4D701ED91FC910084F185E02DC70130
:10299000099505C0CE0101960E941014EDCF2D9629
:1029A0000FB6F894DEBF0FBECDBFDF91CF911F9160
:1029B000FF90EF90DF90CF90BF90AF909F908F905F
:1029C0007F906F905F904F9008953F924F925F92EB
:1029D0006F927F928F929F92AF92BF92CF92DF922F
:1029E000EF92FF920F931F93CF93DF93CDB7DEB794
:1029F0002D970FB6F894DEBF0FBECDBF6C015B0103
:102A00004A010E946A148DEAE82E83E0F82E312CE8
:102A100000E010E098EE492E93E0592E612C712CC5
:102A20001C821B824D825E826F82788689EF91E0E4
:102A30009A8389833D86F701219131917F01F601C7
:102A4000848195812817390731F4CE0101960E94BF
:102A500073138731E9F03394F4E03F12E1CFC801FA
:102A60002D960FB6F894DEBF0FBECDBFDF91CF918C
:102A70001F910F91FF90EF90DF90CF90BF90AF909C
:102A80009F908F907F906F905F904F903F900895B0
:102A9000A401B501CE0101960E94E410080F191F90
:102AA000DACFAF92BF92DF92EF92FF920F931F9314
:102AB000CF93DF9300D0CDB7DEB7FC01248524305F
:102AC00009F078C05A018B017C01D12C8D2D0E9418
:102AD000CB0C811103C0F701D48607C08B7F8831EE
:102AE000D1F3D394F4E0DF12F1CFF7018485843081
:102AF00009F460C020914801309149012F5F3F4F98
:102B000011F420E030EC30934901209348014091CA
:102B100048015091490120E061E00E94820CF801D7
:102B200082818F3F51F483818F3F99F484818F3F5D
:102B300081F485818F3F69F43AC081110AC0F801A0
:102B40008381811106C08481811103C0858188231E
:102B500071F1A114B10459F1F701D484CE010196A9
:102B60000E948C2289819A810E946C0BB8016E5F51
:102B70007F4F8D2D0E94620BB5018D2D0E94510B50
:102B800064E070E08D2D0E947C220E946B0BC701D7
:102B90000E947313873189F061E070E080E090E07B
:102BA0000E94E312C7010E9473138111F0CF84E0E9
:102BB000F701848780E090E002C081E090E00F9010
:102BC0000F90DF91CF911F910F91FF90EF90DF90C9
:102BD000BF90AF90089544E050E0BC018FE090E0DA
:102BE0000C94AF0AAF92BF92CF92DF92EF92FF9216
:102BF0000F931F93CF93DF93CDB7DEB7AF970FB689
:102C0000F894DEBF0FBECDBF7C015B016A0109E312
:102C100012E01A8309831B821C821D821E82CE0150
:102C200009960E94FA091BA70AA71CA61DA61EA6A4
:102C30001FA68091C3049091C404A091C504B091D3
:102C4000C6048EA39FA3A8A7B9A78B839C83AD833B
:102C5000BE8318861F82AE01465D5F4FB501CE016F
:102C600001960E94891881309105B1F4D701ED9148
:102C7000FC910684F785E02D1DA30CA38CA59DA5D2
:102C8000AEA5BFA58EA39FA3A8A7B9A7A601BE0105
:102C90006C5D7F4FC7010995AF960FB6F894DEBF04
:102CA0000FBECDBFDF91CF911F910F91FF90EF909D
:102CB000DF90CF90BF90AF900895833081F028F4DB
:102CC000813099F08230A1F008958730A9F08830E2
:102CD000B9F08430D1F4809180008F7D03C0809161
:102CE00080008F7780938000089584B58F7702C02D
:102CF00084B58F7D84BD08958091B0008F7703C027
:102D00008091B0008F7D8093B0000895FC01538DB9
:102D1000448D252F30E0842F90E0821B930B5417B5
:102D200010F0CF96089501970895FC01918D828D42
:102D3000981761F0828DDF01A80FB11D5D968C910F
:102D4000928D9F5F9F73928F90E008958FEF9FEF1A
:102D50000895FC01918D828D981731F0828DE80FD6
:102D6000F11D858D90E008958FEF9FEF0895FC0190
:102D7000918D228D892F90E0805C9F4F821B91095D
:102D80008F7399270895FC01848DDF01A80FB11D71
:102D9000A35ABF4F2C91848D90E001968F73992791
:102DA000848FA689B7892C93A089B1898C9183706F
:102DB00080648C93938D848D981306C00288F38968
:102DC000E02D80818F7D80830895EF92FF920F9395
:102DD0001F93CF93DF93EC0181E0888F9B8D8C8DC7
:102DE000981305C0E889F989808185FD26C0F62EF3
:102DF0000B8D10E00F5F1F4F0F731127E02E8C8D8E
:102E0000E8120CC00FB607FCFACFE889F989808177
:102E100085FFF5CFCE010E94C316F1CF8B8DFE0149
:102E2000E80FF11DE35AFF4FF0829FB7F8940B8F24
:102E3000EA89FB89808180620AC09FB7F894EE8995
:102E4000FF896083E889F989808183708064808349
:102E50009FBF81E090E0DF91CF911F910F91FF9094
:102E6000EF900895CF93DF93EC01888D8823C9F00C
:102E7000EA89FB89808185FD05C0A889B9898C9183
:102E800086FD0FC00FB607FCF5CF808185FFF2CF1E
:102E9000A889B9898C9185FFEDCFCE010E94C31618
:102EA000E7CFDF91CF9108950895CF92DF92EF920F
:102EB000FF920F931F93CF93DF936C017A018B01E5
:102EC000C0E0D0E0CE15DF0581F0D8016D918D0115
:102ED000D601ED91FC910190F081E02DC60109959C
:102EE000892B11F02196EECF7E01C701DF91CF91A2
:102EF0001F910F91FF90EF90DF90CF9008950E9467
:102F00008A397F928F929F92AF92BF92CF92DF9237
:102F1000EF92FF920F931F93CF93DF93CDB7DEB75E
:102F2000A6970FB6F894DEBF0FBECDBF8C01762EEC
:102F3000942E852E20E2B22ECE0101967C01FC015A
:102F40002B2D11922A95E9F789E392E09AA389A3A0
:102F50008FEF8BA38CA38DA38EA3680183E4C80E8F
:102F6000D11C43E450E0BE016F5D7F4FC6010E945B
:102F7000BE11019609F4B9C081E089838A8386E095
:102F8000A82EAB821C82F8016481758186819781AD
:102F90000E94A3386D837E838F83988789869A8663
:102FA00080E890E09C878B874CE150E0B701C60138
:102FB0000E947911F7012B2D11922A95E9F748010A
:102FC00088E0880E911CF401D70101900D92AA941B
:102FD000E1F740E150E0B701C6010E947911F70125
:102FE0001192BA94E9F796E0A92EB12C40E250E094
:102FF000B701C6010E947911F1E0AF1AB108B1F72B
:1030000083E6898392E89A8393E59B838C8385E3A7
:103010008D8381E08E837F829DE3988797E09987F7
:103020008A8786E0F401DE011B9601900D928A9555
:10303000E1F78CE0898B8A8B69E872E0CE014396D8
:103040000E94BB39F8016385CE0149960E948B240A
:10305000F8016485CE014B960E948B24F8016585AA
:10306000CE014D960E948B244EE150E0B701C6017F
:103070000E947911F3E07F121EC082E3898384E00D
:103080008A83F80196859B8397859C8390899D838D
:1030900091899E8396E39F838887828D8987838D1C
:1030A0008A87848D8B87858D8C874CE050E0B701B3
:1030B000C6010E94791187E3898386E08A8391E0C3
:1030C0009B8393E09C838D838FE08E838AE38F8341
:1030D0008BE388878FEF898749E050E0B701C6010D
:1030E0000E947911C6010E949B10A6960FB6F89413
:1030F000DEBF0FBECDBFDF91CF911F910F91FF902B
:10310000EF90DF90CF90BF90AF909F908F907F9087
:1031100008954F925F926F927F928F929F92AF929B
:10312000BF92CF92DF92EF92FF920F931F93CF93B4
:10313000DF93CDB7DEB763970FB6F894DEBF0FBE4F
:10314000CDBF7C015B013A01FB0120E080E090E013
:103150006AE03191332309F140ED430F4A3080F4A6
:10316000689FA001699F500D1124CA01C097830F69
:10317000911D37FD9A958F3F910559F350F313C078
:103180003E3289F4233079F0D301A20FB11D12969B
:103190008C932F5F80E090E0DCCF233021F4F301AB
:1031A000858381E021C0F70142815381648175816B
:1031B0008091CB049091CC04A091CD04B091CE0429
:1031C000481759076A077B0709F495C10E941D1328
:1031D0008701085F1F4F6F7077277C5FC8010E94CF
:1031E000E50C813019F080E090E0F8C189E392E0CD
:1031F0009A838983F70182819381A481B5818B832E
:103200009C83AD83BE8345E350E0BE016F5F7F4F7B
:10321000C8010E94BE11892B19F4C12CD12C66C1A2
:103220000E941D13F7017783668376276727762729
:103230007A83698342E050E0BE016F5F7F4FC8012F
:103240000E94791181E090E09E878D8742E050E0F6
:10325000BE01635F7F4FC8010E94791180E091E059
:103260009E878D8742E050E0BE01635F7F4FC801BB
:103270000E9479111E861D8642E050E0BE01635F08
:103280007F4FC8010E94791142E050E0BE01635FA8
:103290007F4FC8010E94791142E050E0BE01635F98
:1032A0007F4FC8010E9479114501F5018081882373
:1032B00001F164015601F60181912F01882321F06B
:1032C0008E3211F06201F6CFC818D9081C141D0403
:1032D00074F4CF8641E050E0BE01615F7F4FC801CA
:1032E0000E947911A601B401C8010E94791142011E
:1032F000DCCF1F8641E050E0BE01615F7F4FC80117
:103300000E947911C12CDD24D394DE86CD8642E063
:1033100050E0BE01635F7F4FC8010E947911DE86D5
:10332000CD8642E050E0BE01635F7F4FC8010E943E
:103330007911C8010E949B10892B09F46ECFE3E03C
:10334000AE2EB12C230122E0420E511C0E941D130F
:103350003B014C01C8010E94741218161906A4F012
:103360000E941D13DC01CB0186199709A809B90930
:1033700089389341A105B105D0F462E370E080E0A3
:1033800090E00E94E312E6CFF7014281538164810D
:103390007581808D918DA28DB38D481759076A076D
:1033A0007B0749F4848D958DC59729F409C0CC24F9
:1033B000CA94DC2C92C05EEFC52EDD24DA948DC059
:1033C000F70181A192A10C970CF49DC04CE050E054
:1033D000BE016F5F7F4FC8010E944A108B819C81A4
:1033E0009827892798279A8B898B29813A813227B8
:1033F00023273227F701468157812417350709F023
:103400007DC097FF7BC08F709270892B09F0E1C05F
:103410006F8078847624672476246114710409F41B
:10342000D3C0C12CD12C8D819E81982789279827C4
:10343000C816D90608F46CC0812C912C41E050E0EC
:10344000BE016D5E7F4FC8010E944A108B89982F84
:10345000907C09F08FC0811183C042E050E0BE0132
:10346000615F7F4FC8010E944A1042E050E0BE01F8
:10347000635F7F4FC8010E944A10C8010E94691013
:10348000C8010E946910C8010E946910C8010E9409
:10349000691042E050E0BE016F5E7F4FC8010E949C
:1034A0004A108F8598898115914009F06BC0CD84B1
:1034B000DE84DC24CD24DC2481E0C816D10409F0AC
:1034C00061C089899A898115944009F078C044E0E7
:1034D00050E0B201C8010E944A1081E0A81AB10868
:1034E00029F0FFEFCF16DF0609F430CFC8010E94A4
:1034F0006D0CC60173C08EEF9FEF70C04CEFC42EF1
:10350000DD24DA94EACF9DEFC92EDD24DA94E5CFED
:1035100041E050E0BE01635F7F4FC8010E944A1046
:103520008D85882351F08D859FEF980F9D87882387
:1035300021F0C8010E946910F6CF8D858111E8CF76
:10354000C8010E946910C8010E946910C8010E9448
:103550006910C8010E946910FFEFCF1ADF0A63CF1C
:103560008B899FEF980F9B8B882341F0C8010E94A5
:103570006910F6CFC8010E9469101B8A8B898111DE
:103580005DCF6BCFC12CD12C89899A899827892747
:103590009827C816D90638F4C8010E946910FFEFB1
:1035A000CF1ADF0AF1CF2FEF821A920A681479043A
:1035B00009F044CF26EFC22EDD24DA948ECF77EFC8
:1035C000C72EDD24DA9489CF3AEFC32EDD24DA94B6
:1035D00084CF8BEFC82EDD24DA947FCF63960FB6AD
:1035E000F894DEBF0FBECDBFDF91CF911F910F9139
:1035F000FF90EF90DF90CF90BF90AF909F908F9013
:103600007F906F905F904F900895CF93DF93282F16
:1036100030E0F901EC54FE4F8491F901E85BFB4F77
:10362000D491F901EC5CFB4FC491CC2391F0811152
:103630000E945D16EC2FF0E0EE0FFF1FE65DFB4FE2
:10364000A591B491EC91ED2381E090E021F480E02C
:1036500002C080E090E0DF91CF9108951F93CF9357
:10366000DF93282F30E0F901EC54FE4F8491F901EB
:10367000E85BFB4FD491F901EC5CFB4FC491CC2388
:10368000C1F0162F81110E945D16EC2FF0E0EE0FB5
:10369000FF1FE655FE4FA591B4919FB7F894111105
:1036A00004C08C91D095D82302C0EC91DE2BDC9322
:1036B0009FBFDF91CF911F910895CF93DF9390E04B
:1036C000FC01E85BFB4F2491FC01EC5CFB4F849117
:1036D000882361F190E0880F991FFC01EA54FB4FA9
:1036E000C591D491FC01E655FE4FA591B4916111AD
:1036F00009C09FB7F8948881209582238883EC9134
:103700002E230BC0623061F49FB7F8948881322F6A
:10371000309583238883EC912E2B2C939FBF06C07A
:103720008FB7F894E8812E2B28838FBFDF91CF913C
:1037300008951F920F920FB60F9211242F933F936B
:103740004F935F936F937F938F939F93AF93BF93A9
:10375000EF93FF9384E294E00E94C316FF91EF91F0
:10376000BF91AF919F918F917F916F915F914F9199
:103770003F912F910F900FBE0F901F9018951F92A1
:103780000F920FB60F9211242F938F939F93EF9365
:10379000FF93E0913404F09135048081E0913A0484
:1037A000F0913B0482FD12C0908180913D048F5FB7
:1037B0008F7320913E04821751F0E0913D04F0E0B8
:1037C000EC5DFB4F958F80933D0401C08081FF919C
:1037D000EF919F918F912F910F900FBE0F901F909F
:1037E0001895DC0189E392E08D939D9384E0FB01C1
:1037F00001900D928A95E1F70895CF93DF93FC0134
:1038000024813581232B69F0C081D181062E000CE3
:10381000770BCE010E94B039009719F08C1B9D0BDD
:1038200002C08FEF9FEFDF91CF910895EF92FF924B
:103830000F931F93CF93DF93EC017B018A01888163
:103840009981009729F02A813B8124173507F8F4E4
:10385000B8016F5F7F4F0E94C438009759F0998379
:1038600088831B830A832C813D81232B81F4FC01F7
:1038700010820DC088819981009711F00E946E2FEF
:10388000198218821D821C821B821A8207C01D8326
:103890000C83B701888199810E94BB39CE01DF91E9
:1038A000CF911F910F91FF90EF900895AF92BF922B
:1038B000CF92DF92EF92FF920F931F93CF93DF93FC
:1038C0008C015B01EA0169012417350720F48D2F73
:1038D000E901C42ED82ED80111961C921E9213967F
:1038E0001C921E92129715961C921E92149740E0FD
:1038F00050E062E972E0C8010E94161CF501E48004
:10390000F580CE15DF05C8F5CE14DF0408F4760186
:10391000D501ED91FC911197EE0DFF1DD080108225
:103920006D917C916C0F7D1F6115710561F0FB013C
:1039300001900020E9F73197AF01461B570BC801F2
:103940000E94161C13C0F80180819181009711F02C
:103950000E946E2FD80111961C921E9215961C92F1
:103960001E92149713961C921E921297F501808155
:103970009181FC01EE0DFF1DD082C801DF91CF9136
:103980001F910F91FF90EF90DF90CF90BF90AF907D
:1039900008958E3008F08E5020914A0190E4299FBE
:1039A000900111248770822B80937C0080917A0093
:1039B000806480937A0080917A0086FDFCCF8091AC
:1039C00078002091790090E0922B08958F929F9239
:1039D000AF92BF92EF92FF920F931F93CF93DF931B
:1039E000CDB7DEB7A1970FB6F894DEBF0FBECDBF3F
:1039F0007C01FA01CB0119A2223008F42AE08E01E1
:103A00000F5D1F4F822E912CA12CB12CBF01A5015F
:103A100094010E94A435F901CA01015011096A30CC
:103A200014F4605D01C0695CD8016C93232B242BD6
:103A3000252B61F7B801C7010E94CE12A1960FB6DF
:103A4000F894DEBF0FBECDBFDF91CF911F910F91D4
:103A5000FF90EF90BF90AF909F908F9008958F92BE
:103A60009F92AF92BF92CF92DF92EF92FF920F930D
:103A70001F93CF93DF937C01EB016C0182E0C80EB2
:103A8000D11C4701E5E08E0E911C00E010E0F6012C
:103A900041916F0150E060E070E02AE0CE010E94A9
:103AA000E61C5C01E881F9810190F081E02D6EE275
:103AB000CE0109958A0D9B1D080F191F8C149D04BA
:103AC00031F7F701458150E060E070E02AE0CE0177
:103AD0000E94E61C800F911FDF91CF911F910F91E3
:103AE000FF90EF90DF90CF90BF90AF909F908F901E
:103AF000089560E972E00C94CE120F931F93CF9358
:103B0000DF93EC010E94CE128C01CE010E94791D40
:103B1000800F911FDF91CF911F910F9108954F92C8
:103B20005F926F927F928F929F92AF92BF92CF924D
:103B3000DF92EF92FF920F931F93CF93DF93CDB756
:103B4000DEB729970FB6F894DEBF0FBECDBF8C014C
:103B500080912A0590912B050E94040E882309F478
:103B600081C0C0902A05D0902B0540E065E5C601D4
:103B70000E94D00D7801580128E0A20EB11CF70177
:103B800061917F0140E0C6010E94D00DAE14BF04D8
:103B9000B1F740E06EEB80912A0590912B050E94D1
:103BA000D00DAE014F5F5F4F7A015E015AE0A50E66
:103BB000B11C270180902A0590902B0578E0672E94
:103BC000712CD12CCC24C394C4010E947D0D811191
:103BD000DC28CC0C81E0681A7108B1F7F701D192AA
:103BE0007F01AE16BF0631F780912A0590912B0513
:103BF0000E94040E8130B1F568E0C2010E94650D9B
:103C0000998589132FC02A8130E0A901542F4427B8
:103C1000550F550F550F8981F8E08F9FC001112472
:103C20009A01282B392BF80180818031C9F46885ED
:103C300070E08F81AB01481B5109CA019695982FFE
:103C40008827979587950E948F38CB014097207FD2
:103C500053E0220F331F5A95E1F7820F931F04C0E0
:103C6000C90102C080E894EE29960FB6F894DEBF31
:103C70000FBECDBFDF91CF911F910F91FF90EF90BD
:103C8000DF90CF90BF90AF909F908F907F906F907C
:103C90005F904F9008958F929F92AF92BF92CF9274
:103CA000DF92EF92FF920F931F93CF93DF937C01EC
:103CB000A62EE0912A05F0912B0513861586148611
:103CC000DF011B9633961E92AE17BF07E1F7B12CAA
:103CD00088248394C0912A05D0912B058D8581116C
:103CE00063C0CE010E94040E882309F45DC040E049
:103CF00060EFCE010E94D00D01E0C12C912C11E0AB
:103D0000CE010E947D0DD82ECE010E947D0D91E046
:103D1000D91203C08130B1F434C02C2D30E0D81258
:103D20001BC08B85181738F4FE01E20FF31F838147
:103D3000802341F402C0811729F0D12C193058F4A6
:103D40001C8709C0FE01EC0DF11D8381802B83834C
:103D5000DD24D39409C0912EFE01E20FF31F93815D
:103D6000802F8095892383836D2DCE010E94A10D24
:103D70001F5F000F11F4C39401E0E7E0EC1508F0B9
:103D8000BFCF113488F09B86911001C08D868B8146
:103D9000882351F0FE013396D7012B9681918D93A4
:103DA000EC17FD07D9F705C01B861D861C8680E031
:103DB00010C0AB100AC067E0C7010E94650DF70193
:103DC0009781891302C081E004C0B394AB1478F3E7
:103DD00081CFDF91CF911F910F91FF90EF90DF90F6
:103DE000CF90BF90AF909F908F9008954F925F9229
:103DF0006F927F928F929F92AF92BF92CF92DF92FB
:103E0000EF92FF92CF93DF93CDB7DEB728970FB62F
:103E1000F894DEBF0FBECDBF6B017C0149015A0192
:103E200020E030E048E852E40E943E362AE939E9D1
:103E300049E95FE30E94C0342B013C0120E030E0FF
:103E400044E752E4C701B6010E943F369B01AC0132
:103E5000C301B2010E943F362B013C0122E133E84D
:103E600040EC5DE3C501B4010E94C0349B01AC018C
:103E7000C301B2010E943F3620E030E040E05FE342
:103E80000E94C0342B013C0120E030E04EE952E4B6
:103E90000E94B43718160CF081C1A7019601C70122
:103EA000B6010E94C0342B013C01A5019401C5015B
:103EB000B4010E94C0346D837E838F83988721E193
:103EC00033E243E050E4C701B6010E94C03429E167
:103ED00034E849E252E40E943E3669837A838B8358
:103EE0009C8326E13BE442E251E4C501B4010E9417
:103EF000C0349B01AC0169817A818B819C810E94D5
:103F00003F3669837A838B839C8328E436E246E6D6
:103F10005EEBC701B6010E94C034A50194010E9466
:103F2000C0349B01AC0169817A818B819C810E94A4
:103F30003F3669837A838B839C8320EE3FE040EE9B
:103F40005BEBC301B2010E94C0349B01AC016981EB
:103F50007A818B819C810E943F3669837A838B832F
:103F60009C8328EF37E840E65DEB6D817E818F8191
:103F700098850E94C0349B01AC0169817A818B8154
:103F80009C810E943F3669837A838B839C832CEAD1
:103F90003DE041EA5AE3C301B2010E94C034A501E9
:103FA00094010E94C0349B01AC0169817A818B81AC
:103FB0009C810E943F3669837A838B839C8328ECA3
:103FC0003FE84FE55AE3C701B6010E94C0342D8196
:103FD0003E814F8158850E94C0349B01AC016981AC
:103FE0007A818B819C810E943F3669837A838B839F
:103FF0009C8321EF3BE845E056EBC301B2010E94F0
:10400000C0342D813E814F8158850E94C0349B0170
:10401000AC0169817A818B819C810E943F362B01A2
:104020003C0120E030E040E551E4C501B4010E94CC
:104030005A3487FF5CC020E030E040EA52E4C70118
:10404000B6010E94B43787FD52C020E030E040EE58
:1040500052E4C701B6010E945A3418160CF493C0FA
:10406000A501940160E070E080E591E40E943E3695
:1040700020E030E040E85EE30E94C0344B015C0188
:1040800020E030E04EEB52E4C701B6010E943E361C
:104090006B017C0120E030E0A9010E94B4371816C2
:1040A0004CF4A701960160E070E088E891E40E947A
:1040B0003E3608C020E030E048E851E4C701B601D0
:1040C0000E943F362EE33DEE40E75DE30E94C034A0
:1040D0000E9435389B01AC01C501B4010E94C03477
:1040E0009B01AC01C301B2010E943E3649C020E0F1
:1040F00030E04AEA52E4C501B4010E94B437181610
:104100000CF04CC020E030E040EA52E4C701B601B8
:104110000E94B43787FD42C020E030E04EEA52E40E
:10412000C701B6010E945A341816C4F120E030E0ED
:104130004AEA52E4C501B4010E943E362DEC3CEC43
:104140004CEC5DE30E94C0344B015C01A701960179
:1041500060E070E08EEA92E40E943E362DEC3CEC8A
:104160004CE45EE30E94C0349B01AC01C501B40184
:104170000E94C0349B01AC01C301B2010E943F36D2
:104180002B013C010BC020E030E04AEA52E4C501BB
:10419000B4010E94B43718160CF4BECFC301B201AB
:1041A00028960FB6F894DEBF0FBECDBFDF91CF913A
:1041B000FF90EF90DF90CF90BF90AF909F908F9047
:1041C0007F906F905F904F9008958F929F92AF92E3
:1041D000BF92CF92DF92EF92FF920F931F93CF93F4
:1041E000DF93CDB7DEB7C054D1400FB6F894DEBF31
:1041F0000FBECDBF8C010E941D13F801C184D28473
:10420000E384F4849B01AC012C193D094E095F093C
:1042100069017A0130EDC31637E0D306E104F104F9
:1042200010F48189B9C0F801618772878387948708
:104230001482138212821182108262E085810E94B0
:104240005D1B61E070E080E090E00E94E31261E0BD
:10425000F80185810E945D1B60E0F80185810E9464
:104260002E1BF80186818551823028F48BE291E182
:104270000197F1F706C064E170E080E090E00E94F1
:10428000E31262E0F80185810E945D1B8BE990E0FA
:104290000197F1F7F89460E0C8010E94120D6F3F9A
:1042A0007F4F8F4F9F4F21F4F801118A789445C0BA
:1042B00061E0C8010E94120D6F3F7F4F8F4F9F4FEB
:1042C00099F39E012F5F3F4F79015E013FEBA31AE7
:1042D0003EEFB30A670160E0C8010E94120DF601CB
:1042E000608371838283938361E0C8010E94120D11
:1042F000F6016483758386839783F8E0CF0ED11C23
:10430000CA14DB0441F7789420E030E0F7018080A4
:104310009180A280B3804481558166817781FFEFCF
:104320008F169F06AF06BF0631F04F3F8FEF58073D
:104330006807780721F4F801118A80E02DC0F9019F
:1043400083E0F595E7958A95E1F7E00FF11F80810D
:10435000880F84169506A606B70608F48160808348
:104360002F5F3F4FF8E0EF0EF11C2832310571F658
:10437000F801248130E04081818190E0840F911D1B
:104380004281840F911D4381840F911D9927281725
:10439000390789F681E0818BC05CDE4F0FB6F89457
:1043A000DEBF0FBECDBFDF91CF911F910F91FF9068
:1043B000EF90DF90CF90BF90AF909F908F90089537
:1043C000CF92DF92EF92FF92CF93DF93EC010E94A6
:1043D000E520882399F18E818B3080F18D3098F023
:1043E0008551823058F5688179817627672776274D
:1043F00080E090E00E945F342DEC3CEC4CEC5DE3FF
:104400000E94C0341FC0698170E080E090E00E948B
:1044100061342DEC3CEC4CEC5DE30E94C0346B014C
:104420007C01688170E080E090E00E9461349B0133
:10443000AC01C701B6010E943F3604C060E070E0E5
:1044400080EC9FE7DF91CF91FF90EF90DF90CF90CE
:104450000895CF92DF92EF92FF921F93CF93DF9355
:10446000EC010E94E5208823D9F18E818B30C0F1C8
:104470008D30B0F08551823098F51A81612F6F77B9
:1044800070E0762F66278B81682B80E090E00E9499
:104490005F342DEC3CEC4CEC5DE30E94C0341CC05E
:1044A0001A816B816F7070E080E090E00E9461344F
:1044B0002DEC3CEC4CEC5DE30E94C0346B017C01C4
:1044C000612F70E080E090E00E945F349B01AC01BE
:1044D000C701B6010E943F3617FF06C0905804C0BE
:1044E00060E070E080EC9FE7DF91CF911F91FF903B
:1044F000EF90DF90CF900895CF93C82F462F61E0C3
:1045000070E00E94F90A61E070E08C2F0E94030BBA
:104510008111F9CFCF91089520E5FC01208311820C
:1045200008951F93CF93DF9300D0CDB7DEB76CE231
:1045300071E080E090E00E94E3121FB7F894809150
:104540008605811127C0EEE3F4E08491E2E5F4E012
:104550009491E82FF0E0EE0FFF1FEA54FB4FA59176
:10456000B491EC91E92321F461E08AE00E942E1BD2
:1045700061E08AE00E945D1B8CB580618CBD8CB5CA
:1045800080648CBD61E08DE00E945D1B61E08BE08A
:104590000E945D1B809186058F5F809386051FBFFB
:1045A000229ACE0101960E948C2289819A810E94D2
:1045B0006C0B60E880E090E00E94DE0A65E58BE12C
:1045C00090E00E94DE0A65E58AE190E00E94DE0A42
:1045D0000E946B0B80E090E49093770580937605C2
:1045E00080E090E690937F0580937E0580E098E4DC
:1045F000909379058093780580E098E69093810503
:104600008093800580E090E590937B0580937A0508
:1046100080E090E7909383058093820580E098E5A1
:1046200090937D0580937C0580E098E790938505C5
:10463000809384050F900F90DF91CF911F91089583
:104640001F93CF93DF93CDB7DEB7C454D1090FB614
:10465000F894DEBF0FBECDBFFC0182819381A4819F
:10466000B58123968CAF9DAFAEAFBFAF239711E05E
:1046700023961FAF239723964CAD5DAD6EAD7FADF6
:1046800023974BAB5CAB6DAB7EAB8DA79EA7AFA763
:10469000B8AB18AB4DA55EA56FA578A94FA358A7D9
:1046A00069A77AA71EAB4BA95CA96DA97EA949A3EE
:1046B0005AA36BA37CA329E332E03C8B2B8B4FEFF7
:1046C0004D8B4E8B4F8B188E3E872D871AA74FA18F
:1046D00058A569A57AA54F87588B698B7A8B1CA33F
:1046E00049A15AA16BA17CA149875A876B877C8716
:1046F0003A8329838B839C83AD83BE830E9491225E
:10470000CE018D5B9F4F0E948C2225968EAD9FAD72
:1047100025970E946C0B46E050E068EE74E089E05B
:1047200090E00E94AF0ACE0103960E94EB1544E090
:1047300050E0BE01615F7F4F81E090E00E94AF0AD0
:1047400044E050E0BE016B5E7F4F85E090E00E9448
:10475000AF0A0E946B0B1C8789859A85AB85BC8547
:104760008093C3049093C404A093C504B093C6047B
:10477000CC5BDF4F0FB6F894DEBF0FBECDBFDF912D
:10478000CF911F910895AF92BF92CF92DF92EF9297
:10479000FF920F931F93CF93DF9300D0CDB7DEB777
:1047A0007A836983BA01A901E981FA81F770082F38
:1047B00010E0000F111F02581A4FD8018D919C91E3
:1047C0008E0F9F1F9F01240F351F21303840A0F00E
:1047D0007A015B0160E078E06B01CE1ADF0AA60186
:1047E000B5010E947F0AA7014C195D09B5016C0D46
:1047F0007D1DF801808191810F900F90DF91CF9105
:104800001F910F91FF90EF90DF90CF90BF90AF90EE
:104810000C947F0A9F92AF92BF92CF92DF92EF9259
:10482000FF920F931F93CF93DF93982E8B015A0122
:10483000690164E270E00E94030BE82EF12C65E24E
:1048400070E0892D0E94030BFE2CEE24E82AE8017B
:10485000CE0DDF1D9E013770E92CF12CC701880FAA
:10486000991FAC014A585A4F7A01FA01808191810F
:10487000820F931FA9014C0D5D1D4130584090F0EF
:1048800000E018E0021B130BA801B5010E94AF0A5B
:10489000A601401B510BB501600F711FF70180810C
:1048A000918102C0A601B5010E94AF0ACC0DDD1DA9
:1048B0004D2F64E270E0892D0E94F90A4C2F65E2C9
:1048C00070E0892DDF91CF911F910F91FF90EF90B4
:1048D000DF90CF90BF90AF909F900C94F90AFF9219
:1048E0000F931F93CF93DF93F82E00E010E08F2DEE
:1048F0000E94390BEC01892B21F08F2D0E94390B7E
:104900008C01C017D10799F7CE01DF91CF911F918C
:104910000F91FF90089520E3FC0120833296862FAB
:1049200082958F7090E1899F601911246A3014F488
:10493000605D01C0695C6293682F8111F0CF0895BA
:104940002F923F924F925F926F927F928F929F929F
:10495000AF92BF92CF92DF92EF92FF920F931F938D
:10496000CF93DF93CDB7DEB7E2970FB6F894DEBFF3
:104970000FBECDBF7C012A013B0169010E941D13BE
:104980004B015C0187010D5B1F4FC8010E9474122F
:1049900018161906A4F00E941D13DC01CB0188191A
:1049A0009909AA09BB09481659066A067B06D8F078
:1049B00062E370E080E090E00E94E312E6CF42E222
:1049C00050E0BE016F5F7F4FC8010E944A1089818D
:1049D000823011F080E060C1F801848995898334C8
:1049E0009105C1F702C08FEF57C16D817E818F8124
:1049F00098850E94A3384B015C01F60160837183A6
:104A00008283938346E050E0B701685F7F4FCE0119
:104A10004D960E948F39892BE9F6F70180819181AB
:104A2000A281B38188169906AA06BB0698F28481F2
:104A30009581A681B78188159905AA05BB0550F215
:104A400089899A89AB89BC8986879787A08BB18B26
:104A50008EECC82ED12CC8010E946910F1E0CF1A4B
:104A6000D108C9F7712CC70182969AA789A7F701C7
:104A7000B696FCA7EBA708969EA78DA73C974F017B
:104A8000899698AB8FA73897FAABE9AB1701F6E197
:104A90002F0E311C27018EE1480E511CF801818D2B
:104AA000928D181619060CF0F6C0C8010E94691004
:104AB0008333910509F4C9C0F4F481309105B9F14B
:104AC0001CF4892B59F3DBC083309105C1F10697A3
:104AD00009F0D5C0C8010E9469106C0144E050E0A3
:104AE000B201C8010E944A10A12CB12CDD2494E02F
:104AF000C91AD1083FC08A33910509F47AC03CF441
:104B00008533910561F0C69709F43FC0B8C08B3377
:104B1000910509F484C08F3F910501F2B0C0C8012E
:104B20000E946910C8010E946910782EB7CFC80191
:104B30000E94691044E050E069A97AA93AC0C8010E
:104B40000E9469106C0144E050E0B101C8010E946C
:104B50004A10A12CB12CDD24F4E0CF1AD108AC14FA
:104B6000BD040CF09BCFC8010E9469108FEFA81AFA
:104B7000B80AF5CFAC14BD040CF090CFC8010E9468
:104B80006910EFEFAE1ABE0AF5CFC8010E94691096
:104B9000682EF701828D811110C0838D81110DC0A7
:104BA000848D81110AC0858D811107C044E050E0D9
:104BB000B401C8010E944A1071CFEFA5F8A9A080E6
:104BC000B180C280D380B401CE0183960E94F11BD4
:104BD0008DA19EA1AFA1B8A5A816B906CA06DB068D
:104BE00029F3662009F45ACFC8010E9469106A941B
:104BF000F8CFC8010E94691044E050E06BA57CA585
:104C0000C8010E944A10F70166A177A180A591A56D
:104C10000E94A33866A377A380A791A73FCFC801BE
:104C20000E94691044E050E06DA57EA5C8010E9475
:104C30004A10F70162A573A584A595A50E94A33823
:104C400062A773A784A795A729CFC8010E946910FE
:104C500044E050E069A57AA5C8010E944A10F70116
:104C600062A173A184A195A10E94A33862A373A33A
:104C700084A395A366A777A780AB91AB0FCFC8019C
:104C80000E946910D82EDD2009F408CFC8010E94C7
:104C90006910DA94F8CF872DE2960FB6F894DEBF4C
:104CA0000FBECDBFDF91CF911F910F91FF90EF907D
:104CB000DF90CF90BF90AF909F908F907F906F903C
:104CC0005F904F903F902F90089585ED8093BC00AA
:104CD0008091BC0084FDFCCF109261030895409147
:104CE0006003262F30E0240F311D21323105DCF422
:104CF000209161032430C9F4FC0180E090E0861724
:104D000058F4309160032191DC01A05CBC4FA30FEB
:104D1000B11D2C930196F3CF80916003680F6093CF
:104D2000600380E0089581E0089582E008950C9486
:104D300086350C947E35CF93DF93CBE4D1E0688148
:104D400080E090E00E949726698181E090E00E94D7
:104D500097266A8182E090E00E9497266B8183E02B
:104D600090E00E9497266C8184E090E00E94972654
:104D70006D8185E090E00E94972660EC86E090E0EF
:104D80000E94972668EA87E090E00E94972660E0FC
:104D900088E090E00E9497266BE589E090E0DF9143
:104DA000CF910C949726CF93DF93CDB7DEB72C9796
:104DB0000FB6F894DEBF0FBECDBF789484B5826085
:104DC00084BD84B5816084BD85B5826085BD85B5AF
:104DD000816085BD80916E00816080936E0010922D
:104DE00081008091810082608093810080918100A8
:104DF0008160809381008091800081608093800039
:104E00008091B10084608093B1008091B000816096
:104E10008093B00080917A00846080937A008091C2
:104E20007A00826080937A0080917A00816080931A
:104E30007A0080917A00806880937A001092C10095
:104E4000E0913404F091350482E08083E0913004F5
:104E5000F09131041082E0913204F091330480E14A
:104E6000808310923C04E0913804F091390486E08C
:104E70008083E0913604F0913704808180618083E3
:104E8000E0913604F0913704808188608083E0915E
:104E90003604F0913704808180688083E091360485
:104EA000F091370480818F7D8083ECE5F4E065919B
:104EB000749184E093E00E94B53164E073E084E291
:104EC00094E00E947D1D81E080934A010DE511E090
:104ED00079E6C72E71E0D72ED801FC900E5F1F4FE8
:104EE00061E08F2D0E945D1B60E08F2D0E942E1BC4
:104EF000C016D10689F780E090E00E949926182F0D
:104F000063E972E084E294E00E94CE12412F50E007
:104F100060E070E02AE084E294E00E94E61C84E213
:104F200094E00E94791D1F3F09F01AC20E949B263F
:104F300080911C04811107C081E094E00E94FA096D
:104F400081E080931C048EEB93E09093C8048093DF
:104F5000C7040E949122CE0101960E948C22898171
:104F60009A810E946C0B46E050E06BE471E089E0AE
:104F700090E00E94AF0A89E392E09A8389831B82C2
:104F80001C821D821E82CE0103960E94EB150E9498
:104F90006B0B0091C7041091C804F80112A213A270
:104FA00014A215A216A217A210A611A612A613A645
:104FB00014A615A680E69AEEA0E0B0E086AB97AB0B
:104FC000A0AFB1AF80EA9FE0A0E0B0E082AF93AFC6
:104FD000A4AFB5AF3E9684E1DF011D928A95E9F753
:104FE00086E0EBE4F1E0D801189601900D928A95E5
:104FF000E1F7F801EE5BFF4FFC87EB8710820E9420
:1050000042302FEC37E040E050E00E94C635DC0132
:10501000CB010196A11DB11DF80184839583A68360
:10502000B78380839183A283B3835801F3E4AF0EE7
:10503000B11CC5010E946D0C64E470E0C5010E94C2
:10504000E50C882309F4FEC10E941D132B013C01CD
:10505000812C912C58EEC52E53E0D52EE12CF12C4D
:1050600062E0262EAB85BC858C91833009F404C1A7
:10507000811120C0F80184819581A681B7810196B4
:10508000A11DB11D84839583A683B7830E941D1340
:105090006419750986099709A70196010E94A4352C
:1050A000A90161E0C8010E94811781E0AB85BC8540
:1050B0008C93CAC08430F9F4F80184819581A6816B
:1050C000B7810196A11DB11D84839583A683B78303
:1050D0000E941D136419750986099709A701960195
:1050E0000E94A435A90163E0C8010E948117AB8525
:1050F000BC852C92A9C0813059F5F80142AD53AD61
:1051000064AD75AD9E012F5F3F4FC8010E94A02482
:10511000382EF2E08F1392C089819A81AB81BC81D5
:10512000F80184839583A683B7830E941D136419B5
:10513000750986099709A70196010E94A435A9015E
:1051400063E0C8010E948117AB85BC853C927CC09E
:10515000823009F079C0F80142AD53AD64AD75AD50
:105160009E012F5F3F4FC8010E94A024382EF5E01A
:105170008F135DC0E3E0AB85BC85EC93F80182A1A1
:1051800093A1A4A1B5A1892B8A2B8B2B41F484E890
:1051900093E0A0E0B0E082A393A3A4A3B5A3F80199
:1051A00086A197A1A0A5B1A5892B8A2B8B2B61F491
:1051B00082A193A1A4A1B5A1B695A795979587952E
:1051C00086A397A3A0A7B1A7F80182A593A5A4A53C
:1051D000B5A5892B8A2B8B2BA9F482A193A1A4A11D
:1051E000B5A1AC01BD0133E076956795579547951C
:1051F0003A95D1F7841B950BA60BB70B82A793A703
:10520000A4A7B5A7F80186A197A1A0A5B1A586A7D7
:1052100097A7A0ABB1AB82A593A5A4A5B5A582AB7A
:1052200093ABA4ABB5AB88248394912C0DC0F6E06E
:105230008F1304C0AB85BC851C9206C0BFEF3B1228
:1052400003C0EB85FC851082F1E08F16910409F410
:1052500009CF0E941D13DC01CB0184199509A60911
:10526000B709F80126A937A940AD51AD281739076C
:105270004A075B0708F0F6CEC5010E946D0CF801E5
:1052800084819581A681B7810196A11DB11D84837A
:105290009583A683B7830E941D13F801FE96608351
:1052A000718382839383F1E08F16910409F055C0D6
:1052B000CE0101960E948C2289819A810E946C0BFA
:1052C0006091C7047091C804625F7F4FCE01019660
:1052D0000E94F11BCE0103960E94EB156091C7045A
:1052E0007091C8046A5E7F4FCE0101960E94F11B47
:1052F00044E050E0BE016D5F7F4F81E090E00E948E
:10530000AF0A6091C7047091C8046E5E7F4FCE01F2
:1053100001960E94F11B44E050E0BE016D5F7F4F9B
:1053200085E090E00E94AF0A0E946B0B6091C70479
:105330007091C804625E7F4FCE0101960E94F11BFE
:105340008B819C81AD81BE818093C3049093C40402
:10535000A093C504B093C60417C08928A9F472C0ED
:1053600089E392E09A8389838091E4049091E50433
:10537000A091E604B091E7048B839C83AD83BE8348
:10538000CE0101960E9420236EE972E084E294E04F
:105390000E94CE1208EE14E0D8014D918D0150E02C
:1053A00060E070E020E184E294E00E94E61CB4E05A
:1053B0000E3E1B0789F784E294E00E94791DEAE61D
:1053C000F4E06591749184E093E00E94B53164E06B
:1053D00073E084E294E00E94CE1289E392E09A8323
:1053E00089831B821C821D821E82CE0109960E9427
:1053F0008C2289859A850E946C0B44E050E0BE01A6
:105400006D5F7F4F8FE090E00E947F0A0E946B0BE0
:1054100064E274E0CE0101960E942F1D84E294E0C4
:105420000E94791D8CED94E00E947B1382E195E04F
:105430000E944F0D80E095E00E944F0D8EEE94E0AB
:105440000E944F0D14E661E08DE00E942E1B8091BA
:105450002A0590912B050E94040E40E06CEC80918F
:105460002A0590912B050E94D00D4091240564E4FB
:1054700080912A0590912B050E94D00D80912605E0
:105480008823E9F1E0912505E950E33040F4F0E0AC
:10549000EE0FFF1FE556FE4FC080D18004C08EEE98
:1054A000C82E82E0D82E80912705882311F18091A3
:1054B000240581111EC00E941D134B015C010D2C9F
:1054C000000CEE08FF0880912A0590912B050E94A0
:1054D0007D0D8130A1F00E941D13DC01CB018C19E0
:1054E0009D09AE09BF0988159905AA05BB0558F3A2
:1054F00006C0B601DD0C880B990B0E94E31260E038
:10550000CE0101960E944B1E811105C06AE979E91E
:1055100084E493EC1AC0CE0101960E948F1D81385D
:10552000E4EE9E079CF3BC01990F880B990B0E9437
:10553000613426E636E646E65CE30E94C03420E0AD
:1055400030E040E052E40E943F366093CC0270931A
:10555000CD028093CE029093CF0261E0CE010196FE
:105560000E944B1E811105C06AE979E984E493EC3D
:105570001AC0CE0101960E948F1D8138F4EE9F075C
:105580009CF3BC01990F880B990B0E94613426E6AD
:1055900036E646E65CE30E94C03420E030E040E0BE
:1055A00052E40E943F366093C8027093C902809310
:1055B000CA029093CB0282E195E00E9429226B01FE
:1055C0007C019B01AC010E947538882319F0C12C25
:1055D000D12C7601C092FC02D092FD02E092FE0234
:1055E000F092FF0226E636E646EE5FE3C701B6011B
:1055F0000E94C03420E030E040E052E40E943F3698
:105600006B017C019B01AC010E947538882319F065
:10561000C12CD12C7601C0920003D0920103E092FC
:105620000203F092030382E195E00E94E0216B0106
:105630007C019B01AC010E947538882319F0C12CB4
:10564000D12C7601C092F802D092F902E092FA02CF
:10565000F092FB02609100037091010380910203BC
:1056600090910303A70196010E94F61E6B017C0135
:105670009B01AC010E947538882319F0C12CD12CF4
:105680007601C092F402D092F502E092F602F09216
:10569000F70280E095E00E9429226B017C019B01CA
:1056A000AC010E947538882319F0C12CD12C7601E9
:1056B000C092EC02D092ED02E092EE02F092EF0284
:1056C00026E636E646EE5FE3C701B6010E94C03427
:1056D00020E030E040E052E40E943F366B017C0164
:1056E0009B01AC010E947538882319F0C12CD12C84
:1056F0007601C092F002D092F102E092F202F092B2
:10570000F30280E095E00E94E0216B017C019B01A7
:10571000AC010E947538882319F0C12CD12C760178
:10572000C092E802D092E902E092EA02F092EB0223
:105730006091F0027091F1028091F2029091F30277
:10574000A70196010E94F61E6B017C019B01AC0132
:105750000E947538882319F0C12CD12C7601C09293
:10576000E402D092E502E092E602F092E7028EEEC9
:1057700094E00E9429226B017C019B01AC010E94F4
:105780007538882319F0C12CD12C7601C092DC0227
:10579000D092DD02E092DE02F092DF0226E636E6EB
:1057A00046EE5FE3C701B6010E94C03420E030E05E
:1057B00040E052E40E943F366B017C019B01AC014A
:1057C0000E947538882319F0C12CD12C7601C09223
:1057D000E002D092E102E092E202F092E3028EEE69
:1057E00094E00E94E0216B017C019B01AC010E94CE
:1057F0007538882319F0C12CD12C7601C092D802BB
:10580000D092D902E092DA02F092DB026091E002DB
:105810007091E1028091E2029091E302A70196016A
:105820000E94F61E6B017C019B01AC010E94753841
:10583000882319F0C12CD12C7601C092D402D092C9
:10584000D502E092D602F092D70281E10E94C91CF3
:105850009093BF028093BE02C090FC02D090FD02E4
:10586000E090FE02F090FF0220E030E040EF50E4D4
:10587000C701B6010E94C0344B015C012DEC3CE431
:105880004DE653E4C701B6010E943F369B01AC01CF
:10589000C501B4010E94AB360E94253726ED36E5DE
:1058A0004CE15FE30E94C0346B017C0120E030E0FA
:1058B00048EC52E46091F8027091F9028091FA028A
:1058C0009091FB020E94AB36A70196010E94C03462
:1058D000A70196010E943E366093D0027093D102D8
:1058E0008093D2029093D3028EE00E94C91CBC0127
:1058F000990F880B990B0E94613420E030E44CE949
:1059000050E40E94C0346B017C0120E030E0A9012A
:105910000E945A34882371F120E030E048EC53E4CF
:10592000C701B6010E945A3487FD24C020E030E050
:1059300048EC53E4C701B6010E943E360E94573737
:10594000072E000C880B990B0E94613420E030E098
:1059500048E452E40E94C03420E030E040E85DE3D7
:105960000E94C0346093C4027093C5028093C60243
:105970009093C7028FE00E94C91C9C01129FC00136
:10598000139F900D112497FF02C081509C4F892FC7
:10599000880F880B959595959093C2028093C302CA
:1059A00080E10E94C91CDC011A9FC0011B9F900D61
:1059B000112497FF02C081509C4F892F880F880BBC
:1059C000959595959093C0028093C1020E948B0299
:1059D00060E08DE00E942E1B60ED77E080E090E0BB
:1059E0000E94E31230CD1F93CF93DF9310922704D0
:1059F0001092260448EE53E060E070E040932804E3
:105A00005093290460932A0470932B0485EA91E053
:105A1000909325048093240485EC90E090933104C6
:105A20008093300484EC90E09093330480933204AC
:105A300080EC90E0909335048093340481EC90E006
:105A4000909337048093360482EC90E0909339046D
:105A50008093380486EC90E090933B0480933A0462
:105A600010923D0410923E0410923F0410924004A4
:105A700089E392E0909339058093380510923A05B6
:105A800010923B0510923C0510923D0590933F0506
:105A900080933E05109240051092410510924205F8
:105AA0001092430590934505809344051092460556
:105AB00010924705109248051092490590934B05A6
:105AC00080934A0510924C0510924D0510924E0598
:105AD00010924F059093C2048093C1041092C304A6
