:100000000C9461020C9489020C9489020C9489026C
:100010000C9489020C9489020C9489020C94890234
:100020000C9489020C9489020C9489020C94890224
:100030000C9489020C9489020C9489020C94890214
:100040000C94BC120C9489020C9489020C948902C1
:100050000C9489020C9489020C9489020C948902F4
:100060000C941D0E0C94890207634236B79BD8A7E7
:100070001A39685618AEBAAB558C1D3CB7CC5763CD
:10008000BD6DEDFD753EF6177231BF000000803F7B
:1000900000407A10F35A00A0724E18090010A5D43F
:1000A000E80000E87648170000E40B54020000CA9C
:1000B0009A3B000000E1F5050000809698000000E2
:1000C00040420F000000A086010000001027000041
:1000D0000000E803000000006400000000000A00C7
:1000E000000000000100000000002C76D888DC67CA
:1000F0004F0823DFC1DFAE59E1B1B796E5E3E45322
:10010000C63AE651997696E8E6C28426EB898C9B3E
:1001100062ED407C6FFCEFBC9C9F40F2BAA56FA5DE
:10012000F490055A2AF75C936B6CF9676DC11BFC60
:10013000E0E40D47FEF520E6B500D0ED902E03007B
:10014000943577050080841E080000204E0A0000C8
:1001500000C80C333333330F986E12831141EF8D87
:100160002114893BE65516CFFEE6DB18D1844B38C7
:100170001BF77C1D901DA4BBE424203284725E22F8
:100180008100C9F124ECA1E53D27005EBCE2613F9E
:10019000DD83C29C7E20A3FD1F41009D23BE46DB64
:1001A00065F88C11AF32CA57E974000000002500D1
:1001B00028002B00000000080002010000030407D3
:1001C00000000000000000002C22757074696D654D
:1001D000223A00226669726D77617265223A223096
:1001E0002E302E336122002268617264776172655D
:1001F000223A22726F6F6D2D76302E3561222C00DF
:10020000226572726F72223A22496E76616C69645D
:10021000206368616E6E656C22007D007B00226148
:10022000646472657373223A002C2276616C756582
:10023000223A002C22706F736974696F6E223A0043
:100240002C2270696E223A00226368616E6E656CC2
:10025000223A002C226368616E6E656C73223A5BF1
:1002600000226D657472696373223A7B002C2270E0
:10027000686F746F223A002C226C65616B31223AF0
:10028000002C226C65616B30223A002C22636F32A5
:10029000223A002C22776174657231223A002C22B6
:1002A000776174657230223A002C22767064223AAB
:1002B000002C2268656174496E64657832223A00C8
:1002C0002C2268756D696469747932223A002C2297
:1002D00074656D704332223A002C2274656D70464D
:1002E00032223A002C2268656174496E6465783167
:1002F000223A002C2268756D696469747931223A5A
:10030000002C2274656D704331223A002C227465F2
:100310006D704631223A002C2268656174496E6422
:10032000657830223A002C2268756D6964697479A9
:1003300030223A002C2274656D704330223A002C32
:100340002274656D704630223A00226D656D223A46
:1003500000537769746368696E67206F666600533F
:100360007769746368696E67206F6E0052455354F5
:100370002073657276696365206C697374656E6954
:100380006E67206F6E3A2000582D506F776572654A
:10039000642D42793A2043726F7044726F69640031
:1003A000436F6E74656E742D547970653A20617078
:1003B000706C69636174696F6E2F6A736F6E004849
:1003C0005454502F312E312035303020496E746511
:1003D000726E616C20536572766572204572726F21
:1003E0007200485454502F312E3120343034204E76
:1003F0006F7420466F756E6400485454502F312E30
:100400003120323030204F4B004448435020466169
:10041000696C656400496E697469616C697A696EBA
:100420006720726F6F6D2E2E2E00000000002300DB
:100430002600290004040404040404040202020245
:100440000202030303030303010204081020408097
:1004500001020408102001020408102015040904F8
:10046000F903E203BF03A00388036C035F03510396
:100470004A033F033403260317030C030103F3026B
:10048000E402D902CE02C002B102A9029E02930286
:100490008B02810277026D02610253024802400220
:1004A000330229021E021C021A0200020000000090
:1004B000E701D301C80100000000240027002A0042
:1004C0008C2511241FBECFEFD8E0DEBFCDBF12E0D8
:1004D000A0E0B1E0EEE6FFE602C005900D92AC3977
:1004E000B107D9F724E0ACE9B2E001C01D92A03D0C
:1004F000B207E1F712E0C1E6D2E004C02197FE01A5
:100500000E949436C036D107C9F70E9411270C9477
:10051000B5370C9400002F923F924F925F926F92EA
:100520007F928F929F92AF92BF92CF92DF92EF9283
:10053000FF920F931F93CF93DF93CDB7DEB7C95FC1
:10054000D1400FB6F894DEBF0FBECDBF0E94B012EF
:100550004B015C0100E011E0F8E42F2EF1E03F2EAA
:10056000412C512C32014A94F80180819181A28161
:10057000B3818F3F9105A105B105B9F1C480D58044
:10058000E680F780A50194012C193D094E095F0909
:10059000C251DE4F288339834A835B83CE5ED140CC
:1005A0004085518562857385C251DE4FC880D980F0
:1005B000EA80FB80CE5ED1404C155D056E057F055F
:1005C000A0F460E00E947717D8014D925D926D9281
:1005D0007C921397F801148215821682178218965E
:1005E0001D921D921D921C921B97045F1F4F201697
:1005F000310609F0B9CF87EB93E00E94FD136BE859
:10060000A62E63E0B62E10E078EE472E73E0572E4C
:10061000612C712CE1EE8E2EE1E09E2E1C821B825D
:100620004D825E826F8278869A8289821D87F5016B
:10063000219131915F018091BB039091BC032817F8
:10064000390711F5CE0101960E940613873111F08A
:100650008C31D1F4CE0101960E944F10892BA1F06C
:100660002B813C818D819E81AF81B885C984DA84DC
:10067000EB84FC84CA50DE4FC882D982EA82FB82B6
:10068000C65FD1401D8509C01F5F143039F688EE62
:1006900093E0A0E0B0E020E030E03093AD032093A1
:1006A000AC038093AE039093AF03A093B003B093D9
:1006B000B103CA50DE4FC880D980EA80FB80C65F94
:1006C000D140C092B203D092B303E092B403F0924F
:1006D000B5031093B6031430C1F07E0128E8E21A86
:1006E0002EEFF20A6E0134E2C31A3EEFD30A8701FD
:1006F00006C08AEA93E00E944F10892B41F48AEAEF
:1007000093E00E947F138111F4CF10E078C58AEA4C
:1007100093E00E94ED0F8A3049F08D3039F0CE140D
:10072000DF0421F0D7018D937D01E9CFCE51DE4F5B
:1007300019821882C25ED140CC51DE4F19821882D4
:10074000C45ED140CA51DE4F19821882C65ED140C4
:10075000F80101900020E9F73197AF01401B510BE0
:10076000B801CE018E519E4F0E94071860E2CE0163
:100770008E519E4F0E94EE179C0140E050E0BE015A
:100780006E517E4FC6010E9447186FE2CE018E5116
:100790009E4F0E94EE177C01CA51DE4F88819981DD
:1007A000C65ED140E816F90698F4CE51DE4FA88017
:1007B000B980C25ED14060E270E0C5018E0D9F1D20
:1007C0000E948637009721F09C012A193B0902C03C
:1007D0002FEF3FEFA701BE016E517E4FCE01019674
:1007E0000E944718CE51DE4F88819981C25ED14068
:1007F0000097E9F069817A8161157105B1F0CC51FA
:10080000DE4F48815981C45ED1402D813E8142171F
:10081000530758F00E9491378D819E81CA51DE4F57
:1008200099838883C65ED1401CC00E94442D898173
:100830009A81CE51DE4F99838883C25ED1408B81ED
:100840009C81CC51DE4F99838883C45ED1408D81D9
:100850009E81CA51DE4F99838883C65ED1401A8239
:10086000198289819A810E94442DCA51DE4FE88005
:10087000F980C65ED140E114F10411F4F80114C00E
:10088000F3E6EF16F10418F053E6E52EF12CCE5105
:10089000DE4F68817981C25ED140A701C8010E9404
:1008A000A637F801EE0DFF1D10826FE272E0C8015D
:1008B0000E94922F8C016FE272E080E090E00E9433
:1008C000922F7C016FE272E080E090E00E94922F14
:1008D0005C0145E050E061E372E0C8010E94983796
:1008E000892B09F0C9C26BE671E0CE0101960E9426
:1008F0009137E8E9F4E0659174918CEE92E00E9402
:100900008B2F6CEE72E0CE0101960E947B37E0E700
:10091000F4E0659174918CEE92E00E948B2F6CEE66
:1009200072E0CE0101960E947B378091CA049091BB
:10093000CB049E0128513E4F5901009721F4C90173
:10094000805D944004C0A901481B590BCA014AE0CC
:1009500062EE72E00E94BE2F62EE72E0CE0101965E
:100960000E947B37E2E7F4E0659174918CEE92E0AF
:100970000E948B2F6CEE72E0CE0101960E947B37B5
:100980006091DE027091DF028091E0029091E102BD
:1009900002EE12E022E044E00E948C2CB801CE016D
:1009A00001960E947B37E4E7F4E0659174918CEE48
:1009B00092E00E948B2F6CEE72E0CE0101960E94B5
:1009C0007B376091DA027091DB028091DC029091BA
:1009D000DD0222E044E00E948C2CB801CE01019699
:1009E0000E947B37E6E7F4E0659174918CEE92E02B
:1009F0000E948B2F6CEE72E0CE0101960E947B3735
:100A00006091D6027091D7028091D8029091D9025C
:100A100022E044E00E948C2CB801CE0101960E9495
:100A20007B37E8E7F4E0659174918CEE92E00E94E8
:100A30008B2F6CEE72E0CE0101960E947B376091A5
:100A4000D2027091D3028091D4029091D50222E01B
:100A500044E00E948C2CB801CE0101960E947B37A5
:100A6000EAE7F4E0659174918CEE92E00E948B2F9E
:100A70006CEE72E0CE0101960E947B376091CE024F
:100A80007091CF028091D0029091D10222E044E097
:100A90000E948C2CB801CE0101960E947B37ECE7B6
:100AA000F4E0659174918CEE92E00E948B2F6CEED5
:100AB00072E0CE0101960E947B376091CA0270916C
:100AC000CB028091CC029091CD0222E044E00E94C2
:100AD0008C2CB801CE0101960E947B37EEE7F4E042
:100AE000659174918CEE92E00E948B2F6CEE72E017
:100AF000CE0101960E947B376091C6027091C702B9
:100B00008091C8029091C90222E044E00E948C2C9E
:100B1000B801CE0101960E947B37E0E8F4E06591D0
:100B200074918CEE92E00E948B2F6CEE72E0CE01FD
:100B300001960E947B376091C2027091C30280913E
:100B4000C4029091C50222E044E00E948C2CB801BE
:100B5000CE0101960E947B37E2E8F4E06591749142
:100B60008CEE92E00E948B2F6CEE72E0CE0101962B
:100B70000E947B376091BE027091BF028091C002DB
:100B80009091C10222E044E00E948C2CB801CE0179
:100B900001960E947B37E4E8F4E0659174918CEE55
:100BA00092E00E948B2F6CEE72E0CE0101960E94C3
:100BB0007B376091BA027091BB028091BC02909128
:100BC000BD0222E044E00E948C2CB801CE010196C7
:100BD0000E947B37E6E8F4E0659174918CEE92E038
:100BE0000E948B2F6CEE72E0CE0101960E947B3743
:100BF0006091B6027091B7028091B8029091B902EB
:100C000022E044E00E948C2CB801CE0101960E94A3
:100C10007B37E8E8F4E0659174918CEE92E00E94F5
:100C20008B2F6CEE72E0CE0101960E947B376091B3
:100C3000B2027091B3028091B4029091B50222E0A9
:100C400044E00E948C2CB801CE0101960E947B37B3
:100C5000EAE8F4E0659174918CEE92E00E948B2FAB
:100C60006CEE72E0CE0101960E947B376091AE027D
:100C70007091AF028091B0029091B10222E044E005
:100C80000E948C2CB801CE0101960E947B37ECE8C3
:100C9000F4E0659174918CEE92E00E948B2F6CEEE3
:100CA00072E0CE0101960E947B376091AA0270919A
:100CB000AB028091AC029091AD0222E044E00E9430
:100CC0008C2CB801CE0101960E947B37EEE8F4E04F
:100CD000659174918CEE92E00E948B2F6CEE72E025
:100CE000CE0101960E947B376091A6027091A70207
:100CF0008091A8029091A90222E044E00E948C2CED
:100D0000B801CE0101960E947B37E0E9F4E06591DD
:100D100074918CEE92E00E948B2F6CEE72E0CE010B
:100D200001960E947B376091A2027091A30280918C
:100D3000A4029091A50222E044E00E948C2CB8010C
:100D4000CE0101960E947B37E2E9F4E0659174914F
:100D50008CEE92E00E948B2F6CEE72E0CE01019639
:100D60000E947B374AE0B8018091A0029091A102D5
:100D70000E94BE2FB801CE0101960E947B37E4E9A4
:100D8000F4E0659174918CEE92E00E948B2F6CEEF2
:100D900072E0CE0101960E947B374AE0B801809153
:100DA0009E0290919F020E94BE2FB801CE01019633
:100DB0000E947B37E6E9F4E0659174918CEE92E055
:100DC0000E948B2F6CEE72E0CE0101960E947B3761
:100DD0004AE0B80180919C0290919D020E94BE2F32
:100DE000B801CE0101960E947B3769E671E0CE0121
:100DF00001960E947B37EAE9F4E0659174918CEEEC
:100E000092E00E948B2F6CEE72E0CE0101960E9460
:100E10007B374DE5E42E41E0F42E00E010E0D701F1
:100E20009C9011969C91B2E0EB0EF11C4AE0B5014A
:100E3000892D0E94BE2F892D0E944E174AE0BE01C7
:100E400065517E4F0E94BE2FBE0165517E4FCE017F
:100E500001960E947B370530110531F067E372E09F
:100E6000CE0101960E947B370F5F1F4F06301105A0
:100E7000B1F66BE571E07FC045E050E069E372E0F8
:100E8000C8010E949837892B09F081C0E114F10450
:100E900009F4A7C1E8E7EE16E2E0FE0609F4A1C1F5
:100EA000C7010E94642F7C014AE050E060E070E0DE
:100EB000C5010E946F2E2B013C01F5E0EF16F104F5
:100EC000A0F5672B682B692B81F1F701EE0FFF1F4F
:100ED000E35AFE4FA080B1808CE08E9D80018F9DF3
:100EE000100D112400501F4FC501BB0CAA0BBB0BEA
:100EF000F80180839183A283B3830E94B012D8014A
:100F000014966D937D938D939C931797A8EEB3E001
:100F1000A30192010E94BB33F80160877187828729
:100F2000938761E08A2D0E9477176BE671E0CE010E
:100F300001960E9491376FE372E0CE0101960E9404
:100F40007B374AE062EE72E0C7010E94BE2F62EE7C
:100F500072E0CE0101960E947B376AE472E0CE0116
:100F600001960E947B374AE062EE72E0C2010E9465
:100F7000BE2F62EE72E0CE0101960E947B3769E6D9
:100F800071E0CE0101960E947B3710E0FBC046E085
:100F900050E067E572E0C8010E949837892BD1F4D0
:100FA000C7010E94642F8C01C5010E94642F063086
:100FB000110508F438C16BE671E0CE0101960E947C
:100FC0009137EAEAF4E0659174918CEE92E00E9428
:100FD0008B2F26C146E050E06EE572E0C8010E940A
:100FE0009837892B99F5C5010E94642F182FC701E6
:100FF0000E94642F612F0E9450256BE671E0CE01A4
:1010000001960E949137E4EAF4E0659174918CEEC8
:1010100092E00E948B2F6CEE72E0CE0101960E944E
:101020007B37B701CE0101960E947B37E2EAF4E0FC
:10103000659174918CEE92E00E948B2F6CEE72E0C1
:10104000CE0101960E947B37B50195CF46E050E076
:1010500065E672E0C8010E949837892B49F46BE677
:1010600071E0CE0101960E949137ECEAF4E013C0E2
:1010700045E050E06CE672E0C8010E949837892B89
:10108000F1F40E9454256BE671E0CE0101960E94B6
:101090009137EEEAF4E0659174918CEE92E00E9453
:1010A0008B2F6CEE72E0CE0101960E947B3769E6D1
:1010B00071E0CE0101960E947B3711E063C043E0EE
:1010C00050E062E772E0C8010E949837892B09F06E
:1010D0003AC06BE671E0CE0101960E949137E0EBD9
:1010E000F4E0659174918CEE92E00E948B2F6CEE8F
:1010F00072E0CE0101960E947B37E2EBF4E065914D
:1011000074918CEE92E00E948B2F6CEE72E0CE0117
:1011100001960E947B37E4EBF4E0659174918CEECC
:1011200092E00E948B2F6CEE72E0CE0101960E943D
:101130007B370E94B012DC01CB014AE06CEE72E01A
:101140000E94BE2F6DC0E2E6F4E0659174918CEED2
:1011500092E00E948B2F8CEE92E00E942221E8E622
:10116000F4E0659174918CEE92E00E948B2F8CEEEE
:1011700092E00E94222166E772E08AEA93E00E94F0
:10118000D7182FC0E0E6F4E0659174918CEE92E000
:101190000E948B2F8CEE92E00E942221E8E6F4E080
:1011A000659174918CEE92E00E948B2F8CEE92E010
:1011B0000E942221E6E6F4E0659174918CEE92E0C3
:1011C0000E948B2F8CEE92E00E94222166E772E053
:1011D0008AEA93E00E94D718CE0101960E9422214C
:1011E00001C010E0D6018D919C910E94442DCE51FA
:1011F000DE4F88819981C25ED1400E94442D64E611
:1012000070E080E090E00E947F198AEA93E00E94FB
:10121000A313112309F45EC0E0E0F0E009955AC081
:101220006CEE72E0A8CE000F111F019711F461E07F
:1012300001C060E0F801E35AFE4F80810E947717F9
:101240006BE671E0CE0101960E949137ECE9F4E083
:10125000659174918CEE92E00E948B2F6CEE72E09F
:10126000CE0101960E947B37B701CE0101960E9404
:101270007B37EEE9F4E0659174918CEE92E00E9488
:101280008B2F6CEE72E0CE0101960E947B37F80145
:10129000E35AFE4F10814AE06CEE72E0812F91819B
:1012A0000E94BE2F6CEE72E0CE0101960E947B3749
:1012B000E0EAF4E0659174918CEE92E00E948B2F4D
:1012C0006CEE72E0CE0101960E947B37812F0E9466
:1012D0004E1733CFC750DE4F0FB6F894DEBF0FBEA8
:1012E000CDBFDF91CF911F910F91FF90EF90DF90D5
:1012F000CF90BF90AF909F908F907F906F905F90B6
:101300004F903F902F900895FC01818D928D08950C
:10131000FC0184899589089521E232E0FC01318342
:101320002083FB014089518962897389FC014283D2
:101330005383648375830895DC01ED91FC91048CE3
:10134000F58DE02D099480E008952A9A08952A9851
:1013500008958EBD00000DB407FEFDCF8EB5089533
:101360008FEF9FEF08958FEF9FEF0895809188038F
:1013700090E0919581959109089580E090E008951D
:10138000CF93DF93CB01EA01642F0E942825CE0181
:10139000DF91CF910895CF93DF931F92CDB7DEB742
:1013A000698361E0CE0101960E94282581E090E0EA
:1013B0000F90DF91CF910895FC011382128288EE85
:1013C00093E0A0E0B0E084839583A683B78381E7B0
:1013D00091E09183808381E292E097878687108AEB
:1013E000118A128A138A84E0808F0895AF92BF9287
:1013F000CF92DF92EF92FF920F931F93CF93DF93E1
:10140000CDB7DEB7AF970FB6F894DEBF0FBECDBF36
:101410007C015B016A0101E212E01A8309831B82ED
:101420001C821D821E82CE0109960E94DC091BA728
:101430000AA71CA61DA61EA61FA680919E0390911A
:101440009F03A091A003B091A1038EA39FA3A8A77F
:10145000B9A78B839C83AD83BE8318861F82AE01A0
:10146000465D5F4FB501CE0101960E94B9198130EA
:101470009105B1F4D701ED91FC910488F589E02D37
:101480001DA30CA38CA59DA5AEA5BFA58EA39FA350
:10149000A8A7B9A7A601BE016C5D7F4FC70109953A
:1014A000AF960FB6F894DEBF0FBECDBFDF91CF91E0
:1014B0001F910F91FF90EF90DF90CF90BF90AF9072
:1014C0000895CF92DF92EF92FF920F931F93CF93E5
:1014D000DF93EC017A018B016C01C40ED51ECC1593
:1014E000DD05A9F00E94A7098FE00E94A9098D2FB0
:1014F0000E94A9098C2F0E94A909219680E00E94D0
:10150000A909F80181938F010E94A509E8CFC701BD
:10151000DF91CF911F910F91FF90EF90DF90CF90CF
:101520000895CF92DF92EF92FF920F931F93CF9384
:10153000DF93EC017A018B016C01C40ED51ECC1532
:10154000DD05A1F00E94A70980EF0E94A9098D2F57
:101550000E94A9098C2F0E94A9092196F801819166
:101560008F010E94A9090E94A509E9CFC701DF9157
:10157000CF911F910F91FF90EF90DF90CF90089542
:101580001F93CF93DF93D82F192FC62F0E94A7093F
:1015900080EF0E94A909812F0E94A9098D2F0E9426
:1015A000A9098C2F0E94A9090E94A50981E0DF9159
:1015B000CF911F9108959B0190E00496982F882762
:1015C000642F820F931F0C94C00ACF93DF9390E097
:1015D0000496982F8827EC01C60FD71F0E94A709F1
:1015E0008FE00E94A9098D2F0E94A9098C2F0E94CB
:1015F000A90980E00E94A909C82F0E94A5098C2F83
:10160000DF91CF9108951F93CF93DF93182F66E258
:1016100070E00E94E50AC82FD0E067E270E0812FF9
:101620000E94E50ADC2FCC279E01282BC901DF91FF
:10163000CF911F9108951F93CF93DF93182F60E2EE
:1016400070E00E94E50AC82FD0E061E270E0812FCF
:101650000E94E50ADC2FCC279E01282BC901DF91CF
:10166000CF911F910895CF93DF93C82FD62F472F87
:1016700060E170E00E94DB0A4D2F61E170E08C2F89
:10168000DF91CF910C94DB0A90E0982F882744E0FB
:1016900050E0845F9B4F0C94910A08958CBD9DBDD2
:1016A0000895CF92DF92FF920F931F93CF93DF9312
:1016B00000D0CDB7DEB7F82E6B01CE0101960E94A7
:1016C000452189819A810E944E0B68E270E08F2D3E
:1016D0000E94E50A082F10E069E270E08F2D0E9459
:1016E000E50A702F6627682B21E030E0A6018F2DD8
:1016F0000E947C2281E090E00F900F90DF91CF91CB
:101700001F910F91FF90DF90CF900895DF92EF929D
:10171000FF920F931F93CF93DF9300D0CDB7DEB727
:10172000D82ECE0101960E94452189819A810E947E
:101730004E0BE12CF12C8D2D0E94030B8C01892B7B
:1017400021F08D2D0E94030B7C010E151F0599F7CA
:10175000C8010F900F90DF91CF911F910F91FF90D3
:10176000EF90DF9008958F929F92BF92CF92DF9279
:10177000EF92FF920F931F93CF93DF9300D0CDB7DB
:10178000DEB7B82E6B017A01CE0101960E94452189
:1017900089819A810E944E0B812C912C8B2D0E9465
:1017A000030B8C01892B21F08B2D0E94030B4C0124
:1017B0000815190599F70115110599F463E070E012
:1017C0008B2D0E94E50A8431D9F18823C9F101E00B
:1017D00010E08C3111F400E010E011950195110931
:1017E0002FC0E016F1060CF487011016110644F51F
:1017F00068E270E08B2D0E94E50AE82EF12C69E288
:1018000070E08B2D0E94E50AFE2CEE24E82A980158
:10181000A601B7018B2D0E947C22E00EF11E4F2DF8
:1018200068E270E08B2D0E94DB0A4E2D69E270E0C9
:101830008B2D0E94DB0A60E470E08B2D0E94352125
:10184000C8010F900F90DF91CF911F910F91FF90E2
:10185000EF90DF90CF90BF909F908F9008951F934F
:10186000CF93DF9300D0CDB7DEB7182FCE0101960E
:101870000E94452189819A810E944E0B60E170E0AF
:10188000812F0E9435214FEF62E070E0812F0E948E
:10189000DB0A0F900F90DF91CF911F910895CF93A6
:1018A000DF93EC01888D843061F00E942F0CE88D6D
:1018B000F0E0EE0FFF1FE557FC4F1182108284E02D
:1018C000888FDF91CF910895DF92EF92FF920F936F
:1018D0001F93CF93DF9300D0CDB7DEB7182FD62E4E
:1018E0007A01022F0E942F0CCE0101960E94452101
:1018F00089819A810E944E0B4D2D402B60E070E053
:10190000812F0E94DB0AE114F10459F4E09089036D
:10191000F0908A038FEFE81AF80AF0928A03E092B7
:1019200089034F2D64E070E0812F0E94DB0A4E2D69
:1019300065E070E0812F0E94DB0A61E070E0812F9A
:101940000E94352181E00F900F90DF91CF911F9180
:101950000F91FF90EF90DF9008951F93CF93DF9347
:1019600000D0CDB7DEB7182FCE0101960E944521D9
:1019700089819A810E944E0B63E070E0812F0E9462
:10198000E50A0F900F90DF91CF911F910895EF928C
:10199000FF921F93CF93DF93FC01208D243011F031
:1019A00080E01CC07B01EC0110E0812F0E94AD0C97
:1019B000811102C0188F05C08831E1F31F5F143018
:1019C000A1F7888D843061F3FD86EC861A8E198E1E
:1019D00020E0A70162E00E94640C81E0DF91CF91DA
:1019E0001F91FF90EF900895CF92DF92EF92FF92B8
:1019F0001F93CF93DF93EC011F81662311F0912F8A
:101A000001C090E0288530E0220F331F265D3B4F58
:101A1000A0E0B0E0F90145915491FA018081812361
:101A2000AD0160E070E098130FC01196CD84DE84A4
:101A3000EF84F8884C155D056E057F0558F33FEF80
:101A40002FEF8FEF9FEF03C03A2F252FCB01632F8E
:101A5000722FDF91CF911F91FF90EF90DF90CF9089
:101A60000895CF93DF93EC0162E08D810E94A61769
:101A70000E94B012DC01CB01805D9740A109B10941
:101A800089879A87AB87BC87DF91CF910895DC0166
:101A900080E0615098F02D91982F9227E92FEF70F8
:101AA000F0E0E657FE4F249192959F70E92FF0E009
:101AB000E656FE4FE491822F8E27EBCF0895FC016E
:101AC00090810180F281E02DF8948181892B8183BE
:101AD0002281892F809528232283A7E0B0E01197E7
:101AE000F1F7218182238183A3E2B0E01197F1F71E
:101AF00080817894EFECF0E03197F1F7982381E062
:101B000009F480E00895FC0190810180F281E02DCC
:101B1000892F809560FF12C0F894228182238283EE
:101B20008181892B8183A3E2B0E01197F1F7828153
:101B3000982B9283789487ED90E011C0F8942281DD
:101B4000822382838181892B8183AFEFB0E011975B
:101B5000F1F78281982B928378948FE090E001973F
:101B6000F1F70895DF92EF92FF920F931F93CF93B7
:101B7000DF93EC01D62EE42E08E010E0FF24F3946E
:101B800061E08D2D8F2109F460E0CE010E94830D6C
:101B9000FF0C01501109A1F7E11010C0F894E98180
:101BA000FA8191818881809589238183E981FA81F5
:101BB000928188818095892382837894DF91CF9167
:101BC0001F910F91FF90EF90DF900895DC012C9111
:101BD0001196ED91FC911297F8948181922F909536
:101BE0008923818378948DE743E050E0815021F18F
:101BF000DA011197F1F730813223C1F3F894828131
:101C0000892382838181822B81837894ABE7B7E03B
:101C10001197F1F7F89481819823918383E191E002
:101C20000197F1F78081282381E009F080E0789422
:101C3000E3E6F6E03197F1F708951F920F920FB6A1
:101C40000F9211242F933F934F935F936F937F9342
:101C50008F939F93AF93BF93EF93FF938091B900BE
:101C6000887F803609F49CC068F5883209F45BC02F
:101C700090F4803109F454C038F4882309F4F2C098
:101C8000883009F44DC0F2C0883109F44CC080326C
:101C900009F45DC0EBC0803409F468C048F48033B7
:101CA00009F455C0883309F0E1C080936203D4C0C1
:101CB000803509F44FC0883509F45DC0883409F0D7
:101CC000D5C0D2C0883909F4C3C0A8F4883709F454
:101CD00067C038F4883609F463C0803709F460C0FF
:101CE000C5C0883809F4B4C0803909F45FC08038B1
:101CF00009F0BCC05BC0803B09F484C038F4803A72
:101D000009F466C0883A09F47DC0B0C0803C09F48B
:101D1000A3C0883C09F4A0C0883B09F486C0A6C0D3
:101D20008091870310C09091860380918503981756
:101D300070F5E091860381E08E0F80938603F0E0DA
:101D4000EB59FC4F80818093BB0085EC82C080936F
:101D500062038AC0E091860381E08E0F8093860340
:101D60008091BB00F0E0EB59FC4F8083909186039B
:101D7000809185036AC0E091860381E08E0F809395
:101D800086038091BB00F0E0EB59FC4F808380918B
:101D90006403811169C081E08093630384EA5DC0BC
:101DA00083E080933F0310926103CFCF8091610362
:101DB000803208F04DC0E091610381E08E0F809386
:101DC00061038091BB00F0E0EF5BFC4F8083BDCFEF
:101DD00085EC8093BC0010923F03809161038032B8
:101DE00030F4E0916103F0E0EF5BFC4F1082609112
:101DF000610370E081E493E0E0E0F0E00995109287
:101E0000610334C084E080933F031092400310923A
:101E10003E03E0E0F0E0099580913E03811105C0AA
:101E200081E080933E0310921E03E091400381E025
:101E30008E0F80934003F0E0E25EFC4F8081809340
:101E4000BB009091400380913E03981708F47DCF2A
:101E500085E88093BC000AC085EC8093BC0010929A
:101E60003F0304C0109262030E941E25FF91EF9170
:101E7000BF91AF919F918F917F916F915F914F91A2
:101E80003F912F910F900FBE0F901F901895CF93F9
:101E9000DF931F92CDB7DEB76983DC01ED91FC9132
:101EA0000280F381E02D41E050E0BE016F5F7F4F83
:101EB00009950F90DF91CF910895FC019485FB0166
:101EC0008485981303C081E0943009F480E008957C
:101ED00021E0FC018485843009F420E0822F0895FC
:101EE0000895CF93DF931F92CDB7DEB76983DC01EE
:101EF000ED91FC910280F381E02D41E050E0BE01C4
:101F00006F5F7F4F09950F90DF91CF910895DC01AE
:101F1000ED91FC91068CF78DE02D099591E08927D4
:101F20000895862F089581E0862708950895CF9318
:101F3000DF931F92CDB7DEB76983DC01ED91FC9191
:101F40000280F381E02D41E050E0BE016F5F7F4FE2
:101F500009950F90DF91CF9108950F931F93CF9321
:101F6000DF931F92CDB7DEB78C01DC01ED91FC91C0
:101F70000084F185E02D0995892B51F0BE016F5F3A
:101F80007F4FF80184850E94510B898190E002C047
:101F90008FEF9FEF0F90DF91CF911F910F910895D9
:101FA000CF93DF931F92CDB7DEB7FC01218D328D29
:101FB000232B49F0BE016F5F7F4F808D0E94510B34
:101FC000898190E002C08FEF9FEF0F90DF91CF915A
:101FD0000895FC0184850C94B30BCF93DF931F927B
:101FE000CDB7DEB741E050E0BE016F5F7F4FFC012F
:101FF00084850E94B30B181619061CF4898190E0A1
:1020000002C08FEF9FEF0F90DF91CF910895CF9394
:10201000DF93FC01218D328D2115310519F48FEFED
:102020009FEF11C0EC014217530708F0A901888DFA
:102030000E94B30B1816190694F7298D3A8D281BA8
:10204000390B3A8F298FDF91CF9108950F931F930A
:10205000CF93DF931F92CDB7DEB7FC01218D328D78
:10206000232B61F08C0141E050E0BE016F5F7F4F98
:10207000808D0E94B30B181619061CF08FEF9FEF8E
:1020800008C0F801818D928D0197928F818F89818F
:1020900090E00F90DF91CF911F910F910895FC0177
:1020A0008485843011F00C94860B80E090E00895D4
:1020B0001F93CF93DF9300D0CDB7DEB7FC01108D17
:1020C000CE0101960E94452189819A810E944E0B82
:1020D00060E270E0812F0E94352162E070E0812F84
:1020E0000E94E50A84FD1DC062E070E0812F0E941D
:1020F000E50A83FF0BC048E162E070E0812F0E9497
:10210000DB0A0E944D0B80E090E015C00E944D0B51
:10211000CE0101960E94452189819A810E944E0B31
:10212000DCCF40E162E070E0812F0E94DB0A0E9478
:102130004D0B81E090E00F900F90DF91CF911F91B8
:1021400008956F927F928F929F92AF92BF92CF929B
:10215000DF92EF92FF920F931F93CF93DF9300D004
:10216000CDB7DEB75C013B016A01FC011485143078
:1021700041F481E090E0F5019383828380E090E078
:1021800064C07A014130584018F0E12C88E0F82E04
:10219000CE0101960E94452189819A810E944E0BB1
:1021A000812F0E9428234C0163E070E0812F0E9460
:1021B000E50A082F0E944D0B073111F00C3121F474
:1021C0008E149F0428F302C0E12CF12CCE0101965D
:1021D0000E94452189819A810E944E0B9701A3019B
:1021E00060E070E0812F0E94C32260E270E0812FE6
:1021F0000E94352162E070E0812F0E94E50A84FD93
:1022000018C063E070E0812F0E94E50A811106C0CA
:102210000E944D0B812F0E942F0CABCF0E944D0BC3
:10222000CE0101960E94452189819A810E944E0B20
:10223000E1CF40E162E070E0812F0E94DB0A0E9462
:102240004D0BEF2809F495CFC6010F900F90DF9149
:10225000CF911F910F91FF90EF90DF90CF90BF90A3
:10226000AF909F908F907F906F9008958F929F92E4
:10227000AF92BF92DF92EF92FF920F931F93CF9393
:10228000DF9300D0CDB7DEB77C014B018A01FC01A2
:10229000A688B788D08CCE0101960E9445218981FD
:1022A0009A810E944E0B8D2D0E9428238017910742
:1022B00020F48D2D0E9428238C019801A401B501E2
:1022C0008D2D0E94C3220E944D0BF70186899789AC
:1022D000800F911F978B868BC8010F900F90DF9115
:1022E000CF911F910F91FF90EF90DF90BF90AF9033
:1022F0009F908F900895DF92EF92FF920F931F931C
:10230000CF93DF9300D0CDB7DEB7FB01DC0157964A
:102310001C921E9256972281211109C023812111FE
:1023200006C02481211103C025812223F1F041152B
:102330005105D9F07A018F01FC01D08CCE010196B4
:102340000E94452189819A810E944E0BB8016E5FDF
:102350007F4F8D2D0E94440BB7018D2D0E94330BB2
:102360000E944D0B81E090E002C080E090E00F9071
:102370000F90DF91CF911F910F91FF90EF90DF9021
:102380000895BF92CF92DF92EF92FF920F931F9327
:10239000CF93DF9300D000D000D0CDB7DEB7FC01E3
:1023A000208D243009F04CC06A017B018C01B12CD6
:1023B00063E070E08B2D0E94E50A811103C0F801F3
:1023C000B08E06C08831D9F3B394F4E0BF12F0CFD9
:1023D000F801808D8430A1F196E0E5E9F1E0DE01BD
:1023E000119601900D929A95E1F7F70193819F77ED
:1023F0009C8394819D8395819E83B7016E5F7F4FFF
:102400000E94440BB601F801808D0E94330BF80145
:10241000808D90E0982F882746E050E0BE016F5FE6
:102420007F4F8A5F9B4F0E94910AF801128E118E96
:1024300020E8A60162E0808D0E94640C81E001C06A
:1024400080E026960FB6F894DEBF0FBECDBFDF91B9
:10245000CF911F910F91FF90EF90DF90CF90BF90A1
:1024600008950F931F93CF93DF93CDB7DEB72897CF
:102470000FB6F894DEBF0FBECDBF8C01D8015996C0
:102480008D919C915A97892B41F0ED91FC9102849A
:10249000F385E02DC8010995F1CFF801808D0E94E8
:1024A000860B1816190654F548E050E0BE016F5F20
:1024B0007F4FD80158968C910E94B30B18161906BD
:1024C000FCF4D801509684E0FE01319601900D9203
:1024D0008A95E1F78D8190E0982F88272E81820FD1
:1024E000911DF801958B848B8F8190E0982F882720
:1024F0002885820F911D928F818F02C080E090E02D
:1025000028960FB6F894DEBF0FBECDBFDF91CF91F6
:102510001F910F9108953FB7F8948091980390917F
:102520009903A0919A03B0919B0326B5A89B05C07F
:102530002F3F19F00196A11DB11D3FBFBA2FA92F42
:10254000982F8827820F911DA11DB11DBC01CD01BF
:1025500042E0660F771F881F991F4A95D1F70895AB
:102560002FB7F8946091940370919503809196032E
:10257000909197032FBF08951F920F920FB60F925D
:1025800011242F933F938F939F93AF93BF93809189
:10259000940390919503A0919603B0919703309185
:1025A000930323E0230F2D3720F40196A11DB11DC5
:1025B00005C026E8230F0296A11DB11D20939303A9
:1025C0008093940390939503A0939603B0939703FD
:1025D0008091980390919903A0919A03B0919B03E5
:1025E0000196A11DB11D8093980390939903A09328
:1025F0009A03B0939B03BF91AF919F918F913F91AD
:102600002F910F900FBE0F901F901895FC0184859D
:10261000843011F00C94AD0C80E008958F929F925D
:10262000AF92BF92CF92DF92EF92FF920F931F93E0
:10263000CF93DF93CDB7DEB72F970FB6F894DEBFF9
:102640000FBECDBF7C0100E010E038EE832E33E0FA
:10265000932EA12CB12C41EEC42E41E0D42E1C822D
:102660001B828D829E82AF82B886DA82C9820D87F4
:10267000CE0101960E940613811129C0F701448101
:10268000558120E061E0802F0E94640CCE010E96FF
:102690000E9445218E859F850E944E0B63E070E06D
:1026A000802F0E94E50A833129F462E070E0802FD8
:1026B0000E9435210E944D0BF70184819581000F06
:1026C000111FF801E557FC4F9183808305C00F5F10
:1026D0001F4F0430110519F62F960FB6F894DEBF80
:1026E0000FBECDBFDF91CF911F910F91FF90EF9063
:1026F000DF90CF90BF90AF909F908F900895CF9331
:10270000DF93FC0124852430D1F0EC010E940613F4
:10271000843181F0882371F0883161F08C3161F46B
:10272000E881F9810084F185E02DCE01099521E051
:10273000892B19F420E001C021E0822F01C080E044
:10274000DF91CF910895CF92DF92EF92FF920F9396
:102750001F93CF93DF9300D0CDB7DEB7DC011C967B
:10276000FC90B4E0FB16F1F18C01CE0101960E94C1
:10277000452189819A810E944E0B68E070E08F2D7F
:102780000E9435210E944D0B0E94B0126B017C010A
:10279000C8010E9406138823B9F061E070E080E070
:1027A00090E00E947F190E94B012DC01CB018C19CD
:1027B0009D09AE09BF09883E9340A105B10540F3CC
:1027C000F80184850E942F0CD8011C96EC911C976F
:1027D000F0E0EE0FFF1FE557FC4F1182108284E0FE
:1027E0001C968C930F900F90DF91CF911F910F91BA
:1027F000FF90EF90DF90CF9008954F925F926F928D
:102800007F928F929F92AF92BF92CF92DF92EF9280
:10281000FF921F93CF93DF93CDB7DEB72D970FB6FF
:10282000F894DEBF0FBECDBF7C019BE8C92E93E0BC
:10283000D92E10E0A12CB12C28EE422E23E0522EEE
:10284000612C712C31EE832E31E0932E1C821B8281
:102850004D825E826F8278869A8289821D87D60138
:102860002D913D916D01F7018481958128173907DC
:10287000B1F4CE0101960E940613843169F0CE01B5
:1028800001960E9406138C3151F4CE0101960E94EC
:102890004F10892B91F003C0AA24A394B12C1F5F81
:1028A0001430A1F6AB2871F4D701ED91FC910084AE
:1028B000F185E02DC701099505C0CE0101960E9462
:1028C000A313EDCF2D960FB6F894DEBF0FBECDBF8C
:1028D000DF91CF911F91FF90EF90DF90CF90BF904D
:1028E000AF909F908F907F906F905F904F900895E2
:1028F0003F924F925F926F927F928F929F92AF9290
:10290000BF92CF92DF92EF92FF920F931F93CF93DC
:10291000DF93CDB7DEB72D970FB6F894DEBF0FBEAD
:10292000CDBF6C015B014A010E94FD138BE8E82ECC
:1029300083E0F82E312C00E010E098EE492E93E071
:10294000592E612C712C1C821B824D825E826F82FB
:10295000788681EE91E09A8389833D86F701219103
:1029600031917F01F601848195812817390731F46F
:10297000CE0101960E9406138731E9F03394F4E00A
:102980003F12E1CFC8012D960FB6F894DEBF0FBEFF
:10299000CDBFDF91CF911F910F91FF90EF90DF900E
:1029A000CF90BF90AF909F908F907F906F905F90EF
:1029B0004F903F900895A401B501CE0101960E9469
:1029C000A110080F191FDACFAF92BF92DF92EF92DA
:1029D000FF920F931F93CF93DF9300D0CDB7DEB755
:1029E000FC012485243009F078C05A018B017C0158
:1029F000D12C8D2D0E94AD0C811103C0F701D4861E
:102A000007C08B7F8831D1F3D394F4E0DF12F1CF8C
:102A1000F7018485843009F460C020914801309129
:102A200049012F5F3F4F11F420E030EC3093490112
:102A300020934801409148015091490120E061E014
:102A40000E94640CF80182818F3F51F483818F3F93
:102A500099F484818F3F81F485818F3F69F43AC076
:102A600081110AC0F8018381811106C0848181111E
:102A700003C08581882371F1A114B10459F1F701D4
:102A8000D484CE0101960E94452189819A810E94B9
:102A90004E0BB8016E5F7F4F8D2D0E94440BB50128
:102AA0008D2D0E94330B64E070E08D2D0E94352146
:102AB0000E944D0BC7010E940613873189F061E027
:102AC00070E080E090E00E947F19C7010E94061329
:102AD0008111F0CF84E0F701848780E090E002C0AC
:102AE00081E090E00F900F90DF91CF911F910F91B7
:102AF000FF90EF90DF90BF90AF90089544E050E0DA
:102B0000BC018FE090E00C94910AAF92BF92CF92FB
:102B1000DF92EF92FF920F931F93CF93DF93CDB786
:102B2000DEB7AF970FB6F894DEBF0FBECDBF7C0106
:102B30005B016A0101E212E01A8309831B821C8295
:102B40001D821E82CE0109960E94DC091BA70AA7DE
:102B50001CA61DA61EA61FA680919E0390919F03F2
:102B6000A091A003B091A1038EA39FA3A8A7B9A78A
:102B70008B839C83AD83BE8318861F82AE01465D26
:102B80005F4FB501CE0101960E94B91981309105C0
:102B9000B1F4D701ED91FC910684F785E02D1DA3DA
:102BA0000CA38CA59DA5AEA5BFA58EA39FA3A8A78A
:102BB000B9A7A601BE016C5D7F4FC7010995AF960D
:102BC0000FB6F894DEBF0FBECDBFDF91CF911F913E
:102BD0000F91FF90EF90DF90CF90BF90AF9008954E
:102BE000833081F028F4813099F08230A1F008958B
:102BF0008730A9F08830B9F08430D1F4809180001A
:102C00008F7D03C0809180008F778093800008952E
:102C100084B58F7702C084B58F7D84BD089580917F
:102C2000B0008F7703C08091B0008F7D8093B0009B
:102C300008950895CF92DF92EF92FF920F931F9322
:102C4000CF93DF936C017A018B01C0E0D0E0CE1509
:102C5000DF0581F0D8016D918D01D601ED91FC91D8
:102C60000190F081E02DC6010995892B11F0219684
:102C7000EECF7E01C701DF91CF911F910F91FF90A1
:102C8000EF90DF90CF9008950E9460377F928F92EF
:102C90009F92AF92BF92CF92DF92EF92FF920F93EB
:102CA0001F93CF93DF93CDB7DEB7A6970FB6F894F7
:102CB000DEBF0FBECDBF8C01762E942E852E20E276
:102CC000B22ECE0101967C01FC012B2D11922A958A
:102CD000E9F781E292E09AA389A38FEF8BA38CA3FB
:102CE0008DA38EA3680183E4C80ED11C43E450E099
:102CF000BE016F5D7F4FC6010E947B11019609F4F2
:102D0000B9C081E089838A8386E0A82EAB821C82C9
:102D1000F80164817581868197810E9479366D837F
:102D20007E838F83988789869A8680E890E09C8747
:102D30008B874CE150E0B701C6010E943611F701C4
:102D40002B2D11922A95E9F7480188E0880E911CF5
:102D5000F401D70101900D92AA94E1F740E150E00F
:102D6000B701C6010E943611F7011192BA94E9F732
:102D700096E0A92EB12C40E250E0B701C6010E94B6
:102D80003611F1E0AF1AB108B1F783E6898392E812
:102D90009A8393E59B838C8385E38D8381E08E8387
:102DA0007F829DE3988797E099878A8786E0F40180
:102DB000DE011B9601900D928A95E1F78CE0898BDC
:102DC0008A8B69E772E0CE0143960E949137F80141
:102DD0006385CE0149960E944423F8016485CE01A3
:102DE0004B960E944423F8016585CE014D960E94C2
:102DF00044234EE150E0B701C6010E943611F3E0D2
:102E00007F121EC082E3898384E08A83F80196855D
:102E10009B8397859C8390899D8391899E8396E36C
:102E20009F838887828D8987838D8A87848D8B870E
:102E3000858D8C874CE050E0B701C6010E943611A9
:102E400087E3898386E08A8391E09B8393E09C8378
:102E50008D838FE08E838AE38F838BE388878FEF68
:102E6000898749E050E0B701C6010E943611C601CA
:102E70000E945810A6960FB6F894DEBF0FBECDBFC5
:102E8000DF91CF911F910F91FF90EF90DF90CF9046
:102E9000BF90AF909F908F907F900895CF93DF93D6
:102EA000282F30E0F901EC54FE4F8491F901E85BE2
:102EB000FB4FD491F901EC5CFB4FC491CC2391F012
:102EC00081110E94F015EC2FF0E0EE0FFF1FE65D80
:102ED000FB4FA591B491EC91ED2381E090E021F4BA
:102EE00080E002C080E090E0DF91CF9108951F93D1
:102EF000CF93DF93282F30E0F901EC54FE4F8491FB
:102F0000F901E85BFB4FD491F901EC5CFB4FC491F4
:102F1000CC23C1F0162F81110E94F015EC2FF0E0A8
:102F2000EE0FFF1FE655FE4FA591B4919FB7F894A1
:102F3000111104C08C91D095D82302C0EC91DE2BE6
:102F4000DC939FBFDF91CF911F910895CF93DF93C3
:102F500090E0FC01E85BFB4F2491FC01EC5CFB4F33
:102F60008491882361F190E0880F991FFC01EA5455
:102F7000FB4FC591D491FC01E655FE4FA591B4914C
:102F8000611109C09FB7F8948881209582238883B6
:102F9000EC912E230BC0623061F49FB7F8948881C6
:102FA000322F309583238883EC912E2B2C939FBF57
:102FB00006C08FB7F894E8812E2B28838FBFDF914E
:102FC000CF910895DC0181E292E08D939D9384E09E
:102FD000FB0101900D928A95E1F70895CF93DF935D
:102FE000FC0124813581232B69F0C081D181062E1B
:102FF000000C770BCE010E948637009719F08C1BCE
:103000009D0B02C08FEF9FEFDF91CF910895EF925C
:10301000FF920F931F93CF93DF93EC017B018A0103
:1030200088819981009729F02A813B8124173507EF
:10303000F8F4B8016F5F7F4F0E949A36009759F0FD
:10304000998388831B830A832C813D81232B81F400
:10305000FC0110820DC088819981009711F00E94B7
:10306000442D198218821D821C821B821A8207C07D
:103070001D830C83B701888199810E949137CE010D
:10308000DF91CF911F910F91FF90EF900895AF9234
:10309000BF92CF92DF92EF92FF920F931F93CF9345
:1030A000DF938C015B01EA0169012417350720F4E5
:1030B0008D2FE901C42ED82ED80111961C921E9294
:1030C00013961C921E92129715961C921E9214979C
:1030D00040E050E068E772E0C8010E940718F5017F
:1030E000E480F580CE15DF05C8F5CE14DF0408F4C2
:1030F0007601D501ED91FC911197EE0DFF1DD08069
:1031000010826D917C916C0F7D1F6115710561F0CE
:10311000FB0101900020E9F73197AF01461B570BE7
:10312000C8010E94071813C0F8018081918100979F
:1031300011F00E94442DD80111961C921E921596F2
:103140001C921E92149713961C921E921297F501D0
:1031500080819181FC01EE0DFF1DD082C801DF91BD
:10316000CF911F910F91FF90EF90DF90CF90BF9084
:10317000AF9008958E3008F08E5020914A0190E46F
:10318000299F900111248770822B80937C0080916D
:103190007A00806480937A0080917A0086FDFCCF6B
:1031A000809178002091790090E0922B089561152C
:1031B000710579F0FB0101900020E9F73197AF012B
:1031C000461B570BDC01ED91FC910280F381E02D51
:1031D000099480E090E008958F929F92AF92BF9201
:1031E000EF92FF920F931F93CF93DF93CDB7DEB78C
:1031F000A1970FB6F894DEBF0FBECDBF7C01FA01D8
:10320000CB0119A2223008F42AE08E010F5D1F4F76
:10321000822E912CA12CB12CBF01A50194010E94FA
:103220007A33F901CA01015011096A3014F4605D62
:1032300001C0695CD8016C93232B242B252B61F7EB
:10324000B801C7010E94D718A1960FB6F894DEBF47
:103250000FBECDBFDF91CF911F910F91FF90EF90E7
:10326000BF90AF909F908F9008958F929F92AF9252
:10327000BF92CF92DF92EF92FF920F931F93CF9363
:10328000DF937C01EB016C0182E0C80ED11C470189
:10329000E5E08E0E911C00E010E0F60141916F0117
:1032A00050E060E070E02AE0CE010E94EC185C0182
:1032B000E881F9810190F081E02D6EE2CE0109955F
:1032C0008A0D9B1D080F191F8C149D0431F7F701FF
:1032D000458150E060E070E02AE0CE010E94EC18E9
:1032E000800F911FDF91CF911F910F91FF90EF9071
:1032F000DF90CF90BF90AF909F908F9008958F9266
:103300009F92AF92BF92CF92DF92EF92FF926B01AA
:103310007C010E948B124B015C01C114D104E104B9
:10332000F104F1F00E948B12DC01CB01881999099C
:10333000AA09BB09883E9340A105B10570F321E0BD
:10334000C21AD108E108F10888EE880E83E0981EC1
:10335000A11CB11CC114D104E104F10419F7DDCFA3
:10336000FF90EF90DF90CF90BF90AF909F908F90A5
:1033700008954F925F926F927F928F929F92AF9239
:10338000BF92CF92DF92EF92FF920F931F93CF9352
:10339000DF93CDB7DEB763970FB6F894DEBF0FBEED
:1033A000CDBF7C015B013A01FB0120E080E090E0B1
:1033B0006AE03191332309F140ED430F4A3080F444
:1033C000689FA001699F500D1124CA01C097830F07
:1033D000911D37FD9A958F3F910559F350F313C016
:1033E0003E3289F4233079F0D301A20FB11D129639
:1033F0008C932F5F80E090E0DCCF233021F4F30149
:10340000858381E021C0F701428153816481758108
:103410008091A6039091A703A091A803B091A9035E
:10342000481759076A077B0709F495C10E94B01233
:103430008701085F1F4F6F7077277C5FC8010E946C
:10344000C70C813019F080E090E0F8C181E292E091
:103450009A838983F70182819381A481B5818B83CB
:103460009C83AD83BE8345E350E0BE016F5F7F4F19
:10347000C8010E947B11892B19F4C12CD12C66C183
:103480000E94B012F7017783668376276727762735
:103490007A83698342E050E0BE016F5F7F4FC801CD
:1034A0000E94361181E090E09E878D8742E050E0D7
:1034B000BE01635F7F4FC8010E94361180E091E03A
:1034C0009E878D8742E050E0BE01635F7F4FC80159
:1034D0000E9436111E861D8642E050E0BE01635FE9
:1034E0007F4FC8010E94361142E050E0BE01635F89
:1034F0007F4FC8010E94361142E050E0BE01635F79
:103500007F4FC8010E9436114501F5018081882353
:1035100001F164015601F60181912F01882321F008
:103520008E3211F06201F6CFC818D9081C141D04A0
:1035300074F4CF8641E050E0BE01615F7F4FC80167
:103540000E943611A601B401C8010E943611420141
:10355000DCCF1F8641E050E0BE01615F7F4FC801B4
:103560000E943611C12CDD24D394DE86CD8642E044
:1035700050E0BE01635F7F4FC8010E943611DE86B6
:10358000CD8642E050E0BE01635F7F4FC8010E94DC
:103590003611C8010E945810892B09F46ECFE3E060
:1035A000AE2EB12C230122E0420E511C0E94B0121B
:1035B0003B014C01C8010E94311218161906A4F0F3
:1035C0000E94B012DC01CB0186199709A809B9093C
:1035D00089389341A105B105D0F462E370E080E041
:1035E00090E00E947F19E6CFF70142815381648108
:1035F0007581808D918DA28DB38D481759076A070B
:103600007B0749F4848D958DC59729F409C0CC2496
:10361000CA94DC2C92C05EEFC52EDD24DA948DC0F6
:10362000F70181A192A10C970CF49DC04CE050E0F1
:10363000BE016F5F7F4FC8010E9407108B819C8184
:103640009827892798279A8B898B29813A81322755
:1036500023273227F701468157812417350709F0C0
:103660007DC097FF7BC08F709270892B09F0E1C0FD
:103670006F8078847624672476246114710409F4B9
:10368000D3C0C12CD12C8D819E8198278927982762
:10369000C816D90608F46CC0812C912C41E050E08A
:1036A000BE016D5E7F4FC8010E9407108B89982F65
:1036B000907C09F08FC0811183C042E050E0BE01D0
:1036C000615F7F4FC8010E94071042E050E0BE01D9
:1036D000635F7F4FC8010E940710C8010E94261037
:1036E000C8010E942610C8010E942610C8010E942D
:1036F000261042E050E0BE016F5E7F4FC8010E947D
:1037000007108F8598898115914009F06BC0CD8491
:10371000DE84DC24CD24DC2481E0C816D10409F049
:1037200061C089899A898115944009F078C044E084
:1037300050E0B201C8010E94071081E0A81AB10848
:1037400029F0FFEFCF16DF0609F430CFC8010E9441
:103750004F0CC60173C08EEF9FEF70C04CEFC42EAC
:10376000DD24DA94EACF9DEFC92EDD24DA94E5CF8B
:1037700041E050E0BE01635F7F4FC8010E94071027
:103780008D85882351F08D859FEF980F9D87882325
:1037900021F0C8010E942610F6CF8D858111E8CF57
:1037A000C8010E942610C8010E942610C8010E946C
:1037B0002610C8010E942610FFEFCF1ADF0A63CF40
:1037C0008B899FEF980F9B8B882341F0C8010E9443
:1037D0002610F6CFC8010E9426101B8A8B89811102
:1037E0005DCF6BCFC12CD12C89899A8998278927E5
:1037F0009827C816D90638F4C8010E942610FFEF92
:10380000CF1ADF0AF1CF2FEF821A920A68147904D7
:1038100009F044CF26EFC22EDD24DA948ECF77EF65
:10382000C72EDD24DA9489CF3AEFC32EDD24DA9453
:1038300084CF8BEFC82EDD24DA947FCF63960FB64A
:10384000F894DEBF0FBECDBFDF91CF911F910F91D6
:10385000FF90EF90DF90CF90BF90AF909F908F90B0
:103860007F906F905F904F9008954F925F926F920C
:103870007F928F929F92AF92BF92CF92DF92EF9200
:10388000FF920F931F93CF93DF93CDB7DEB72997A6
:103890000FB6F894DEBF0FBECDBF8C01809105043A
:1038A000909106040E94E60D882309F481C0C0901F
:1038B0000504D090060440E065E5C6010E94B20D03
:1038C0007801580128E0A20EB11CF70161917F0137
:1038D00040E0C6010E94B20DAE14BF04B1F740E053
:1038E0006EEB80910504909106040E94B20DAE012A
:1038F0004F5F5F4F7A015E015AE0A50EB11C2701B0
:10390000809005049090060478E0672E712CD12CED
:10391000CC24C394C4010E945F0D8111DC28CC0C1F
:1039200081E0681A7108B1F7F701D1927F01AE16F4
:10393000BF0631F780910504909106040E94E60DC0
:103940008130B1F568E0C2010E94470D9985891365
:103950002FC02A8130E0A901542F4427550F550F5D
:10396000550F8981F8E08F9FC00111249A01282BFF
:10397000392BF80180818031C9F4688570E08F812E
:10398000AB01481B5109CA019695982F8827979536
:1039900087950E946536CB014097207F53E0220F28
:1039A000331F5A95E1F7820F931F04C0C90102C06B
:1039B00080E894EE29960FB6F894DEBF0FBECDBF17
:1039C000DF91CF911F910F91FF90EF90DF90CF90FB
:1039D000BF90AF909F908F907F906F905F904F902F
:1039E00008958F929F92AF92BF92CF92DF92EF9203
:1039F000FF920F931F93CF93DF937C01A62EE0914C
:103A00000504F0910604138615861486DF011B96C3
:103A100033961E92AE17BF07E1F7B12C882483942A
:103A2000C0910504D09106048D85811163C0CE013B
:103A30000E94E60D882309F45DC040E060EFCE01EE
:103A40000E94B20D01E0C12C912C11E0CE010E9428
:103A50005F0DD82ECE010E945F0D91E0D91203C0F8
:103A60008130B1F434C02C2D30E0D8121BC08B85CE
:103A7000181738F4FE01E20FF31F8381802341F40D
:103A800002C0811729F0D12C193058F41C8709C0C5
:103A9000FE01EC0DF11D8381802B8383DD24D39403
:103AA00009C0912EFE01E20FF31F9381802F8095B4
:103AB000892383836D2DCE010E94830D1F5F000F2C
:103AC00011F4C39401E0E7E0EC1508F0BFCF113426
:103AD00088F09B86911001C08D868B81882351F0E0
:103AE000FE013396D7012B9681918D93EC17FD073C
:103AF000D9F705C01B861D861C8680E010C0AB1060
:103B00000AC067E0C7010E94470DF701978189133A
:103B100002C081E004C0B394AB1478F381CFDF918D
:103B2000CF911F910F91FF90EF90DF90CF90BF90BA
:103B3000AF909F908F9008954F925F926F927F9277
:103B40008F929F92AF92BF92CF92DF92EF92FF92AD
:103B5000CF93DF93CDB7DEB728970FB6F894DEBFCB
:103B60000FBECDBF6B017C0149015A0120E030E05E
:103B700048E852E40E9414342AE939E949E95FE34C
:103B80000E9496322B013C0120E030E044E752E4F1
:103B9000C701B6010E9415349B01AC01C301B201FB
:103BA0000E9415342B013C0122E133E840EC5DE337
:103BB000C501B4010E9496329B01AC01C301B20160
:103BC0000E94153420E030E040E05FE30E9496322E
:103BD0002B013C0120E030E04EE952E40E948A359E
:103BE00018160CF081C1A7019601C701B6010E9409
:103BF00096322B013C01A5019401C501B4010E943C
:103C000096326D837E838F83988721E133E243E090
:103C100050E4C701B6010E94963229E134E849E236
:103C200052E40E94143469837A838B839C8326E157
:103C30003BE442E251E4C501B4010E9496329B018B
:103C4000AC0169817A818B819C810E9415346983E2
:103C50007A838B839C8328E436E246E65EEBC701D9
:103C6000B6010E949632A50194010E9496329B01F2
:103C7000AC0169817A818B819C810E9415346983B2
:103C80007A838B839C8320EE3FE040EE5BEBC301A5
:103C9000B2010E9496329B01AC0169817A818B81CD
:103CA0009C810E94153469837A838B839C8328EFDF
:103CB00037E840E65DEB6D817E818F8198850E94BB
:103CC00096329B01AC0169817A818B819C810E9433
:103CD000153469837A838B839C832CEA3DE041EA27
:103CE0005AE3C301B2010E949632A50194010E94D9
:103CF00096329B01AC0169817A818B819C810E9403
:103D0000153469837A838B839C8328EC3FE84FE5E5
:103D10005AE3C701B6010E9496322D813E814F8140
:103D200058850E9496329B01AC0169817A818B8112
:103D30009C810E94153469837A838B839C8321EF55
:103D40003BE845E056EBC301B2010E9496322D815B
:103D50003E814F8158850E9496329B01AC0169815A
:103D60007A818B819C810E9415342B013C0120E0DB
:103D700030E040E551E4C501B4010E94303287FFD4
:103D80005CC020E030E040EA52E4C701B6010E9486
:103D90008A3587FD52C020E030E040EE52E4C70192
:103DA000B6010E94303218160CF493C0A50194019C
:103DB00060E070E080E591E40E94143420E030E09F
:103DC00040E85EE30E9496324B015C0120E030E067
:103DD0004EEB52E4C701B6010E9414346B017C0122
:103DE00020E030E0A9010E948A3518164CF4A701A2
:103DF000960160E070E088E891E40E94143408C005
:103E000020E030E048E851E4C701B6010E941534D3
:103E10002EE33DEE40E75DE30E9496320E940B36B2
:103E20009B01AC01C501B4010E9496329B01AC011B
:103E3000C301B2010E94143449C020E030E04AEAD4
:103E400052E4C501B4010E948A3518160CF04CC02A
:103E500020E030E040EA52E4C701B6010E948A3512
:103E600087FD42C020E030E04EEA52E4C701B601CF
:103E70000E9430321816C4F120E030E04AEA52E4E1
:103E8000C501B4010E9414342DEC3CEC4CEC5DE314
:103E90000E9496324B015C01A701960160E070E040
:103EA0008EEA92E40E9414342DEC3CEC4CE45EE388
:103EB0000E9496329B01AC01C501B4010E9496326A
:103EC0009B01AC01C301B2010E9415342B013C01DE
:103ED0000BC020E030E04AEA52E4C501B4010E9480
:103EE0008A3518160CF4BECFC301B20128960FB65E
:103EF000F894DEBF0FBECDBFDF91CF91FF90EF9062
:103F0000DF90CF90BF90AF909F908F907F906F90F9
:103F10005F904F9008958F929F92AF92BF92CF92F1
:103F2000DF92EF92FF920F931F93CF93DF93CDB762
:103F3000DEB7C054D1400FB6F894DEBF0FBECDBF80
:103F40008C010E94B012F801C184D284E384F4840D
:103F50009B01AC012C193D094E095F0969017A01E9
:103F600030EDC31637E0D306E104F10410F4818983
:103F7000B9C0F8016187728783879487148213829E
:103F800012821182108262E085810E94A61761E090
:103F900070E080E090E00E947F1961E0F801858187
:103FA0000E94A61760E0F80185810E947717F8014A
:103FB00086818551823028F48BE291E10197F1F7F7
:103FC00006C064E170E080E090E00E947F1962E04A
:103FD000F80185810E94A6178BE990E00197F1F71F
:103FE000F89460E0C8010E94F40C6F3F7F4F8F4F40
:103FF0009F4F21F4F801118A789445C061E0C8010F
:104000000E94F40C6F3F7F4F8F4F9F4F99F39E019B
:104010002F5F3F4F79015E013FEBA31A3EEFB30ADA
:10402000670160E0C8010E94F40CF60160837183AF
:104030008283938361E0C8010E94F40CF6016483DB
:10404000758386839783F8E0CF0ED11CCA14DB04F6
:1040500041F7789420E030E0F70180809180A280E1
:10406000B3804481558166817781FFEF8F169F066B
:10407000AF06BF0631F04F3F8FEF5807680778074C
:1040800021F4F801118A80E02DC0F90183E0F59553
:10409000E7958A95E1F7E00FF11F8081880F84167C
:1040A0009506A606B70608F4816080832F5F3F4F10
:1040B000F8E0EF0EF11C2832310571F6F801248189
:1040C00030E04081818190E0840F911D4281840F16
:1040D000911D4381840F911D99272817390789F66F
:1040E00081E0818BC05CDE4F0FB6F894DEBF0FBE5F
:1040F000CDBFDF91CF911F910F91FF90EF90DF9097
:10410000CF90BF90AF909F908F900895CF92DF9205
:10411000EF92FF92CF93DF93EC010E948B1F8823D5
:1041200099F18E818B3080F18D3098F085518230FD
:1041300058F56881798176276727762780E090E0B7
:104140000E9435322DEC3CEC4CEC5DE30E94963243
:104150001FC0698170E080E090E00E9437322DEC52
:104160003CEC4CEC5DE30E9496326B017C01688173
:1041700070E080E090E00E9437329B01AC01C70103
:10418000B6010E94153404C060E070E080EC9FE747
:10419000DF91CF91FF90EF90DF90CF900895CF9275
:1041A000DF92EF92FF921F93CF93DF93EC010E9477
:1041B0008B1F8823D9F18E818B30C0F18D30B0F008
:1041C0008551823098F51A81612F6F7770E0762FD4
:1041D00066278B81682B80E090E00E9435322DECC1
:1041E0003CEC4CEC5DE30E9496321CC01A816B8162
:1041F0006F7070E080E090E00E9437322DEC3CEC74
:104200004CEC5DE30E9496326B017C01612F70E003
:1042100080E090E00E9435329B01AC01C701B601FD
:104220000E94153417FF06C0905804C060E070E08B
:1042300080EC9FE7DF91CF911F91FF90EF90DF908F
:10424000CF900895CF93DF93BC018AEA93E00E9458
:10425000D718EC0166E772E08AEA93E00E94D7186B
:104260008C0F9D1FDF91CF910895CF93C82F462FBC
:1042700061E070E00E94DB0A61E070E08C2F0E9438
:10428000E50A8111F9CFCF91089520E5FC01208343
:10429000118208951F93CF93DF9300D0CDB7DEB77F
:1042A0006CE271E080E090E00E947F191FB7F89403
:1042B0008091C704811127C0EEE3F4E08491E2E528
:1042C000F4E09491E82FF0E0EE0FFF1FEA54FB4F6B
:1042D000A591B491EC91E92321F461E08AE00E9478
:1042E000771761E08AE00E94A6178CB580618CBDCB
:1042F0008CB580648CBD61E08DE00E94A61761E002
:104300008BE00E94A6178091C7048F5F8093C7043B
:104310001FBF229ACE0101960E94452189819A8170
:104320000E944E0B60E880E090E00E94C00A65E5C4
:104330008BE190E00E94C00A65E58AE190E00E946E
:10434000C00A0E944D0B80E090E49093B8048093E3
:10435000B70480E090E69093C0048093BF0480E0AF
:1043600098E49093BA048093B90480E098E690931F
:10437000C2048093C10480E090E59093BC048093D4
:10438000BB0480E090E79093C4048093C30480E072
:1043900098E59093BE048093BD0480E098E79093E5
:1043A000C6048093C5040F900F90DF91CF911F91A9
:1043B00008951F93CF93DF93CDB7DEB7C454D109CF
:1043C0000FB6F894DEBF0FBECDBFFC018281938192
:1043D000A481B58123968CAF9DAFAEAFBFAF2397BD
:1043E00011E023961FAF239723964CAD5DAD6EADC4
:1043F0007FAD23974BAB5CAB6DAB7EAB8DA79EA720
:10440000AFA7B8AB18AB4DA55EA56FA578A94FA314
:1044100058A769A77AA71EAB4BA95CA96DA97EA96D
:1044200049A35AA36BA37CA321E232E03C8B2B8BE4
:104430004FEF4D8B4E8B4F8B188E3E872D871AA7D3
:104440004FA158A569A57AA54F87588B698B7A8BA0
:104450001CA349A15AA16BA17CA149875A876B87EC
:104460007C873A8329838B839C83AD83BE830E94A0
:104470004A21CE018D5B9F4F0E94452125968EAD2E
:104480009FAD25970E944E0B46E050E063EC73E031
:1044900089E090E00E94910ACE0103960E947E1569
:1044A00044E050E0BE01615F7F4F81E090E00E94F8
:1044B000910A44E050E0BE016B5E7F4F85E090E0E2
:1044C0000E94910A0E944D0B1C8789859A85AB85B5
:1044D000BC8580939E0390939F03A093A003B09309
:1044E000A103CC5BDF4F0FB6F894DEBF0FBECDBF8C
:1044F000DF91CF911F910895AF92BF92CF92DF923B
:10450000EF92FF920F931F93CF93DF9300D0CDB71D
:10451000DEB77A836983BA01A901E981FA81F7706C
:10452000082F10E0000F111F01541B4FD8018D916F
:104530009C918E0F9F1F9F01240F351F2130384003
:10454000A0F07A015B0160E078E06B01CE1ADF0A2F
:10455000A601B5010E94610AA7014C195D09B501C8
:104560006C0D7D1DF801808191810F900F90DF917E
:10457000CF911F910F91FF90EF90DF90CF90BF9060
:10458000AF900C94610A9F92AF92BF92CF92DF924C
:10459000EF92FF920F931F93CF93DF93982E8B018F
:1045A0005A01690164E270E00E94E50AE82EF12CEC
:1045B00065E270E0892D0E94E50AFE2CEE24E82ACF
:1045C000E801CE0DDF1D9E013770E92CF12CC701EB
:1045D000880F991FAC0149545B4F7A01FA01808121
:1045E0009181820F931FA9014C0D5D1D41305840F0
:1045F00090F000E018E0021B130BA801B5010E9427
:10460000910AA601401B510BB501600F711FF70104
:104610008081918102C0A601B5010E94910ACC0D52
:10462000DD1D4D2F64E270E0892D0E94DB0A4C2FC6
:1046300065E270E0892DDF91CF911F910F91FF907E
:10464000EF90DF90CF90BF90AF909F900C94DB0ADB
:10465000FF920F931F93CF93DF93F82E00E010E0AB
:104660008F2D0E941B0BEC01892B21F08F2D0E94B6
:104670001B0B8C01C017D10799F7CE01DF91CF91A9
:104680001F910F91FF90089520E3FC012083329643
:10469000862F82958F7090E1899F601911246A306E
:1046A00014F4605D01C0695C6293682F8111F0CFE2
:1046B00008952F923F924F925F926F927F928F92C6
:1046C0009F92AF92BF92CF92DF92EF92FF920F93A1
:1046D0001F93CF93DF93CDB7DEB7E2970FB6F89471
:1046E000DEBF0FBECDBF7C012A013B0169010E94E4
:1046F000B0124B015C0187010D5B1F4FC8010E9486
:10470000311218161906A4F00E94B012DC01CB0178
:1047100088199909AA09BB09481659066A067B0631
:10472000D8F062E370E080E090E00E947F19E6CF6D
:1047300042E250E0BE016F5F7F4FC8010E94071048
:104740008981823011F080E060C1F8018489958907
:1047500083349105C1F702C08FEF57C16D817E810F
:104760008F8198850E9479364B015C01F601608348
:1047700071838283938346E050E0B701685F7F4F87
:10478000CE014D960E946537892BE9F6F7018081AD
:104790009181A281B38188169906AA06BB0698F278
:1047A00084819581A681B78188159905AA05BB05E5
:1047B00050F289899A89AB89BC8986879787A08BB3
:1047C000B18B8EECC82ED12CC8010E942610F1E0CE
:1047D000CF1AD108C9F7712CC70182969AA789A769
:1047E000F701B696FCA7EBA708969EA78DA73C9766
:1047F0004F01899698AB8FA73897FAABE9AB1701B1
:10480000F6E12F0E311C27018EE1480E511CF801F4
:10481000818D928D181619060CF0F6C0C8010E9401
:1048200026108333910509F4C9C0F4F48130910551
:10483000B9F11CF4892B59F3DBC083309105C1F128
:10484000069709F0D5C0C8010E9426106C0144E00B
:1048500050E0B201C8010E940710A12CB12CDD2448
:1048600094E0C91AD1083FC08A33910509F47AC08F
:104870003CF48533910561F0C69709F43FC0B8C098
:104880008B33910509F484C08F3F910501F2B0C0CC
:10489000C8010E942610C8010E942610782EB7CFAA
:1048A000C8010E94261044E050E069A97AA93AC0E4
:1048B000C8010E9426106C0144E050E0B101C8011B
:1048C0000E940710A12CB12CDD24F4E0CF1AD108EE
:1048D000AC14BD040CF09BCFC8010E9426108FEFD2
:1048E000A81AB80AF5CFAC14BD040CF090CFC801DB
:1048F0000E942610EFEFAE1ABE0AF5CFC8010E9443
:104900002610682EF701828D811110C0838D8111D0
:104910000DC0848D81110AC0858D811107C044E0CE
:1049200050E0B401C8010E94071071CFEFA5F8A9AB
:10493000A080B180C280D380B401CE0183960E9452
:10494000E2178DA19EA1AFA1B8A5A816B906CA0607
:10495000DB0629F3662009F45ACFC8010E9426100D
:104960006A94F8CFC8010E94261044E050E06BA57D
:104970007CA5C8010E940710F70166A177A180A558
:1049800091A50E94793666A377A380A791A73FCF10
:10499000C8010E94261044E050E06DA57EA5C80124
:1049A0000E940710F70162A573A584A595A50E9432
:1049B000793662A773A784A795A729CFC8010E945B
:1049C000261044E050E069A57AA5C8010E940710AE
:1049D000F70162A173A184A195A10E94793662A317
:1049E00073A384A395A366A777A780AB91AB0FCFE2
:1049F000C8010E942610D82EDD2009F408CFC80176
:104A00000E942610DA94F8CF872DE2960FB6F8941C
:104A1000DEBF0FBECDBFDF91CF911F910F91FF90F1
:104A2000EF90DF90CF90BF90AF909F908F907F904E
:104A30006F905F904F903F902F90089585ED8093F9
:104A4000BC008091BC0084FDFCCF10923F03089510
:104A500040913E03262F30E0240F311D21323105D5
:104A6000DCF420913F032430C9F4FC0180E090E0A5
:104A7000861758F430913E032191DC01A25EBC4FB1
:104A8000A30FB11D2C930196F3CF80913E03680FC5
:104A900060933E0380E0089581E0089582E00895E8
:104AA0000C945C330C945433CF93DF93CBE4D1E07C
:104AB000688180E090E00E945025698181E090E06B
:104AC0000E9450256A8182E090E00E9450256B810F
:104AD00083E090E00E9450256C8184E090E00E9489
:104AE00050256D8185E090E00E94502560EC86E0C5
:104AF00090E00E94502568EA87E090E00E945025EF
:104B000060E088E090E00E9450256BE589E090E04D
:104B1000DF91CF910C9450251F93CF93DF9381E2C7
:104B200092E0909314048093130410921504109251
:104B30001604109217041092180490931A0480938C
:104B4000190410921B0410921C0410921D04109260
:104B50001E049093200480931F041092210410924D
:104B6000220410922304109224049093260480932C
:104B70002504109227041092280410922904109200
:104B80002A0490939D0380939C0310929E0310929D
:104B90009F031092A0031092A10390932C04809382
:104BA0002B0410922D0410922E0410922F041092B8
:104BB00030049093A5038093A4031092A60310924F
:104BC000A7031092A8031092A90310923404109224
:104BD000330448EE53E060E070E0409335045093B6
:104BE000360460933704709338042FE931E0309332
:104BF00032042093310490934C0480934B04109220
:104C00004D0410924E0410924F041092500480E80C
:104C100092E0082E000C990B9093AD048093AC04A5
:104C20008EE892E0082E000C990B9093AF048093CD
:104C3000AE0460E082E00E94A617EAE4F4E0E491AA
:104C4000E0933D04E6E3F4E0E491F0E0EE0FFF1FB3
:104C5000E65DFB4F8591949190933F0480933E04D1
:104C60001092480410924A0410924904E8E4F4E0D7
:104C7000129284E0E034F807D9F78DE394E0909342
:104C80000604809305041092030410920404109209
:104C9000FF0389E08093000481E080930104809306
:104CA0000204109212041092110483E08093F20324
:104CB00026E12093F303EBE4F4E0E491E093F403C2
:104CC000E7E3F4E0E491E093F50380E89EE3A0E0FD
:104CD000B0E08093FA039093FB03A093FC03B0939E
:104CE000FD0332E13093E0032093E103EAE5F4E0D1
:104CF000E491E093E203E6E4F4E0E491E093E3037B
:104D00008093E8039093E903A093EA03B093EB0345
:104D100033E13093CE032093CF03EBE5F4E0E4914D
:104D2000E093D003E7E4F4E0E491E093D1038093CF
:104D3000D6039093D703A093D803B093D90380E010
:104D400090E00E9452258093C30381E090E00E948E
:104D500052258093C40382E090E00E945225809304
:104D6000C50383E090E00E9452258093C60384E04F
:104D700090E00E9452258093C70385E090E00E9456
:104D800052258093C80389E090E00E945225C82FE5
:104D900088E090E00E945225D82F87E090E00E94A2
:104DA0005225182F86E090E00E94522521E232E041
:104DB0003093BE032093BD038093BF031093C003C1
:104DC000D093C103C093C2031092BA031092B903E7
:104DD00087E092E09093B8038093B70380E590E07A
:104DE0009093BC038093BB031092AD031092AC036D
:104DF00088EE93E0A0E0B0E08093AE039093AF0321
:104E0000A093B003B093B10381EE91E09093AB0314
:104E10008093AA0384E08093B603DF91CF911F9122
:104E20000895CF93DF93CDB7DEB72A970FB6F894E6
:104E3000DEBF0FBECDBF789484B5826084BD84B5DB
:104E4000816084BD85B5826085BD85B5816085BD85
:104E500080916E00816080936E001092810080913D
:104E600081008260809381008091810081608093C5
:104E70008100809180008160809380008091B100EA
:104E800084608093B1008091B00081608093B00015
:104E900080917A00846080937A0080917A008260A9
:104EA00080937A0080917A00816080937A0080916B
:104EB0007A00806880937A001092C10081E080932C
:104EC0004A010DE511E079E6C72E71E0D72ED80131
:104ED000FC900E5F1F4F61E08F2D0E94A61760E0CF
:104EE0008F2D0E947717C016D10689F780E090E0D9
:104EF0000E9452258F3F09F01AC20E9454258091CA
:104F0000AF04811107C084E994E00E94DC0981E0CC
:104F10008093AF0481E594E09093A3038093A20370
:104F20000E944A21CE0101960E94452189819A81E1
:104F30000E944E0B46E050E06BE471E089E090E0A7
:104F40000E94910A81E292E09A8389831B821C82EB
:104F50001D821E82CE0103960E947E150E944D0B7B
:104F60000091A2031091A303F80112A213A214A2AC
:104F700015A216A217A210A611A612A613A614A671
:104F800015A680E69AEEA0E0B0E086AB97ABA0AFA6
:104F9000B1AF80EA9FE0A0E0B0E082AF93AFA4AFF2
:104FA000B5AF3E9684E1DF011D928A95E9F786E070
:104FB000EBE4F1E0D801189601900D928A95E1F7A3
:104FC000F801EE5BFF4FFA87E98710820E94182EE6
:104FD0002FEC37E040E050E00E949C33DC01CB0135
:104FE0000196A11DB11DF80184839583A683B78323
:104FF00080839183A283B3835801F3E4AF0EB11C85
:10500000C5010E944F0C64E470E0C5010E94C70C0A
:10501000882309F4B0C10E94B0122B013C01812CFD
:10502000912C58EEC52E53E0D52EE12CF12C62E0E8
:10503000262EA985BA858C91833009F404C181118B
:1050400020C0F80184819581A681B7810196A11DB8
:10505000B11D84839583A683B7830E94B01264191F
:10506000750986099709A70196010E947A33A9015B
:1050700061E0C8010E94461681E0A985BA858C933B
:10508000CAC08430F9F4F80184819581A681B78182
:105090000196A11DB11D84839583A683B7830E94C9
:1050A000B0126419750986099709A70196010E9433
:1050B0007A33A90163E0C8010E944616A985BA8522
:1050C0002C92A9C0813059F5F80142AD53AD64ADC1
:1050D00075AD9E012F5F3F4FC8010E945923382EA6
:1050E000F2E08F1392C089819A81AB81BC81F80173
:1050F00084839583A683B7830E94B01264197509CF
:1051000086099709A70196010E947A33A90163E0F5
:10511000C8010E944616A985BA853C927CC082309F
:1051200009F079C0F80142AD53AD64AD75AD9E0193
:105130002F5F3F4FC8010E945923382EF5E08F138F
:105140005DC0E3E0A985BA85EC93F80182A193A143
:10515000A4A1B5A1892B8A2B8B2B41F484E893E081
:10516000A0E0B0E082A393A3A4A3B5A3F80186A115
:1051700097A1A0A5B1A5892B8A2B8B2B61F482A1C5
:1051800093A1A4A1B5A1B695A7959795879586A358
:1051900097A3A0A7B1A7F80182A593A5A4A5B5A53B
:1051A000892B8A2B8B2BA9F482A193A1A4A1B5A151
:1051B000AC01BD0133E076956795579547953A95D3
:1051C000D1F7841B950BA60BB70B82A793A7A4A7B7
:1051D000B5A7F80186A197A1A0A5B1A586A797A715
:1051E000A0ABB1AB82A593A5A4A5B5A582AB93ABAB
:1051F000A4ABB5AB88248394912C0DC0F6E08F133B
:1052000004C0A985BA851C9206C0BFEF3B1203C03B
:10521000E985FA851082F1E08F16910409F409CF2F
:105220000E94B012DC01CB0184199509A609B709C7
:10523000F80126A937A940AD51AD281739074A070B
:105240005B0708F0F6CEC5010E944F0CF80184817F
:105250009581A681B7810196A11DB11D8483958397
:10526000A683B7830E94B012F801FE966083718313
:1052700082839383F1E08F16910409F055C0CE012B
:1052800001960E94452189819A810E944E0B60916E
:10529000A2037091A303625F7F4FCE0101960E942B
:1052A000E217CE0103960E947E156091A2037091D1
:1052B000A3036A5E7F4FCE0101960E94E21744E08D
:1052C00050E0BE016D5F7F4F81E090E00E94910A47
:1052D0006091A2037091A3036E5E7F4FCE01019691
:1052E0000E94E21744E050E0BE016D5F7F4F85E011
:1052F00090E00E94910A0E944D0B6091A203709170
:10530000A303625E7F4FCE0101960E94E2178B815C
:105310009C81AD81BE8180939E0390939F03A09357
:10532000A003B093A10317C08928A9F424C081E287
:1053300092E09A8389838091BF039091C003A091EA
:10534000C103B091C2038B839C83AD83BE83CE0126
:1053500001960E94D92187EB93E00E940E138DEEF7
:1053600093E00E94310D8BED93E00E94310D89ECAA
:1053700093E00E94310D14E661E08DE00E94771702
:1053800080910504909106040E94E60D40E06CECCB
:1053900080910504909106040E94B20D4091FF0394
:1053A00064E480910504909106040E94B20D8091FE
:1053B00001048823E9F1E0910004E950E33040F46E
:1053C000F0E0EE0FFF1FE75DFD4FC080D18004C00D
:1053D0008EEEC82E82E0D82E80910204882311F12F
:1053E0008091FF0381111EC00E94B0124B015C012D
:1053F0000D2C000CEE08FF08809105049091060426
:105400000E945F0D8130A1F00E94B012DC01CB013F
:105410008C199D09AE09BF0988159905AA05BB0518
:1054200058F306C0B601DD0C880B990B0E947F195A
:1054300060E0CE0101960E94F11C811105C06AE96D
:1054400079E984E493EC1AC0CE0101960E94351CE0
:10545000813824EE92079CF3BC01990F880B990BBD
:105460000E94373226E636E646E65CE30E94963234
:1054700020E030E040E052E40E9415346093AA023C
:105480007093AB028093AC029093AD0261E0CE01C9
:1054900001960E94F11C811105C06AE979E984E452
:1054A00093EC1AC0CE0101960E94351C813834EE6F
:1054B00093079CF3BC01990F880B990B0E9437321C
:1054C00026E636E646E65CE30E94963220E030E0CF
:1054D00040E052E40E9415346093A6027093A70244
:1054E0008093A8029093A9028DEE93E00E94CF20B2
:1054F0006B017C019B01AC010E944B36882319F0A3
:10550000C12CD12C7601C092DA02D092DB02E0925B
:10551000DC02F092DD0226E636E646EE5FE3C701E6
:10552000B6010E94963220E030E040E052E40E9452
:1055300015346B017C019B01AC010E944B36882322
:1055400019F0C12CD12C7601C092DE02D092DF027C
:10555000E092E002F092E1028DEE93E00E9486205C
:105560006B017C019B01AC010E944B36882319F032
:10557000C12CD12C7601C092D602D092D702E092F3
:10558000D802F092D9026091DE027091DF02809120
:10559000E0029091E102A70196010E949C1D6B011F
:1055A0007C019B01AC010E944B36882319F0C12C71
:1055B000D12C7601C092D202D092D302E092D402D2
:1055C000F092D5028BED93E00E94CF206B017C011D
:1055D0009B01AC010E944B36882319F0C12CD12CC1
:1055E0007601C092CA02D092CB02E092CC02F09235
:1055F000CD0226E636E646EE5FE3C701B6010E941D
:10560000963220E030E040E052E40E9415346B0115
:105610007C019B01AC010E944B36882319F0C12C00
:10562000D12C7601C092CE02D092CF02E092D0026D
:10563000F092D1028BED93E00E9486206B017C01F9
:105640009B01AC010E944B36882319F0C12CD12C50
:105650007601C092C602D092C702E092C802F092D0
:10566000C9026091CE027091CF028091D0029091D8
:10567000D102A70196010E949C1D6B017C019B0138
:10568000AC010E944B36882319F0C12CD12C760135
:10569000C092C202D092C302E092C402F092C5024C
:1056A00089EC93E00E94CF206B017C019B01AC014F
:1056B0000E944B36882319F0C12CD12C7601C09260
:1056C000BA02D092BB02E092BC02F092BD0226E682
:1056D00036E646EE5FE3C701B6010E94963220E04F
:1056E00030E040E052E40E9415346B017C019B01E4
:1056F000AC010E944B36882319F0C12CD12C7601C5
:10570000C092BE02D092BF02E092C002F092C102EB
:1057100089EC93E00E9486206B017C019B01AC0127
:105720000E944B36882319F0C12CD12C7601C092EF
:10573000B602D092B702E092B802F092B90260913C
:10574000BE027091BF028091C0029091C102A70178
:1057500096010E949C1D6B017C019B01AC010E9483
:105760004B36882319F0C12CD12C7601C092B2029D
:10577000D092B302E092B402F092B50281E10E94AD
:10578000BA1890939D0280939C02C090DA02D09048
:10579000DB02E090DC02F090DD0220E030E040EF40
:1057A00050E4C701B6010E9496324B015C012DEC1A
:1057B0003CE44DE653E4C701B6010E9415349B0159
:1057C000AC01C501B4010E9481340E94FB3426ED76
:1057D00036E54CE15FE30E9496326B017C0120E0EC
:1057E00030E048EC52E46091D6027091D70280918B
:1057F000D8029091D9020E948134A70196010E949B
:105800009632A70196010E9414346093AE02709301
:10581000AF028093B0029093B1028EE00E94BA185A
:10582000BC01990F880B990B0E94373220E030E4BD
:105830004CE950E40E9496326B017C0120E030E09C
:10584000A9010E943032882371F120E030E048EC59
:1058500053E4C701B6010E94303287FD24C020E026
:1058600030E048EC53E4C701B6010E9414340E94B2
:105870002D35072E000C880B990B0E94373220E043
:1058800030E048E452E40E94963220E030E040E804
:105890005DE30E9496326093A2027093A30280930C
:1058A000A4029093A5028FE00E94BA18DC011A9F0F
:1058B000C0011B9F900D112497FF02C081509C4F87
:1058C000892F880F880B959595959093A0028093CA
:1058D000A10280E10E94BA18FC011E9FC0011F9F17
:1058E000900D112497FF02C081509C4F892F880F83
:1058F000880B9595959590939E0280939F020E94A8
:105900008B0260E08DE00E94771760ED77E080E029
:1059100090E00E947F1930CDEF920F931F93CF93A9
:10592000DF93E80147FD02C034E001C034E1042EFA
:10593000000C550B57FF03C0519541955109E32EBB
:10594000022F242FAE010E94EB2FCE01DF91CF91C9
:105950001F910F91EF9008950F931F93CF93DF93B3
:105960008230910510F482E090E0E091CC04F09157
:10597000CD0420E030E0A0E0B0E0309719F14081A4
:1059800051810281138148175907C8F08417950780
:1059900069F4109731F012960C93129713961C939A
:1059A00027C00093CC041093CD0422C021153105EB
:1059B00019F04217530718F49A01BD01EF01DF01F6
:1059C000F801DBCF21153105F9F0281B390B243004
:1059D000310580F48A819B816115710521F0FB01FD
:1059E0009383828304C09093CD048093CC04FE0102
:1059F000329644C0FE01E20FF31F8193919322502F
:105A00003109398328833AC02091CA043091CB04EC
:105A1000232B41F420915301309154013093CB0456
:105A20002093CA0420915101309152012115310572
:105A300041F42DB73EB74091550150915601241BBA
:105A4000350BE091CA04F091CB04E217F307A0F400
:105A50002E1B3F0B2817390778F0AC014E5F5F4FC4
:105A60002417350748F04E0F5F1F5093CB04409327
:105A7000CA048193919302C0E0E0F0E0CF01DF918E
:105A8000CF911F910F910895CF93DF93009709F461
:105A900081C0FC01329713821282A091CC04B09194
:105AA000CD04109781F420813181820F931F2091C2
:105AB000CA043091CB042817390751F5F093CB0471
:105AC000E093CA0467C0ED0120E030E0CE17DF07A5
:105AD00040F44A815B819E0141155105F1F0EA01D4
